{
	"contracts/Voting.sol": {
		"Voting": {
			"abi": [
				{
					"anonymous": false,
					"inputs": [
						{
							"indexed": false,
							"internalType": "address",
							"name": "voters",
							"type": "address"
						},
						{
							"indexed": false,
							"internalType": "string",
							"name": "addr",
							"type": "string"
						}
					],
					"name": "Voted",
					"type": "event"
				},
				{
					"inputs": [
						{
							"internalType": "uint256",
							"name": "",
							"type": "uint256"
						}
					],
					"name": "allUsers",
					"outputs": [
						{
							"internalType": "string",
							"name": "",
							"type": "string"
						}
					],
					"stateMutability": "view",
					"type": "function"
				},
				{
					"inputs": [
						{
							"internalType": "string",
							"name": "addr",
							"type": "string"
						}
					],
					"name": "getVotes",
					"outputs": [
						{
							"internalType": "uint256",
							"name": "",
							"type": "uint256"
						}
					],
					"stateMutability": "view",
					"type": "function"
				},
				{
					"inputs": [],
					"name": "resetVotes",
					"outputs": [],
					"stateMutability": "nonpayable",
					"type": "function"
				},
				{
					"inputs": [
						{
							"internalType": "string",
							"name": "addr",
							"type": "string"
						}
					],
					"name": "vote",
					"outputs": [],
					"stateMutability": "nonpayable",
					"type": "function"
				},
				{
					"inputs": [
						{
							"internalType": "string",
							"name": "",
							"type": "string"
						}
					],
					"name": "votesMap",
					"outputs": [
						{
							"internalType": "uint256",
							"name": "",
							"type": "uint256"
						}
					],
					"stateMutability": "view",
					"type": "function"
				}
			],
			"devdoc": {
				"kind": "dev",
				"methods": {},
				"version": 1
			},
			"evm": {
				"assembly": "    /* \"contracts/Voting.sol\":58:1109  contract Voting {... */\n  mstore(0x40, 0x80)\n  callvalue\n  dup1\n  iszero\n  tag_1\n  jumpi\n  revert(0x00, 0x00)\ntag_1:\n  pop\n  dataSize(sub_0)\n  dup1\n  dataOffset(sub_0)\n  0x00\n  codecopy\n  0x00\n  return\nstop\n\nsub_0: assembly {\n        /* \"contracts/Voting.sol\":58:1109  contract Voting {... */\n      mstore(0x40, 0x80)\n      callvalue\n      dup1\n      iszero\n      tag_1\n      jumpi\n      revert(0x00, 0x00)\n    tag_1:\n      pop\n      jumpi(tag_2, lt(calldatasize, 0x04))\n      shr(0xe0, calldataload(0x00))\n      dup1\n      0x440cd69a\n      eq\n      tag_3\n      jumpi\n      dup1\n      0x805265e5\n      eq\n      tag_4\n      jumpi\n      dup1\n      0xa2bdedf4\n      eq\n      tag_5\n      jumpi\n      dup1\n      0xb9830ff1\n      eq\n      tag_6\n      jumpi\n      dup1\n      0xfc36e15b\n      eq\n      tag_7\n      jumpi\n    tag_2:\n      revert(0x00, 0x00)\n        /* \"contracts/Voting.sol\":85:127  mapping(string => uint256) public votesMap */\n    tag_3:\n      tag_8\n      0x04\n      dup1\n      calldatasize\n      sub\n      dup2\n      add\n      swap1\n      tag_9\n      swap2\n      swap1\n      tag_10\n      jump\t// in\n    tag_9:\n      tag_11\n      jump\t// in\n    tag_8:\n      mload(0x40)\n      tag_12\n      swap2\n      swap1\n      tag_13\n      jump\t// in\n    tag_12:\n      mload(0x40)\n      dup1\n      swap2\n      sub\n      swap1\n      return\n        /* \"contracts/Voting.sol\":497:605  function getVotes(string memory addr) public view returns (uint256) {... */\n    tag_4:\n      tag_14\n      0x04\n      dup1\n      calldatasize\n      sub\n      dup2\n      add\n      swap1\n      tag_15\n      swap2\n      swap1\n      tag_10\n      jump\t// in\n    tag_15:\n      tag_16\n      jump\t// in\n    tag_14:\n      mload(0x40)\n      tag_17\n      swap2\n      swap1\n      tag_13\n      jump\t// in\n    tag_17:\n      mload(0x40)\n      dup1\n      swap2\n      sub\n      swap1\n      return\n        /* \"contracts/Voting.sol\":133:157  string[] public allUsers */\n    tag_5:\n      tag_18\n      0x04\n      dup1\n      calldatasize\n      sub\n      dup2\n      add\n      swap1\n      tag_19\n      swap2\n      swap1\n      tag_20\n      jump\t// in\n    tag_19:\n      tag_21\n      jump\t// in\n    tag_18:\n      mload(0x40)\n      tag_22\n      swap2\n      swap1\n      tag_23\n      jump\t// in\n    tag_22:\n      mload(0x40)\n      dup1\n      swap2\n      sub\n      swap1\n      return\n        /* \"contracts/Voting.sol\":613:750  function resetVotes() public {... */\n    tag_6:\n      tag_24\n      tag_25\n      jump\t// in\n    tag_24:\n      stop\n        /* \"contracts/Voting.sol\":211:490  function vote(string memory addr) public {... */\n    tag_7:\n      tag_26\n      0x04\n      dup1\n      calldatasize\n      sub\n      dup2\n      add\n      swap1\n      tag_27\n      swap2\n      swap1\n      tag_10\n      jump\t// in\n    tag_27:\n      tag_28\n      jump\t// in\n    tag_26:\n      stop\n        /* \"contracts/Voting.sol\":85:127  mapping(string => uint256) public votesMap */\n    tag_11:\n      0x00\n      dup2\n      dup1\n      mload\n      0x20\n      dup2\n      add\n      dup3\n      add\n      dup1\n      mload\n      dup5\n      dup3\n      mstore\n      0x20\n      dup4\n      add\n      0x20\n      dup6\n      add\n      keccak256\n      dup2\n      dup4\n      mstore\n      dup1\n      swap6\n      pop\n      pop\n      pop\n      pop\n      pop\n      pop\n      0x00\n      swap2\n      pop\n      swap1\n      pop\n      sload\n      dup2\n      jump\t// out\n        /* \"contracts/Voting.sol\":497:605  function getVotes(string memory addr) public view returns (uint256) {... */\n    tag_16:\n        /* \"contracts/Voting.sol\":556:563  uint256 */\n      0x00\n        /* \"contracts/Voting.sol\":584:592  votesMap */\n      0x00\n        /* \"contracts/Voting.sol\":593:597  addr */\n      dup3\n        /* \"contracts/Voting.sol\":584:598  votesMap[addr] */\n      mload(0x40)\n      tag_30\n      swap2\n      swap1\n      tag_31\n      jump\t// in\n    tag_30:\n      swap1\n      dup2\n      mstore\n      0x20\n      add\n      mload(0x40)\n      dup1\n      swap2\n      sub\n      swap1\n      keccak256\n      sload\n        /* \"contracts/Voting.sol\":577:598  return votesMap[addr] */\n      swap1\n      pop\n        /* \"contracts/Voting.sol\":497:605  function getVotes(string memory addr) public view returns (uint256) {... */\n      swap2\n      swap1\n      pop\n      jump\t// out\n        /* \"contracts/Voting.sol\":133:157  string[] public allUsers */\n    tag_21:\n      0x01\n      dup2\n      dup2\n      sload\n      dup2\n      lt\n      tag_32\n      jumpi\n      0x00\n      dup1\n      revert\n    tag_32:\n      swap1\n      0x00\n      mstore\n      keccak256(0x00, 0x20)\n      add\n      0x00\n      swap2\n      pop\n      swap1\n      pop\n      dup1\n      sload\n      tag_34\n      swap1\n      tag_35\n      jump\t// in\n    tag_34:\n      dup1\n      0x1f\n      add\n      0x20\n      dup1\n      swap2\n      div\n      mul\n      0x20\n      add\n      mload(0x40)\n      swap1\n      dup2\n      add\n      0x40\n      mstore\n      dup1\n      swap3\n      swap2\n      swap1\n      dup2\n      dup2\n      mstore\n      0x20\n      add\n      dup3\n      dup1\n      sload\n      tag_36\n      swap1\n      tag_35\n      jump\t// in\n    tag_36:\n      dup1\n      iszero\n      tag_37\n      jumpi\n      dup1\n      0x1f\n      lt\n      tag_38\n      jumpi\n      0x0100\n      dup1\n      dup4\n      sload\n      div\n      mul\n      dup4\n      mstore\n      swap2\n      0x20\n      add\n      swap2\n      jump(tag_37)\n    tag_38:\n      dup3\n      add\n      swap2\n      swap1\n      0x00\n      mstore\n      keccak256(0x00, 0x20)\n      swap1\n    tag_39:\n      dup2\n      sload\n      dup2\n      mstore\n      swap1\n      0x01\n      add\n      swap1\n      0x20\n      add\n      dup1\n      dup4\n      gt\n      tag_39\n      jumpi\n      dup3\n      swap1\n      sub\n      0x1f\n      and\n      dup3\n      add\n      swap2\n    tag_37:\n      pop\n      pop\n      pop\n      pop\n      pop\n      dup2\n      jump\t// out\n        /* \"contracts/Voting.sol\":613:750  function resetVotes() public {... */\n    tag_25:\n        /* \"contracts/Voting.sol\":656:662  uint i */\n      0x00\n        /* \"contracts/Voting.sol\":665:666  0 */\n      0x00\n        /* \"contracts/Voting.sol\":656:666  uint i = 0 */\n      swap1\n      pop\n        /* \"contracts/Voting.sol\":652:744  for(uint i = 0; i < allUsers.length; i++) {... */\n    tag_41:\n        /* \"contracts/Voting.sol\":672:680  allUsers */\n      0x01\n        /* \"contracts/Voting.sol\":672:687  allUsers.length */\n      dup1\n      sload\n      swap1\n      pop\n        /* \"contracts/Voting.sol\":668:669  i */\n      dup2\n        /* \"contracts/Voting.sol\":668:687  i < allUsers.length */\n      lt\n        /* \"contracts/Voting.sol\":652:744  for(uint i = 0; i < allUsers.length; i++) {... */\n      iszero\n      tag_42\n      jumpi\n        /* \"contracts/Voting.sol\":732:733  0 */\n      0x00\n        /* \"contracts/Voting.sol\":708:716  votesMap */\n      0x00\n        /* \"contracts/Voting.sol\":717:725  allUsers */\n      0x01\n        /* \"contracts/Voting.sol\":726:727  i */\n      dup4\n        /* \"contracts/Voting.sol\":717:728  allUsers[i] */\n      dup2\n      sload\n      dup2\n      lt\n      tag_44\n      jumpi\n      tag_45\n      tag_46\n      jump\t// in\n    tag_45:\n    tag_44:\n      swap1\n      0x00\n      mstore\n      keccak256(0x00, 0x20)\n      add\n        /* \"contracts/Voting.sol\":708:729  votesMap[allUsers[i]] */\n      mload(0x40)\n      tag_48\n      swap2\n      swap1\n      tag_49\n      jump\t// in\n    tag_48:\n      swap1\n      dup2\n      mstore\n      0x20\n      add\n      mload(0x40)\n      dup1\n      swap2\n      sub\n      swap1\n      keccak256\n        /* \"contracts/Voting.sol\":708:733  votesMap[allUsers[i]] = 0 */\n      dup2\n      swap1\n      sstore\n      pop\n        /* \"contracts/Voting.sol\":689:692  i++ */\n      dup1\n      dup1\n      0x01\n      add\n      swap2\n      pop\n      pop\n        /* \"contracts/Voting.sol\":652:744  for(uint i = 0; i < allUsers.length; i++) {... */\n      jump(tag_41)\n    tag_42:\n      pop\n        /* \"contracts/Voting.sol\":613:750  function resetVotes() public {... */\n      jump\t// out\n        /* \"contracts/Voting.sol\":211:490  function vote(string memory addr) public {... */\n    tag_28:\n        /* \"contracts/Voting.sol\":263:276  uint256 count */\n      0x00\n        /* \"contracts/Voting.sol\":279:287  votesMap */\n      0x00\n        /* \"contracts/Voting.sol\":288:292  addr */\n      dup3\n        /* \"contracts/Voting.sol\":279:293  votesMap[addr] */\n      mload(0x40)\n      tag_51\n      swap2\n      swap1\n      tag_31\n      jump\t// in\n    tag_51:\n      swap1\n      dup2\n      mstore\n      0x20\n      add\n      mload(0x40)\n      dup1\n      swap2\n      sub\n      swap1\n      keccak256\n      sload\n        /* \"contracts/Voting.sol\":263:293  uint256 count = votesMap[addr] */\n      swap1\n      pop\n        /* \"contracts/Voting.sol\":318:319  0 */\n      0x00\n        /* \"contracts/Voting.sol\":309:314  count */\n      dup2\n        /* \"contracts/Voting.sol\":309:319  count == 0 */\n      eq\n        /* \"contracts/Voting.sol\":309:348  count == 0 && !contains(allUsers, addr) */\n      dup1\n      iszero\n      tag_52\n      jumpi\n      pop\n        /* \"contracts/Voting.sol\":324:348  contains(allUsers, addr) */\n      tag_53\n        /* \"contracts/Voting.sol\":333:341  allUsers */\n      0x01\n        /* \"contracts/Voting.sol\":324:348  contains(allUsers, addr) */\n      dup1\n      sload\n      dup1\n      0x20\n      mul\n      0x20\n      add\n      mload(0x40)\n      swap1\n      dup2\n      add\n      0x40\n      mstore\n      dup1\n      swap3\n      swap2\n      swap1\n      dup2\n      dup2\n      mstore\n      0x20\n      add\n      0x00\n      swap1\n    tag_54:\n      dup3\n      dup3\n      lt\n      iszero\n      tag_55\n      jumpi\n      dup4\n      dup3\n      swap1\n      0x00\n      mstore\n      keccak256(0x00, 0x20)\n      add\n      dup1\n      sload\n      tag_57\n      swap1\n      tag_35\n      jump\t// in\n    tag_57:\n      dup1\n      0x1f\n      add\n      0x20\n      dup1\n      swap2\n      div\n      mul\n      0x20\n      add\n      mload(0x40)\n      swap1\n      dup2\n      add\n      0x40\n      mstore\n      dup1\n      swap3\n      swap2\n      swap1\n      dup2\n      dup2\n      mstore\n      0x20\n      add\n      dup3\n      dup1\n      sload\n      tag_58\n      swap1\n      tag_35\n      jump\t// in\n    tag_58:\n      dup1\n      iszero\n      tag_59\n      jumpi\n      dup1\n      0x1f\n      lt\n      tag_60\n      jumpi\n      0x0100\n      dup1\n      dup4\n      sload\n      div\n      mul\n      dup4\n      mstore\n      swap2\n      0x20\n      add\n      swap2\n      jump(tag_59)\n    tag_60:\n      dup3\n      add\n      swap2\n      swap1\n      0x00\n      mstore\n      keccak256(0x00, 0x20)\n      swap1\n    tag_61:\n      dup2\n      sload\n      dup2\n      mstore\n      swap1\n      0x01\n      add\n      swap1\n      0x20\n      add\n      dup1\n      dup4\n      gt\n      tag_61\n      jumpi\n      dup3\n      swap1\n      sub\n      0x1f\n      and\n      dup3\n      add\n      swap2\n    tag_59:\n      pop\n      pop\n      pop\n      pop\n      pop\n      dup2\n      mstore\n      0x20\n      add\n      swap1\n      0x01\n      add\n      swap1\n      jump(tag_54)\n    tag_55:\n      pop\n      pop\n      pop\n      pop\n        /* \"contracts/Voting.sol\":343:347  addr */\n      dup4\n        /* \"contracts/Voting.sol\":324:332  contains */\n      tag_62\n        /* \"contracts/Voting.sol\":324:348  contains(allUsers, addr) */\n      jump\t// in\n    tag_53:\n        /* \"contracts/Voting.sol\":323:348  !contains(allUsers, addr) */\n      iszero\n        /* \"contracts/Voting.sol\":309:348  count == 0 && !contains(allUsers, addr) */\n    tag_52:\n        /* \"contracts/Voting.sol\":305:394  if (count == 0 && !contains(allUsers, addr)){... */\n      iszero\n      tag_63\n      jumpi\n        /* \"contracts/Voting.sol\":363:371  allUsers */\n      0x01\n        /* \"contracts/Voting.sol\":377:381  addr */\n      dup3\n        /* \"contracts/Voting.sol\":363:382  allUsers.push(addr) */\n      swap1\n      dup1\n      0x01\n      dup2\n      sload\n      add\n      dup1\n      dup3\n      sstore\n      dup1\n      swap2\n      pop\n      pop\n      0x01\n      swap1\n      sub\n      swap1\n      0x00\n      mstore\n      keccak256(0x00, 0x20)\n      add\n      0x00\n      swap1\n      swap2\n      swap1\n      swap2\n      swap1\n      swap2\n      pop\n      swap1\n      dup2\n      tag_65\n      swap2\n      swap1\n      tag_66\n      jump\t// in\n    tag_65:\n      pop\n        /* \"contracts/Voting.sol\":305:394  if (count == 0 && !contains(allUsers, addr)){... */\n    tag_63:\n        /* \"contracts/Voting.sol\":404:411  count++ */\n      dup1\n      dup1\n      tag_67\n      swap1\n      tag_68\n      jump\t// in\n    tag_67:\n      swap2\n      pop\n      pop\n        /* \"contracts/Voting.sol\":439:444  count */\n      dup1\n        /* \"contracts/Voting.sol\":422:430  votesMap */\n      0x00\n        /* \"contracts/Voting.sol\":431:435  addr */\n      dup4\n        /* \"contracts/Voting.sol\":422:436  votesMap[addr] */\n      mload(0x40)\n      tag_69\n      swap2\n      swap1\n      tag_31\n      jump\t// in\n    tag_69:\n      swap1\n      dup2\n      mstore\n      0x20\n      add\n      mload(0x40)\n      dup1\n      swap2\n      sub\n      swap1\n      keccak256\n        /* \"contracts/Voting.sol\":422:444  votesMap[addr] = count */\n      dup2\n      swap1\n      sstore\n      pop\n        /* \"contracts/Voting.sol\":460:483  Voted(msg.sender, addr) */\n      0xcb6783276e8a4347387036bbfea000268f0a4b1f8c46ac79980609f2af8d2acd\n        /* \"contracts/Voting.sol\":466:476  msg.sender */\n      caller\n        /* \"contracts/Voting.sol\":478:482  addr */\n      dup4\n        /* \"contracts/Voting.sol\":460:483  Voted(msg.sender, addr) */\n      mload(0x40)\n      tag_70\n      swap3\n      swap2\n      swap1\n      tag_71\n      jump\t// in\n    tag_70:\n      mload(0x40)\n      dup1\n      swap2\n      sub\n      swap1\n      log1\n        /* \"contracts/Voting.sol\":252:490  {... */\n      pop\n        /* \"contracts/Voting.sol\":211:490  function vote(string memory addr) public {... */\n      pop\n      jump\t// out\n        /* \"contracts/Voting.sol\":805:1102  function contains(string[] memory arr, string memory value) internal pure returns (bool) {... */\n    tag_62:\n        /* \"contracts/Voting.sol\":888:892  bool */\n      0x00\n        /* \"contracts/Voting.sol\":910:916  uint i */\n      0x00\n        /* \"contracts/Voting.sol\":919:920  0 */\n      0x00\n        /* \"contracts/Voting.sol\":910:920  uint i = 0 */\n      swap1\n      pop\n        /* \"contracts/Voting.sol\":905:1072  for (uint i = 0; i < arr.length; i++) {... */\n    tag_73:\n        /* \"contracts/Voting.sol\":926:929  arr */\n      dup4\n        /* \"contracts/Voting.sol\":926:936  arr.length */\n      mload\n        /* \"contracts/Voting.sol\":922:923  i */\n      dup2\n        /* \"contracts/Voting.sol\":922:936  i < arr.length */\n      lt\n        /* \"contracts/Voting.sol\":905:1072  for (uint i = 0; i < arr.length; i++) {... */\n      iszero\n      tag_74\n      jumpi\n        /* \"contracts/Voting.sol\":1006:1011  value */\n      dup3\n        /* \"contracts/Voting.sol\":990:1013  keccak256(bytes(value)) */\n      dup1\n      mload\n      swap1\n      0x20\n      add\n      keccak256\n        /* \"contracts/Voting.sol\":978:981  arr */\n      dup5\n        /* \"contracts/Voting.sol\":982:983  i */\n      dup3\n        /* \"contracts/Voting.sol\":978:984  arr[i] */\n      dup2\n      mload\n      dup2\n      lt\n      tag_76\n      jumpi\n      tag_77\n      tag_46\n      jump\t// in\n    tag_77:\n    tag_76:\n      0x20\n      mul\n      0x20\n      add\n      add\n      mload\n        /* \"contracts/Voting.sol\":962:986  keccak256(bytes(arr[i])) */\n      dup1\n      mload\n      swap1\n      0x20\n      add\n      keccak256\n        /* \"contracts/Voting.sol\":962:1013  keccak256(bytes(arr[i])) == keccak256(bytes(value)) */\n      sub\n        /* \"contracts/Voting.sol\":958:1061  if (keccak256(bytes(arr[i])) == keccak256(bytes(value))) {... */\n      tag_78\n      jumpi\n        /* \"contracts/Voting.sol\":1041:1045  true */\n      0x01\n        /* \"contracts/Voting.sol\":1034:1045  return true */\n      swap2\n      pop\n      pop\n      jump(tag_72)\n        /* \"contracts/Voting.sol\":958:1061  if (keccak256(bytes(arr[i])) == keccak256(bytes(value))) {... */\n    tag_78:\n        /* \"contracts/Voting.sol\":938:941  i++ */\n      dup1\n      dup1\n      0x01\n      add\n      swap2\n      pop\n      pop\n        /* \"contracts/Voting.sol\":905:1072  for (uint i = 0; i < arr.length; i++) {... */\n      jump(tag_73)\n    tag_74:\n      pop\n        /* \"contracts/Voting.sol\":1089:1094  false */\n      0x00\n        /* \"contracts/Voting.sol\":1082:1094  return false */\n      swap1\n      pop\n        /* \"contracts/Voting.sol\":805:1102  function contains(string[] memory arr, string memory value) internal pure returns (bool) {... */\n    tag_72:\n      swap3\n      swap2\n      pop\n      pop\n      jump\t// out\n        /* \"#utility.yul\":7:82   */\n    tag_79:\n        /* \"#utility.yul\":40:46   */\n      0x00\n        /* \"#utility.yul\":73:75   */\n      0x40\n        /* \"#utility.yul\":67:76   */\n      mload\n        /* \"#utility.yul\":57:76   */\n      swap1\n      pop\n        /* \"#utility.yul\":7:82   */\n      swap1\n      jump\t// out\n        /* \"#utility.yul\":88:205   */\n    tag_80:\n        /* \"#utility.yul\":197:198   */\n      0x00\n        /* \"#utility.yul\":194:195   */\n      0x00\n        /* \"#utility.yul\":187:199   */\n      revert\n        /* \"#utility.yul\":211:328   */\n    tag_81:\n        /* \"#utility.yul\":320:321   */\n      0x00\n        /* \"#utility.yul\":317:318   */\n      0x00\n        /* \"#utility.yul\":310:322   */\n      revert\n        /* \"#utility.yul\":334:451   */\n    tag_82:\n        /* \"#utility.yul\":443:444   */\n      0x00\n        /* \"#utility.yul\":440:441   */\n      0x00\n        /* \"#utility.yul\":433:445   */\n      revert\n        /* \"#utility.yul\":457:574   */\n    tag_83:\n        /* \"#utility.yul\":566:567   */\n      0x00\n        /* \"#utility.yul\":563:564   */\n      0x00\n        /* \"#utility.yul\":556:568   */\n      revert\n        /* \"#utility.yul\":580:682   */\n    tag_84:\n        /* \"#utility.yul\":621:627   */\n      0x00\n        /* \"#utility.yul\":672:674   */\n      0x1f\n        /* \"#utility.yul\":668:675   */\n      not\n        /* \"#utility.yul\":663:665   */\n      0x1f\n        /* \"#utility.yul\":656:661   */\n      dup4\n        /* \"#utility.yul\":652:666   */\n      add\n        /* \"#utility.yul\":648:676   */\n      and\n        /* \"#utility.yul\":638:676   */\n      swap1\n      pop\n        /* \"#utility.yul\":580:682   */\n      swap2\n      swap1\n      pop\n      jump\t// out\n        /* \"#utility.yul\":688:868   */\n    tag_85:\n        /* \"#utility.yul\":736:813   */\n      0x4e487b7100000000000000000000000000000000000000000000000000000000\n        /* \"#utility.yul\":733:734   */\n      0x00\n        /* \"#utility.yul\":726:814   */\n      mstore\n        /* \"#utility.yul\":833:837   */\n      0x41\n        /* \"#utility.yul\":830:831   */\n      0x04\n        /* \"#utility.yul\":823:838   */\n      mstore\n        /* \"#utility.yul\":857:861   */\n      0x24\n        /* \"#utility.yul\":854:855   */\n      0x00\n        /* \"#utility.yul\":847:862   */\n      revert\n        /* \"#utility.yul\":874:1155   */\n    tag_86:\n        /* \"#utility.yul\":957:984   */\n      tag_132\n        /* \"#utility.yul\":979:983   */\n      dup3\n        /* \"#utility.yul\":957:984   */\n      tag_84\n      jump\t// in\n    tag_132:\n        /* \"#utility.yul\":949:955   */\n      dup2\n        /* \"#utility.yul\":945:985   */\n      add\n        /* \"#utility.yul\":1087:1093   */\n      dup2\n        /* \"#utility.yul\":1075:1085   */\n      dup2\n        /* \"#utility.yul\":1072:1094   */\n      lt\n        /* \"#utility.yul\":1051:1069   */\n      0xffffffffffffffff\n        /* \"#utility.yul\":1039:1049   */\n      dup3\n        /* \"#utility.yul\":1036:1070   */\n      gt\n        /* \"#utility.yul\":1033:1095   */\n      or\n        /* \"#utility.yul\":1030:1118   */\n      iszero\n      tag_133\n      jumpi\n        /* \"#utility.yul\":1098:1116   */\n      tag_134\n      tag_85\n      jump\t// in\n    tag_134:\n        /* \"#utility.yul\":1030:1118   */\n    tag_133:\n        /* \"#utility.yul\":1138:1148   */\n      dup1\n        /* \"#utility.yul\":1134:1136   */\n      0x40\n        /* \"#utility.yul\":1127:1149   */\n      mstore\n        /* \"#utility.yul\":917:1155   */\n      pop\n        /* \"#utility.yul\":874:1155   */\n      pop\n      pop\n      jump\t// out\n        /* \"#utility.yul\":1161:1290   */\n    tag_87:\n        /* \"#utility.yul\":1195:1201   */\n      0x00\n        /* \"#utility.yul\":1222:1242   */\n      tag_136\n      tag_79\n      jump\t// in\n    tag_136:\n        /* \"#utility.yul\":1212:1242   */\n      swap1\n      pop\n        /* \"#utility.yul\":1251:1284   */\n      tag_137\n        /* \"#utility.yul\":1279:1283   */\n      dup3\n        /* \"#utility.yul\":1271:1277   */\n      dup3\n        /* \"#utility.yul\":1251:1284   */\n      tag_86\n      jump\t// in\n    tag_137:\n        /* \"#utility.yul\":1161:1290   */\n      swap2\n      swap1\n      pop\n      jump\t// out\n        /* \"#utility.yul\":1296:1604   */\n    tag_88:\n        /* \"#utility.yul\":1358:1362   */\n      0x00\n        /* \"#utility.yul\":1448:1466   */\n      0xffffffffffffffff\n        /* \"#utility.yul\":1440:1446   */\n      dup3\n        /* \"#utility.yul\":1437:1467   */\n      gt\n        /* \"#utility.yul\":1434:1490   */\n      iszero\n      tag_139\n      jumpi\n        /* \"#utility.yul\":1470:1488   */\n      tag_140\n      tag_85\n      jump\t// in\n    tag_140:\n        /* \"#utility.yul\":1434:1490   */\n    tag_139:\n        /* \"#utility.yul\":1508:1537   */\n      tag_141\n        /* \"#utility.yul\":1530:1536   */\n      dup3\n        /* \"#utility.yul\":1508:1537   */\n      tag_84\n      jump\t// in\n    tag_141:\n        /* \"#utility.yul\":1500:1537   */\n      swap1\n      pop\n        /* \"#utility.yul\":1592:1596   */\n      0x20\n        /* \"#utility.yul\":1586:1590   */\n      dup2\n        /* \"#utility.yul\":1582:1597   */\n      add\n        /* \"#utility.yul\":1574:1597   */\n      swap1\n      pop\n        /* \"#utility.yul\":1296:1604   */\n      swap2\n      swap1\n      pop\n      jump\t// out\n        /* \"#utility.yul\":1610:1758   */\n    tag_89:\n        /* \"#utility.yul\":1708:1714   */\n      dup3\n        /* \"#utility.yul\":1703:1706   */\n      dup2\n        /* \"#utility.yul\":1698:1701   */\n      dup4\n        /* \"#utility.yul\":1685:1715   */\n      calldatacopy\n        /* \"#utility.yul\":1749:1750   */\n      0x00\n        /* \"#utility.yul\":1740:1746   */\n      dup4\n        /* \"#utility.yul\":1735:1738   */\n      dup4\n        /* \"#utility.yul\":1731:1747   */\n      add\n        /* \"#utility.yul\":1724:1751   */\n      mstore\n        /* \"#utility.yul\":1610:1758   */\n      pop\n      pop\n      pop\n      jump\t// out\n        /* \"#utility.yul\":1764:2189   */\n    tag_90:\n        /* \"#utility.yul\":1842:1847   */\n      0x00\n        /* \"#utility.yul\":1867:1933   */\n      tag_144\n        /* \"#utility.yul\":1883:1932   */\n      tag_145\n        /* \"#utility.yul\":1925:1931   */\n      dup5\n        /* \"#utility.yul\":1883:1932   */\n      tag_88\n      jump\t// in\n    tag_145:\n        /* \"#utility.yul\":1867:1933   */\n      tag_87\n      jump\t// in\n    tag_144:\n        /* \"#utility.yul\":1858:1933   */\n      swap1\n      pop\n        /* \"#utility.yul\":1956:1962   */\n      dup3\n        /* \"#utility.yul\":1949:1954   */\n      dup2\n        /* \"#utility.yul\":1942:1963   */\n      mstore\n        /* \"#utility.yul\":1994:1998   */\n      0x20\n        /* \"#utility.yul\":1987:1992   */\n      dup2\n        /* \"#utility.yul\":1983:1999   */\n      add\n        /* \"#utility.yul\":2032:2035   */\n      dup5\n        /* \"#utility.yul\":2023:2029   */\n      dup5\n        /* \"#utility.yul\":2018:2021   */\n      dup5\n        /* \"#utility.yul\":2014:2030   */\n      add\n        /* \"#utility.yul\":2011:2036   */\n      gt\n        /* \"#utility.yul\":2008:2120   */\n      iszero\n      tag_146\n      jumpi\n        /* \"#utility.yul\":2039:2118   */\n      tag_147\n      tag_83\n      jump\t// in\n    tag_147:\n        /* \"#utility.yul\":2008:2120   */\n    tag_146:\n        /* \"#utility.yul\":2129:2183   */\n      tag_148\n        /* \"#utility.yul\":2176:2182   */\n      dup5\n        /* \"#utility.yul\":2171:2174   */\n      dup3\n        /* \"#utility.yul\":2166:2169   */\n      dup6\n        /* \"#utility.yul\":2129:2183   */\n      tag_89\n      jump\t// in\n    tag_148:\n        /* \"#utility.yul\":1848:2189   */\n      pop\n        /* \"#utility.yul\":1764:2189   */\n      swap4\n      swap3\n      pop\n      pop\n      pop\n      jump\t// out\n        /* \"#utility.yul\":2209:2549   */\n    tag_91:\n        /* \"#utility.yul\":2265:2270   */\n      0x00\n        /* \"#utility.yul\":2314:2317   */\n      dup3\n        /* \"#utility.yul\":2307:2311   */\n      0x1f\n        /* \"#utility.yul\":2299:2305   */\n      dup4\n        /* \"#utility.yul\":2295:2312   */\n      add\n        /* \"#utility.yul\":2291:2318   */\n      slt\n        /* \"#utility.yul\":2281:2403   */\n      tag_150\n      jumpi\n        /* \"#utility.yul\":2322:2401   */\n      tag_151\n      tag_82\n      jump\t// in\n    tag_151:\n        /* \"#utility.yul\":2281:2403   */\n    tag_150:\n        /* \"#utility.yul\":2439:2445   */\n      dup2\n        /* \"#utility.yul\":2426:2446   */\n      calldataload\n        /* \"#utility.yul\":2464:2543   */\n      tag_152\n        /* \"#utility.yul\":2539:2542   */\n      dup5\n        /* \"#utility.yul\":2531:2537   */\n      dup3\n        /* \"#utility.yul\":2524:2528   */\n      0x20\n        /* \"#utility.yul\":2516:2522   */\n      dup7\n        /* \"#utility.yul\":2512:2529   */\n      add\n        /* \"#utility.yul\":2464:2543   */\n      tag_90\n      jump\t// in\n    tag_152:\n        /* \"#utility.yul\":2455:2543   */\n      swap2\n      pop\n        /* \"#utility.yul\":2271:2549   */\n      pop\n        /* \"#utility.yul\":2209:2549   */\n      swap3\n      swap2\n      pop\n      pop\n      jump\t// out\n        /* \"#utility.yul\":2555:3064   */\n    tag_10:\n        /* \"#utility.yul\":2624:2630   */\n      0x00\n        /* \"#utility.yul\":2673:2675   */\n      0x20\n        /* \"#utility.yul\":2661:2670   */\n      dup3\n        /* \"#utility.yul\":2652:2659   */\n      dup5\n        /* \"#utility.yul\":2648:2671   */\n      sub\n        /* \"#utility.yul\":2644:2676   */\n      slt\n        /* \"#utility.yul\":2641:2760   */\n      iszero\n      tag_154\n      jumpi\n        /* \"#utility.yul\":2679:2758   */\n      tag_155\n      tag_80\n      jump\t// in\n    tag_155:\n        /* \"#utility.yul\":2641:2760   */\n    tag_154:\n        /* \"#utility.yul\":2827:2828   */\n      0x00\n        /* \"#utility.yul\":2816:2825   */\n      dup3\n        /* \"#utility.yul\":2812:2829   */\n      add\n        /* \"#utility.yul\":2799:2830   */\n      calldataload\n        /* \"#utility.yul\":2857:2875   */\n      0xffffffffffffffff\n        /* \"#utility.yul\":2849:2855   */\n      dup2\n        /* \"#utility.yul\":2846:2876   */\n      gt\n        /* \"#utility.yul\":2843:2960   */\n      iszero\n      tag_156\n      jumpi\n        /* \"#utility.yul\":2879:2958   */\n      tag_157\n      tag_81\n      jump\t// in\n    tag_157:\n        /* \"#utility.yul\":2843:2960   */\n    tag_156:\n        /* \"#utility.yul\":2984:3047   */\n      tag_158\n        /* \"#utility.yul\":3039:3046   */\n      dup5\n        /* \"#utility.yul\":3030:3036   */\n      dup3\n        /* \"#utility.yul\":3019:3028   */\n      dup6\n        /* \"#utility.yul\":3015:3037   */\n      add\n        /* \"#utility.yul\":2984:3047   */\n      tag_91\n      jump\t// in\n    tag_158:\n        /* \"#utility.yul\":2974:3047   */\n      swap2\n      pop\n        /* \"#utility.yul\":2770:3057   */\n      pop\n        /* \"#utility.yul\":2555:3064   */\n      swap3\n      swap2\n      pop\n      pop\n      jump\t// out\n        /* \"#utility.yul\":3070:3147   */\n    tag_92:\n        /* \"#utility.yul\":3107:3114   */\n      0x00\n        /* \"#utility.yul\":3136:3141   */\n      dup2\n        /* \"#utility.yul\":3125:3141   */\n      swap1\n      pop\n        /* \"#utility.yul\":3070:3147   */\n      swap2\n      swap1\n      pop\n      jump\t// out\n        /* \"#utility.yul\":3153:3271   */\n    tag_93:\n        /* \"#utility.yul\":3240:3264   */\n      tag_161\n        /* \"#utility.yul\":3258:3263   */\n      dup2\n        /* \"#utility.yul\":3240:3264   */\n      tag_92\n      jump\t// in\n    tag_161:\n        /* \"#utility.yul\":3235:3238   */\n      dup3\n        /* \"#utility.yul\":3228:3265   */\n      mstore\n        /* \"#utility.yul\":3153:3271   */\n      pop\n      pop\n      jump\t// out\n        /* \"#utility.yul\":3277:3499   */\n    tag_13:\n        /* \"#utility.yul\":3370:3374   */\n      0x00\n        /* \"#utility.yul\":3408:3410   */\n      0x20\n        /* \"#utility.yul\":3397:3406   */\n      dup3\n        /* \"#utility.yul\":3393:3411   */\n      add\n        /* \"#utility.yul\":3385:3411   */\n      swap1\n      pop\n        /* \"#utility.yul\":3421:3492   */\n      tag_163\n        /* \"#utility.yul\":3489:3490   */\n      0x00\n        /* \"#utility.yul\":3478:3487   */\n      dup4\n        /* \"#utility.yul\":3474:3491   */\n      add\n        /* \"#utility.yul\":3465:3471   */\n      dup5\n        /* \"#utility.yul\":3421:3492   */\n      tag_93\n      jump\t// in\n    tag_163:\n        /* \"#utility.yul\":3277:3499   */\n      swap3\n      swap2\n      pop\n      pop\n      jump\t// out\n        /* \"#utility.yul\":3505:3627   */\n    tag_94:\n        /* \"#utility.yul\":3578:3602   */\n      tag_165\n        /* \"#utility.yul\":3596:3601   */\n      dup2\n        /* \"#utility.yul\":3578:3602   */\n      tag_92\n      jump\t// in\n    tag_165:\n        /* \"#utility.yul\":3571:3576   */\n      dup2\n        /* \"#utility.yul\":3568:3603   */\n      eq\n        /* \"#utility.yul\":3558:3621   */\n      tag_166\n      jumpi\n        /* \"#utility.yul\":3617:3618   */\n      0x00\n        /* \"#utility.yul\":3614:3615   */\n      0x00\n        /* \"#utility.yul\":3607:3619   */\n      revert\n        /* \"#utility.yul\":3558:3621   */\n    tag_166:\n        /* \"#utility.yul\":3505:3627   */\n      pop\n      jump\t// out\n        /* \"#utility.yul\":3633:3772   */\n    tag_95:\n        /* \"#utility.yul\":3679:3684   */\n      0x00\n        /* \"#utility.yul\":3717:3723   */\n      dup2\n        /* \"#utility.yul\":3704:3724   */\n      calldataload\n        /* \"#utility.yul\":3695:3724   */\n      swap1\n      pop\n        /* \"#utility.yul\":3733:3766   */\n      tag_168\n        /* \"#utility.yul\":3760:3765   */\n      dup2\n        /* \"#utility.yul\":3733:3766   */\n      tag_94\n      jump\t// in\n    tag_168:\n        /* \"#utility.yul\":3633:3772   */\n      swap3\n      swap2\n      pop\n      pop\n      jump\t// out\n        /* \"#utility.yul\":3778:4107   */\n    tag_20:\n        /* \"#utility.yul\":3837:3843   */\n      0x00\n        /* \"#utility.yul\":3886:3888   */\n      0x20\n        /* \"#utility.yul\":3874:3883   */\n      dup3\n        /* \"#utility.yul\":3865:3872   */\n      dup5\n        /* \"#utility.yul\":3861:3884   */\n      sub\n        /* \"#utility.yul\":3857:3889   */\n      slt\n        /* \"#utility.yul\":3854:3973   */\n      iszero\n      tag_170\n      jumpi\n        /* \"#utility.yul\":3892:3971   */\n      tag_171\n      tag_80\n      jump\t// in\n    tag_171:\n        /* \"#utility.yul\":3854:3973   */\n    tag_170:\n        /* \"#utility.yul\":4012:4013   */\n      0x00\n        /* \"#utility.yul\":4037:4090   */\n      tag_172\n        /* \"#utility.yul\":4082:4089   */\n      dup5\n        /* \"#utility.yul\":4073:4079   */\n      dup3\n        /* \"#utility.yul\":4062:4071   */\n      dup6\n        /* \"#utility.yul\":4058:4080   */\n      add\n        /* \"#utility.yul\":4037:4090   */\n      tag_95\n      jump\t// in\n    tag_172:\n        /* \"#utility.yul\":4027:4090   */\n      swap2\n      pop\n        /* \"#utility.yul\":3983:4100   */\n      pop\n        /* \"#utility.yul\":3778:4107   */\n      swap3\n      swap2\n      pop\n      pop\n      jump\t// out\n        /* \"#utility.yul\":4113:4212   */\n    tag_96:\n        /* \"#utility.yul\":4165:4171   */\n      0x00\n        /* \"#utility.yul\":4199:4204   */\n      dup2\n        /* \"#utility.yul\":4193:4205   */\n      mload\n        /* \"#utility.yul\":4183:4205   */\n      swap1\n      pop\n        /* \"#utility.yul\":4113:4212   */\n      swap2\n      swap1\n      pop\n      jump\t// out\n        /* \"#utility.yul\":4218:4387   */\n    tag_97:\n        /* \"#utility.yul\":4302:4313   */\n      0x00\n        /* \"#utility.yul\":4336:4342   */\n      dup3\n        /* \"#utility.yul\":4331:4334   */\n      dup3\n        /* \"#utility.yul\":4324:4343   */\n      mstore\n        /* \"#utility.yul\":4376:4380   */\n      0x20\n        /* \"#utility.yul\":4371:4374   */\n      dup3\n        /* \"#utility.yul\":4367:4381   */\n      add\n        /* \"#utility.yul\":4352:4381   */\n      swap1\n      pop\n        /* \"#utility.yul\":4218:4387   */\n      swap3\n      swap2\n      pop\n      pop\n      jump\t// out\n        /* \"#utility.yul\":4393:4532   */\n    tag_98:\n        /* \"#utility.yul\":4482:4488   */\n      dup3\n        /* \"#utility.yul\":4477:4480   */\n      dup2\n        /* \"#utility.yul\":4472:4475   */\n      dup4\n        /* \"#utility.yul\":4466:4489   */\n      mcopy\n        /* \"#utility.yul\":4523:4524   */\n      0x00\n        /* \"#utility.yul\":4514:4520   */\n      dup4\n        /* \"#utility.yul\":4509:4512   */\n      dup4\n        /* \"#utility.yul\":4505:4521   */\n      add\n        /* \"#utility.yul\":4498:4525   */\n      mstore\n        /* \"#utility.yul\":4393:4532   */\n      pop\n      pop\n      pop\n      jump\t// out\n        /* \"#utility.yul\":4538:4915   */\n    tag_99:\n        /* \"#utility.yul\":4626:4629   */\n      0x00\n        /* \"#utility.yul\":4654:4693   */\n      tag_177\n        /* \"#utility.yul\":4687:4692   */\n      dup3\n        /* \"#utility.yul\":4654:4693   */\n      tag_96\n      jump\t// in\n    tag_177:\n        /* \"#utility.yul\":4709:4780   */\n      tag_178\n        /* \"#utility.yul\":4773:4779   */\n      dup2\n        /* \"#utility.yul\":4768:4771   */\n      dup6\n        /* \"#utility.yul\":4709:4780   */\n      tag_97\n      jump\t// in\n    tag_178:\n        /* \"#utility.yul\":4702:4780   */\n      swap4\n      pop\n        /* \"#utility.yul\":4789:4854   */\n      tag_179\n        /* \"#utility.yul\":4847:4853   */\n      dup2\n        /* \"#utility.yul\":4842:4845   */\n      dup6\n        /* \"#utility.yul\":4835:4839   */\n      0x20\n        /* \"#utility.yul\":4828:4833   */\n      dup7\n        /* \"#utility.yul\":4824:4840   */\n      add\n        /* \"#utility.yul\":4789:4854   */\n      tag_98\n      jump\t// in\n    tag_179:\n        /* \"#utility.yul\":4879:4908   */\n      tag_180\n        /* \"#utility.yul\":4901:4907   */\n      dup2\n        /* \"#utility.yul\":4879:4908   */\n      tag_84\n      jump\t// in\n    tag_180:\n        /* \"#utility.yul\":4874:4877   */\n      dup5\n        /* \"#utility.yul\":4870:4909   */\n      add\n        /* \"#utility.yul\":4863:4909   */\n      swap2\n      pop\n        /* \"#utility.yul\":4630:4915   */\n      pop\n        /* \"#utility.yul\":4538:4915   */\n      swap3\n      swap2\n      pop\n      pop\n      jump\t// out\n        /* \"#utility.yul\":4921:5234   */\n    tag_23:\n        /* \"#utility.yul\":5034:5038   */\n      0x00\n        /* \"#utility.yul\":5072:5074   */\n      0x20\n        /* \"#utility.yul\":5061:5070   */\n      dup3\n        /* \"#utility.yul\":5057:5075   */\n      add\n        /* \"#utility.yul\":5049:5075   */\n      swap1\n      pop\n        /* \"#utility.yul\":5121:5130   */\n      dup2\n        /* \"#utility.yul\":5115:5119   */\n      dup2\n        /* \"#utility.yul\":5111:5131   */\n      sub\n        /* \"#utility.yul\":5107:5108   */\n      0x00\n        /* \"#utility.yul\":5096:5105   */\n      dup4\n        /* \"#utility.yul\":5092:5109   */\n      add\n        /* \"#utility.yul\":5085:5132   */\n      mstore\n        /* \"#utility.yul\":5149:5227   */\n      tag_182\n        /* \"#utility.yul\":5222:5226   */\n      dup2\n        /* \"#utility.yul\":5213:5219   */\n      dup5\n        /* \"#utility.yul\":5149:5227   */\n      tag_99\n      jump\t// in\n    tag_182:\n        /* \"#utility.yul\":5141:5227   */\n      swap1\n      pop\n        /* \"#utility.yul\":4921:5234   */\n      swap3\n      swap2\n      pop\n      pop\n      jump\t// out\n        /* \"#utility.yul\":5240:5388   */\n    tag_100:\n        /* \"#utility.yul\":5342:5353   */\n      0x00\n        /* \"#utility.yul\":5379:5382   */\n      dup2\n        /* \"#utility.yul\":5364:5382   */\n      swap1\n      pop\n        /* \"#utility.yul\":5240:5388   */\n      swap3\n      swap2\n      pop\n      pop\n      jump\t// out\n        /* \"#utility.yul\":5394:5784   */\n    tag_101:\n        /* \"#utility.yul\":5500:5503   */\n      0x00\n        /* \"#utility.yul\":5528:5567   */\n      tag_185\n        /* \"#utility.yul\":5561:5566   */\n      dup3\n        /* \"#utility.yul\":5528:5567   */\n      tag_96\n      jump\t// in\n    tag_185:\n        /* \"#utility.yul\":5583:5672   */\n      tag_186\n        /* \"#utility.yul\":5665:5671   */\n      dup2\n        /* \"#utility.yul\":5660:5663   */\n      dup6\n        /* \"#utility.yul\":5583:5672   */\n      tag_100\n      jump\t// in\n    tag_186:\n        /* \"#utility.yul\":5576:5672   */\n      swap4\n      pop\n        /* \"#utility.yul\":5681:5746   */\n      tag_187\n        /* \"#utility.yul\":5739:5745   */\n      dup2\n        /* \"#utility.yul\":5734:5737   */\n      dup6\n        /* \"#utility.yul\":5727:5731   */\n      0x20\n        /* \"#utility.yul\":5720:5725   */\n      dup7\n        /* \"#utility.yul\":5716:5732   */\n      add\n        /* \"#utility.yul\":5681:5746   */\n      tag_98\n      jump\t// in\n    tag_187:\n        /* \"#utility.yul\":5771:5777   */\n      dup1\n        /* \"#utility.yul\":5766:5769   */\n      dup5\n        /* \"#utility.yul\":5762:5778   */\n      add\n        /* \"#utility.yul\":5755:5778   */\n      swap2\n      pop\n        /* \"#utility.yul\":5504:5784   */\n      pop\n        /* \"#utility.yul\":5394:5784   */\n      swap3\n      swap2\n      pop\n      pop\n      jump\t// out\n        /* \"#utility.yul\":5790:6065   */\n    tag_31:\n        /* \"#utility.yul\":5922:5925   */\n      0x00\n        /* \"#utility.yul\":5944:6039   */\n      tag_189\n        /* \"#utility.yul\":6035:6038   */\n      dup3\n        /* \"#utility.yul\":6026:6032   */\n      dup5\n        /* \"#utility.yul\":5944:6039   */\n      tag_101\n      jump\t// in\n    tag_189:\n        /* \"#utility.yul\":5937:6039   */\n      swap2\n      pop\n        /* \"#utility.yul\":6056:6059   */\n      dup2\n        /* \"#utility.yul\":6049:6059   */\n      swap1\n      pop\n        /* \"#utility.yul\":5790:6065   */\n      swap3\n      swap2\n      pop\n      pop\n      jump\t// out\n        /* \"#utility.yul\":6071:6251   */\n    tag_102:\n        /* \"#utility.yul\":6119:6196   */\n      0x4e487b7100000000000000000000000000000000000000000000000000000000\n        /* \"#utility.yul\":6116:6117   */\n      0x00\n        /* \"#utility.yul\":6109:6197   */\n      mstore\n        /* \"#utility.yul\":6216:6220   */\n      0x22\n        /* \"#utility.yul\":6213:6214   */\n      0x04\n        /* \"#utility.yul\":6206:6221   */\n      mstore\n        /* \"#utility.yul\":6240:6244   */\n      0x24\n        /* \"#utility.yul\":6237:6238   */\n      0x00\n        /* \"#utility.yul\":6230:6245   */\n      revert\n        /* \"#utility.yul\":6257:6577   */\n    tag_35:\n        /* \"#utility.yul\":6301:6307   */\n      0x00\n        /* \"#utility.yul\":6338:6339   */\n      0x02\n        /* \"#utility.yul\":6332:6336   */\n      dup3\n        /* \"#utility.yul\":6328:6340   */\n      div\n        /* \"#utility.yul\":6318:6340   */\n      swap1\n      pop\n        /* \"#utility.yul\":6385:6386   */\n      0x01\n        /* \"#utility.yul\":6379:6383   */\n      dup3\n        /* \"#utility.yul\":6375:6387   */\n      and\n        /* \"#utility.yul\":6406:6424   */\n      dup1\n        /* \"#utility.yul\":6396:6477   */\n      tag_192\n      jumpi\n        /* \"#utility.yul\":6462:6466   */\n      0x7f\n        /* \"#utility.yul\":6454:6460   */\n      dup3\n        /* \"#utility.yul\":6450:6467   */\n      and\n        /* \"#utility.yul\":6440:6467   */\n      swap2\n      pop\n        /* \"#utility.yul\":6396:6477   */\n    tag_192:\n        /* \"#utility.yul\":6524:6526   */\n      0x20\n        /* \"#utility.yul\":6516:6522   */\n      dup3\n        /* \"#utility.yul\":6513:6527   */\n      lt\n        /* \"#utility.yul\":6493:6511   */\n      dup2\n        /* \"#utility.yul\":6490:6528   */\n      sub\n        /* \"#utility.yul\":6487:6571   */\n      tag_193\n      jumpi\n        /* \"#utility.yul\":6543:6561   */\n      tag_194\n      tag_102\n      jump\t// in\n    tag_194:\n        /* \"#utility.yul\":6487:6571   */\n    tag_193:\n        /* \"#utility.yul\":6308:6577   */\n      pop\n        /* \"#utility.yul\":6257:6577   */\n      swap2\n      swap1\n      pop\n      jump\t// out\n        /* \"#utility.yul\":6583:6763   */\n    tag_46:\n        /* \"#utility.yul\":6631:6708   */\n      0x4e487b7100000000000000000000000000000000000000000000000000000000\n        /* \"#utility.yul\":6628:6629   */\n      0x00\n        /* \"#utility.yul\":6621:6709   */\n      mstore\n        /* \"#utility.yul\":6728:6732   */\n      0x32\n        /* \"#utility.yul\":6725:6726   */\n      0x04\n        /* \"#utility.yul\":6718:6733   */\n      mstore\n        /* \"#utility.yul\":6752:6756   */\n      0x24\n        /* \"#utility.yul\":6749:6750   */\n      0x00\n        /* \"#utility.yul\":6742:6757   */\n      revert\n        /* \"#utility.yul\":6769:6910   */\n    tag_103:\n        /* \"#utility.yul\":6818:6822   */\n      0x00\n        /* \"#utility.yul\":6841:6844   */\n      dup2\n        /* \"#utility.yul\":6833:6844   */\n      swap1\n      pop\n        /* \"#utility.yul\":6864:6867   */\n      dup2\n        /* \"#utility.yul\":6861:6862   */\n      0x00\n        /* \"#utility.yul\":6854:6868   */\n      mstore\n        /* \"#utility.yul\":6898:6902   */\n      0x20\n        /* \"#utility.yul\":6895:6896   */\n      0x00\n        /* \"#utility.yul\":6885:6903   */\n      keccak256\n        /* \"#utility.yul\":6877:6903   */\n      swap1\n      pop\n        /* \"#utility.yul\":6769:6910   */\n      swap2\n      swap1\n      pop\n      jump\t// out\n        /* \"#utility.yul\":6940:7814   */\n    tag_104:\n        /* \"#utility.yul\":7043:7046   */\n      0x00\n        /* \"#utility.yul\":7080:7085   */\n      dup2\n        /* \"#utility.yul\":7074:7086   */\n      sload\n        /* \"#utility.yul\":7109:7145   */\n      tag_198\n        /* \"#utility.yul\":7135:7144   */\n      dup2\n        /* \"#utility.yul\":7109:7145   */\n      tag_35\n      jump\t// in\n    tag_198:\n        /* \"#utility.yul\":7161:7250   */\n      tag_199\n        /* \"#utility.yul\":7243:7249   */\n      dup2\n        /* \"#utility.yul\":7238:7241   */\n      dup7\n        /* \"#utility.yul\":7161:7250   */\n      tag_100\n      jump\t// in\n    tag_199:\n        /* \"#utility.yul\":7154:7250   */\n      swap5\n      pop\n        /* \"#utility.yul\":7281:7282   */\n      0x01\n        /* \"#utility.yul\":7270:7279   */\n      dup3\n        /* \"#utility.yul\":7266:7283   */\n      and\n        /* \"#utility.yul\":7297:7298   */\n      0x00\n        /* \"#utility.yul\":7292:7458   */\n      dup2\n      eq\n      tag_201\n      jumpi\n        /* \"#utility.yul\":7472:7473   */\n      0x01\n        /* \"#utility.yul\":7467:7808   */\n      dup2\n      eq\n      tag_202\n      jumpi\n        /* \"#utility.yul\":7259:7808   */\n      jump(tag_200)\n        /* \"#utility.yul\":7292:7458   */\n    tag_201:\n        /* \"#utility.yul\":7376:7380   */\n      0xff\n        /* \"#utility.yul\":7372:7381   */\n      not\n        /* \"#utility.yul\":7361:7370   */\n      dup4\n        /* \"#utility.yul\":7357:7382   */\n      and\n        /* \"#utility.yul\":7352:7355   */\n      dup7\n        /* \"#utility.yul\":7345:7383   */\n      mstore\n        /* \"#utility.yul\":7438:7444   */\n      dup2\n        /* \"#utility.yul\":7431:7445   */\n      iszero\n        /* \"#utility.yul\":7424:7446   */\n      iszero\n        /* \"#utility.yul\":7416:7422   */\n      dup3\n        /* \"#utility.yul\":7412:7447   */\n      mul\n        /* \"#utility.yul\":7407:7410   */\n      dup7\n        /* \"#utility.yul\":7403:7448   */\n      add\n        /* \"#utility.yul\":7396:7448   */\n      swap4\n      pop\n        /* \"#utility.yul\":7292:7458   */\n      jump(tag_200)\n        /* \"#utility.yul\":7467:7808   */\n    tag_202:\n        /* \"#utility.yul\":7534:7572   */\n      tag_203\n        /* \"#utility.yul\":7566:7571   */\n      dup6\n        /* \"#utility.yul\":7534:7572   */\n      tag_103\n      jump\t// in\n    tag_203:\n        /* \"#utility.yul\":7594:7595   */\n      0x00\n        /* \"#utility.yul\":7608:7762   */\n    tag_204:\n        /* \"#utility.yul\":7622:7628   */\n      dup4\n        /* \"#utility.yul\":7619:7620   */\n      dup2\n        /* \"#utility.yul\":7616:7629   */\n      lt\n        /* \"#utility.yul\":7608:7762   */\n      iszero\n      tag_206\n      jumpi\n        /* \"#utility.yul\":7696:7703   */\n      dup2\n        /* \"#utility.yul\":7690:7704   */\n      sload\n        /* \"#utility.yul\":7686:7687   */\n      dup2\n        /* \"#utility.yul\":7681:7684   */\n      dup10\n        /* \"#utility.yul\":7677:7688   */\n      add\n        /* \"#utility.yul\":7670:7705   */\n      mstore\n        /* \"#utility.yul\":7746:7747   */\n      0x01\n        /* \"#utility.yul\":7737:7744   */\n      dup3\n        /* \"#utility.yul\":7733:7748   */\n      add\n        /* \"#utility.yul\":7722:7748   */\n      swap2\n      pop\n        /* \"#utility.yul\":7644:7648   */\n      0x20\n        /* \"#utility.yul\":7641:7642   */\n      dup2\n        /* \"#utility.yul\":7637:7649   */\n      add\n        /* \"#utility.yul\":7632:7649   */\n      swap1\n      pop\n        /* \"#utility.yul\":7608:7762   */\n      jump(tag_204)\n    tag_206:\n        /* \"#utility.yul\":7791:7797   */\n      dup4\n        /* \"#utility.yul\":7786:7789   */\n      dup9\n        /* \"#utility.yul\":7782:7798   */\n      add\n        /* \"#utility.yul\":7775:7798   */\n      swap6\n      pop\n        /* \"#utility.yul\":7474:7808   */\n      pop\n      pop\n        /* \"#utility.yul\":7259:7808   */\n    tag_200:\n      pop\n        /* \"#utility.yul\":7047:7814   */\n      pop\n      pop\n        /* \"#utility.yul\":6940:7814   */\n      swap3\n      swap2\n      pop\n      pop\n      jump\t// out\n        /* \"#utility.yul\":7820:8089   */\n    tag_49:\n        /* \"#utility.yul\":7949:7952   */\n      0x00\n        /* \"#utility.yul\":7971:8063   */\n      tag_208\n        /* \"#utility.yul\":8059:8062   */\n      dup3\n        /* \"#utility.yul\":8050:8056   */\n      dup5\n        /* \"#utility.yul\":7971:8063   */\n      tag_104\n      jump\t// in\n    tag_208:\n        /* \"#utility.yul\":7964:8063   */\n      swap2\n      pop\n        /* \"#utility.yul\":8080:8083   */\n      dup2\n        /* \"#utility.yul\":8073:8083   */\n      swap1\n      pop\n        /* \"#utility.yul\":7820:8089   */\n      swap3\n      swap2\n      pop\n      pop\n      jump\t// out\n        /* \"#utility.yul\":8095:8188   */\n    tag_105:\n        /* \"#utility.yul\":8132:8138   */\n      0x00\n        /* \"#utility.yul\":8179:8181   */\n      0x20\n        /* \"#utility.yul\":8174:8176   */\n      0x1f\n        /* \"#utility.yul\":8167:8172   */\n      dup4\n        /* \"#utility.yul\":8163:8177   */\n      add\n        /* \"#utility.yul\":8159:8182   */\n      div\n        /* \"#utility.yul\":8149:8182   */\n      swap1\n      pop\n        /* \"#utility.yul\":8095:8188   */\n      swap2\n      swap1\n      pop\n      jump\t// out\n        /* \"#utility.yul\":8194:8301   */\n    tag_106:\n        /* \"#utility.yul\":8238:8246   */\n      0x00\n        /* \"#utility.yul\":8288:8293   */\n      dup3\n        /* \"#utility.yul\":8282:8286   */\n      dup3\n        /* \"#utility.yul\":8278:8294   */\n      shl\n        /* \"#utility.yul\":8257:8294   */\n      swap1\n      pop\n        /* \"#utility.yul\":8194:8301   */\n      swap3\n      swap2\n      pop\n      pop\n      jump\t// out\n        /* \"#utility.yul\":8307:8700   */\n    tag_107:\n        /* \"#utility.yul\":8376:8382   */\n      0x00\n        /* \"#utility.yul\":8426:8427   */\n      0x08\n        /* \"#utility.yul\":8414:8424   */\n      dup4\n        /* \"#utility.yul\":8410:8428   */\n      mul\n        /* \"#utility.yul\":8449:8546   */\n      tag_212\n        /* \"#utility.yul\":8479:8545   */\n      0xffffffffffffffffffffffffffffffffffffffffffffffffffffffffffffffff\n        /* \"#utility.yul\":8468:8477   */\n      dup3\n        /* \"#utility.yul\":8449:8546   */\n      tag_106\n      jump\t// in\n    tag_212:\n        /* \"#utility.yul\":8567:8606   */\n      tag_213\n        /* \"#utility.yul\":8597:8605   */\n      dup7\n        /* \"#utility.yul\":8586:8595   */\n      dup4\n        /* \"#utility.yul\":8567:8606   */\n      tag_106\n      jump\t// in\n    tag_213:\n        /* \"#utility.yul\":8555:8606   */\n      swap6\n      pop\n        /* \"#utility.yul\":8639:8643   */\n      dup1\n        /* \"#utility.yul\":8635:8644   */\n      not\n        /* \"#utility.yul\":8628:8633   */\n      dup5\n        /* \"#utility.yul\":8624:8645   */\n      and\n        /* \"#utility.yul\":8615:8645   */\n      swap4\n      pop\n        /* \"#utility.yul\":8688:8692   */\n      dup1\n        /* \"#utility.yul\":8678:8686   */\n      dup7\n        /* \"#utility.yul\":8674:8693   */\n      and\n        /* \"#utility.yul\":8667:8672   */\n      dup5\n        /* \"#utility.yul\":8664:8694   */\n      or\n        /* \"#utility.yul\":8654:8694   */\n      swap3\n      pop\n        /* \"#utility.yul\":8383:8700   */\n      pop\n      pop\n        /* \"#utility.yul\":8307:8700   */\n      swap4\n      swap3\n      pop\n      pop\n      pop\n      jump\t// out\n        /* \"#utility.yul\":8706:8766   */\n    tag_108:\n        /* \"#utility.yul\":8734:8737   */\n      0x00\n        /* \"#utility.yul\":8755:8760   */\n      dup2\n        /* \"#utility.yul\":8748:8760   */\n      swap1\n      pop\n        /* \"#utility.yul\":8706:8766   */\n      swap2\n      swap1\n      pop\n      jump\t// out\n        /* \"#utility.yul\":8772:8914   */\n    tag_109:\n        /* \"#utility.yul\":8822:8831   */\n      0x00\n        /* \"#utility.yul\":8855:8908   */\n      tag_216\n        /* \"#utility.yul\":8873:8907   */\n      tag_217\n        /* \"#utility.yul\":8882:8906   */\n      tag_218\n        /* \"#utility.yul\":8900:8905   */\n      dup5\n        /* \"#utility.yul\":8882:8906   */\n      tag_92\n      jump\t// in\n    tag_218:\n        /* \"#utility.yul\":8873:8907   */\n      tag_108\n      jump\t// in\n    tag_217:\n        /* \"#utility.yul\":8855:8908   */\n      tag_92\n      jump\t// in\n    tag_216:\n        /* \"#utility.yul\":8842:8908   */\n      swap1\n      pop\n        /* \"#utility.yul\":8772:8914   */\n      swap2\n      swap1\n      pop\n      jump\t// out\n        /* \"#utility.yul\":8920:8995   */\n    tag_110:\n        /* \"#utility.yul\":8963:8966   */\n      0x00\n        /* \"#utility.yul\":8984:8989   */\n      dup2\n        /* \"#utility.yul\":8977:8989   */\n      swap1\n      pop\n        /* \"#utility.yul\":8920:8995   */\n      swap2\n      swap1\n      pop\n      jump\t// out\n        /* \"#utility.yul\":9001:9270   */\n    tag_111:\n        /* \"#utility.yul\":9111:9150   */\n      tag_221\n        /* \"#utility.yul\":9142:9149   */\n      dup4\n        /* \"#utility.yul\":9111:9150   */\n      tag_109\n      jump\t// in\n    tag_221:\n        /* \"#utility.yul\":9172:9263   */\n      tag_222\n        /* \"#utility.yul\":9221:9262   */\n      tag_223\n        /* \"#utility.yul\":9245:9261   */\n      dup3\n        /* \"#utility.yul\":9221:9262   */\n      tag_110\n      jump\t// in\n    tag_223:\n        /* \"#utility.yul\":9213:9219   */\n      dup5\n        /* \"#utility.yul\":9206:9210   */\n      dup5\n        /* \"#utility.yul\":9200:9211   */\n      sload\n        /* \"#utility.yul\":9172:9263   */\n      tag_107\n      jump\t// in\n    tag_222:\n        /* \"#utility.yul\":9166:9170   */\n      dup3\n        /* \"#utility.yul\":9159:9264   */\n      sstore\n        /* \"#utility.yul\":9077:9270   */\n      pop\n        /* \"#utility.yul\":9001:9270   */\n      pop\n      pop\n      pop\n      jump\t// out\n        /* \"#utility.yul\":9276:9349   */\n    tag_112:\n        /* \"#utility.yul\":9321:9324   */\n      0x00\n        /* \"#utility.yul\":9342:9343   */\n      0x00\n        /* \"#utility.yul\":9335:9343   */\n      swap1\n      pop\n        /* \"#utility.yul\":9276:9349   */\n      swap1\n      jump\t// out\n        /* \"#utility.yul\":9355:9544   */\n    tag_113:\n        /* \"#utility.yul\":9432:9464   */\n      tag_226\n      tag_112\n      jump\t// in\n    tag_226:\n        /* \"#utility.yul\":9473:9538   */\n      tag_227\n        /* \"#utility.yul\":9531:9537   */\n      dup2\n        /* \"#utility.yul\":9523:9529   */\n      dup5\n        /* \"#utility.yul\":9517:9521   */\n      dup5\n        /* \"#utility.yul\":9473:9538   */\n      tag_111\n      jump\t// in\n    tag_227:\n        /* \"#utility.yul\":9408:9544   */\n      pop\n        /* \"#utility.yul\":9355:9544   */\n      pop\n      pop\n      jump\t// out\n        /* \"#utility.yul\":9550:9736   */\n    tag_114:\n        /* \"#utility.yul\":9610:9730   */\n    tag_229:\n        /* \"#utility.yul\":9627:9630   */\n      dup2\n        /* \"#utility.yul\":9620:9625   */\n      dup2\n        /* \"#utility.yul\":9617:9631   */\n      lt\n        /* \"#utility.yul\":9610:9730   */\n      iszero\n      tag_231\n      jumpi\n        /* \"#utility.yul\":9681:9720   */\n      tag_232\n        /* \"#utility.yul\":9718:9719   */\n      0x00\n        /* \"#utility.yul\":9711:9716   */\n      dup3\n        /* \"#utility.yul\":9681:9720   */\n      tag_113\n      jump\t// in\n    tag_232:\n        /* \"#utility.yul\":9654:9655   */\n      0x01\n        /* \"#utility.yul\":9647:9652   */\n      dup2\n        /* \"#utility.yul\":9643:9656   */\n      add\n        /* \"#utility.yul\":9634:9656   */\n      swap1\n      pop\n        /* \"#utility.yul\":9610:9730   */\n      jump(tag_229)\n    tag_231:\n        /* \"#utility.yul\":9550:9736   */\n      pop\n      pop\n      jump\t// out\n        /* \"#utility.yul\":9742:10285   */\n    tag_115:\n        /* \"#utility.yul\":9843:9845   */\n      0x1f\n        /* \"#utility.yul\":9838:9841   */\n      dup3\n        /* \"#utility.yul\":9835:9846   */\n      gt\n        /* \"#utility.yul\":9832:10278   */\n      iszero\n      tag_234\n      jumpi\n        /* \"#utility.yul\":9877:9915   */\n      tag_235\n        /* \"#utility.yul\":9909:9914   */\n      dup2\n        /* \"#utility.yul\":9877:9915   */\n      tag_103\n      jump\t// in\n    tag_235:\n        /* \"#utility.yul\":9961:9990   */\n      tag_236\n        /* \"#utility.yul\":9979:9989   */\n      dup5\n        /* \"#utility.yul\":9961:9990   */\n      tag_105\n      jump\t// in\n    tag_236:\n        /* \"#utility.yul\":9951:9959   */\n      dup2\n        /* \"#utility.yul\":9947:9991   */\n      add\n        /* \"#utility.yul\":10144:10146   */\n      0x20\n        /* \"#utility.yul\":10132:10142   */\n      dup6\n        /* \"#utility.yul\":10129:10147   */\n      lt\n        /* \"#utility.yul\":10126:10175   */\n      iszero\n      tag_237\n      jumpi\n        /* \"#utility.yul\":10165:10173   */\n      dup2\n        /* \"#utility.yul\":10150:10173   */\n      swap1\n      pop\n        /* \"#utility.yul\":10126:10175   */\n    tag_237:\n        /* \"#utility.yul\":10188:10268   */\n      tag_238\n        /* \"#utility.yul\":10244:10266   */\n      tag_239\n        /* \"#utility.yul\":10262:10265   */\n      dup6\n        /* \"#utility.yul\":10244:10266   */\n      tag_105\n      jump\t// in\n    tag_239:\n        /* \"#utility.yul\":10234:10242   */\n      dup4\n        /* \"#utility.yul\":10230:10267   */\n      add\n        /* \"#utility.yul\":10217:10228   */\n      dup3\n        /* \"#utility.yul\":10188:10268   */\n      tag_114\n      jump\t// in\n    tag_238:\n        /* \"#utility.yul\":9847:10278   */\n      pop\n      pop\n        /* \"#utility.yul\":9832:10278   */\n    tag_234:\n        /* \"#utility.yul\":9742:10285   */\n      pop\n      pop\n      pop\n      jump\t// out\n        /* \"#utility.yul\":10291:10408   */\n    tag_116:\n        /* \"#utility.yul\":10345:10353   */\n      0x00\n        /* \"#utility.yul\":10395:10400   */\n      dup3\n        /* \"#utility.yul\":10389:10393   */\n      dup3\n        /* \"#utility.yul\":10385:10401   */\n      shr\n        /* \"#utility.yul\":10364:10401   */\n      swap1\n      pop\n        /* \"#utility.yul\":10291:10408   */\n      swap3\n      swap2\n      pop\n      pop\n      jump\t// out\n        /* \"#utility.yul\":10414:10583   */\n    tag_117:\n        /* \"#utility.yul\":10458:10464   */\n      0x00\n        /* \"#utility.yul\":10491:10542   */\n      tag_242\n        /* \"#utility.yul\":10539:10540   */\n      0x00\n        /* \"#utility.yul\":10535:10541   */\n      not\n        /* \"#utility.yul\":10527:10532   */\n      dup5\n        /* \"#utility.yul\":10524:10525   */\n      0x08\n        /* \"#utility.yul\":10520:10533   */\n      mul\n        /* \"#utility.yul\":10491:10542   */\n      tag_116\n      jump\t// in\n    tag_242:\n        /* \"#utility.yul\":10487:10543   */\n      not\n        /* \"#utility.yul\":10572:10576   */\n      dup1\n        /* \"#utility.yul\":10566:10570   */\n      dup4\n        /* \"#utility.yul\":10562:10577   */\n      and\n        /* \"#utility.yul\":10552:10577   */\n      swap2\n      pop\n        /* \"#utility.yul\":10465:10583   */\n      pop\n        /* \"#utility.yul\":10414:10583   */\n      swap3\n      swap2\n      pop\n      pop\n      jump\t// out\n        /* \"#utility.yul\":10588:10883   */\n    tag_118:\n        /* \"#utility.yul\":10664:10668   */\n      0x00\n        /* \"#utility.yul\":10810:10839   */\n      tag_244\n        /* \"#utility.yul\":10835:10838   */\n      dup4\n        /* \"#utility.yul\":10829:10833   */\n      dup4\n        /* \"#utility.yul\":10810:10839   */\n      tag_117\n      jump\t// in\n    tag_244:\n        /* \"#utility.yul\":10802:10839   */\n      swap2\n      pop\n        /* \"#utility.yul\":10872:10875   */\n      dup3\n        /* \"#utility.yul\":10869:10870   */\n      0x02\n        /* \"#utility.yul\":10865:10876   */\n      mul\n        /* \"#utility.yul\":10859:10863   */\n      dup3\n        /* \"#utility.yul\":10856:10877   */\n      or\n        /* \"#utility.yul\":10848:10877   */\n      swap1\n      pop\n        /* \"#utility.yul\":10588:10883   */\n      swap3\n      swap2\n      pop\n      pop\n      jump\t// out\n        /* \"#utility.yul\":10888:12283   */\n    tag_66:\n        /* \"#utility.yul\":11005:11042   */\n      tag_246\n        /* \"#utility.yul\":11038:11041   */\n      dup3\n        /* \"#utility.yul\":11005:11042   */\n      tag_96\n      jump\t// in\n    tag_246:\n        /* \"#utility.yul\":11107:11125   */\n      0xffffffffffffffff\n        /* \"#utility.yul\":11099:11105   */\n      dup2\n        /* \"#utility.yul\":11096:11126   */\n      gt\n        /* \"#utility.yul\":11093:11149   */\n      iszero\n      tag_247\n      jumpi\n        /* \"#utility.yul\":11129:11147   */\n      tag_248\n      tag_85\n      jump\t// in\n    tag_248:\n        /* \"#utility.yul\":11093:11149   */\n    tag_247:\n        /* \"#utility.yul\":11173:11211   */\n      tag_249\n        /* \"#utility.yul\":11205:11209   */\n      dup3\n        /* \"#utility.yul\":11199:11210   */\n      sload\n        /* \"#utility.yul\":11173:11211   */\n      tag_35\n      jump\t// in\n    tag_249:\n        /* \"#utility.yul\":11258:11325   */\n      tag_250\n        /* \"#utility.yul\":11318:11324   */\n      dup3\n        /* \"#utility.yul\":11310:11316   */\n      dup3\n        /* \"#utility.yul\":11304:11308   */\n      dup6\n        /* \"#utility.yul\":11258:11325   */\n      tag_115\n      jump\t// in\n    tag_250:\n        /* \"#utility.yul\":11352:11353   */\n      0x00\n        /* \"#utility.yul\":11376:11380   */\n      0x20\n        /* \"#utility.yul\":11363:11380   */\n      swap1\n      pop\n        /* \"#utility.yul\":11408:11410   */\n      0x1f\n        /* \"#utility.yul\":11400:11406   */\n      dup4\n        /* \"#utility.yul\":11397:11411   */\n      gt\n        /* \"#utility.yul\":11425:11426   */\n      0x01\n        /* \"#utility.yul\":11420:12038   */\n      dup2\n      eq\n      tag_252\n      jumpi\n        /* \"#utility.yul\":12082:12083   */\n      0x00\n        /* \"#utility.yul\":12099:12105   */\n      dup5\n        /* \"#utility.yul\":12096:12173   */\n      iszero\n      tag_253\n      jumpi\n        /* \"#utility.yul\":12148:12157   */\n      dup3\n        /* \"#utility.yul\":12143:12146   */\n      dup8\n        /* \"#utility.yul\":12139:12158   */\n      add\n        /* \"#utility.yul\":12133:12159   */\n      mload\n        /* \"#utility.yul\":12124:12159   */\n      swap1\n      pop\n        /* \"#utility.yul\":12096:12173   */\n    tag_253:\n        /* \"#utility.yul\":12199:12266   */\n      tag_254\n        /* \"#utility.yul\":12259:12265   */\n      dup6\n        /* \"#utility.yul\":12252:12257   */\n      dup3\n        /* \"#utility.yul\":12199:12266   */\n      tag_118\n      jump\t// in\n    tag_254:\n        /* \"#utility.yul\":12193:12197   */\n      dup7\n        /* \"#utility.yul\":12186:12267   */\n      sstore\n        /* \"#utility.yul\":12055:12277   */\n      pop\n        /* \"#utility.yul\":11390:12277   */\n      jump(tag_251)\n        /* \"#utility.yul\":11420:12038   */\n    tag_252:\n        /* \"#utility.yul\":11472:11476   */\n      0x1f\n        /* \"#utility.yul\":11468:11477   */\n      not\n        /* \"#utility.yul\":11460:11466   */\n      dup5\n        /* \"#utility.yul\":11456:11478   */\n      and\n        /* \"#utility.yul\":11506:11543   */\n      tag_255\n        /* \"#utility.yul\":11538:11542   */\n      dup7\n        /* \"#utility.yul\":11506:11543   */\n      tag_103\n      jump\t// in\n    tag_255:\n        /* \"#utility.yul\":11565:11566   */\n      0x00\n        /* \"#utility.yul\":11579:11787   */\n    tag_256:\n        /* \"#utility.yul\":11593:11600   */\n      dup3\n        /* \"#utility.yul\":11590:11591   */\n      dup2\n        /* \"#utility.yul\":11587:11601   */\n      lt\n        /* \"#utility.yul\":11579:11787   */\n      iszero\n      tag_258\n      jumpi\n        /* \"#utility.yul\":11672:11681   */\n      dup5\n        /* \"#utility.yul\":11667:11670   */\n      dup10\n        /* \"#utility.yul\":11663:11682   */\n      add\n        /* \"#utility.yul\":11657:11683   */\n      mload\n        /* \"#utility.yul\":11649:11655   */\n      dup3\n        /* \"#utility.yul\":11642:11684   */\n      sstore\n        /* \"#utility.yul\":11723:11724   */\n      0x01\n        /* \"#utility.yul\":11715:11721   */\n      dup3\n        /* \"#utility.yul\":11711:11725   */\n      add\n        /* \"#utility.yul\":11701:11725   */\n      swap2\n      pop\n        /* \"#utility.yul\":11770:11772   */\n      0x20\n        /* \"#utility.yul\":11759:11768   */\n      dup6\n        /* \"#utility.yul\":11755:11773   */\n      add\n        /* \"#utility.yul\":11742:11773   */\n      swap5\n      pop\n        /* \"#utility.yul\":11616:11620   */\n      0x20\n        /* \"#utility.yul\":11613:11614   */\n      dup2\n        /* \"#utility.yul\":11609:11621   */\n      add\n        /* \"#utility.yul\":11604:11621   */\n      swap1\n      pop\n        /* \"#utility.yul\":11579:11787   */\n      jump(tag_256)\n    tag_258:\n        /* \"#utility.yul\":11815:11821   */\n      dup7\n        /* \"#utility.yul\":11806:11813   */\n      dup4\n        /* \"#utility.yul\":11803:11822   */\n      lt\n        /* \"#utility.yul\":11800:11979   */\n      iszero\n      tag_259\n      jumpi\n        /* \"#utility.yul\":11873:11882   */\n      dup5\n        /* \"#utility.yul\":11868:11871   */\n      dup10\n        /* \"#utility.yul\":11864:11883   */\n      add\n        /* \"#utility.yul\":11858:11884   */\n      mload\n        /* \"#utility.yul\":11916:11964   */\n      tag_260\n        /* \"#utility.yul\":11958:11962   */\n      0x1f\n        /* \"#utility.yul\":11950:11956   */\n      dup10\n        /* \"#utility.yul\":11946:11963   */\n      and\n        /* \"#utility.yul\":11935:11944   */\n      dup3\n        /* \"#utility.yul\":11916:11964   */\n      tag_117\n      jump\t// in\n    tag_260:\n        /* \"#utility.yul\":11908:11914   */\n      dup4\n        /* \"#utility.yul\":11901:11965   */\n      sstore\n        /* \"#utility.yul\":11823:11979   */\n      pop\n        /* \"#utility.yul\":11800:11979   */\n    tag_259:\n        /* \"#utility.yul\":12025:12026   */\n      0x01\n        /* \"#utility.yul\":12021:12022   */\n      0x02\n        /* \"#utility.yul\":12013:12019   */\n      dup9\n        /* \"#utility.yul\":12009:12023   */\n      mul\n        /* \"#utility.yul\":12005:12027   */\n      add\n        /* \"#utility.yul\":11999:12003   */\n      dup9\n        /* \"#utility.yul\":11992:12028   */\n      sstore\n        /* \"#utility.yul\":11427:12038   */\n      pop\n      pop\n      pop\n        /* \"#utility.yul\":11390:12277   */\n    tag_251:\n      pop\n        /* \"#utility.yul\":10980:12283   */\n      pop\n      pop\n      pop\n        /* \"#utility.yul\":10888:12283   */\n      pop\n      pop\n      jump\t// out\n        /* \"#utility.yul\":12289:12469   */\n    tag_119:\n        /* \"#utility.yul\":12337:12414   */\n      0x4e487b7100000000000000000000000000000000000000000000000000000000\n        /* \"#utility.yul\":12334:12335   */\n      0x00\n        /* \"#utility.yul\":12327:12415   */\n      mstore\n        /* \"#utility.yul\":12434:12438   */\n      0x11\n        /* \"#utility.yul\":12431:12432   */\n      0x04\n        /* \"#utility.yul\":12424:12439   */\n      mstore\n        /* \"#utility.yul\":12458:12462   */\n      0x24\n        /* \"#utility.yul\":12455:12456   */\n      0x00\n        /* \"#utility.yul\":12448:12463   */\n      revert\n        /* \"#utility.yul\":12475:12708   */\n    tag_68:\n        /* \"#utility.yul\":12514:12517   */\n      0x00\n        /* \"#utility.yul\":12537:12561   */\n      tag_263\n        /* \"#utility.yul\":12555:12560   */\n      dup3\n        /* \"#utility.yul\":12537:12561   */\n      tag_92\n      jump\t// in\n    tag_263:\n        /* \"#utility.yul\":12528:12561   */\n      swap2\n      pop\n        /* \"#utility.yul\":12583:12649   */\n      0xffffffffffffffffffffffffffffffffffffffffffffffffffffffffffffffff\n        /* \"#utility.yul\":12576:12581   */\n      dup3\n        /* \"#utility.yul\":12573:12650   */\n      sub\n        /* \"#utility.yul\":12570:12673   */\n      tag_264\n      jumpi\n        /* \"#utility.yul\":12653:12671   */\n      tag_265\n      tag_119\n      jump\t// in\n    tag_265:\n        /* \"#utility.yul\":12570:12673   */\n    tag_264:\n        /* \"#utility.yul\":12700:12701   */\n      0x01\n        /* \"#utility.yul\":12693:12698   */\n      dup3\n        /* \"#utility.yul\":12689:12702   */\n      add\n        /* \"#utility.yul\":12682:12702   */\n      swap1\n      pop\n        /* \"#utility.yul\":12475:12708   */\n      swap2\n      swap1\n      pop\n      jump\t// out\n        /* \"#utility.yul\":12714:12840   */\n    tag_120:\n        /* \"#utility.yul\":12751:12758   */\n      0x00\n        /* \"#utility.yul\":12791:12833   */\n      0xffffffffffffffffffffffffffffffffffffffff\n        /* \"#utility.yul\":12784:12789   */\n      dup3\n        /* \"#utility.yul\":12780:12834   */\n      and\n        /* \"#utility.yul\":12769:12834   */\n      swap1\n      pop\n        /* \"#utility.yul\":12714:12840   */\n      swap2\n      swap1\n      pop\n      jump\t// out\n        /* \"#utility.yul\":12846:12942   */\n    tag_121:\n        /* \"#utility.yul\":12883:12890   */\n      0x00\n        /* \"#utility.yul\":12912:12936   */\n      tag_268\n        /* \"#utility.yul\":12930:12935   */\n      dup3\n        /* \"#utility.yul\":12912:12936   */\n      tag_120\n      jump\t// in\n    tag_268:\n        /* \"#utility.yul\":12901:12936   */\n      swap1\n      pop\n        /* \"#utility.yul\":12846:12942   */\n      swap2\n      swap1\n      pop\n      jump\t// out\n        /* \"#utility.yul\":12948:13066   */\n    tag_122:\n        /* \"#utility.yul\":13035:13059   */\n      tag_270\n        /* \"#utility.yul\":13053:13058   */\n      dup2\n        /* \"#utility.yul\":13035:13059   */\n      tag_121\n      jump\t// in\n    tag_270:\n        /* \"#utility.yul\":13030:13033   */\n      dup3\n        /* \"#utility.yul\":13023:13060   */\n      mstore\n        /* \"#utility.yul\":12948:13066   */\n      pop\n      pop\n      jump\t// out\n        /* \"#utility.yul\":13072:13495   */\n    tag_71:\n        /* \"#utility.yul\":13213:13217   */\n      0x00\n        /* \"#utility.yul\":13251:13253   */\n      0x40\n        /* \"#utility.yul\":13240:13249   */\n      dup3\n        /* \"#utility.yul\":13236:13254   */\n      add\n        /* \"#utility.yul\":13228:13254   */\n      swap1\n      pop\n        /* \"#utility.yul\":13264:13335   */\n      tag_272\n        /* \"#utility.yul\":13332:13333   */\n      0x00\n        /* \"#utility.yul\":13321:13330   */\n      dup4\n        /* \"#utility.yul\":13317:13334   */\n      add\n        /* \"#utility.yul\":13308:13314   */\n      dup6\n        /* \"#utility.yul\":13264:13335   */\n      tag_122\n      jump\t// in\n    tag_272:\n        /* \"#utility.yul\":13382:13391   */\n      dup2\n        /* \"#utility.yul\":13376:13380   */\n      dup2\n        /* \"#utility.yul\":13372:13392   */\n      sub\n        /* \"#utility.yul\":13367:13369   */\n      0x20\n        /* \"#utility.yul\":13356:13365   */\n      dup4\n        /* \"#utility.yul\":13352:13370   */\n      add\n        /* \"#utility.yul\":13345:13393   */\n      mstore\n        /* \"#utility.yul\":13410:13488   */\n      tag_273\n        /* \"#utility.yul\":13483:13487   */\n      dup2\n        /* \"#utility.yul\":13474:13480   */\n      dup5\n        /* \"#utility.yul\":13410:13488   */\n      tag_99\n      jump\t// in\n    tag_273:\n        /* \"#utility.yul\":13402:13488   */\n      swap1\n      pop\n        /* \"#utility.yul\":13072:13495   */\n      swap4\n      swap3\n      pop\n      pop\n      pop\n      jump\t// out\n\n    auxdata: 0xa2646970667358221220eab8a1faee296dd597ad7c61948d5a2d0dedafbc002ddbeb82412eb9965c0c9d64736f6c634300081e0033\n}\n",
				"bytecode": {
					"linkReferences": {},
					"object": "6080604052348015600e575f5ffd5b50610bfe8061001c5f395ff3fe608060405234801561000f575f5ffd5b5060043610610055575f3560e01c8063440cd69a14610059578063805265e514610089578063a2bdedf4146100b9578063b9830ff1146100e9578063fc36e15b146100f3575b5f5ffd5b610073600480360381019061006e91906105bb565b61010f565b604051610080919061061a565b60405180910390f35b6100a3600480360381019061009e91906105bb565b61013b565b6040516100b0919061061a565b60405180910390f35b6100d360048036038101906100ce919061065d565b610161565b6040516100e091906106e8565b60405180910390f35b6100f1610207565b005b61010d600480360381019061010891906105bb565b610266565b005b5f818051602081018201805184825260208301602085012081835280955050505050505f915090505481565b5f5f8260405161014b9190610742565b9081526020016040518091039020549050919050565b60018181548110610170575f80fd5b905f5260205f20015f91509050805461018890610785565b80601f01602080910402602001604051908101604052809291908181526020018280546101b490610785565b80156101ff5780601f106101d6576101008083540402835291602001916101ff565b820191905f5260205f20905b8154815290600101906020018083116101e257829003601f168201915b505050505081565b5f5f90505b600180549050811015610263575f5f6001838154811061022f5761022e6107b5565b5b905f5260205f20016040516102449190610874565b908152602001604051809103902081905550808060010191505061020c565b50565b5f5f826040516102769190610742565b90815260200160405180910390205490505f8114801561036957506103676001805480602002602001604051908101604052809291908181526020015f905b8282101561035d578382905f5260205f200180546102d290610785565b80601f01602080910402602001604051908101604052809291908181526020018280546102fe90610785565b80156103495780601f1061032057610100808354040283529160200191610349565b820191905f5260205f20905b81548152906001019060200180831161032c57829003601f168201915b5050505050815260200190600101906102b5565b505050508361040e565b155b156103a157600182908060018154018082558091505060019003905f5260205f20015f90919091909150908161039f9190610a18565b505b80806103ac90610b14565b915050805f836040516103bf9190610742565b9081526020016040518091039020819055507fcb6783276e8a4347387036bbfea000268f0a4b1f8c46ac79980609f2af8d2acd3383604051610402929190610b9a565b60405180910390a15050565b5f5f5f90505b8351811015610463578280519060200120848281518110610438576104376107b5565b5b60200260200101518051906020012003610456576001915050610468565b8080600101915050610414565b505f90505b92915050565b5f604051905090565b5f5ffd5b5f5ffd5b5f5ffd5b5f5ffd5b5f601f19601f8301169050919050565b7f4e487b71000000000000000000000000000000000000000000000000000000005f52604160045260245ffd5b6104cd82610487565b810181811067ffffffffffffffff821117156104ec576104eb610497565b5b80604052505050565b5f6104fe61046e565b905061050a82826104c4565b919050565b5f67ffffffffffffffff82111561052957610528610497565b5b61053282610487565b9050602081019050919050565b828183375f83830152505050565b5f61055f61055a8461050f565b6104f5565b90508281526020810184848401111561057b5761057a610483565b5b61058684828561053f565b509392505050565b5f82601f8301126105a2576105a161047f565b5b81356105b284826020860161054d565b91505092915050565b5f602082840312156105d0576105cf610477565b5b5f82013567ffffffffffffffff8111156105ed576105ec61047b565b5b6105f98482850161058e565b91505092915050565b5f819050919050565b61061481610602565b82525050565b5f60208201905061062d5f83018461060b565b92915050565b61063c81610602565b8114610646575f5ffd5b50565b5f8135905061065781610633565b92915050565b5f6020828403121561067257610671610477565b5b5f61067f84828501610649565b91505092915050565b5f81519050919050565b5f82825260208201905092915050565b8281835e5f83830152505050565b5f6106ba82610688565b6106c48185610692565b93506106d48185602086016106a2565b6106dd81610487565b840191505092915050565b5f6020820190508181035f83015261070081846106b0565b905092915050565b5f81905092915050565b5f61071c82610688565b6107268185610708565b93506107368185602086016106a2565b80840191505092915050565b5f61074d8284610712565b915081905092915050565b7f4e487b71000000000000000000000000000000000000000000000000000000005f52602260045260245ffd5b5f600282049050600182168061079c57607f821691505b6020821081036107af576107ae610758565b5b50919050565b7f4e487b71000000000000000000000000000000000000000000000000000000005f52603260045260245ffd5b5f819050815f5260205f209050919050565b5f815461080081610785565b61080a8186610708565b9450600182165f811461082457600181146108395761086b565b60ff198316865281151582028601935061086b565b610842856107e2565b5f5b8381101561086357815481890152600182019150602081019050610844565b838801955050505b50505092915050565b5f61087f82846107f4565b915081905092915050565b5f6020601f8301049050919050565b5f82821b905092915050565b5f600883026108d47fffffffffffffffffffffffffffffffffffffffffffffffffffffffffffffffff82610899565b6108de8683610899565b95508019841693508086168417925050509392505050565b5f819050919050565b5f61091961091461090f84610602565b6108f6565b610602565b9050919050565b5f819050919050565b610932836108ff565b61094661093e82610920565b8484546108a5565b825550505050565b5f5f905090565b61095d61094e565b610968818484610929565b505050565b5b8181101561098b576109805f82610955565b60018101905061096e565b5050565b601f8211156109d0576109a1816107e2565b6109aa8461088a565b810160208510156109b9578190505b6109cd6109c58561088a565b83018261096d565b50505b505050565b5f82821c905092915050565b5f6109f05f19846008026109d5565b1980831691505092915050565b5f610a0883836109e1565b9150826002028217905092915050565b610a2182610688565b67ffffffffffffffff811115610a3a57610a39610497565b5b610a448254610785565b610a4f82828561098f565b5f60209050601f831160018114610a80575f8415610a6e578287015190505b610a7885826109fd565b865550610adf565b601f198416610a8e866107e2565b5f5b82811015610ab557848901518255600182019150602085019450602081019050610a90565b86831015610ad25784890151610ace601f8916826109e1565b8355505b6001600288020188555050505b505050505050565b7f4e487b71000000000000000000000000000000000000000000000000000000005f52601160045260245ffd5b5f610b1e82610602565b91507fffffffffffffffffffffffffffffffffffffffffffffffffffffffffffffffff8203610b5057610b4f610ae7565b5b600182019050919050565b5f73ffffffffffffffffffffffffffffffffffffffff82169050919050565b5f610b8482610b5b565b9050919050565b610b9481610b7a565b82525050565b5f604082019050610bad5f830185610b8b565b8181036020830152610bbf81846106b0565b9050939250505056fea2646970667358221220eab8a1faee296dd597ad7c61948d5a2d0dedafbc002ddbeb82412eb9965c0c9d64736f6c634300081e0033",
					"opcodes": "PUSH1 0x80 PUSH1 0x40 MSTORE CALLVALUE DUP1 ISZERO PUSH1 0xE JUMPI PUSH0 PUSH0 REVERT JUMPDEST POP PUSH2 0xBFE DUP1 PUSH2 0x1C PUSH0 CODECOPY PUSH0 RETURN INVALID PUSH1 0x80 PUSH1 0x40 MSTORE CALLVALUE DUP1 ISZERO PUSH2 0xF JUMPI PUSH0 PUSH0 REVERT JUMPDEST POP PUSH1 0x4 CALLDATASIZE LT PUSH2 0x55 JUMPI PUSH0 CALLDATALOAD PUSH1 0xE0 SHR DUP1 PUSH4 0x440CD69A EQ PUSH2 0x59 JUMPI DUP1 PUSH4 0x805265E5 EQ PUSH2 0x89 JUMPI DUP1 PUSH4 0xA2BDEDF4 EQ PUSH2 0xB9 JUMPI DUP1 PUSH4 0xB9830FF1 EQ PUSH2 0xE9 JUMPI DUP1 PUSH4 0xFC36E15B EQ PUSH2 0xF3 JUMPI JUMPDEST PUSH0 PUSH0 REVERT JUMPDEST PUSH2 0x73 PUSH1 0x4 DUP1 CALLDATASIZE SUB DUP2 ADD SWAP1 PUSH2 0x6E SWAP2 SWAP1 PUSH2 0x5BB JUMP JUMPDEST PUSH2 0x10F JUMP JUMPDEST PUSH1 0x40 MLOAD PUSH2 0x80 SWAP2 SWAP1 PUSH2 0x61A JUMP JUMPDEST PUSH1 0x40 MLOAD DUP1 SWAP2 SUB SWAP1 RETURN JUMPDEST PUSH2 0xA3 PUSH1 0x4 DUP1 CALLDATASIZE SUB DUP2 ADD SWAP1 PUSH2 0x9E SWAP2 SWAP1 PUSH2 0x5BB JUMP JUMPDEST PUSH2 0x13B JUMP JUMPDEST PUSH1 0x40 MLOAD PUSH2 0xB0 SWAP2 SWAP1 PUSH2 0x61A JUMP JUMPDEST PUSH1 0x40 MLOAD DUP1 SWAP2 SUB SWAP1 RETURN JUMPDEST PUSH2 0xD3 PUSH1 0x4 DUP1 CALLDATASIZE SUB DUP2 ADD SWAP1 PUSH2 0xCE SWAP2 SWAP1 PUSH2 0x65D JUMP JUMPDEST PUSH2 0x161 JUMP JUMPDEST PUSH1 0x40 MLOAD PUSH2 0xE0 SWAP2 SWAP1 PUSH2 0x6E8 JUMP JUMPDEST PUSH1 0x40 MLOAD DUP1 SWAP2 SUB SWAP1 RETURN JUMPDEST PUSH2 0xF1 PUSH2 0x207 JUMP JUMPDEST STOP JUMPDEST PUSH2 0x10D PUSH1 0x4 DUP1 CALLDATASIZE SUB DUP2 ADD SWAP1 PUSH2 0x108 SWAP2 SWAP1 PUSH2 0x5BB JUMP JUMPDEST PUSH2 0x266 JUMP JUMPDEST STOP JUMPDEST PUSH0 DUP2 DUP1 MLOAD PUSH1 0x20 DUP2 ADD DUP3 ADD DUP1 MLOAD DUP5 DUP3 MSTORE PUSH1 0x20 DUP4 ADD PUSH1 0x20 DUP6 ADD KECCAK256 DUP2 DUP4 MSTORE DUP1 SWAP6 POP POP POP POP POP POP PUSH0 SWAP2 POP SWAP1 POP SLOAD DUP2 JUMP JUMPDEST PUSH0 PUSH0 DUP3 PUSH1 0x40 MLOAD PUSH2 0x14B SWAP2 SWAP1 PUSH2 0x742 JUMP JUMPDEST SWAP1 DUP2 MSTORE PUSH1 0x20 ADD PUSH1 0x40 MLOAD DUP1 SWAP2 SUB SWAP1 KECCAK256 SLOAD SWAP1 POP SWAP2 SWAP1 POP JUMP JUMPDEST PUSH1 0x1 DUP2 DUP2 SLOAD DUP2 LT PUSH2 0x170 JUMPI PUSH0 DUP1 REVERT JUMPDEST SWAP1 PUSH0 MSTORE PUSH1 0x20 PUSH0 KECCAK256 ADD PUSH0 SWAP2 POP SWAP1 POP DUP1 SLOAD PUSH2 0x188 SWAP1 PUSH2 0x785 JUMP JUMPDEST DUP1 PUSH1 0x1F ADD PUSH1 0x20 DUP1 SWAP2 DIV MUL PUSH1 0x20 ADD PUSH1 0x40 MLOAD SWAP1 DUP2 ADD PUSH1 0x40 MSTORE DUP1 SWAP3 SWAP2 SWAP1 DUP2 DUP2 MSTORE PUSH1 0x20 ADD DUP3 DUP1 SLOAD PUSH2 0x1B4 SWAP1 PUSH2 0x785 JUMP JUMPDEST DUP1 ISZERO PUSH2 0x1FF JUMPI DUP1 PUSH1 0x1F LT PUSH2 0x1D6 JUMPI PUSH2 0x100 DUP1 DUP4 SLOAD DIV MUL DUP4 MSTORE SWAP2 PUSH1 0x20 ADD SWAP2 PUSH2 0x1FF JUMP JUMPDEST DUP3 ADD SWAP2 SWAP1 PUSH0 MSTORE PUSH1 0x20 PUSH0 KECCAK256 SWAP1 JUMPDEST DUP2 SLOAD DUP2 MSTORE SWAP1 PUSH1 0x1 ADD SWAP1 PUSH1 0x20 ADD DUP1 DUP4 GT PUSH2 0x1E2 JUMPI DUP3 SWAP1 SUB PUSH1 0x1F AND DUP3 ADD SWAP2 JUMPDEST POP POP POP POP POP DUP2 JUMP JUMPDEST PUSH0 PUSH0 SWAP1 POP JUMPDEST PUSH1 0x1 DUP1 SLOAD SWAP1 POP DUP2 LT ISZERO PUSH2 0x263 JUMPI PUSH0 PUSH0 PUSH1 0x1 DUP4 DUP2 SLOAD DUP2 LT PUSH2 0x22F JUMPI PUSH2 0x22E PUSH2 0x7B5 JUMP JUMPDEST JUMPDEST SWAP1 PUSH0 MSTORE PUSH1 0x20 PUSH0 KECCAK256 ADD PUSH1 0x40 MLOAD PUSH2 0x244 SWAP2 SWAP1 PUSH2 0x874 JUMP JUMPDEST SWAP1 DUP2 MSTORE PUSH1 0x20 ADD PUSH1 0x40 MLOAD DUP1 SWAP2 SUB SWAP1 KECCAK256 DUP2 SWAP1 SSTORE POP DUP1 DUP1 PUSH1 0x1 ADD SWAP2 POP POP PUSH2 0x20C JUMP JUMPDEST POP JUMP JUMPDEST PUSH0 PUSH0 DUP3 PUSH1 0x40 MLOAD PUSH2 0x276 SWAP2 SWAP1 PUSH2 0x742 JUMP JUMPDEST SWAP1 DUP2 MSTORE PUSH1 0x20 ADD PUSH1 0x40 MLOAD DUP1 SWAP2 SUB SWAP1 KECCAK256 SLOAD SWAP1 POP PUSH0 DUP2 EQ DUP1 ISZERO PUSH2 0x369 JUMPI POP PUSH2 0x367 PUSH1 0x1 DUP1 SLOAD DUP1 PUSH1 0x20 MUL PUSH1 0x20 ADD PUSH1 0x40 MLOAD SWAP1 DUP2 ADD PUSH1 0x40 MSTORE DUP1 SWAP3 SWAP2 SWAP1 DUP2 DUP2 MSTORE PUSH1 0x20 ADD PUSH0 SWAP1 JUMPDEST DUP3 DUP3 LT ISZERO PUSH2 0x35D JUMPI DUP4 DUP3 SWAP1 PUSH0 MSTORE PUSH1 0x20 PUSH0 KECCAK256 ADD DUP1 SLOAD PUSH2 0x2D2 SWAP1 PUSH2 0x785 JUMP JUMPDEST DUP1 PUSH1 0x1F ADD PUSH1 0x20 DUP1 SWAP2 DIV MUL PUSH1 0x20 ADD PUSH1 0x40 MLOAD SWAP1 DUP2 ADD PUSH1 0x40 MSTORE DUP1 SWAP3 SWAP2 SWAP1 DUP2 DUP2 MSTORE PUSH1 0x20 ADD DUP3 DUP1 SLOAD PUSH2 0x2FE SWAP1 PUSH2 0x785 JUMP JUMPDEST DUP1 ISZERO PUSH2 0x349 JUMPI DUP1 PUSH1 0x1F LT PUSH2 0x320 JUMPI PUSH2 0x100 DUP1 DUP4 SLOAD DIV MUL DUP4 MSTORE SWAP2 PUSH1 0x20 ADD SWAP2 PUSH2 0x349 JUMP JUMPDEST DUP3 ADD SWAP2 SWAP1 PUSH0 MSTORE PUSH1 0x20 PUSH0 KECCAK256 SWAP1 JUMPDEST DUP2 SLOAD DUP2 MSTORE SWAP1 PUSH1 0x1 ADD SWAP1 PUSH1 0x20 ADD DUP1 DUP4 GT PUSH2 0x32C JUMPI DUP3 SWAP1 SUB PUSH1 0x1F AND DUP3 ADD SWAP2 JUMPDEST POP POP POP POP POP DUP2 MSTORE PUSH1 0x20 ADD SWAP1 PUSH1 0x1 ADD SWAP1 PUSH2 0x2B5 JUMP JUMPDEST POP POP POP POP DUP4 PUSH2 0x40E JUMP JUMPDEST ISZERO JUMPDEST ISZERO PUSH2 0x3A1 JUMPI PUSH1 0x1 DUP3 SWAP1 DUP1 PUSH1 0x1 DUP2 SLOAD ADD DUP1 DUP3 SSTORE DUP1 SWAP2 POP POP PUSH1 0x1 SWAP1 SUB SWAP1 PUSH0 MSTORE PUSH1 0x20 PUSH0 KECCAK256 ADD PUSH0 SWAP1 SWAP2 SWAP1 SWAP2 SWAP1 SWAP2 POP SWAP1 DUP2 PUSH2 0x39F SWAP2 SWAP1 PUSH2 0xA18 JUMP JUMPDEST POP JUMPDEST DUP1 DUP1 PUSH2 0x3AC SWAP1 PUSH2 0xB14 JUMP JUMPDEST SWAP2 POP POP DUP1 PUSH0 DUP4 PUSH1 0x40 MLOAD PUSH2 0x3BF SWAP2 SWAP1 PUSH2 0x742 JUMP JUMPDEST SWAP1 DUP2 MSTORE PUSH1 0x20 ADD PUSH1 0x40 MLOAD DUP1 SWAP2 SUB SWAP1 KECCAK256 DUP2 SWAP1 SSTORE POP PUSH32 0xCB6783276E8A4347387036BBFEA000268F0A4B1F8C46AC79980609F2AF8D2ACD CALLER DUP4 PUSH1 0x40 MLOAD PUSH2 0x402 SWAP3 SWAP2 SWAP1 PUSH2 0xB9A JUMP JUMPDEST PUSH1 0x40 MLOAD DUP1 SWAP2 SUB SWAP1 LOG1 POP POP JUMP JUMPDEST PUSH0 PUSH0 PUSH0 SWAP1 POP JUMPDEST DUP4 MLOAD DUP2 LT ISZERO PUSH2 0x463 JUMPI DUP3 DUP1 MLOAD SWAP1 PUSH1 0x20 ADD KECCAK256 DUP5 DUP3 DUP2 MLOAD DUP2 LT PUSH2 0x438 JUMPI PUSH2 0x437 PUSH2 0x7B5 JUMP JUMPDEST JUMPDEST PUSH1 0x20 MUL PUSH1 0x20 ADD ADD MLOAD DUP1 MLOAD SWAP1 PUSH1 0x20 ADD KECCAK256 SUB PUSH2 0x456 JUMPI PUSH1 0x1 SWAP2 POP POP PUSH2 0x468 JUMP JUMPDEST DUP1 DUP1 PUSH1 0x1 ADD SWAP2 POP POP PUSH2 0x414 JUMP JUMPDEST POP PUSH0 SWAP1 POP JUMPDEST SWAP3 SWAP2 POP POP JUMP JUMPDEST PUSH0 PUSH1 0x40 MLOAD SWAP1 POP SWAP1 JUMP JUMPDEST PUSH0 PUSH0 REVERT JUMPDEST PUSH0 PUSH0 REVERT JUMPDEST PUSH0 PUSH0 REVERT JUMPDEST PUSH0 PUSH0 REVERT JUMPDEST PUSH0 PUSH1 0x1F NOT PUSH1 0x1F DUP4 ADD AND SWAP1 POP SWAP2 SWAP1 POP JUMP JUMPDEST PUSH32 0x4E487B7100000000000000000000000000000000000000000000000000000000 PUSH0 MSTORE PUSH1 0x41 PUSH1 0x4 MSTORE PUSH1 0x24 PUSH0 REVERT JUMPDEST PUSH2 0x4CD DUP3 PUSH2 0x487 JUMP JUMPDEST DUP2 ADD DUP2 DUP2 LT PUSH8 0xFFFFFFFFFFFFFFFF DUP3 GT OR ISZERO PUSH2 0x4EC JUMPI PUSH2 0x4EB PUSH2 0x497 JUMP JUMPDEST JUMPDEST DUP1 PUSH1 0x40 MSTORE POP POP POP JUMP JUMPDEST PUSH0 PUSH2 0x4FE PUSH2 0x46E JUMP JUMPDEST SWAP1 POP PUSH2 0x50A DUP3 DUP3 PUSH2 0x4C4 JUMP JUMPDEST SWAP2 SWAP1 POP JUMP JUMPDEST PUSH0 PUSH8 0xFFFFFFFFFFFFFFFF DUP3 GT ISZERO PUSH2 0x529 JUMPI PUSH2 0x528 PUSH2 0x497 JUMP JUMPDEST JUMPDEST PUSH2 0x532 DUP3 PUSH2 0x487 JUMP JUMPDEST SWAP1 POP PUSH1 0x20 DUP2 ADD SWAP1 POP SWAP2 SWAP1 POP JUMP JUMPDEST DUP3 DUP2 DUP4 CALLDATACOPY PUSH0 DUP4 DUP4 ADD MSTORE POP POP POP JUMP JUMPDEST PUSH0 PUSH2 0x55F PUSH2 0x55A DUP5 PUSH2 0x50F JUMP JUMPDEST PUSH2 0x4F5 JUMP JUMPDEST SWAP1 POP DUP3 DUP2 MSTORE PUSH1 0x20 DUP2 ADD DUP5 DUP5 DUP5 ADD GT ISZERO PUSH2 0x57B JUMPI PUSH2 0x57A PUSH2 0x483 JUMP JUMPDEST JUMPDEST PUSH2 0x586 DUP5 DUP3 DUP6 PUSH2 0x53F JUMP JUMPDEST POP SWAP4 SWAP3 POP POP POP JUMP JUMPDEST PUSH0 DUP3 PUSH1 0x1F DUP4 ADD SLT PUSH2 0x5A2 JUMPI PUSH2 0x5A1 PUSH2 0x47F JUMP JUMPDEST JUMPDEST DUP2 CALLDATALOAD PUSH2 0x5B2 DUP5 DUP3 PUSH1 0x20 DUP7 ADD PUSH2 0x54D JUMP JUMPDEST SWAP2 POP POP SWAP3 SWAP2 POP POP JUMP JUMPDEST PUSH0 PUSH1 0x20 DUP3 DUP5 SUB SLT ISZERO PUSH2 0x5D0 JUMPI PUSH2 0x5CF PUSH2 0x477 JUMP JUMPDEST JUMPDEST PUSH0 DUP3 ADD CALLDATALOAD PUSH8 0xFFFFFFFFFFFFFFFF DUP2 GT ISZERO PUSH2 0x5ED JUMPI PUSH2 0x5EC PUSH2 0x47B JUMP JUMPDEST JUMPDEST PUSH2 0x5F9 DUP5 DUP3 DUP6 ADD PUSH2 0x58E JUMP JUMPDEST SWAP2 POP POP SWAP3 SWAP2 POP POP JUMP JUMPDEST PUSH0 DUP2 SWAP1 POP SWAP2 SWAP1 POP JUMP JUMPDEST PUSH2 0x614 DUP2 PUSH2 0x602 JUMP JUMPDEST DUP3 MSTORE POP POP JUMP JUMPDEST PUSH0 PUSH1 0x20 DUP3 ADD SWAP1 POP PUSH2 0x62D PUSH0 DUP4 ADD DUP5 PUSH2 0x60B JUMP JUMPDEST SWAP3 SWAP2 POP POP JUMP JUMPDEST PUSH2 0x63C DUP2 PUSH2 0x602 JUMP JUMPDEST DUP2 EQ PUSH2 0x646 JUMPI PUSH0 PUSH0 REVERT JUMPDEST POP JUMP JUMPDEST PUSH0 DUP2 CALLDATALOAD SWAP1 POP PUSH2 0x657 DUP2 PUSH2 0x633 JUMP JUMPDEST SWAP3 SWAP2 POP POP JUMP JUMPDEST PUSH0 PUSH1 0x20 DUP3 DUP5 SUB SLT ISZERO PUSH2 0x672 JUMPI PUSH2 0x671 PUSH2 0x477 JUMP JUMPDEST JUMPDEST PUSH0 PUSH2 0x67F DUP5 DUP3 DUP6 ADD PUSH2 0x649 JUMP JUMPDEST SWAP2 POP POP SWAP3 SWAP2 POP POP JUMP JUMPDEST PUSH0 DUP2 MLOAD SWAP1 POP SWAP2 SWAP1 POP JUMP JUMPDEST PUSH0 DUP3 DUP3 MSTORE PUSH1 0x20 DUP3 ADD SWAP1 POP SWAP3 SWAP2 POP POP JUMP JUMPDEST DUP3 DUP2 DUP4 MCOPY PUSH0 DUP4 DUP4 ADD MSTORE POP POP POP JUMP JUMPDEST PUSH0 PUSH2 0x6BA DUP3 PUSH2 0x688 JUMP JUMPDEST PUSH2 0x6C4 DUP2 DUP6 PUSH2 0x692 JUMP JUMPDEST SWAP4 POP PUSH2 0x6D4 DUP2 DUP6 PUSH1 0x20 DUP7 ADD PUSH2 0x6A2 JUMP JUMPDEST PUSH2 0x6DD DUP2 PUSH2 0x487 JUMP JUMPDEST DUP5 ADD SWAP2 POP POP SWAP3 SWAP2 POP POP JUMP JUMPDEST PUSH0 PUSH1 0x20 DUP3 ADD SWAP1 POP DUP2 DUP2 SUB PUSH0 DUP4 ADD MSTORE PUSH2 0x700 DUP2 DUP5 PUSH2 0x6B0 JUMP JUMPDEST SWAP1 POP SWAP3 SWAP2 POP POP JUMP JUMPDEST PUSH0 DUP2 SWAP1 POP SWAP3 SWAP2 POP POP JUMP JUMPDEST PUSH0 PUSH2 0x71C DUP3 PUSH2 0x688 JUMP JUMPDEST PUSH2 0x726 DUP2 DUP6 PUSH2 0x708 JUMP JUMPDEST SWAP4 POP PUSH2 0x736 DUP2 DUP6 PUSH1 0x20 DUP7 ADD PUSH2 0x6A2 JUMP JUMPDEST DUP1 DUP5 ADD SWAP2 POP POP SWAP3 SWAP2 POP POP JUMP JUMPDEST PUSH0 PUSH2 0x74D DUP3 DUP5 PUSH2 0x712 JUMP JUMPDEST SWAP2 POP DUP2 SWAP1 POP SWAP3 SWAP2 POP POP JUMP JUMPDEST PUSH32 0x4E487B7100000000000000000000000000000000000000000000000000000000 PUSH0 MSTORE PUSH1 0x22 PUSH1 0x4 MSTORE PUSH1 0x24 PUSH0 REVERT JUMPDEST PUSH0 PUSH1 0x2 DUP3 DIV SWAP1 POP PUSH1 0x1 DUP3 AND DUP1 PUSH2 0x79C JUMPI PUSH1 0x7F DUP3 AND SWAP2 POP JUMPDEST PUSH1 0x20 DUP3 LT DUP2 SUB PUSH2 0x7AF JUMPI PUSH2 0x7AE PUSH2 0x758 JUMP JUMPDEST JUMPDEST POP SWAP2 SWAP1 POP JUMP JUMPDEST PUSH32 0x4E487B7100000000000000000000000000000000000000000000000000000000 PUSH0 MSTORE PUSH1 0x32 PUSH1 0x4 MSTORE PUSH1 0x24 PUSH0 REVERT JUMPDEST PUSH0 DUP2 SWAP1 POP DUP2 PUSH0 MSTORE PUSH1 0x20 PUSH0 KECCAK256 SWAP1 POP SWAP2 SWAP1 POP JUMP JUMPDEST PUSH0 DUP2 SLOAD PUSH2 0x800 DUP2 PUSH2 0x785 JUMP JUMPDEST PUSH2 0x80A DUP2 DUP7 PUSH2 0x708 JUMP JUMPDEST SWAP5 POP PUSH1 0x1 DUP3 AND PUSH0 DUP2 EQ PUSH2 0x824 JUMPI PUSH1 0x1 DUP2 EQ PUSH2 0x839 JUMPI PUSH2 0x86B JUMP JUMPDEST PUSH1 0xFF NOT DUP4 AND DUP7 MSTORE DUP2 ISZERO ISZERO DUP3 MUL DUP7 ADD SWAP4 POP PUSH2 0x86B JUMP JUMPDEST PUSH2 0x842 DUP6 PUSH2 0x7E2 JUMP JUMPDEST PUSH0 JUMPDEST DUP4 DUP2 LT ISZERO PUSH2 0x863 JUMPI DUP2 SLOAD DUP2 DUP10 ADD MSTORE PUSH1 0x1 DUP3 ADD SWAP2 POP PUSH1 0x20 DUP2 ADD SWAP1 POP PUSH2 0x844 JUMP JUMPDEST DUP4 DUP9 ADD SWAP6 POP POP POP JUMPDEST POP POP POP SWAP3 SWAP2 POP POP JUMP JUMPDEST PUSH0 PUSH2 0x87F DUP3 DUP5 PUSH2 0x7F4 JUMP JUMPDEST SWAP2 POP DUP2 SWAP1 POP SWAP3 SWAP2 POP POP JUMP JUMPDEST PUSH0 PUSH1 0x20 PUSH1 0x1F DUP4 ADD DIV SWAP1 POP SWAP2 SWAP1 POP JUMP JUMPDEST PUSH0 DUP3 DUP3 SHL SWAP1 POP SWAP3 SWAP2 POP POP JUMP JUMPDEST PUSH0 PUSH1 0x8 DUP4 MUL PUSH2 0x8D4 PUSH32 0xFFFFFFFFFFFFFFFFFFFFFFFFFFFFFFFFFFFFFFFFFFFFFFFFFFFFFFFFFFFFFFFF DUP3 PUSH2 0x899 JUMP JUMPDEST PUSH2 0x8DE DUP7 DUP4 PUSH2 0x899 JUMP JUMPDEST SWAP6 POP DUP1 NOT DUP5 AND SWAP4 POP DUP1 DUP7 AND DUP5 OR SWAP3 POP POP POP SWAP4 SWAP3 POP POP POP JUMP JUMPDEST PUSH0 DUP2 SWAP1 POP SWAP2 SWAP1 POP JUMP JUMPDEST PUSH0 PUSH2 0x919 PUSH2 0x914 PUSH2 0x90F DUP5 PUSH2 0x602 JUMP JUMPDEST PUSH2 0x8F6 JUMP JUMPDEST PUSH2 0x602 JUMP JUMPDEST SWAP1 POP SWAP2 SWAP1 POP JUMP JUMPDEST PUSH0 DUP2 SWAP1 POP SWAP2 SWAP1 POP JUMP JUMPDEST PUSH2 0x932 DUP4 PUSH2 0x8FF JUMP JUMPDEST PUSH2 0x946 PUSH2 0x93E DUP3 PUSH2 0x920 JUMP JUMPDEST DUP5 DUP5 SLOAD PUSH2 0x8A5 JUMP JUMPDEST DUP3 SSTORE POP POP POP POP JUMP JUMPDEST PUSH0 PUSH0 SWAP1 POP SWAP1 JUMP JUMPDEST PUSH2 0x95D PUSH2 0x94E JUMP JUMPDEST PUSH2 0x968 DUP2 DUP5 DUP5 PUSH2 0x929 JUMP JUMPDEST POP POP POP JUMP JUMPDEST JUMPDEST DUP2 DUP2 LT ISZERO PUSH2 0x98B JUMPI PUSH2 0x980 PUSH0 DUP3 PUSH2 0x955 JUMP JUMPDEST PUSH1 0x1 DUP2 ADD SWAP1 POP PUSH2 0x96E JUMP JUMPDEST POP POP JUMP JUMPDEST PUSH1 0x1F DUP3 GT ISZERO PUSH2 0x9D0 JUMPI PUSH2 0x9A1 DUP2 PUSH2 0x7E2 JUMP JUMPDEST PUSH2 0x9AA DUP5 PUSH2 0x88A JUMP JUMPDEST DUP2 ADD PUSH1 0x20 DUP6 LT ISZERO PUSH2 0x9B9 JUMPI DUP2 SWAP1 POP JUMPDEST PUSH2 0x9CD PUSH2 0x9C5 DUP6 PUSH2 0x88A JUMP JUMPDEST DUP4 ADD DUP3 PUSH2 0x96D JUMP JUMPDEST POP POP JUMPDEST POP POP POP JUMP JUMPDEST PUSH0 DUP3 DUP3 SHR SWAP1 POP SWAP3 SWAP2 POP POP JUMP JUMPDEST PUSH0 PUSH2 0x9F0 PUSH0 NOT DUP5 PUSH1 0x8 MUL PUSH2 0x9D5 JUMP JUMPDEST NOT DUP1 DUP4 AND SWAP2 POP POP SWAP3 SWAP2 POP POP JUMP JUMPDEST PUSH0 PUSH2 0xA08 DUP4 DUP4 PUSH2 0x9E1 JUMP JUMPDEST SWAP2 POP DUP3 PUSH1 0x2 MUL DUP3 OR SWAP1 POP SWAP3 SWAP2 POP POP JUMP JUMPDEST PUSH2 0xA21 DUP3 PUSH2 0x688 JUMP JUMPDEST PUSH8 0xFFFFFFFFFFFFFFFF DUP2 GT ISZERO PUSH2 0xA3A JUMPI PUSH2 0xA39 PUSH2 0x497 JUMP JUMPDEST JUMPDEST PUSH2 0xA44 DUP3 SLOAD PUSH2 0x785 JUMP JUMPDEST PUSH2 0xA4F DUP3 DUP3 DUP6 PUSH2 0x98F JUMP JUMPDEST PUSH0 PUSH1 0x20 SWAP1 POP PUSH1 0x1F DUP4 GT PUSH1 0x1 DUP2 EQ PUSH2 0xA80 JUMPI PUSH0 DUP5 ISZERO PUSH2 0xA6E JUMPI DUP3 DUP8 ADD MLOAD SWAP1 POP JUMPDEST PUSH2 0xA78 DUP6 DUP3 PUSH2 0x9FD JUMP JUMPDEST DUP7 SSTORE POP PUSH2 0xADF JUMP JUMPDEST PUSH1 0x1F NOT DUP5 AND PUSH2 0xA8E DUP7 PUSH2 0x7E2 JUMP JUMPDEST PUSH0 JUMPDEST DUP3 DUP2 LT ISZERO PUSH2 0xAB5 JUMPI DUP5 DUP10 ADD MLOAD DUP3 SSTORE PUSH1 0x1 DUP3 ADD SWAP2 POP PUSH1 0x20 DUP6 ADD SWAP5 POP PUSH1 0x20 DUP2 ADD SWAP1 POP PUSH2 0xA90 JUMP JUMPDEST DUP7 DUP4 LT ISZERO PUSH2 0xAD2 JUMPI DUP5 DUP10 ADD MLOAD PUSH2 0xACE PUSH1 0x1F DUP10 AND DUP3 PUSH2 0x9E1 JUMP JUMPDEST DUP4 SSTORE POP JUMPDEST PUSH1 0x1 PUSH1 0x2 DUP9 MUL ADD DUP9 SSTORE POP POP POP JUMPDEST POP POP POP POP POP POP JUMP JUMPDEST PUSH32 0x4E487B7100000000000000000000000000000000000000000000000000000000 PUSH0 MSTORE PUSH1 0x11 PUSH1 0x4 MSTORE PUSH1 0x24 PUSH0 REVERT JUMPDEST PUSH0 PUSH2 0xB1E DUP3 PUSH2 0x602 JUMP JUMPDEST SWAP2 POP PUSH32 0xFFFFFFFFFFFFFFFFFFFFFFFFFFFFFFFFFFFFFFFFFFFFFFFFFFFFFFFFFFFFFFFF DUP3 SUB PUSH2 0xB50 JUMPI PUSH2 0xB4F PUSH2 0xAE7 JUMP JUMPDEST JUMPDEST PUSH1 0x1 DUP3 ADD SWAP1 POP SWAP2 SWAP1 POP JUMP JUMPDEST PUSH0 PUSH20 0xFFFFFFFFFFFFFFFFFFFFFFFFFFFFFFFFFFFFFFFF DUP3 AND SWAP1 POP SWAP2 SWAP1 POP JUMP JUMPDEST PUSH0 PUSH2 0xB84 DUP3 PUSH2 0xB5B JUMP JUMPDEST SWAP1 POP SWAP2 SWAP1 POP JUMP JUMPDEST PUSH2 0xB94 DUP2 PUSH2 0xB7A JUMP JUMPDEST DUP3 MSTORE POP POP JUMP JUMPDEST PUSH0 PUSH1 0x40 DUP3 ADD SWAP1 POP PUSH2 0xBAD PUSH0 DUP4 ADD DUP6 PUSH2 0xB8B JUMP JUMPDEST DUP2 DUP2 SUB PUSH1 0x20 DUP4 ADD MSTORE PUSH2 0xBBF DUP2 DUP5 PUSH2 0x6B0 JUMP JUMPDEST SWAP1 POP SWAP4 SWAP3 POP POP POP JUMP INVALID LOG2 PUSH5 0x6970667358 0x22 SLT KECCAK256 0xEA 0xB8 LOG1 STATICCALL RETURNCONTRACT 0x29 PUSH14 0xD597AD7C61948D5A2D0DEDAFBC00 0x2D 0xDB 0xEB DUP3 COINBASE 0x2E 0xB9 SWAP7 TLOAD 0xC SWAP14 PUSH5 0x736F6C6343 STOP ADDMOD 0x1E STOP CALLER "
				},
				"gasEstimates": {
					"creation": {
						"codeDepositCost": "614000",
						"executionCost": "643",
						"totalCost": "614643"
					},
					"external": {
						"allUsers(uint256)": "infinite",
						"getVotes(string)": "infinite",
						"resetVotes()": "infinite",
						"vote(string)": "infinite",
						"votesMap(string)": "infinite"
					},
					"internal": {
						"contains(string memory[] memory,string memory)": "infinite"
					}
				},
				"methodIdentifiers": {
					"allUsers(uint256)": "a2bdedf4",
					"getVotes(string)": "805265e5",
					"resetVotes()": "b9830ff1",
					"vote(string)": "fc36e15b",
					"votesMap(string)": "440cd69a"
				}
			},
			"storageLayout": {
				"storage": [
					{
						"astId": 5,
						"contract": "contracts/Voting.sol:Voting",
						"label": "votesMap",
						"offset": 0,
						"slot": "0",
						"type": "t_mapping(t_string_memory_ptr,t_uint256)"
					},
					{
						"astId": 8,
						"contract": "contracts/Voting.sol:Voting",
						"label": "allUsers",
						"offset": 0,
						"slot": "1",
						"type": "t_array(t_string_storage)dyn_storage"
					}
				],
				"types": {
					"t_array(t_string_storage)dyn_storage": {
						"base": "t_string_storage",
						"encoding": "dynamic_array",
						"label": "string[]",
						"numberOfBytes": "32"
					},
					"t_mapping(t_string_memory_ptr,t_uint256)": {
						"encoding": "mapping",
						"key": "t_string_memory_ptr",
						"label": "mapping(string => uint256)",
						"numberOfBytes": "32",
						"value": "t_uint256"
					},
					"t_string_memory_ptr": {
						"encoding": "bytes",
						"label": "string",
						"numberOfBytes": "32"
					},
					"t_string_storage": {
						"encoding": "bytes",
						"label": "string",
						"numberOfBytes": "32"
					},
					"t_uint256": {
						"encoding": "inplace",
						"label": "uint256",
						"numberOfBytes": "32"
					}
				}
			},
			"userdoc": {
				"kind": "user",
				"methods": {},
				"version": 1
			}
		}
	}
}