{
	"contracts/BinarySearch.sol": {
		"BinarySearch": {
			"abi": [
				{
					"inputs": [
						{
							"internalType": "uint256",
							"name": "target",
							"type": "uint256"
						}
					],
					"name": "search",
					"outputs": [
						{
							"internalType": "int256",
							"name": "",
							"type": "int256"
						}
					],
					"stateMutability": "view",
					"type": "function"
				}
			],
			"devdoc": {
				"kind": "dev",
				"methods": {},
				"version": 1
			},
			"evm": {
				"assembly": "    /* \"contracts/BinarySearch.sol\":58:631  contract BinarySearch {... */\n  mstore(0x40, 0x80)\n    /* \"contracts/BinarySearch.sol\":90:140  uint[] private nums = [ 1, 2, 3, 4, 5, 6,7,8,9,10] */\n  mload(0x40)\n  dup1\n  0x0140\n  add\n  0x40\n  mstore\n  dup1\n    /* \"contracts/BinarySearch.sol\":114:115  1 */\n  0x01\n    /* \"contracts/BinarySearch.sol\":90:140  uint[] private nums = [ 1, 2, 3, 4, 5, 6,7,8,9,10] */\n  0xff\n  and\n  dup2\n  mstore\n  0x20\n  add\n    /* \"contracts/BinarySearch.sol\":117:118  2 */\n  0x02\n    /* \"contracts/BinarySearch.sol\":90:140  uint[] private nums = [ 1, 2, 3, 4, 5, 6,7,8,9,10] */\n  0xff\n  and\n  dup2\n  mstore\n  0x20\n  add\n    /* \"contracts/BinarySearch.sol\":120:121  3 */\n  0x03\n    /* \"contracts/BinarySearch.sol\":90:140  uint[] private nums = [ 1, 2, 3, 4, 5, 6,7,8,9,10] */\n  0xff\n  and\n  dup2\n  mstore\n  0x20\n  add\n    /* \"contracts/BinarySearch.sol\":123:124  4 */\n  0x04\n    /* \"contracts/BinarySearch.sol\":90:140  uint[] private nums = [ 1, 2, 3, 4, 5, 6,7,8,9,10] */\n  0xff\n  and\n  dup2\n  mstore\n  0x20\n  add\n    /* \"contracts/BinarySearch.sol\":126:127  5 */\n  0x05\n    /* \"contracts/BinarySearch.sol\":90:140  uint[] private nums = [ 1, 2, 3, 4, 5, 6,7,8,9,10] */\n  0xff\n  and\n  dup2\n  mstore\n  0x20\n  add\n    /* \"contracts/BinarySearch.sol\":129:130  6 */\n  0x06\n    /* \"contracts/BinarySearch.sol\":90:140  uint[] private nums = [ 1, 2, 3, 4, 5, 6,7,8,9,10] */\n  0xff\n  and\n  dup2\n  mstore\n  0x20\n  add\n    /* \"contracts/BinarySearch.sol\":131:132  7 */\n  0x07\n    /* \"contracts/BinarySearch.sol\":90:140  uint[] private nums = [ 1, 2, 3, 4, 5, 6,7,8,9,10] */\n  0xff\n  and\n  dup2\n  mstore\n  0x20\n  add\n    /* \"contracts/BinarySearch.sol\":133:134  8 */\n  0x08\n    /* \"contracts/BinarySearch.sol\":90:140  uint[] private nums = [ 1, 2, 3, 4, 5, 6,7,8,9,10] */\n  0xff\n  and\n  dup2\n  mstore\n  0x20\n  add\n    /* \"contracts/BinarySearch.sol\":135:136  9 */\n  0x09\n    /* \"contracts/BinarySearch.sol\":90:140  uint[] private nums = [ 1, 2, 3, 4, 5, 6,7,8,9,10] */\n  0xff\n  and\n  dup2\n  mstore\n  0x20\n  add\n    /* \"contracts/BinarySearch.sol\":137:139  10 */\n  0x0a\n    /* \"contracts/BinarySearch.sol\":90:140  uint[] private nums = [ 1, 2, 3, 4, 5, 6,7,8,9,10] */\n  0xff\n  and\n  dup2\n  mstore\n  pop\n  0x00\n  swap1\n  0x0a\n  tag_1\n  swap3\n  swap2\n  swap1\n  tag_2\n  jump\t// in\ntag_1:\n  pop\n    /* \"contracts/BinarySearch.sol\":58:631  contract BinarySearch {... */\n  callvalue\n  dup1\n  iszero\n  tag_3\n  jumpi\n  revert(0x00, 0x00)\ntag_3:\n  pop\n  jump(tag_4)\ntag_2:\n  dup3\n  dup1\n  sload\n  dup3\n  dup3\n  sstore\n  swap1\n  0x00\n  mstore\n  keccak256(0x00, 0x20)\n  swap1\n  dup2\n  add\n  swap3\n  dup3\n  iszero\n  tag_5\n  jumpi\n  swap2\n  0x20\n  mul\n  dup3\n  add\ntag_6:\n  dup3\n  dup2\n  gt\n  iszero\n  tag_7\n  jumpi\n  dup3\n  mload\n  dup3\n  swap1\n  0xff\n  and\n  swap1\n  sstore\n  swap2\n  0x20\n  add\n  swap2\n  swap1\n  0x01\n  add\n  swap1\n  jump(tag_6)\ntag_7:\ntag_5:\n  pop\n  swap1\n  pop\n  tag_8\n  swap2\n  swap1\n  tag_9\n  jump\t// in\ntag_8:\n  pop\n  swap1\n  jump\t// out\ntag_9:\ntag_10:\n  dup1\n  dup3\n  gt\n  iszero\n  tag_11\n  jumpi\n  0x00\n  dup2\n  0x00\n  swap1\n  sstore\n  pop\n  0x01\n  add\n  jump(tag_10)\ntag_11:\n  pop\n  swap1\n  jump\t// out\ntag_4:\n  dataSize(sub_0)\n  dup1\n  dataOffset(sub_0)\n  0x00\n  codecopy\n  0x00\n  return\nstop\n\nsub_0: assembly {\n        /* \"contracts/BinarySearch.sol\":58:631  contract BinarySearch {... */\n      mstore(0x40, 0x80)\n      callvalue\n      dup1\n      iszero\n      tag_1\n      jumpi\n      revert(0x00, 0x00)\n    tag_1:\n      pop\n      jumpi(tag_2, lt(calldatasize, 0x04))\n      shr(0xe0, calldataload(0x00))\n      dup1\n      0xfc156fe0\n      eq\n      tag_3\n      jumpi\n    tag_2:\n      revert(0x00, 0x00)\n        /* \"contracts/BinarySearch.sol\":149:624  function search(uint target) public view returns (int) {... */\n    tag_3:\n      tag_4\n      0x04\n      dup1\n      calldatasize\n      sub\n      dup2\n      add\n      swap1\n      tag_5\n      swap2\n      swap1\n      tag_6\n      jump\t// in\n    tag_5:\n      tag_7\n      jump\t// in\n    tag_4:\n      mload(0x40)\n      tag_8\n      swap2\n      swap1\n      tag_9\n      jump\t// in\n    tag_8:\n      mload(0x40)\n      dup1\n      swap2\n      sub\n      swap1\n      return\n    tag_7:\n        /* \"contracts/BinarySearch.sol\":199:202  int */\n      0x00\n        /* \"contracts/BinarySearch.sol\":215:224  uint left */\n      0x00\n        /* \"contracts/BinarySearch.sol\":227:228  0 */\n      0x00\n        /* \"contracts/BinarySearch.sol\":215:228  uint left = 0 */\n      swap1\n      pop\n        /* \"contracts/BinarySearch.sol\":239:249  uint right */\n      0x00\n        /* \"contracts/BinarySearch.sol\":266:267  1 */\n      0x01\n        /* \"contracts/BinarySearch.sol\":252:256  nums */\n      0x00\n        /* \"contracts/BinarySearch.sol\":252:263  nums.length */\n      dup1\n      sload\n      swap1\n      pop\n        /* \"contracts/BinarySearch.sol\":252:267  nums.length - 1 */\n      tag_11\n      swap2\n      swap1\n      tag_12\n      jump\t// in\n    tag_11:\n        /* \"contracts/BinarySearch.sol\":239:267  uint right = nums.length - 1 */\n      swap1\n      pop\n        /* \"contracts/BinarySearch.sol\":280:582  while (left <= right) {... */\n    tag_13:\n        /* \"contracts/BinarySearch.sol\":295:300  right */\n      dup1\n        /* \"contracts/BinarySearch.sol\":287:291  left */\n      dup3\n        /* \"contracts/BinarySearch.sol\":287:300  left <= right */\n      gt\n        /* \"contracts/BinarySearch.sol\":280:582  while (left <= right) {... */\n      tag_14\n      jumpi\n        /* \"contracts/BinarySearch.sol\":317:325  uint mid */\n      0x00\n        /* \"contracts/BinarySearch.sol\":345:346  2 */\n      0x02\n        /* \"contracts/BinarySearch.sol\":336:341  right */\n      dup3\n        /* \"contracts/BinarySearch.sol\":329:333  left */\n      dup5\n        /* \"contracts/BinarySearch.sol\":329:341  left + right */\n      tag_15\n      swap2\n      swap1\n      tag_16\n      jump\t// in\n    tag_15:\n        /* \"contracts/BinarySearch.sol\":328:346  (left + right) / 2 */\n      tag_17\n      swap2\n      swap1\n      tag_18\n      jump\t// in\n    tag_17:\n        /* \"contracts/BinarySearch.sol\":317:346  uint mid = (left + right) / 2 */\n      swap1\n      pop\n        /* \"contracts/BinarySearch.sol\":378:384  target */\n      dup5\n        /* \"contracts/BinarySearch.sol\":365:369  nums */\n      0x00\n        /* \"contracts/BinarySearch.sol\":370:373  mid */\n      dup3\n        /* \"contracts/BinarySearch.sol\":365:374  nums[mid] */\n      dup2\n      sload\n      dup2\n      lt\n      tag_19\n      jumpi\n      tag_20\n      tag_21\n      jump\t// in\n    tag_20:\n    tag_19:\n      swap1\n      0x00\n      mstore\n      keccak256(0x00, 0x20)\n      add\n      sload\n        /* \"contracts/BinarySearch.sol\":365:384  nums[mid] == target */\n      sub\n        /* \"contracts/BinarySearch.sol\":361:571  if (nums[mid] == target) {... */\n      tag_23\n      jumpi\n        /* \"contracts/BinarySearch.sol\":416:419  mid */\n      dup1\n        /* \"contracts/BinarySearch.sol\":405:420  return int(mid) */\n      swap4\n      pop\n      pop\n      pop\n      pop\n      jump(tag_10)\n        /* \"contracts/BinarySearch.sol\":361:571  if (nums[mid] == target) {... */\n    tag_23:\n        /* \"contracts/BinarySearch.sol\":458:464  target */\n      dup5\n        /* \"contracts/BinarySearch.sol\":446:450  nums */\n      0x00\n        /* \"contracts/BinarySearch.sol\":451:454  mid */\n      dup3\n        /* \"contracts/BinarySearch.sol\":446:455  nums[mid] */\n      dup2\n      sload\n      dup2\n      lt\n      tag_25\n      jumpi\n      tag_26\n      tag_21\n      jump\t// in\n    tag_26:\n    tag_25:\n      swap1\n      0x00\n      mstore\n      keccak256(0x00, 0x20)\n      add\n      sload\n        /* \"contracts/BinarySearch.sol\":446:464  nums[mid] < target */\n      lt\n        /* \"contracts/BinarySearch.sol\":442:571  if (nums[mid] < target) {... */\n      iszero\n      tag_28\n      jumpi\n        /* \"contracts/BinarySearch.sol\":498:499  1 */\n      0x01\n        /* \"contracts/BinarySearch.sol\":492:495  mid */\n      dup2\n        /* \"contracts/BinarySearch.sol\":492:499  mid + 1 */\n      tag_29\n      swap2\n      swap1\n      tag_16\n      jump\t// in\n    tag_29:\n        /* \"contracts/BinarySearch.sol\":485:499  left = mid + 1 */\n      swap3\n      pop\n        /* \"contracts/BinarySearch.sol\":442:571  if (nums[mid] < target) {... */\n      jump(tag_30)\n    tag_28:\n        /* \"contracts/BinarySearch.sol\":554:555  1 */\n      0x01\n        /* \"contracts/BinarySearch.sol\":548:551  mid */\n      dup2\n        /* \"contracts/BinarySearch.sol\":548:555  mid - 1 */\n      tag_31\n      swap2\n      swap1\n      tag_12\n      jump\t// in\n    tag_31:\n        /* \"contracts/BinarySearch.sol\":540:555  right = mid - 1 */\n      swap2\n      pop\n        /* \"contracts/BinarySearch.sol\":442:571  if (nums[mid] < target) {... */\n    tag_30:\n        /* \"contracts/BinarySearch.sol\":302:582  {... */\n      pop\n        /* \"contracts/BinarySearch.sol\":280:582  while (left <= right) {... */\n      jump(tag_13)\n    tag_14:\n        /* \"contracts/BinarySearch.sol\":601:603  -1 */\n      0xffffffffffffffffffffffffffffffffffffffffffffffffffffffffffffffff\n        /* \"contracts/BinarySearch.sol\":594:603  return -1 */\n      swap3\n      pop\n      pop\n      pop\n        /* \"contracts/BinarySearch.sol\":149:624  function search(uint target) public view returns (int) {... */\n    tag_10:\n      swap2\n      swap1\n      pop\n      jump\t// out\n        /* \"#utility.yul\":88:205   */\n    tag_33:\n        /* \"#utility.yul\":197:198   */\n      0x00\n        /* \"#utility.yul\":194:195   */\n      0x00\n        /* \"#utility.yul\":187:199   */\n      revert\n        /* \"#utility.yul\":334:411   */\n    tag_35:\n        /* \"#utility.yul\":371:378   */\n      0x00\n        /* \"#utility.yul\":400:405   */\n      dup2\n        /* \"#utility.yul\":389:405   */\n      swap1\n      pop\n        /* \"#utility.yul\":334:411   */\n      swap2\n      swap1\n      pop\n      jump\t// out\n        /* \"#utility.yul\":417:539   */\n    tag_36:\n        /* \"#utility.yul\":490:514   */\n      tag_48\n        /* \"#utility.yul\":508:513   */\n      dup2\n        /* \"#utility.yul\":490:514   */\n      tag_35\n      jump\t// in\n    tag_48:\n        /* \"#utility.yul\":483:488   */\n      dup2\n        /* \"#utility.yul\":480:515   */\n      eq\n        /* \"#utility.yul\":470:533   */\n      tag_49\n      jumpi\n        /* \"#utility.yul\":529:530   */\n      0x00\n        /* \"#utility.yul\":526:527   */\n      0x00\n        /* \"#utility.yul\":519:531   */\n      revert\n        /* \"#utility.yul\":470:533   */\n    tag_49:\n        /* \"#utility.yul\":417:539   */\n      pop\n      jump\t// out\n        /* \"#utility.yul\":545:684   */\n    tag_37:\n        /* \"#utility.yul\":591:596   */\n      0x00\n        /* \"#utility.yul\":629:635   */\n      dup2\n        /* \"#utility.yul\":616:636   */\n      calldataload\n        /* \"#utility.yul\":607:636   */\n      swap1\n      pop\n        /* \"#utility.yul\":645:678   */\n      tag_51\n        /* \"#utility.yul\":672:677   */\n      dup2\n        /* \"#utility.yul\":645:678   */\n      tag_36\n      jump\t// in\n    tag_51:\n        /* \"#utility.yul\":545:684   */\n      swap3\n      swap2\n      pop\n      pop\n      jump\t// out\n        /* \"#utility.yul\":690:1019   */\n    tag_6:\n        /* \"#utility.yul\":749:755   */\n      0x00\n        /* \"#utility.yul\":798:800   */\n      0x20\n        /* \"#utility.yul\":786:795   */\n      dup3\n        /* \"#utility.yul\":777:784   */\n      dup5\n        /* \"#utility.yul\":773:796   */\n      sub\n        /* \"#utility.yul\":769:801   */\n      slt\n        /* \"#utility.yul\":766:885   */\n      iszero\n      tag_53\n      jumpi\n        /* \"#utility.yul\":804:883   */\n      tag_54\n      tag_33\n      jump\t// in\n    tag_54:\n        /* \"#utility.yul\":766:885   */\n    tag_53:\n        /* \"#utility.yul\":924:925   */\n      0x00\n        /* \"#utility.yul\":949:1002   */\n      tag_55\n        /* \"#utility.yul\":994:1001   */\n      dup5\n        /* \"#utility.yul\":985:991   */\n      dup3\n        /* \"#utility.yul\":974:983   */\n      dup6\n        /* \"#utility.yul\":970:992   */\n      add\n        /* \"#utility.yul\":949:1002   */\n      tag_37\n      jump\t// in\n    tag_55:\n        /* \"#utility.yul\":939:1002   */\n      swap2\n      pop\n        /* \"#utility.yul\":895:1012   */\n      pop\n        /* \"#utility.yul\":690:1019   */\n      swap3\n      swap2\n      pop\n      pop\n      jump\t// out\n        /* \"#utility.yul\":1025:1101   */\n    tag_38:\n        /* \"#utility.yul\":1061:1068   */\n      0x00\n        /* \"#utility.yul\":1090:1095   */\n      dup2\n        /* \"#utility.yul\":1079:1095   */\n      swap1\n      pop\n        /* \"#utility.yul\":1025:1101   */\n      swap2\n      swap1\n      pop\n      jump\t// out\n        /* \"#utility.yul\":1107:1222   */\n    tag_39:\n        /* \"#utility.yul\":1192:1215   */\n      tag_58\n        /* \"#utility.yul\":1209:1214   */\n      dup2\n        /* \"#utility.yul\":1192:1215   */\n      tag_38\n      jump\t// in\n    tag_58:\n        /* \"#utility.yul\":1187:1190   */\n      dup3\n        /* \"#utility.yul\":1180:1216   */\n      mstore\n        /* \"#utility.yul\":1107:1222   */\n      pop\n      pop\n      jump\t// out\n        /* \"#utility.yul\":1228:1446   */\n    tag_9:\n        /* \"#utility.yul\":1319:1323   */\n      0x00\n        /* \"#utility.yul\":1357:1359   */\n      0x20\n        /* \"#utility.yul\":1346:1355   */\n      dup3\n        /* \"#utility.yul\":1342:1360   */\n      add\n        /* \"#utility.yul\":1334:1360   */\n      swap1\n      pop\n        /* \"#utility.yul\":1370:1439   */\n      tag_60\n        /* \"#utility.yul\":1436:1437   */\n      0x00\n        /* \"#utility.yul\":1425:1434   */\n      dup4\n        /* \"#utility.yul\":1421:1438   */\n      add\n        /* \"#utility.yul\":1412:1418   */\n      dup5\n        /* \"#utility.yul\":1370:1439   */\n      tag_39\n      jump\t// in\n    tag_60:\n        /* \"#utility.yul\":1228:1446   */\n      swap3\n      swap2\n      pop\n      pop\n      jump\t// out\n        /* \"#utility.yul\":1452:1632   */\n    tag_40:\n        /* \"#utility.yul\":1500:1577   */\n      0x4e487b7100000000000000000000000000000000000000000000000000000000\n        /* \"#utility.yul\":1497:1498   */\n      0x00\n        /* \"#utility.yul\":1490:1578   */\n      mstore\n        /* \"#utility.yul\":1597:1601   */\n      0x11\n        /* \"#utility.yul\":1594:1595   */\n      0x04\n        /* \"#utility.yul\":1587:1602   */\n      mstore\n        /* \"#utility.yul\":1621:1625   */\n      0x24\n        /* \"#utility.yul\":1618:1619   */\n      0x00\n        /* \"#utility.yul\":1611:1626   */\n      revert\n        /* \"#utility.yul\":1638:1832   */\n    tag_12:\n        /* \"#utility.yul\":1678:1682   */\n      0x00\n        /* \"#utility.yul\":1698:1718   */\n      tag_63\n        /* \"#utility.yul\":1716:1717   */\n      dup3\n        /* \"#utility.yul\":1698:1718   */\n      tag_35\n      jump\t// in\n    tag_63:\n        /* \"#utility.yul\":1693:1718   */\n      swap2\n      pop\n        /* \"#utility.yul\":1732:1752   */\n      tag_64\n        /* \"#utility.yul\":1750:1751   */\n      dup4\n        /* \"#utility.yul\":1732:1752   */\n      tag_35\n      jump\t// in\n    tag_64:\n        /* \"#utility.yul\":1727:1752   */\n      swap3\n      pop\n        /* \"#utility.yul\":1776:1777   */\n      dup3\n        /* \"#utility.yul\":1773:1774   */\n      dup3\n        /* \"#utility.yul\":1769:1778   */\n      sub\n        /* \"#utility.yul\":1761:1778   */\n      swap1\n      pop\n        /* \"#utility.yul\":1800:1801   */\n      dup2\n        /* \"#utility.yul\":1794:1798   */\n      dup2\n        /* \"#utility.yul\":1791:1802   */\n      gt\n        /* \"#utility.yul\":1788:1825   */\n      iszero\n      tag_65\n      jumpi\n        /* \"#utility.yul\":1805:1823   */\n      tag_66\n      tag_40\n      jump\t// in\n    tag_66:\n        /* \"#utility.yul\":1788:1825   */\n    tag_65:\n        /* \"#utility.yul\":1638:1832   */\n      swap3\n      swap2\n      pop\n      pop\n      jump\t// out\n        /* \"#utility.yul\":1838:2029   */\n    tag_16:\n        /* \"#utility.yul\":1878:1881   */\n      0x00\n        /* \"#utility.yul\":1897:1917   */\n      tag_68\n        /* \"#utility.yul\":1915:1916   */\n      dup3\n        /* \"#utility.yul\":1897:1917   */\n      tag_35\n      jump\t// in\n    tag_68:\n        /* \"#utility.yul\":1892:1917   */\n      swap2\n      pop\n        /* \"#utility.yul\":1931:1951   */\n      tag_69\n        /* \"#utility.yul\":1949:1950   */\n      dup4\n        /* \"#utility.yul\":1931:1951   */\n      tag_35\n      jump\t// in\n    tag_69:\n        /* \"#utility.yul\":1926:1951   */\n      swap3\n      pop\n        /* \"#utility.yul\":1974:1975   */\n      dup3\n        /* \"#utility.yul\":1971:1972   */\n      dup3\n        /* \"#utility.yul\":1967:1976   */\n      add\n        /* \"#utility.yul\":1960:1976   */\n      swap1\n      pop\n        /* \"#utility.yul\":1995:1998   */\n      dup1\n        /* \"#utility.yul\":1992:1993   */\n      dup3\n        /* \"#utility.yul\":1989:1999   */\n      gt\n        /* \"#utility.yul\":1986:2022   */\n      iszero\n      tag_70\n      jumpi\n        /* \"#utility.yul\":2002:2020   */\n      tag_71\n      tag_40\n      jump\t// in\n    tag_71:\n        /* \"#utility.yul\":1986:2022   */\n    tag_70:\n        /* \"#utility.yul\":1838:2029   */\n      swap3\n      swap2\n      pop\n      pop\n      jump\t// out\n        /* \"#utility.yul\":2035:2215   */\n    tag_41:\n        /* \"#utility.yul\":2083:2160   */\n      0x4e487b7100000000000000000000000000000000000000000000000000000000\n        /* \"#utility.yul\":2080:2081   */\n      0x00\n        /* \"#utility.yul\":2073:2161   */\n      mstore\n        /* \"#utility.yul\":2180:2184   */\n      0x12\n        /* \"#utility.yul\":2177:2178   */\n      0x04\n        /* \"#utility.yul\":2170:2185   */\n      mstore\n        /* \"#utility.yul\":2204:2208   */\n      0x24\n        /* \"#utility.yul\":2201:2202   */\n      0x00\n        /* \"#utility.yul\":2194:2209   */\n      revert\n        /* \"#utility.yul\":2221:2406   */\n    tag_18:\n        /* \"#utility.yul\":2261:2262   */\n      0x00\n        /* \"#utility.yul\":2278:2298   */\n      tag_74\n        /* \"#utility.yul\":2296:2297   */\n      dup3\n        /* \"#utility.yul\":2278:2298   */\n      tag_35\n      jump\t// in\n    tag_74:\n        /* \"#utility.yul\":2273:2298   */\n      swap2\n      pop\n        /* \"#utility.yul\":2312:2332   */\n      tag_75\n        /* \"#utility.yul\":2330:2331   */\n      dup4\n        /* \"#utility.yul\":2312:2332   */\n      tag_35\n      jump\t// in\n    tag_75:\n        /* \"#utility.yul\":2307:2332   */\n      swap3\n      pop\n        /* \"#utility.yul\":2351:2352   */\n      dup3\n        /* \"#utility.yul\":2341:2376   */\n      tag_76\n      jumpi\n        /* \"#utility.yul\":2356:2374   */\n      tag_77\n      tag_41\n      jump\t// in\n    tag_77:\n        /* \"#utility.yul\":2341:2376   */\n    tag_76:\n        /* \"#utility.yul\":2398:2399   */\n      dup3\n        /* \"#utility.yul\":2395:2396   */\n      dup3\n        /* \"#utility.yul\":2391:2400   */\n      div\n        /* \"#utility.yul\":2386:2400   */\n      swap1\n      pop\n        /* \"#utility.yul\":2221:2406   */\n      swap3\n      swap2\n      pop\n      pop\n      jump\t// out\n        /* \"#utility.yul\":2412:2592   */\n    tag_21:\n        /* \"#utility.yul\":2460:2537   */\n      0x4e487b7100000000000000000000000000000000000000000000000000000000\n        /* \"#utility.yul\":2457:2458   */\n      0x00\n        /* \"#utility.yul\":2450:2538   */\n      mstore\n        /* \"#utility.yul\":2557:2561   */\n      0x32\n        /* \"#utility.yul\":2554:2555   */\n      0x04\n        /* \"#utility.yul\":2547:2562   */\n      mstore\n        /* \"#utility.yul\":2581:2585   */\n      0x24\n        /* \"#utility.yul\":2578:2579   */\n      0x00\n        /* \"#utility.yul\":2571:2586   */\n      revert\n\n    auxdata: 0xa264697066735822122087dc4ae8abf9c405e75a0ab9ae466468dc745eacf87a7c1014338a84e608a60364736f6c634300081e0033\n}\n",
				"bytecode": {
					"linkReferences": {},
					"object": "6080604052604051806101400160405280600160ff168152602001600260ff168152602001600360ff168152602001600460ff168152602001600560ff168152602001600660ff168152602001600760ff168152602001600860ff168152602001600960ff168152602001600a60ff168152505f90600a610081929190610093565b5034801561008d575f5ffd5b506100fe565b828054828255905f5260205f209081019282156100d2579160200282015b828111156100d1578251829060ff169055916020019190600101906100b1565b5b5090506100df91906100e3565b5090565b5b808211156100fa575f815f9055506001016100e4565b5090565b6103248061010b5f395ff3fe608060405234801561000f575f5ffd5b5060043610610029575f3560e01c8063fc156fe01461002d575b5f5ffd5b61004760048036038101906100429190610175565b61005d565b60405161005491906101b8565b60405180910390f35b5f5f5f90505f60015f8054905061007491906101fe565b90505b808211610113575f6002828461008d9190610231565b6100979190610291565b9050845f82815481106100ad576100ac6102c1565b5b905f5260205f200154036100c657809350505050610139565b845f82815481106100da576100d96102c1565b5b905f5260205f20015410156100fd576001816100f69190610231565b925061010d565b60018161010a91906101fe565b91505b50610077565b7fffffffffffffffffffffffffffffffffffffffffffffffffffffffffffffffff925050505b919050565b5f5ffd5b5f819050919050565b61015481610142565b811461015e575f5ffd5b50565b5f8135905061016f8161014b565b92915050565b5f6020828403121561018a5761018961013e565b5b5f61019784828501610161565b91505092915050565b5f819050919050565b6101b2816101a0565b82525050565b5f6020820190506101cb5f8301846101a9565b92915050565b7f4e487b71000000000000000000000000000000000000000000000000000000005f52601160045260245ffd5b5f61020882610142565b915061021383610142565b925082820390508181111561022b5761022a6101d1565b5b92915050565b5f61023b82610142565b915061024683610142565b925082820190508082111561025e5761025d6101d1565b5b92915050565b7f4e487b71000000000000000000000000000000000000000000000000000000005f52601260045260245ffd5b5f61029b82610142565b91506102a683610142565b9250826102b6576102b5610264565b5b828204905092915050565b7f4e487b71000000000000000000000000000000000000000000000000000000005f52603260045260245ffdfea264697066735822122087dc4ae8abf9c405e75a0ab9ae466468dc745eacf87a7c1014338a84e608a60364736f6c634300081e0033",
					"opcodes": "PUSH1 0x80 PUSH1 0x40 MSTORE PUSH1 0x40 MLOAD DUP1 PUSH2 0x140 ADD PUSH1 0x40 MSTORE DUP1 PUSH1 0x1 PUSH1 0xFF AND DUP2 MSTORE PUSH1 0x20 ADD PUSH1 0x2 PUSH1 0xFF AND DUP2 MSTORE PUSH1 0x20 ADD PUSH1 0x3 PUSH1 0xFF AND DUP2 MSTORE PUSH1 0x20 ADD PUSH1 0x4 PUSH1 0xFF AND DUP2 MSTORE PUSH1 0x20 ADD PUSH1 0x5 PUSH1 0xFF AND DUP2 MSTORE PUSH1 0x20 ADD PUSH1 0x6 PUSH1 0xFF AND DUP2 MSTORE PUSH1 0x20 ADD PUSH1 0x7 PUSH1 0xFF AND DUP2 MSTORE PUSH1 0x20 ADD PUSH1 0x8 PUSH1 0xFF AND DUP2 MSTORE PUSH1 0x20 ADD PUSH1 0x9 PUSH1 0xFF AND DUP2 MSTORE PUSH1 0x20 ADD PUSH1 0xA PUSH1 0xFF AND DUP2 MSTORE POP PUSH0 SWAP1 PUSH1 0xA PUSH2 0x81 SWAP3 SWAP2 SWAP1 PUSH2 0x93 JUMP JUMPDEST POP CALLVALUE DUP1 ISZERO PUSH2 0x8D JUMPI PUSH0 PUSH0 REVERT JUMPDEST POP PUSH2 0xFE JUMP JUMPDEST DUP3 DUP1 SLOAD DUP3 DUP3 SSTORE SWAP1 PUSH0 MSTORE PUSH1 0x20 PUSH0 KECCAK256 SWAP1 DUP2 ADD SWAP3 DUP3 ISZERO PUSH2 0xD2 JUMPI SWAP2 PUSH1 0x20 MUL DUP3 ADD JUMPDEST DUP3 DUP2 GT ISZERO PUSH2 0xD1 JUMPI DUP3 MLOAD DUP3 SWAP1 PUSH1 0xFF AND SWAP1 SSTORE SWAP2 PUSH1 0x20 ADD SWAP2 SWAP1 PUSH1 0x1 ADD SWAP1 PUSH2 0xB1 JUMP JUMPDEST JUMPDEST POP SWAP1 POP PUSH2 0xDF SWAP2 SWAP1 PUSH2 0xE3 JUMP JUMPDEST POP SWAP1 JUMP JUMPDEST JUMPDEST DUP1 DUP3 GT ISZERO PUSH2 0xFA JUMPI PUSH0 DUP2 PUSH0 SWAP1 SSTORE POP PUSH1 0x1 ADD PUSH2 0xE4 JUMP JUMPDEST POP SWAP1 JUMP JUMPDEST PUSH2 0x324 DUP1 PUSH2 0x10B PUSH0 CODECOPY PUSH0 RETURN INVALID PUSH1 0x80 PUSH1 0x40 MSTORE CALLVALUE DUP1 ISZERO PUSH2 0xF JUMPI PUSH0 PUSH0 REVERT JUMPDEST POP PUSH1 0x4 CALLDATASIZE LT PUSH2 0x29 JUMPI PUSH0 CALLDATALOAD PUSH1 0xE0 SHR DUP1 PUSH4 0xFC156FE0 EQ PUSH2 0x2D JUMPI JUMPDEST PUSH0 PUSH0 REVERT JUMPDEST PUSH2 0x47 PUSH1 0x4 DUP1 CALLDATASIZE SUB DUP2 ADD SWAP1 PUSH2 0x42 SWAP2 SWAP1 PUSH2 0x175 JUMP JUMPDEST PUSH2 0x5D JUMP JUMPDEST PUSH1 0x40 MLOAD PUSH2 0x54 SWAP2 SWAP1 PUSH2 0x1B8 JUMP JUMPDEST PUSH1 0x40 MLOAD DUP1 SWAP2 SUB SWAP1 RETURN JUMPDEST PUSH0 PUSH0 PUSH0 SWAP1 POP PUSH0 PUSH1 0x1 PUSH0 DUP1 SLOAD SWAP1 POP PUSH2 0x74 SWAP2 SWAP1 PUSH2 0x1FE JUMP JUMPDEST SWAP1 POP JUMPDEST DUP1 DUP3 GT PUSH2 0x113 JUMPI PUSH0 PUSH1 0x2 DUP3 DUP5 PUSH2 0x8D SWAP2 SWAP1 PUSH2 0x231 JUMP JUMPDEST PUSH2 0x97 SWAP2 SWAP1 PUSH2 0x291 JUMP JUMPDEST SWAP1 POP DUP5 PUSH0 DUP3 DUP2 SLOAD DUP2 LT PUSH2 0xAD JUMPI PUSH2 0xAC PUSH2 0x2C1 JUMP JUMPDEST JUMPDEST SWAP1 PUSH0 MSTORE PUSH1 0x20 PUSH0 KECCAK256 ADD SLOAD SUB PUSH2 0xC6 JUMPI DUP1 SWAP4 POP POP POP POP PUSH2 0x139 JUMP JUMPDEST DUP5 PUSH0 DUP3 DUP2 SLOAD DUP2 LT PUSH2 0xDA JUMPI PUSH2 0xD9 PUSH2 0x2C1 JUMP JUMPDEST JUMPDEST SWAP1 PUSH0 MSTORE PUSH1 0x20 PUSH0 KECCAK256 ADD SLOAD LT ISZERO PUSH2 0xFD JUMPI PUSH1 0x1 DUP2 PUSH2 0xF6 SWAP2 SWAP1 PUSH2 0x231 JUMP JUMPDEST SWAP3 POP PUSH2 0x10D JUMP JUMPDEST PUSH1 0x1 DUP2 PUSH2 0x10A SWAP2 SWAP1 PUSH2 0x1FE JUMP JUMPDEST SWAP2 POP JUMPDEST POP PUSH2 0x77 JUMP JUMPDEST PUSH32 0xFFFFFFFFFFFFFFFFFFFFFFFFFFFFFFFFFFFFFFFFFFFFFFFFFFFFFFFFFFFFFFFF SWAP3 POP POP POP JUMPDEST SWAP2 SWAP1 POP JUMP JUMPDEST PUSH0 PUSH0 REVERT JUMPDEST PUSH0 DUP2 SWAP1 POP SWAP2 SWAP1 POP JUMP JUMPDEST PUSH2 0x154 DUP2 PUSH2 0x142 JUMP JUMPDEST DUP2 EQ PUSH2 0x15E JUMPI PUSH0 PUSH0 REVERT JUMPDEST POP JUMP JUMPDEST PUSH0 DUP2 CALLDATALOAD SWAP1 POP PUSH2 0x16F DUP2 PUSH2 0x14B JUMP JUMPDEST SWAP3 SWAP2 POP POP JUMP JUMPDEST PUSH0 PUSH1 0x20 DUP3 DUP5 SUB SLT ISZERO PUSH2 0x18A JUMPI PUSH2 0x189 PUSH2 0x13E JUMP JUMPDEST JUMPDEST PUSH0 PUSH2 0x197 DUP5 DUP3 DUP6 ADD PUSH2 0x161 JUMP JUMPDEST SWAP2 POP POP SWAP3 SWAP2 POP POP JUMP JUMPDEST PUSH0 DUP2 SWAP1 POP SWAP2 SWAP1 POP JUMP JUMPDEST PUSH2 0x1B2 DUP2 PUSH2 0x1A0 JUMP JUMPDEST DUP3 MSTORE POP POP JUMP JUMPDEST PUSH0 PUSH1 0x20 DUP3 ADD SWAP1 POP PUSH2 0x1CB PUSH0 DUP4 ADD DUP5 PUSH2 0x1A9 JUMP JUMPDEST SWAP3 SWAP2 POP POP JUMP JUMPDEST PUSH32 0x4E487B7100000000000000000000000000000000000000000000000000000000 PUSH0 MSTORE PUSH1 0x11 PUSH1 0x4 MSTORE PUSH1 0x24 PUSH0 REVERT JUMPDEST PUSH0 PUSH2 0x208 DUP3 PUSH2 0x142 JUMP JUMPDEST SWAP2 POP PUSH2 0x213 DUP4 PUSH2 0x142 JUMP JUMPDEST SWAP3 POP DUP3 DUP3 SUB SWAP1 POP DUP2 DUP2 GT ISZERO PUSH2 0x22B JUMPI PUSH2 0x22A PUSH2 0x1D1 JUMP JUMPDEST JUMPDEST SWAP3 SWAP2 POP POP JUMP JUMPDEST PUSH0 PUSH2 0x23B DUP3 PUSH2 0x142 JUMP JUMPDEST SWAP2 POP PUSH2 0x246 DUP4 PUSH2 0x142 JUMP JUMPDEST SWAP3 POP DUP3 DUP3 ADD SWAP1 POP DUP1 DUP3 GT ISZERO PUSH2 0x25E JUMPI PUSH2 0x25D PUSH2 0x1D1 JUMP JUMPDEST JUMPDEST SWAP3 SWAP2 POP POP JUMP JUMPDEST PUSH32 0x4E487B7100000000000000000000000000000000000000000000000000000000 PUSH0 MSTORE PUSH1 0x12 PUSH1 0x4 MSTORE PUSH1 0x24 PUSH0 REVERT JUMPDEST PUSH0 PUSH2 0x29B DUP3 PUSH2 0x142 JUMP JUMPDEST SWAP2 POP PUSH2 0x2A6 DUP4 PUSH2 0x142 JUMP JUMPDEST SWAP3 POP DUP3 PUSH2 0x2B6 JUMPI PUSH2 0x2B5 PUSH2 0x264 JUMP JUMPDEST JUMPDEST DUP3 DUP3 DIV SWAP1 POP SWAP3 SWAP2 POP POP JUMP JUMPDEST PUSH32 0x4E487B7100000000000000000000000000000000000000000000000000000000 PUSH0 MSTORE PUSH1 0x32 PUSH1 0x4 MSTORE PUSH1 0x24 PUSH0 REVERT INVALID LOG2 PUSH5 0x6970667358 0x22 SLT KECCAK256 DUP8 0xDC BLOBBASEFEE 0xE8 0xAB EXTDELEGATECALL 0xC4 SDIV SWAPN 0x5A EXP 0xB9 0xAE CHAINID PUSH5 0x68DC745EAC EXTCALL PUSH27 0x7C1014338A84E608A60364736F6C634300081E0033000000000000 "
				},
				"gasEstimates": {
					"creation": {
						"codeDepositCost": "160800",
						"executionCost": "infinite",
						"totalCost": "infinite"
					},
					"external": {
						"search(uint256)": "infinite"
					}
				},
				"methodIdentifiers": {
					"search(uint256)": "fc156fe0"
				}
			},
			"storageLayout": {
				"storage": [
					{
						"astId": 15,
						"contract": "contracts/BinarySearch.sol:BinarySearch",
						"label": "nums",
						"offset": 0,
						"slot": "0",
						"type": "t_array(t_uint256)dyn_storage"
					}
				],
				"types": {
					"t_array(t_uint256)dyn_storage": {
						"base": "t_uint256",
						"encoding": "dynamic_array",
						"label": "uint256[]",
						"numberOfBytes": "32"
					},
					"t_uint256": {
						"encoding": "inplace",
						"label": "uint256",
						"numberOfBytes": "32"
					}
				}
			},
			"userdoc": {
				"kind": "user",
				"methods": {},
				"version": 1
			}
		}
	}
}