{
	"contracts/RomanToInt.sol": {
		"Roman": {
			"abi": [
				{
					"inputs": [
						{
							"internalType": "string",
							"name": "str",
							"type": "string"
						}
					],
					"name": "romanToInt",
					"outputs": [
						{
							"internalType": "uint256",
							"name": "",
							"type": "uint256"
						}
					],
					"stateMutability": "pure",
					"type": "function"
				}
			],
			"devdoc": {
				"kind": "dev",
				"methods": {},
				"version": 1
			},
			"evm": {
				"assembly": "    /* \"contracts/RomanToInt.sol\":58:1422  contract Roman {... */\n  mstore(0x40, 0x80)\n  callvalue\n  dup1\n  iszero\n  tag_1\n  jumpi\n  revert(0x00, 0x00)\ntag_1:\n  pop\n  dataSize(sub_0)\n  dup1\n  dataOffset(sub_0)\n  0x00\n  codecopy\n  0x00\n  return\nstop\n\nsub_0: assembly {\n        /* \"contracts/RomanToInt.sol\":58:1422  contract Roman {... */\n      mstore(0x40, 0x80)\n      callvalue\n      dup1\n      iszero\n      tag_1\n      jumpi\n      revert(0x00, 0x00)\n    tag_1:\n      pop\n      jumpi(tag_2, lt(calldatasize, 0x04))\n      shr(0xe0, calldataload(0x00))\n      dup1\n      0xcb159dfe\n      eq\n      tag_3\n      jumpi\n    tag_2:\n      revert(0x00, 0x00)\n        /* \"contracts/RomanToInt.sol\":82:657  function romanToInt(string memory str) public pure returns (uint) {... */\n    tag_3:\n      tag_4\n      0x04\n      dup1\n      calldatasize\n      sub\n      dup2\n      add\n      swap1\n      tag_5\n      swap2\n      swap1\n      tag_6\n      jump\t// in\n    tag_5:\n      tag_7\n      jump\t// in\n    tag_4:\n      mload(0x40)\n      tag_8\n      swap2\n      swap1\n      tag_9\n      jump\t// in\n    tag_8:\n      mload(0x40)\n      dup1\n      swap2\n      sub\n      swap1\n      return\n    tag_7:\n        /* \"contracts/RomanToInt.sol\":142:146  uint */\n      0x00\n        /* \"contracts/RomanToInt.sol\":159:176  bytes memory data */\n      0x00\n        /* \"contracts/RomanToInt.sol\":185:188  str */\n      dup3\n        /* \"contracts/RomanToInt.sol\":159:189  bytes memory data = bytes(str) */\n      swap1\n      pop\n        /* \"contracts/RomanToInt.sol\":200:208  uint len */\n      0x00\n        /* \"contracts/RomanToInt.sol\":211:215  data */\n      dup2\n        /* \"contracts/RomanToInt.sol\":211:222  data.length */\n      mload\n        /* \"contracts/RomanToInt.sol\":200:222  uint len = data.length */\n      swap1\n      pop\n        /* \"contracts/RomanToInt.sol\":233:243  uint total */\n      0x00\n        /* \"contracts/RomanToInt.sol\":246:247  0 */\n      0x00\n        /* \"contracts/RomanToInt.sol\":233:247  uint total = 0 */\n      swap1\n      pop\n        /* \"contracts/RomanToInt.sol\":258:264  uint i */\n      0x00\n        /* \"contracts/RomanToInt.sol\":267:268  0 */\n      0x00\n        /* \"contracts/RomanToInt.sol\":258:268  uint i = 0 */\n      swap1\n      pop\n        /* \"contracts/RomanToInt.sol\":279:627  while (i < len) {... */\n    tag_11:\n        /* \"contracts/RomanToInt.sol\":290:293  len */\n      dup3\n        /* \"contracts/RomanToInt.sol\":286:287  i */\n      dup2\n        /* \"contracts/RomanToInt.sol\":286:293  i < len */\n      lt\n        /* \"contracts/RomanToInt.sol\":279:627  while (i < len) {... */\n      iszero\n      tag_12\n      jumpi\n        /* \"contracts/RomanToInt.sol\":320:323  len */\n      dup3\n        /* \"contracts/RomanToInt.sol\":316:317  1 */\n      0x01\n        /* \"contracts/RomanToInt.sol\":313:314  i */\n      dup3\n        /* \"contracts/RomanToInt.sol\":313:317  i+ 1 */\n      tag_13\n      swap2\n      swap1\n      tag_14\n      jump\t// in\n    tag_13:\n        /* \"contracts/RomanToInt.sol\":313:323  i+ 1 < len */\n      lt\n        /* \"contracts/RomanToInt.sol\":309:548  if (i+ 1 < len){... */\n      iszero\n      tag_15\n      jumpi\n        /* \"contracts/RomanToInt.sol\":343:352  uint pair */\n      0x00\n        /* \"contracts/RomanToInt.sol\":355:386  getPairValue(data[i],data[i+1]) */\n      tag_16\n        /* \"contracts/RomanToInt.sol\":368:372  data */\n      dup6\n        /* \"contracts/RomanToInt.sol\":373:374  i */\n      dup4\n        /* \"contracts/RomanToInt.sol\":368:375  data[i] */\n      dup2\n      mload\n      dup2\n      lt\n      tag_17\n      jumpi\n      tag_18\n      tag_19\n      jump\t// in\n    tag_18:\n    tag_17:\n      0x20\n      add\n      add\n      mload\n      0xf8\n      shr\n      0xf8\n      shl\n        /* \"contracts/RomanToInt.sol\":376:380  data */\n      dup7\n        /* \"contracts/RomanToInt.sol\":383:384  1 */\n      0x01\n        /* \"contracts/RomanToInt.sol\":381:382  i */\n      dup6\n        /* \"contracts/RomanToInt.sol\":381:384  i+1 */\n      tag_20\n      swap2\n      swap1\n      tag_14\n      jump\t// in\n    tag_20:\n        /* \"contracts/RomanToInt.sol\":376:385  data[i+1] */\n      dup2\n      mload\n      dup2\n      lt\n      tag_21\n      jumpi\n      tag_22\n      tag_19\n      jump\t// in\n    tag_22:\n    tag_21:\n      0x20\n      add\n      add\n      mload\n      0xf8\n      shr\n      0xf8\n      shl\n        /* \"contracts/RomanToInt.sol\":355:367  getPairValue */\n      tag_23\n        /* \"contracts/RomanToInt.sol\":355:386  getPairValue(data[i],data[i+1]) */\n      jump\t// in\n    tag_16:\n        /* \"contracts/RomanToInt.sol\":343:386  uint pair = getPairValue(data[i],data[i+1]) */\n      swap1\n      pop\n        /* \"contracts/RomanToInt.sol\":416:417  0 */\n      0x00\n        /* \"contracts/RomanToInt.sol\":408:412  pair */\n      dup2\n        /* \"contracts/RomanToInt.sol\":408:417  pair != 0 */\n      eq\n        /* \"contracts/RomanToInt.sol\":405:534  if(pair != 0){... */\n      tag_24\n      jumpi\n        /* \"contracts/RomanToInt.sol\":450:454  pair */\n      dup1\n        /* \"contracts/RomanToInt.sol\":441:454  total += pair */\n      dup4\n      tag_25\n      swap2\n      swap1\n      tag_14\n      jump\t// in\n    tag_25:\n      swap3\n      pop\n        /* \"contracts/RomanToInt.sol\":482:483  2 */\n      0x02\n        /* \"contracts/RomanToInt.sol\":477:483  i += 2 */\n      dup3\n      tag_26\n      swap2\n      swap1\n      tag_14\n      jump\t// in\n    tag_26:\n      swap2\n      pop\n        /* \"contracts/RomanToInt.sol\":506:514  continue */\n      pop\n      jump(tag_11)\n        /* \"contracts/RomanToInt.sol\":405:534  if(pair != 0){... */\n    tag_24:\n        /* \"contracts/RomanToInt.sol\":324:548  {... */\n      pop\n        /* \"contracts/RomanToInt.sol\":309:548  if (i+ 1 < len){... */\n    tag_15:\n        /* \"contracts/RomanToInt.sol\":574:597  getSingleValue(data[i]) */\n      tag_27\n        /* \"contracts/RomanToInt.sol\":589:593  data */\n      dup5\n        /* \"contracts/RomanToInt.sol\":594:595  i */\n      dup3\n        /* \"contracts/RomanToInt.sol\":589:596  data[i] */\n      dup2\n      mload\n      dup2\n      lt\n      tag_28\n      jumpi\n      tag_29\n      tag_19\n      jump\t// in\n    tag_29:\n    tag_28:\n      0x20\n      add\n      add\n      mload\n      0xf8\n      shr\n      0xf8\n      shl\n        /* \"contracts/RomanToInt.sol\":574:588  getSingleValue */\n      tag_30\n        /* \"contracts/RomanToInt.sol\":574:597  getSingleValue(data[i]) */\n      jump\t// in\n    tag_27:\n        /* \"contracts/RomanToInt.sol\":565:597  total += getSingleValue(data[i]) */\n      dup3\n      tag_31\n      swap2\n      swap1\n      tag_14\n      jump\t// in\n    tag_31:\n      swap2\n      pop\n        /* \"contracts/RomanToInt.sol\":612:615  i++ */\n      dup1\n      dup1\n      tag_32\n      swap1\n      tag_33\n      jump\t// in\n    tag_32:\n      swap2\n      pop\n      pop\n        /* \"contracts/RomanToInt.sol\":279:627  while (i < len) {... */\n      jump(tag_11)\n    tag_12:\n        /* \"contracts/RomanToInt.sol\":644:649  total */\n      dup2\n        /* \"contracts/RomanToInt.sol\":637:649  return total */\n      swap5\n      pop\n      pop\n      pop\n      pop\n      pop\n        /* \"contracts/RomanToInt.sol\":82:657  function romanToInt(string memory str) public pure returns (uint) {... */\n      swap2\n      swap1\n      pop\n      jump\t// out\n        /* \"contracts/RomanToInt.sol\":1034:1415  function getPairValue(bytes1 a, bytes1 b) internal pure returns (uint) {... */\n    tag_23:\n        /* \"contracts/RomanToInt.sol\":1099:1103  uint */\n      0x00\n        /* \"contracts/RomanToInt.sol\":1121:1129  a == 'I' */\n      0x4900000000000000000000000000000000000000000000000000000000000000\n        /* \"contracts/RomanToInt.sol\":1121:1122  a */\n      dup4\n        /* \"contracts/RomanToInt.sol\":1121:1129  a == 'I' */\n      not(0xffffffffffffffffffffffffffffffffffffffffffffffffffffffffffffff)\n      and\n      eq\n        /* \"contracts/RomanToInt.sol\":1121:1141  a == 'I' && b == 'V' */\n      dup1\n      iszero\n      tag_35\n      jumpi\n      pop\n        /* \"contracts/RomanToInt.sol\":1133:1141  b == 'V' */\n      0x5600000000000000000000000000000000000000000000000000000000000000\n        /* \"contracts/RomanToInt.sol\":1133:1134  b */\n      dup3\n        /* \"contracts/RomanToInt.sol\":1133:1141  b == 'V' */\n      not(0xffffffffffffffffffffffffffffffffffffffffffffffffffffffffffffff)\n      and\n      eq\n        /* \"contracts/RomanToInt.sol\":1121:1141  a == 'I' && b == 'V' */\n    tag_35:\n        /* \"contracts/RomanToInt.sol\":1117:1151  if (a == 'I' && b == 'V') return 4 */\n      iszero\n      tag_36\n      jumpi\n        /* \"contracts/RomanToInt.sol\":1150:1151  4 */\n      0x04\n        /* \"contracts/RomanToInt.sol\":1143:1151  return 4 */\n      swap1\n      pop\n      jump(tag_34)\n        /* \"contracts/RomanToInt.sol\":1117:1151  if (a == 'I' && b == 'V') return 4 */\n    tag_36:\n        /* \"contracts/RomanToInt.sol\":1167:1175  a == 'I' */\n      0x4900000000000000000000000000000000000000000000000000000000000000\n        /* \"contracts/RomanToInt.sol\":1167:1168  a */\n      dup4\n        /* \"contracts/RomanToInt.sol\":1167:1175  a == 'I' */\n      not(0xffffffffffffffffffffffffffffffffffffffffffffffffffffffffffffff)\n      and\n      eq\n        /* \"contracts/RomanToInt.sol\":1167:1187  a == 'I' && b == 'X' */\n      dup1\n      iszero\n      tag_37\n      jumpi\n      pop\n        /* \"contracts/RomanToInt.sol\":1179:1187  b == 'X' */\n      0x5800000000000000000000000000000000000000000000000000000000000000\n        /* \"contracts/RomanToInt.sol\":1179:1180  b */\n      dup3\n        /* \"contracts/RomanToInt.sol\":1179:1187  b == 'X' */\n      not(0xffffffffffffffffffffffffffffffffffffffffffffffffffffffffffffff)\n      and\n      eq\n        /* \"contracts/RomanToInt.sol\":1167:1187  a == 'I' && b == 'X' */\n    tag_37:\n        /* \"contracts/RomanToInt.sol\":1163:1197  if (a == 'I' && b == 'X') return 9 */\n      iszero\n      tag_38\n      jumpi\n        /* \"contracts/RomanToInt.sol\":1196:1197  9 */\n      0x09\n        /* \"contracts/RomanToInt.sol\":1189:1197  return 9 */\n      swap1\n      pop\n      jump(tag_34)\n        /* \"contracts/RomanToInt.sol\":1163:1197  if (a == 'I' && b == 'X') return 9 */\n    tag_38:\n        /* \"contracts/RomanToInt.sol\":1213:1221  a == 'X' */\n      0x5800000000000000000000000000000000000000000000000000000000000000\n        /* \"contracts/RomanToInt.sol\":1213:1214  a */\n      dup4\n        /* \"contracts/RomanToInt.sol\":1213:1221  a == 'X' */\n      not(0xffffffffffffffffffffffffffffffffffffffffffffffffffffffffffffff)\n      and\n      eq\n        /* \"contracts/RomanToInt.sol\":1213:1233  a == 'X' && b == 'L' */\n      dup1\n      iszero\n      tag_39\n      jumpi\n      pop\n        /* \"contracts/RomanToInt.sol\":1225:1233  b == 'L' */\n      0x4c00000000000000000000000000000000000000000000000000000000000000\n        /* \"contracts/RomanToInt.sol\":1225:1226  b */\n      dup3\n        /* \"contracts/RomanToInt.sol\":1225:1233  b == 'L' */\n      not(0xffffffffffffffffffffffffffffffffffffffffffffffffffffffffffffff)\n      and\n      eq\n        /* \"contracts/RomanToInt.sol\":1213:1233  a == 'X' && b == 'L' */\n    tag_39:\n        /* \"contracts/RomanToInt.sol\":1209:1244  if (a == 'X' && b == 'L') return 40 */\n      iszero\n      tag_40\n      jumpi\n        /* \"contracts/RomanToInt.sol\":1242:1244  40 */\n      0x28\n        /* \"contracts/RomanToInt.sol\":1235:1244  return 40 */\n      swap1\n      pop\n      jump(tag_34)\n        /* \"contracts/RomanToInt.sol\":1209:1244  if (a == 'X' && b == 'L') return 40 */\n    tag_40:\n        /* \"contracts/RomanToInt.sol\":1260:1268  a == 'X' */\n      0x5800000000000000000000000000000000000000000000000000000000000000\n        /* \"contracts/RomanToInt.sol\":1260:1261  a */\n      dup4\n        /* \"contracts/RomanToInt.sol\":1260:1268  a == 'X' */\n      not(0xffffffffffffffffffffffffffffffffffffffffffffffffffffffffffffff)\n      and\n      eq\n        /* \"contracts/RomanToInt.sol\":1260:1280  a == 'X' && b == 'C' */\n      dup1\n      iszero\n      tag_41\n      jumpi\n      pop\n        /* \"contracts/RomanToInt.sol\":1272:1280  b == 'C' */\n      0x4300000000000000000000000000000000000000000000000000000000000000\n        /* \"contracts/RomanToInt.sol\":1272:1273  b */\n      dup3\n        /* \"contracts/RomanToInt.sol\":1272:1280  b == 'C' */\n      not(0xffffffffffffffffffffffffffffffffffffffffffffffffffffffffffffff)\n      and\n      eq\n        /* \"contracts/RomanToInt.sol\":1260:1280  a == 'X' && b == 'C' */\n    tag_41:\n        /* \"contracts/RomanToInt.sol\":1256:1291  if (a == 'X' && b == 'C') return 90 */\n      iszero\n      tag_42\n      jumpi\n        /* \"contracts/RomanToInt.sol\":1289:1291  90 */\n      0x5a\n        /* \"contracts/RomanToInt.sol\":1282:1291  return 90 */\n      swap1\n      pop\n      jump(tag_34)\n        /* \"contracts/RomanToInt.sol\":1256:1291  if (a == 'X' && b == 'C') return 90 */\n    tag_42:\n        /* \"contracts/RomanToInt.sol\":1307:1315  a == 'C' */\n      0x4300000000000000000000000000000000000000000000000000000000000000\n        /* \"contracts/RomanToInt.sol\":1307:1308  a */\n      dup4\n        /* \"contracts/RomanToInt.sol\":1307:1315  a == 'C' */\n      not(0xffffffffffffffffffffffffffffffffffffffffffffffffffffffffffffff)\n      and\n      eq\n        /* \"contracts/RomanToInt.sol\":1307:1327  a == 'C' && b == 'D' */\n      dup1\n      iszero\n      tag_43\n      jumpi\n      pop\n        /* \"contracts/RomanToInt.sol\":1319:1327  b == 'D' */\n      0x4400000000000000000000000000000000000000000000000000000000000000\n        /* \"contracts/RomanToInt.sol\":1319:1320  b */\n      dup3\n        /* \"contracts/RomanToInt.sol\":1319:1327  b == 'D' */\n      not(0xffffffffffffffffffffffffffffffffffffffffffffffffffffffffffffff)\n      and\n      eq\n        /* \"contracts/RomanToInt.sol\":1307:1327  a == 'C' && b == 'D' */\n    tag_43:\n        /* \"contracts/RomanToInt.sol\":1303:1339  if (a == 'C' && b == 'D') return 400 */\n      iszero\n      tag_44\n      jumpi\n        /* \"contracts/RomanToInt.sol\":1336:1339  400 */\n      0x0190\n        /* \"contracts/RomanToInt.sol\":1329:1339  return 400 */\n      swap1\n      pop\n      jump(tag_34)\n        /* \"contracts/RomanToInt.sol\":1303:1339  if (a == 'C' && b == 'D') return 400 */\n    tag_44:\n        /* \"contracts/RomanToInt.sol\":1355:1363  a == 'C' */\n      0x4300000000000000000000000000000000000000000000000000000000000000\n        /* \"contracts/RomanToInt.sol\":1355:1356  a */\n      dup4\n        /* \"contracts/RomanToInt.sol\":1355:1363  a == 'C' */\n      not(0xffffffffffffffffffffffffffffffffffffffffffffffffffffffffffffff)\n      and\n      eq\n        /* \"contracts/RomanToInt.sol\":1355:1375  a == 'C' && b == 'M' */\n      dup1\n      iszero\n      tag_45\n      jumpi\n      pop\n        /* \"contracts/RomanToInt.sol\":1367:1375  b == 'M' */\n      0x4d00000000000000000000000000000000000000000000000000000000000000\n        /* \"contracts/RomanToInt.sol\":1367:1368  b */\n      dup3\n        /* \"contracts/RomanToInt.sol\":1367:1375  b == 'M' */\n      not(0xffffffffffffffffffffffffffffffffffffffffffffffffffffffffffffff)\n      and\n      eq\n        /* \"contracts/RomanToInt.sol\":1355:1375  a == 'C' && b == 'M' */\n    tag_45:\n        /* \"contracts/RomanToInt.sol\":1351:1387  if (a == 'C' && b == 'M') return 900 */\n      iszero\n      tag_46\n      jumpi\n        /* \"contracts/RomanToInt.sol\":1384:1387  900 */\n      0x0384\n        /* \"contracts/RomanToInt.sol\":1377:1387  return 900 */\n      swap1\n      pop\n      jump(tag_34)\n        /* \"contracts/RomanToInt.sol\":1351:1387  if (a == 'C' && b == 'M') return 900 */\n    tag_46:\n        /* \"contracts/RomanToInt.sol\":1406:1407  0 */\n      0x00\n        /* \"contracts/RomanToInt.sol\":1399:1407  return 0 */\n      swap1\n      pop\n        /* \"contracts/RomanToInt.sol\":1034:1415  function getPairValue(bytes1 a, bytes1 b) internal pure returns (uint) {... */\n    tag_34:\n      swap3\n      swap2\n      pop\n      pop\n      jump\t// out\n        /* \"contracts/RomanToInt.sol\":665:1026  function getSingleValue(bytes1 s) internal pure returns (uint) {... */\n    tag_30:\n        /* \"contracts/RomanToInt.sol\":722:726  uint */\n      0x00\n        /* \"contracts/RomanToInt.sol\":744:752  s == 'I' */\n      0x4900000000000000000000000000000000000000000000000000000000000000\n        /* \"contracts/RomanToInt.sol\":744:745  s */\n      dup3\n        /* \"contracts/RomanToInt.sol\":744:752  s == 'I' */\n      not(0xffffffffffffffffffffffffffffffffffffffffffffffffffffffffffffff)\n      and\n      sub\n        /* \"contracts/RomanToInt.sol\":740:762  if (s == 'I') return 1 */\n      tag_48\n      jumpi\n        /* \"contracts/RomanToInt.sol\":761:762  1 */\n      0x01\n        /* \"contracts/RomanToInt.sol\":754:762  return 1 */\n      swap1\n      pop\n      jump(tag_47)\n        /* \"contracts/RomanToInt.sol\":740:762  if (s == 'I') return 1 */\n    tag_48:\n        /* \"contracts/RomanToInt.sol\":778:786  s == 'V' */\n      0x5600000000000000000000000000000000000000000000000000000000000000\n        /* \"contracts/RomanToInt.sol\":778:779  s */\n      dup3\n        /* \"contracts/RomanToInt.sol\":778:786  s == 'V' */\n      not(0xffffffffffffffffffffffffffffffffffffffffffffffffffffffffffffff)\n      and\n      sub\n        /* \"contracts/RomanToInt.sol\":774:796  if (s == 'V') return 5 */\n      tag_49\n      jumpi\n        /* \"contracts/RomanToInt.sol\":795:796  5 */\n      0x05\n        /* \"contracts/RomanToInt.sol\":788:796  return 5 */\n      swap1\n      pop\n      jump(tag_47)\n        /* \"contracts/RomanToInt.sol\":774:796  if (s == 'V') return 5 */\n    tag_49:\n        /* \"contracts/RomanToInt.sol\":812:820  s == 'X' */\n      0x5800000000000000000000000000000000000000000000000000000000000000\n        /* \"contracts/RomanToInt.sol\":812:813  s */\n      dup3\n        /* \"contracts/RomanToInt.sol\":812:820  s == 'X' */\n      not(0xffffffffffffffffffffffffffffffffffffffffffffffffffffffffffffff)\n      and\n      sub\n        /* \"contracts/RomanToInt.sol\":808:831  if (s == 'X') return 10 */\n      tag_50\n      jumpi\n        /* \"contracts/RomanToInt.sol\":829:831  10 */\n      0x0a\n        /* \"contracts/RomanToInt.sol\":822:831  return 10 */\n      swap1\n      pop\n      jump(tag_47)\n        /* \"contracts/RomanToInt.sol\":808:831  if (s == 'X') return 10 */\n    tag_50:\n        /* \"contracts/RomanToInt.sol\":847:855  s == 'L' */\n      0x4c00000000000000000000000000000000000000000000000000000000000000\n        /* \"contracts/RomanToInt.sol\":847:848  s */\n      dup3\n        /* \"contracts/RomanToInt.sol\":847:855  s == 'L' */\n      not(0xffffffffffffffffffffffffffffffffffffffffffffffffffffffffffffff)\n      and\n      sub\n        /* \"contracts/RomanToInt.sol\":843:866  if (s == 'L') return 50 */\n      tag_51\n      jumpi\n        /* \"contracts/RomanToInt.sol\":864:866  50 */\n      0x32\n        /* \"contracts/RomanToInt.sol\":857:866  return 50 */\n      swap1\n      pop\n      jump(tag_47)\n        /* \"contracts/RomanToInt.sol\":843:866  if (s == 'L') return 50 */\n    tag_51:\n        /* \"contracts/RomanToInt.sol\":882:890  s == 'C' */\n      0x4300000000000000000000000000000000000000000000000000000000000000\n        /* \"contracts/RomanToInt.sol\":882:883  s */\n      dup3\n        /* \"contracts/RomanToInt.sol\":882:890  s == 'C' */\n      not(0xffffffffffffffffffffffffffffffffffffffffffffffffffffffffffffff)\n      and\n      sub\n        /* \"contracts/RomanToInt.sol\":878:902  if (s == 'C') return 100 */\n      tag_52\n      jumpi\n        /* \"contracts/RomanToInt.sol\":899:902  100 */\n      0x64\n        /* \"contracts/RomanToInt.sol\":892:902  return 100 */\n      swap1\n      pop\n      jump(tag_47)\n        /* \"contracts/RomanToInt.sol\":878:902  if (s == 'C') return 100 */\n    tag_52:\n        /* \"contracts/RomanToInt.sol\":918:926  s == 'D' */\n      0x4400000000000000000000000000000000000000000000000000000000000000\n        /* \"contracts/RomanToInt.sol\":918:919  s */\n      dup3\n        /* \"contracts/RomanToInt.sol\":918:926  s == 'D' */\n      not(0xffffffffffffffffffffffffffffffffffffffffffffffffffffffffffffff)\n      and\n      sub\n        /* \"contracts/RomanToInt.sol\":914:938  if (s == 'D') return 500 */\n      tag_53\n      jumpi\n        /* \"contracts/RomanToInt.sol\":935:938  500 */\n      0x01f4\n        /* \"contracts/RomanToInt.sol\":928:938  return 500 */\n      swap1\n      pop\n      jump(tag_47)\n        /* \"contracts/RomanToInt.sol\":914:938  if (s == 'D') return 500 */\n    tag_53:\n        /* \"contracts/RomanToInt.sol\":954:962  s == 'M' */\n      0x4d00000000000000000000000000000000000000000000000000000000000000\n        /* \"contracts/RomanToInt.sol\":954:955  s */\n      dup3\n        /* \"contracts/RomanToInt.sol\":954:962  s == 'M' */\n      not(0xffffffffffffffffffffffffffffffffffffffffffffffffffffffffffffff)\n      and\n      sub\n        /* \"contracts/RomanToInt.sol\":950:975  if (s == 'M') return 1000 */\n      tag_54\n      jumpi\n        /* \"contracts/RomanToInt.sol\":971:975  1000 */\n      0x03e8\n        /* \"contracts/RomanToInt.sol\":964:975  return 1000 */\n      swap1\n      pop\n      jump(tag_47)\n        /* \"contracts/RomanToInt.sol\":950:975  if (s == 'M') return 1000 */\n    tag_54:\n        /* \"contracts/RomanToInt.sol\":987:1018  revert(\"Invalid Roman numeral\") */\n      mload(0x40)\n      0x08c379a000000000000000000000000000000000000000000000000000000000\n      dup2\n      mstore\n      0x04\n      add\n      tag_55\n      swap1\n      tag_56\n      jump\t// in\n    tag_55:\n      mload(0x40)\n      dup1\n      swap2\n      sub\n      swap1\n      revert\n        /* \"contracts/RomanToInt.sol\":665:1026  function getSingleValue(bytes1 s) internal pure returns (uint) {... */\n    tag_47:\n      swap2\n      swap1\n      pop\n      jump\t// out\n        /* \"#utility.yul\":7:82   */\n    tag_57:\n        /* \"#utility.yul\":40:46   */\n      0x00\n        /* \"#utility.yul\":73:75   */\n      0x40\n        /* \"#utility.yul\":67:76   */\n      mload\n        /* \"#utility.yul\":57:76   */\n      swap1\n      pop\n        /* \"#utility.yul\":7:82   */\n      swap1\n      jump\t// out\n        /* \"#utility.yul\":88:205   */\n    tag_58:\n        /* \"#utility.yul\":197:198   */\n      0x00\n        /* \"#utility.yul\":194:195   */\n      0x00\n        /* \"#utility.yul\":187:199   */\n      revert\n        /* \"#utility.yul\":211:328   */\n    tag_59:\n        /* \"#utility.yul\":320:321   */\n      0x00\n        /* \"#utility.yul\":317:318   */\n      0x00\n        /* \"#utility.yul\":310:322   */\n      revert\n        /* \"#utility.yul\":334:451   */\n    tag_60:\n        /* \"#utility.yul\":443:444   */\n      0x00\n        /* \"#utility.yul\":440:441   */\n      0x00\n        /* \"#utility.yul\":433:445   */\n      revert\n        /* \"#utility.yul\":457:574   */\n    tag_61:\n        /* \"#utility.yul\":566:567   */\n      0x00\n        /* \"#utility.yul\":563:564   */\n      0x00\n        /* \"#utility.yul\":556:568   */\n      revert\n        /* \"#utility.yul\":580:682   */\n    tag_62:\n        /* \"#utility.yul\":621:627   */\n      0x00\n        /* \"#utility.yul\":672:674   */\n      0x1f\n        /* \"#utility.yul\":668:675   */\n      not\n        /* \"#utility.yul\":663:665   */\n      0x1f\n        /* \"#utility.yul\":656:661   */\n      dup4\n        /* \"#utility.yul\":652:666   */\n      add\n        /* \"#utility.yul\":648:676   */\n      and\n        /* \"#utility.yul\":638:676   */\n      swap1\n      pop\n        /* \"#utility.yul\":580:682   */\n      swap2\n      swap1\n      pop\n      jump\t// out\n        /* \"#utility.yul\":688:868   */\n    tag_63:\n        /* \"#utility.yul\":736:813   */\n      0x4e487b7100000000000000000000000000000000000000000000000000000000\n        /* \"#utility.yul\":733:734   */\n      0x00\n        /* \"#utility.yul\":726:814   */\n      mstore\n        /* \"#utility.yul\":833:837   */\n      0x41\n        /* \"#utility.yul\":830:831   */\n      0x04\n        /* \"#utility.yul\":823:838   */\n      mstore\n        /* \"#utility.yul\":857:861   */\n      0x24\n        /* \"#utility.yul\":854:855   */\n      0x00\n        /* \"#utility.yul\":847:862   */\n      revert\n        /* \"#utility.yul\":874:1155   */\n    tag_64:\n        /* \"#utility.yul\":957:984   */\n      tag_85\n        /* \"#utility.yul\":979:983   */\n      dup3\n        /* \"#utility.yul\":957:984   */\n      tag_62\n      jump\t// in\n    tag_85:\n        /* \"#utility.yul\":949:955   */\n      dup2\n        /* \"#utility.yul\":945:985   */\n      add\n        /* \"#utility.yul\":1087:1093   */\n      dup2\n        /* \"#utility.yul\":1075:1085   */\n      dup2\n        /* \"#utility.yul\":1072:1094   */\n      lt\n        /* \"#utility.yul\":1051:1069   */\n      0xffffffffffffffff\n        /* \"#utility.yul\":1039:1049   */\n      dup3\n        /* \"#utility.yul\":1036:1070   */\n      gt\n        /* \"#utility.yul\":1033:1095   */\n      or\n        /* \"#utility.yul\":1030:1118   */\n      iszero\n      tag_86\n      jumpi\n        /* \"#utility.yul\":1098:1116   */\n      tag_87\n      tag_63\n      jump\t// in\n    tag_87:\n        /* \"#utility.yul\":1030:1118   */\n    tag_86:\n        /* \"#utility.yul\":1138:1148   */\n      dup1\n        /* \"#utility.yul\":1134:1136   */\n      0x40\n        /* \"#utility.yul\":1127:1149   */\n      mstore\n        /* \"#utility.yul\":917:1155   */\n      pop\n        /* \"#utility.yul\":874:1155   */\n      pop\n      pop\n      jump\t// out\n        /* \"#utility.yul\":1161:1290   */\n    tag_65:\n        /* \"#utility.yul\":1195:1201   */\n      0x00\n        /* \"#utility.yul\":1222:1242   */\n      tag_89\n      tag_57\n      jump\t// in\n    tag_89:\n        /* \"#utility.yul\":1212:1242   */\n      swap1\n      pop\n        /* \"#utility.yul\":1251:1284   */\n      tag_90\n        /* \"#utility.yul\":1279:1283   */\n      dup3\n        /* \"#utility.yul\":1271:1277   */\n      dup3\n        /* \"#utility.yul\":1251:1284   */\n      tag_64\n      jump\t// in\n    tag_90:\n        /* \"#utility.yul\":1161:1290   */\n      swap2\n      swap1\n      pop\n      jump\t// out\n        /* \"#utility.yul\":1296:1604   */\n    tag_66:\n        /* \"#utility.yul\":1358:1362   */\n      0x00\n        /* \"#utility.yul\":1448:1466   */\n      0xffffffffffffffff\n        /* \"#utility.yul\":1440:1446   */\n      dup3\n        /* \"#utility.yul\":1437:1467   */\n      gt\n        /* \"#utility.yul\":1434:1490   */\n      iszero\n      tag_92\n      jumpi\n        /* \"#utility.yul\":1470:1488   */\n      tag_93\n      tag_63\n      jump\t// in\n    tag_93:\n        /* \"#utility.yul\":1434:1490   */\n    tag_92:\n        /* \"#utility.yul\":1508:1537   */\n      tag_94\n        /* \"#utility.yul\":1530:1536   */\n      dup3\n        /* \"#utility.yul\":1508:1537   */\n      tag_62\n      jump\t// in\n    tag_94:\n        /* \"#utility.yul\":1500:1537   */\n      swap1\n      pop\n        /* \"#utility.yul\":1592:1596   */\n      0x20\n        /* \"#utility.yul\":1586:1590   */\n      dup2\n        /* \"#utility.yul\":1582:1597   */\n      add\n        /* \"#utility.yul\":1574:1597   */\n      swap1\n      pop\n        /* \"#utility.yul\":1296:1604   */\n      swap2\n      swap1\n      pop\n      jump\t// out\n        /* \"#utility.yul\":1610:1758   */\n    tag_67:\n        /* \"#utility.yul\":1708:1714   */\n      dup3\n        /* \"#utility.yul\":1703:1706   */\n      dup2\n        /* \"#utility.yul\":1698:1701   */\n      dup4\n        /* \"#utility.yul\":1685:1715   */\n      calldatacopy\n        /* \"#utility.yul\":1749:1750   */\n      0x00\n        /* \"#utility.yul\":1740:1746   */\n      dup4\n        /* \"#utility.yul\":1735:1738   */\n      dup4\n        /* \"#utility.yul\":1731:1747   */\n      add\n        /* \"#utility.yul\":1724:1751   */\n      mstore\n        /* \"#utility.yul\":1610:1758   */\n      pop\n      pop\n      pop\n      jump\t// out\n        /* \"#utility.yul\":1764:2189   */\n    tag_68:\n        /* \"#utility.yul\":1842:1847   */\n      0x00\n        /* \"#utility.yul\":1867:1933   */\n      tag_97\n        /* \"#utility.yul\":1883:1932   */\n      tag_98\n        /* \"#utility.yul\":1925:1931   */\n      dup5\n        /* \"#utility.yul\":1883:1932   */\n      tag_66\n      jump\t// in\n    tag_98:\n        /* \"#utility.yul\":1867:1933   */\n      tag_65\n      jump\t// in\n    tag_97:\n        /* \"#utility.yul\":1858:1933   */\n      swap1\n      pop\n        /* \"#utility.yul\":1956:1962   */\n      dup3\n        /* \"#utility.yul\":1949:1954   */\n      dup2\n        /* \"#utility.yul\":1942:1963   */\n      mstore\n        /* \"#utility.yul\":1994:1998   */\n      0x20\n        /* \"#utility.yul\":1987:1992   */\n      dup2\n        /* \"#utility.yul\":1983:1999   */\n      add\n        /* \"#utility.yul\":2032:2035   */\n      dup5\n        /* \"#utility.yul\":2023:2029   */\n      dup5\n        /* \"#utility.yul\":2018:2021   */\n      dup5\n        /* \"#utility.yul\":2014:2030   */\n      add\n        /* \"#utility.yul\":2011:2036   */\n      gt\n        /* \"#utility.yul\":2008:2120   */\n      iszero\n      tag_99\n      jumpi\n        /* \"#utility.yul\":2039:2118   */\n      tag_100\n      tag_61\n      jump\t// in\n    tag_100:\n        /* \"#utility.yul\":2008:2120   */\n    tag_99:\n        /* \"#utility.yul\":2129:2183   */\n      tag_101\n        /* \"#utility.yul\":2176:2182   */\n      dup5\n        /* \"#utility.yul\":2171:2174   */\n      dup3\n        /* \"#utility.yul\":2166:2169   */\n      dup6\n        /* \"#utility.yul\":2129:2183   */\n      tag_67\n      jump\t// in\n    tag_101:\n        /* \"#utility.yul\":1848:2189   */\n      pop\n        /* \"#utility.yul\":1764:2189   */\n      swap4\n      swap3\n      pop\n      pop\n      pop\n      jump\t// out\n        /* \"#utility.yul\":2209:2549   */\n    tag_69:\n        /* \"#utility.yul\":2265:2270   */\n      0x00\n        /* \"#utility.yul\":2314:2317   */\n      dup3\n        /* \"#utility.yul\":2307:2311   */\n      0x1f\n        /* \"#utility.yul\":2299:2305   */\n      dup4\n        /* \"#utility.yul\":2295:2312   */\n      add\n        /* \"#utility.yul\":2291:2318   */\n      slt\n        /* \"#utility.yul\":2281:2403   */\n      tag_103\n      jumpi\n        /* \"#utility.yul\":2322:2401   */\n      tag_104\n      tag_60\n      jump\t// in\n    tag_104:\n        /* \"#utility.yul\":2281:2403   */\n    tag_103:\n        /* \"#utility.yul\":2439:2445   */\n      dup2\n        /* \"#utility.yul\":2426:2446   */\n      calldataload\n        /* \"#utility.yul\":2464:2543   */\n      tag_105\n        /* \"#utility.yul\":2539:2542   */\n      dup5\n        /* \"#utility.yul\":2531:2537   */\n      dup3\n        /* \"#utility.yul\":2524:2528   */\n      0x20\n        /* \"#utility.yul\":2516:2522   */\n      dup7\n        /* \"#utility.yul\":2512:2529   */\n      add\n        /* \"#utility.yul\":2464:2543   */\n      tag_68\n      jump\t// in\n    tag_105:\n        /* \"#utility.yul\":2455:2543   */\n      swap2\n      pop\n        /* \"#utility.yul\":2271:2549   */\n      pop\n        /* \"#utility.yul\":2209:2549   */\n      swap3\n      swap2\n      pop\n      pop\n      jump\t// out\n        /* \"#utility.yul\":2555:3064   */\n    tag_6:\n        /* \"#utility.yul\":2624:2630   */\n      0x00\n        /* \"#utility.yul\":2673:2675   */\n      0x20\n        /* \"#utility.yul\":2661:2670   */\n      dup3\n        /* \"#utility.yul\":2652:2659   */\n      dup5\n        /* \"#utility.yul\":2648:2671   */\n      sub\n        /* \"#utility.yul\":2644:2676   */\n      slt\n        /* \"#utility.yul\":2641:2760   */\n      iszero\n      tag_107\n      jumpi\n        /* \"#utility.yul\":2679:2758   */\n      tag_108\n      tag_58\n      jump\t// in\n    tag_108:\n        /* \"#utility.yul\":2641:2760   */\n    tag_107:\n        /* \"#utility.yul\":2827:2828   */\n      0x00\n        /* \"#utility.yul\":2816:2825   */\n      dup3\n        /* \"#utility.yul\":2812:2829   */\n      add\n        /* \"#utility.yul\":2799:2830   */\n      calldataload\n        /* \"#utility.yul\":2857:2875   */\n      0xffffffffffffffff\n        /* \"#utility.yul\":2849:2855   */\n      dup2\n        /* \"#utility.yul\":2846:2876   */\n      gt\n        /* \"#utility.yul\":2843:2960   */\n      iszero\n      tag_109\n      jumpi\n        /* \"#utility.yul\":2879:2958   */\n      tag_110\n      tag_59\n      jump\t// in\n    tag_110:\n        /* \"#utility.yul\":2843:2960   */\n    tag_109:\n        /* \"#utility.yul\":2984:3047   */\n      tag_111\n        /* \"#utility.yul\":3039:3046   */\n      dup5\n        /* \"#utility.yul\":3030:3036   */\n      dup3\n        /* \"#utility.yul\":3019:3028   */\n      dup6\n        /* \"#utility.yul\":3015:3037   */\n      add\n        /* \"#utility.yul\":2984:3047   */\n      tag_69\n      jump\t// in\n    tag_111:\n        /* \"#utility.yul\":2974:3047   */\n      swap2\n      pop\n        /* \"#utility.yul\":2770:3057   */\n      pop\n        /* \"#utility.yul\":2555:3064   */\n      swap3\n      swap2\n      pop\n      pop\n      jump\t// out\n        /* \"#utility.yul\":3070:3147   */\n    tag_70:\n        /* \"#utility.yul\":3107:3114   */\n      0x00\n        /* \"#utility.yul\":3136:3141   */\n      dup2\n        /* \"#utility.yul\":3125:3141   */\n      swap1\n      pop\n        /* \"#utility.yul\":3070:3147   */\n      swap2\n      swap1\n      pop\n      jump\t// out\n        /* \"#utility.yul\":3153:3271   */\n    tag_71:\n        /* \"#utility.yul\":3240:3264   */\n      tag_114\n        /* \"#utility.yul\":3258:3263   */\n      dup2\n        /* \"#utility.yul\":3240:3264   */\n      tag_70\n      jump\t// in\n    tag_114:\n        /* \"#utility.yul\":3235:3238   */\n      dup3\n        /* \"#utility.yul\":3228:3265   */\n      mstore\n        /* \"#utility.yul\":3153:3271   */\n      pop\n      pop\n      jump\t// out\n        /* \"#utility.yul\":3277:3499   */\n    tag_9:\n        /* \"#utility.yul\":3370:3374   */\n      0x00\n        /* \"#utility.yul\":3408:3410   */\n      0x20\n        /* \"#utility.yul\":3397:3406   */\n      dup3\n        /* \"#utility.yul\":3393:3411   */\n      add\n        /* \"#utility.yul\":3385:3411   */\n      swap1\n      pop\n        /* \"#utility.yul\":3421:3492   */\n      tag_116\n        /* \"#utility.yul\":3489:3490   */\n      0x00\n        /* \"#utility.yul\":3478:3487   */\n      dup4\n        /* \"#utility.yul\":3474:3491   */\n      add\n        /* \"#utility.yul\":3465:3471   */\n      dup5\n        /* \"#utility.yul\":3421:3492   */\n      tag_71\n      jump\t// in\n    tag_116:\n        /* \"#utility.yul\":3277:3499   */\n      swap3\n      swap2\n      pop\n      pop\n      jump\t// out\n        /* \"#utility.yul\":3505:3685   */\n    tag_72:\n        /* \"#utility.yul\":3553:3630   */\n      0x4e487b7100000000000000000000000000000000000000000000000000000000\n        /* \"#utility.yul\":3550:3551   */\n      0x00\n        /* \"#utility.yul\":3543:3631   */\n      mstore\n        /* \"#utility.yul\":3650:3654   */\n      0x11\n        /* \"#utility.yul\":3647:3648   */\n      0x04\n        /* \"#utility.yul\":3640:3655   */\n      mstore\n        /* \"#utility.yul\":3674:3678   */\n      0x24\n        /* \"#utility.yul\":3671:3672   */\n      0x00\n        /* \"#utility.yul\":3664:3679   */\n      revert\n        /* \"#utility.yul\":3691:3882   */\n    tag_14:\n        /* \"#utility.yul\":3731:3734   */\n      0x00\n        /* \"#utility.yul\":3750:3770   */\n      tag_119\n        /* \"#utility.yul\":3768:3769   */\n      dup3\n        /* \"#utility.yul\":3750:3770   */\n      tag_70\n      jump\t// in\n    tag_119:\n        /* \"#utility.yul\":3745:3770   */\n      swap2\n      pop\n        /* \"#utility.yul\":3784:3804   */\n      tag_120\n        /* \"#utility.yul\":3802:3803   */\n      dup4\n        /* \"#utility.yul\":3784:3804   */\n      tag_70\n      jump\t// in\n    tag_120:\n        /* \"#utility.yul\":3779:3804   */\n      swap3\n      pop\n        /* \"#utility.yul\":3827:3828   */\n      dup3\n        /* \"#utility.yul\":3824:3825   */\n      dup3\n        /* \"#utility.yul\":3820:3829   */\n      add\n        /* \"#utility.yul\":3813:3829   */\n      swap1\n      pop\n        /* \"#utility.yul\":3848:3851   */\n      dup1\n        /* \"#utility.yul\":3845:3846   */\n      dup3\n        /* \"#utility.yul\":3842:3852   */\n      gt\n        /* \"#utility.yul\":3839:3875   */\n      iszero\n      tag_121\n      jumpi\n        /* \"#utility.yul\":3855:3873   */\n      tag_122\n      tag_72\n      jump\t// in\n    tag_122:\n        /* \"#utility.yul\":3839:3875   */\n    tag_121:\n        /* \"#utility.yul\":3691:3882   */\n      swap3\n      swap2\n      pop\n      pop\n      jump\t// out\n        /* \"#utility.yul\":3888:4068   */\n    tag_19:\n        /* \"#utility.yul\":3936:4013   */\n      0x4e487b7100000000000000000000000000000000000000000000000000000000\n        /* \"#utility.yul\":3933:3934   */\n      0x00\n        /* \"#utility.yul\":3926:4014   */\n      mstore\n        /* \"#utility.yul\":4033:4037   */\n      0x32\n        /* \"#utility.yul\":4030:4031   */\n      0x04\n        /* \"#utility.yul\":4023:4038   */\n      mstore\n        /* \"#utility.yul\":4057:4061   */\n      0x24\n        /* \"#utility.yul\":4054:4055   */\n      0x00\n        /* \"#utility.yul\":4047:4062   */\n      revert\n        /* \"#utility.yul\":4074:4307   */\n    tag_33:\n        /* \"#utility.yul\":4113:4116   */\n      0x00\n        /* \"#utility.yul\":4136:4160   */\n      tag_125\n        /* \"#utility.yul\":4154:4159   */\n      dup3\n        /* \"#utility.yul\":4136:4160   */\n      tag_70\n      jump\t// in\n    tag_125:\n        /* \"#utility.yul\":4127:4160   */\n      swap2\n      pop\n        /* \"#utility.yul\":4182:4248   */\n      0xffffffffffffffffffffffffffffffffffffffffffffffffffffffffffffffff\n        /* \"#utility.yul\":4175:4180   */\n      dup3\n        /* \"#utility.yul\":4172:4249   */\n      sub\n        /* \"#utility.yul\":4169:4272   */\n      tag_126\n      jumpi\n        /* \"#utility.yul\":4252:4270   */\n      tag_127\n      tag_72\n      jump\t// in\n    tag_127:\n        /* \"#utility.yul\":4169:4272   */\n    tag_126:\n        /* \"#utility.yul\":4299:4300   */\n      0x01\n        /* \"#utility.yul\":4292:4297   */\n      dup3\n        /* \"#utility.yul\":4288:4301   */\n      add\n        /* \"#utility.yul\":4281:4301   */\n      swap1\n      pop\n        /* \"#utility.yul\":4074:4307   */\n      swap2\n      swap1\n      pop\n      jump\t// out\n        /* \"#utility.yul\":4313:4482   */\n    tag_73:\n        /* \"#utility.yul\":4397:4408   */\n      0x00\n        /* \"#utility.yul\":4431:4437   */\n      dup3\n        /* \"#utility.yul\":4426:4429   */\n      dup3\n        /* \"#utility.yul\":4419:4438   */\n      mstore\n        /* \"#utility.yul\":4471:4475   */\n      0x20\n        /* \"#utility.yul\":4466:4469   */\n      dup3\n        /* \"#utility.yul\":4462:4476   */\n      add\n        /* \"#utility.yul\":4447:4476   */\n      swap1\n      pop\n        /* \"#utility.yul\":4313:4482   */\n      swap3\n      swap2\n      pop\n      pop\n      jump\t// out\n        /* \"#utility.yul\":4488:4659   */\n    tag_74:\n        /* \"#utility.yul\":4628:4651   */\n      0x496e76616c696420526f6d616e206e756d6572616c0000000000000000000000\n        /* \"#utility.yul\":4624:4625   */\n      0x00\n        /* \"#utility.yul\":4616:4622   */\n      dup3\n        /* \"#utility.yul\":4612:4626   */\n      add\n        /* \"#utility.yul\":4605:4652   */\n      mstore\n        /* \"#utility.yul\":4488:4659   */\n      pop\n      jump\t// out\n        /* \"#utility.yul\":4665:5031   */\n    tag_75:\n        /* \"#utility.yul\":4807:4810   */\n      0x00\n        /* \"#utility.yul\":4828:4895   */\n      tag_131\n        /* \"#utility.yul\":4892:4894   */\n      0x15\n        /* \"#utility.yul\":4887:4890   */\n      dup4\n        /* \"#utility.yul\":4828:4895   */\n      tag_73\n      jump\t// in\n    tag_131:\n        /* \"#utility.yul\":4821:4895   */\n      swap2\n      pop\n        /* \"#utility.yul\":4904:4997   */\n      tag_132\n        /* \"#utility.yul\":4993:4996   */\n      dup3\n        /* \"#utility.yul\":4904:4997   */\n      tag_74\n      jump\t// in\n    tag_132:\n        /* \"#utility.yul\":5022:5024   */\n      0x20\n        /* \"#utility.yul\":5017:5020   */\n      dup3\n        /* \"#utility.yul\":5013:5025   */\n      add\n        /* \"#utility.yul\":5006:5025   */\n      swap1\n      pop\n        /* \"#utility.yul\":4665:5031   */\n      swap2\n      swap1\n      pop\n      jump\t// out\n        /* \"#utility.yul\":5037:5456   */\n    tag_56:\n        /* \"#utility.yul\":5203:5207   */\n      0x00\n        /* \"#utility.yul\":5241:5243   */\n      0x20\n        /* \"#utility.yul\":5230:5239   */\n      dup3\n        /* \"#utility.yul\":5226:5244   */\n      add\n        /* \"#utility.yul\":5218:5244   */\n      swap1\n      pop\n        /* \"#utility.yul\":5290:5299   */\n      dup2\n        /* \"#utility.yul\":5284:5288   */\n      dup2\n        /* \"#utility.yul\":5280:5300   */\n      sub\n        /* \"#utility.yul\":5276:5277   */\n      0x00\n        /* \"#utility.yul\":5265:5274   */\n      dup4\n        /* \"#utility.yul\":5261:5278   */\n      add\n        /* \"#utility.yul\":5254:5301   */\n      mstore\n        /* \"#utility.yul\":5318:5449   */\n      tag_134\n        /* \"#utility.yul\":5444:5448   */\n      dup2\n        /* \"#utility.yul\":5318:5449   */\n      tag_75\n      jump\t// in\n    tag_134:\n        /* \"#utility.yul\":5310:5449   */\n      swap1\n      pop\n        /* \"#utility.yul\":5037:5456   */\n      swap2\n      swap1\n      pop\n      jump\t// out\n\n    auxdata: 0xa264697066735822122069bc787606fa994bba709d010bef4e4ec122c965ebd0907544ed1f74d9aec18064736f6c634300081e0033\n}\n",
				"bytecode": {
					"linkReferences": {},
					"object": "6080604052348015600e575f5ffd5b50610af28061001c5f395ff3fe608060405234801561000f575f5ffd5b5060043610610029575f3560e01c8063cb159dfe1461002d575b5f5ffd5b610047600480360381019061004291906108f8565b61005d565b6040516100549190610957565b60405180910390f35b5f5f8290505f815190505f5f90505f5f90505b828110156101515782600182610086919061099d565b101561010b575f6100dd8583815181106100a3576100a26109d0565b5b602001015160f81c60f81b866001856100bc919061099d565b815181106100cd576100cc6109d0565b5b602001015160f81c60f81b61015d565b90505f81146101095780836100f2919061099d565b9250600282610101919061099d565b915050610070565b505b610131848281518110610121576101206109d0565b5b602001015160f81c60f81b61052a565b8261013c919061099d565b91508080610149906109fd565b915050610070565b81945050505050919050565b5f7f4900000000000000000000000000000000000000000000000000000000000000837effffffffffffffffffffffffffffffffffffffffffffffffffffffffffffff19161480156101f057507f5600000000000000000000000000000000000000000000000000000000000000827effffffffffffffffffffffffffffffffffffffffffffffffffffffffffffff1916145b156101fe5760049050610524565b7f4900000000000000000000000000000000000000000000000000000000000000837effffffffffffffffffffffffffffffffffffffffffffffffffffffffffffff191614801561029057507f5800000000000000000000000000000000000000000000000000000000000000827effffffffffffffffffffffffffffffffffffffffffffffffffffffffffffff1916145b1561029e5760099050610524565b7f5800000000000000000000000000000000000000000000000000000000000000837effffffffffffffffffffffffffffffffffffffffffffffffffffffffffffff191614801561033057507f4c00000000000000000000000000000000000000000000000000000000000000827effffffffffffffffffffffffffffffffffffffffffffffffffffffffffffff1916145b1561033e5760289050610524565b7f5800000000000000000000000000000000000000000000000000000000000000837effffffffffffffffffffffffffffffffffffffffffffffffffffffffffffff19161480156103d057507f4300000000000000000000000000000000000000000000000000000000000000827effffffffffffffffffffffffffffffffffffffffffffffffffffffffffffff1916145b156103de57605a9050610524565b7f4300000000000000000000000000000000000000000000000000000000000000837effffffffffffffffffffffffffffffffffffffffffffffffffffffffffffff191614801561047057507f4400000000000000000000000000000000000000000000000000000000000000827effffffffffffffffffffffffffffffffffffffffffffffffffffffffffffff1916145b1561047f576101909050610524565b7f4300000000000000000000000000000000000000000000000000000000000000837effffffffffffffffffffffffffffffffffffffffffffffffffffffffffffff191614801561051157507f4d00000000000000000000000000000000000000000000000000000000000000827effffffffffffffffffffffffffffffffffffffffffffffffffffffffffffff1916145b15610520576103849050610524565b5f90505b92915050565b5f7f4900000000000000000000000000000000000000000000000000000000000000827effffffffffffffffffffffffffffffffffffffffffffffffffffffffffffff19160361057d57600190506107a6565b7f5600000000000000000000000000000000000000000000000000000000000000827effffffffffffffffffffffffffffffffffffffffffffffffffffffffffffff1916036105cf57600590506107a6565b7f5800000000000000000000000000000000000000000000000000000000000000827effffffffffffffffffffffffffffffffffffffffffffffffffffffffffffff19160361062157600a90506107a6565b7f4c00000000000000000000000000000000000000000000000000000000000000827effffffffffffffffffffffffffffffffffffffffffffffffffffffffffffff19160361067357603290506107a6565b7f4300000000000000000000000000000000000000000000000000000000000000827effffffffffffffffffffffffffffffffffffffffffffffffffffffffffffff1916036106c557606490506107a6565b7f4400000000000000000000000000000000000000000000000000000000000000827effffffffffffffffffffffffffffffffffffffffffffffffffffffffffffff191603610718576101f490506107a6565b7f4d00000000000000000000000000000000000000000000000000000000000000827effffffffffffffffffffffffffffffffffffffffffffffffffffffffffffff19160361076b576103e890506107a6565b6040517f08c379a000000000000000000000000000000000000000000000000000000000815260040161079d90610a9e565b60405180910390fd5b919050565b5f604051905090565b5f5ffd5b5f5ffd5b5f5ffd5b5f5ffd5b5f601f19601f8301169050919050565b7f4e487b71000000000000000000000000000000000000000000000000000000005f52604160045260245ffd5b61080a826107c4565b810181811067ffffffffffffffff82111715610829576108286107d4565b5b80604052505050565b5f61083b6107ab565b90506108478282610801565b919050565b5f67ffffffffffffffff821115610866576108656107d4565b5b61086f826107c4565b9050602081019050919050565b828183375f83830152505050565b5f61089c6108978461084c565b610832565b9050828152602081018484840111156108b8576108b76107c0565b5b6108c384828561087c565b509392505050565b5f82601f8301126108df576108de6107bc565b5b81356108ef84826020860161088a565b91505092915050565b5f6020828403121561090d5761090c6107b4565b5b5f82013567ffffffffffffffff81111561092a576109296107b8565b5b610936848285016108cb565b91505092915050565b5f819050919050565b6109518161093f565b82525050565b5f60208201905061096a5f830184610948565b92915050565b7f4e487b71000000000000000000000000000000000000000000000000000000005f52601160045260245ffd5b5f6109a78261093f565b91506109b28361093f565b92508282019050808211156109ca576109c9610970565b5b92915050565b7f4e487b71000000000000000000000000000000000000000000000000000000005f52603260045260245ffd5b5f610a078261093f565b91507fffffffffffffffffffffffffffffffffffffffffffffffffffffffffffffffff8203610a3957610a38610970565b5b600182019050919050565b5f82825260208201905092915050565b7f496e76616c696420526f6d616e206e756d6572616c00000000000000000000005f82015250565b5f610a88601583610a44565b9150610a9382610a54565b602082019050919050565b5f6020820190508181035f830152610ab581610a7c565b905091905056fea264697066735822122069bc787606fa994bba709d010bef4e4ec122c965ebd0907544ed1f74d9aec18064736f6c634300081e0033",
					"opcodes": "PUSH1 0x80 PUSH1 0x40 MSTORE CALLVALUE DUP1 ISZERO PUSH1 0xE JUMPI PUSH0 PUSH0 REVERT JUMPDEST POP PUSH2 0xAF2 DUP1 PUSH2 0x1C PUSH0 CODECOPY PUSH0 RETURN INVALID PUSH1 0x80 PUSH1 0x40 MSTORE CALLVALUE DUP1 ISZERO PUSH2 0xF JUMPI PUSH0 PUSH0 REVERT JUMPDEST POP PUSH1 0x4 CALLDATASIZE LT PUSH2 0x29 JUMPI PUSH0 CALLDATALOAD PUSH1 0xE0 SHR DUP1 PUSH4 0xCB159DFE EQ PUSH2 0x2D JUMPI JUMPDEST PUSH0 PUSH0 REVERT JUMPDEST PUSH2 0x47 PUSH1 0x4 DUP1 CALLDATASIZE SUB DUP2 ADD SWAP1 PUSH2 0x42 SWAP2 SWAP1 PUSH2 0x8F8 JUMP JUMPDEST PUSH2 0x5D JUMP JUMPDEST PUSH1 0x40 MLOAD PUSH2 0x54 SWAP2 SWAP1 PUSH2 0x957 JUMP JUMPDEST PUSH1 0x40 MLOAD DUP1 SWAP2 SUB SWAP1 RETURN JUMPDEST PUSH0 PUSH0 DUP3 SWAP1 POP PUSH0 DUP2 MLOAD SWAP1 POP PUSH0 PUSH0 SWAP1 POP PUSH0 PUSH0 SWAP1 POP JUMPDEST DUP3 DUP2 LT ISZERO PUSH2 0x151 JUMPI DUP3 PUSH1 0x1 DUP3 PUSH2 0x86 SWAP2 SWAP1 PUSH2 0x99D JUMP JUMPDEST LT ISZERO PUSH2 0x10B JUMPI PUSH0 PUSH2 0xDD DUP6 DUP4 DUP2 MLOAD DUP2 LT PUSH2 0xA3 JUMPI PUSH2 0xA2 PUSH2 0x9D0 JUMP JUMPDEST JUMPDEST PUSH1 0x20 ADD ADD MLOAD PUSH1 0xF8 SHR PUSH1 0xF8 SHL DUP7 PUSH1 0x1 DUP6 PUSH2 0xBC SWAP2 SWAP1 PUSH2 0x99D JUMP JUMPDEST DUP2 MLOAD DUP2 LT PUSH2 0xCD JUMPI PUSH2 0xCC PUSH2 0x9D0 JUMP JUMPDEST JUMPDEST PUSH1 0x20 ADD ADD MLOAD PUSH1 0xF8 SHR PUSH1 0xF8 SHL PUSH2 0x15D JUMP JUMPDEST SWAP1 POP PUSH0 DUP2 EQ PUSH2 0x109 JUMPI DUP1 DUP4 PUSH2 0xF2 SWAP2 SWAP1 PUSH2 0x99D JUMP JUMPDEST SWAP3 POP PUSH1 0x2 DUP3 PUSH2 0x101 SWAP2 SWAP1 PUSH2 0x99D JUMP JUMPDEST SWAP2 POP POP PUSH2 0x70 JUMP JUMPDEST POP JUMPDEST PUSH2 0x131 DUP5 DUP3 DUP2 MLOAD DUP2 LT PUSH2 0x121 JUMPI PUSH2 0x120 PUSH2 0x9D0 JUMP JUMPDEST JUMPDEST PUSH1 0x20 ADD ADD MLOAD PUSH1 0xF8 SHR PUSH1 0xF8 SHL PUSH2 0x52A JUMP JUMPDEST DUP3 PUSH2 0x13C SWAP2 SWAP1 PUSH2 0x99D JUMP JUMPDEST SWAP2 POP DUP1 DUP1 PUSH2 0x149 SWAP1 PUSH2 0x9FD JUMP JUMPDEST SWAP2 POP POP PUSH2 0x70 JUMP JUMPDEST DUP2 SWAP5 POP POP POP POP POP SWAP2 SWAP1 POP JUMP JUMPDEST PUSH0 PUSH32 0x4900000000000000000000000000000000000000000000000000000000000000 DUP4 PUSH31 0xFFFFFFFFFFFFFFFFFFFFFFFFFFFFFFFFFFFFFFFFFFFFFFFFFFFFFFFFFFFFFF NOT AND EQ DUP1 ISZERO PUSH2 0x1F0 JUMPI POP PUSH32 0x5600000000000000000000000000000000000000000000000000000000000000 DUP3 PUSH31 0xFFFFFFFFFFFFFFFFFFFFFFFFFFFFFFFFFFFFFFFFFFFFFFFFFFFFFFFFFFFFFF NOT AND EQ JUMPDEST ISZERO PUSH2 0x1FE JUMPI PUSH1 0x4 SWAP1 POP PUSH2 0x524 JUMP JUMPDEST PUSH32 0x4900000000000000000000000000000000000000000000000000000000000000 DUP4 PUSH31 0xFFFFFFFFFFFFFFFFFFFFFFFFFFFFFFFFFFFFFFFFFFFFFFFFFFFFFFFFFFFFFF NOT AND EQ DUP1 ISZERO PUSH2 0x290 JUMPI POP PUSH32 0x5800000000000000000000000000000000000000000000000000000000000000 DUP3 PUSH31 0xFFFFFFFFFFFFFFFFFFFFFFFFFFFFFFFFFFFFFFFFFFFFFFFFFFFFFFFFFFFFFF NOT AND EQ JUMPDEST ISZERO PUSH2 0x29E JUMPI PUSH1 0x9 SWAP1 POP PUSH2 0x524 JUMP JUMPDEST PUSH32 0x5800000000000000000000000000000000000000000000000000000000000000 DUP4 PUSH31 0xFFFFFFFFFFFFFFFFFFFFFFFFFFFFFFFFFFFFFFFFFFFFFFFFFFFFFFFFFFFFFF NOT AND EQ DUP1 ISZERO PUSH2 0x330 JUMPI POP PUSH32 0x4C00000000000000000000000000000000000000000000000000000000000000 DUP3 PUSH31 0xFFFFFFFFFFFFFFFFFFFFFFFFFFFFFFFFFFFFFFFFFFFFFFFFFFFFFFFFFFFFFF NOT AND EQ JUMPDEST ISZERO PUSH2 0x33E JUMPI PUSH1 0x28 SWAP1 POP PUSH2 0x524 JUMP JUMPDEST PUSH32 0x5800000000000000000000000000000000000000000000000000000000000000 DUP4 PUSH31 0xFFFFFFFFFFFFFFFFFFFFFFFFFFFFFFFFFFFFFFFFFFFFFFFFFFFFFFFFFFFFFF NOT AND EQ DUP1 ISZERO PUSH2 0x3D0 JUMPI POP PUSH32 0x4300000000000000000000000000000000000000000000000000000000000000 DUP3 PUSH31 0xFFFFFFFFFFFFFFFFFFFFFFFFFFFFFFFFFFFFFFFFFFFFFFFFFFFFFFFFFFFFFF NOT AND EQ JUMPDEST ISZERO PUSH2 0x3DE JUMPI PUSH1 0x5A SWAP1 POP PUSH2 0x524 JUMP JUMPDEST PUSH32 0x4300000000000000000000000000000000000000000000000000000000000000 DUP4 PUSH31 0xFFFFFFFFFFFFFFFFFFFFFFFFFFFFFFFFFFFFFFFFFFFFFFFFFFFFFFFFFFFFFF NOT AND EQ DUP1 ISZERO PUSH2 0x470 JUMPI POP PUSH32 0x4400000000000000000000000000000000000000000000000000000000000000 DUP3 PUSH31 0xFFFFFFFFFFFFFFFFFFFFFFFFFFFFFFFFFFFFFFFFFFFFFFFFFFFFFFFFFFFFFF NOT AND EQ JUMPDEST ISZERO PUSH2 0x47F JUMPI PUSH2 0x190 SWAP1 POP PUSH2 0x524 JUMP JUMPDEST PUSH32 0x4300000000000000000000000000000000000000000000000000000000000000 DUP4 PUSH31 0xFFFFFFFFFFFFFFFFFFFFFFFFFFFFFFFFFFFFFFFFFFFFFFFFFFFFFFFFFFFFFF NOT AND EQ DUP1 ISZERO PUSH2 0x511 JUMPI POP PUSH32 0x4D00000000000000000000000000000000000000000000000000000000000000 DUP3 PUSH31 0xFFFFFFFFFFFFFFFFFFFFFFFFFFFFFFFFFFFFFFFFFFFFFFFFFFFFFFFFFFFFFF NOT AND EQ JUMPDEST ISZERO PUSH2 0x520 JUMPI PUSH2 0x384 SWAP1 POP PUSH2 0x524 JUMP JUMPDEST PUSH0 SWAP1 POP JUMPDEST SWAP3 SWAP2 POP POP JUMP JUMPDEST PUSH0 PUSH32 0x4900000000000000000000000000000000000000000000000000000000000000 DUP3 PUSH31 0xFFFFFFFFFFFFFFFFFFFFFFFFFFFFFFFFFFFFFFFFFFFFFFFFFFFFFFFFFFFFFF NOT AND SUB PUSH2 0x57D JUMPI PUSH1 0x1 SWAP1 POP PUSH2 0x7A6 JUMP JUMPDEST PUSH32 0x5600000000000000000000000000000000000000000000000000000000000000 DUP3 PUSH31 0xFFFFFFFFFFFFFFFFFFFFFFFFFFFFFFFFFFFFFFFFFFFFFFFFFFFFFFFFFFFFFF NOT AND SUB PUSH2 0x5CF JUMPI PUSH1 0x5 SWAP1 POP PUSH2 0x7A6 JUMP JUMPDEST PUSH32 0x5800000000000000000000000000000000000000000000000000000000000000 DUP3 PUSH31 0xFFFFFFFFFFFFFFFFFFFFFFFFFFFFFFFFFFFFFFFFFFFFFFFFFFFFFFFFFFFFFF NOT AND SUB PUSH2 0x621 JUMPI PUSH1 0xA SWAP1 POP PUSH2 0x7A6 JUMP JUMPDEST PUSH32 0x4C00000000000000000000000000000000000000000000000000000000000000 DUP3 PUSH31 0xFFFFFFFFFFFFFFFFFFFFFFFFFFFFFFFFFFFFFFFFFFFFFFFFFFFFFFFFFFFFFF NOT AND SUB PUSH2 0x673 JUMPI PUSH1 0x32 SWAP1 POP PUSH2 0x7A6 JUMP JUMPDEST PUSH32 0x4300000000000000000000000000000000000000000000000000000000000000 DUP3 PUSH31 0xFFFFFFFFFFFFFFFFFFFFFFFFFFFFFFFFFFFFFFFFFFFFFFFFFFFFFFFFFFFFFF NOT AND SUB PUSH2 0x6C5 JUMPI PUSH1 0x64 SWAP1 POP PUSH2 0x7A6 JUMP JUMPDEST PUSH32 0x4400000000000000000000000000000000000000000000000000000000000000 DUP3 PUSH31 0xFFFFFFFFFFFFFFFFFFFFFFFFFFFFFFFFFFFFFFFFFFFFFFFFFFFFFFFFFFFFFF NOT AND SUB PUSH2 0x718 JUMPI PUSH2 0x1F4 SWAP1 POP PUSH2 0x7A6 JUMP JUMPDEST PUSH32 0x4D00000000000000000000000000000000000000000000000000000000000000 DUP3 PUSH31 0xFFFFFFFFFFFFFFFFFFFFFFFFFFFFFFFFFFFFFFFFFFFFFFFFFFFFFFFFFFFFFF NOT AND SUB PUSH2 0x76B JUMPI PUSH2 0x3E8 SWAP1 POP PUSH2 0x7A6 JUMP JUMPDEST PUSH1 0x40 MLOAD PUSH32 0x8C379A000000000000000000000000000000000000000000000000000000000 DUP2 MSTORE PUSH1 0x4 ADD PUSH2 0x79D SWAP1 PUSH2 0xA9E JUMP JUMPDEST PUSH1 0x40 MLOAD DUP1 SWAP2 SUB SWAP1 REVERT JUMPDEST SWAP2 SWAP1 POP JUMP JUMPDEST PUSH0 PUSH1 0x40 MLOAD SWAP1 POP SWAP1 JUMP JUMPDEST PUSH0 PUSH0 REVERT JUMPDEST PUSH0 PUSH0 REVERT JUMPDEST PUSH0 PUSH0 REVERT JUMPDEST PUSH0 PUSH0 REVERT JUMPDEST PUSH0 PUSH1 0x1F NOT PUSH1 0x1F DUP4 ADD AND SWAP1 POP SWAP2 SWAP1 POP JUMP JUMPDEST PUSH32 0x4E487B7100000000000000000000000000000000000000000000000000000000 PUSH0 MSTORE PUSH1 0x41 PUSH1 0x4 MSTORE PUSH1 0x24 PUSH0 REVERT JUMPDEST PUSH2 0x80A DUP3 PUSH2 0x7C4 JUMP JUMPDEST DUP2 ADD DUP2 DUP2 LT PUSH8 0xFFFFFFFFFFFFFFFF DUP3 GT OR ISZERO PUSH2 0x829 JUMPI PUSH2 0x828 PUSH2 0x7D4 JUMP JUMPDEST JUMPDEST DUP1 PUSH1 0x40 MSTORE POP POP POP JUMP JUMPDEST PUSH0 PUSH2 0x83B PUSH2 0x7AB JUMP JUMPDEST SWAP1 POP PUSH2 0x847 DUP3 DUP3 PUSH2 0x801 JUMP JUMPDEST SWAP2 SWAP1 POP JUMP JUMPDEST PUSH0 PUSH8 0xFFFFFFFFFFFFFFFF DUP3 GT ISZERO PUSH2 0x866 JUMPI PUSH2 0x865 PUSH2 0x7D4 JUMP JUMPDEST JUMPDEST PUSH2 0x86F DUP3 PUSH2 0x7C4 JUMP JUMPDEST SWAP1 POP PUSH1 0x20 DUP2 ADD SWAP1 POP SWAP2 SWAP1 POP JUMP JUMPDEST DUP3 DUP2 DUP4 CALLDATACOPY PUSH0 DUP4 DUP4 ADD MSTORE POP POP POP JUMP JUMPDEST PUSH0 PUSH2 0x89C PUSH2 0x897 DUP5 PUSH2 0x84C JUMP JUMPDEST PUSH2 0x832 JUMP JUMPDEST SWAP1 POP DUP3 DUP2 MSTORE PUSH1 0x20 DUP2 ADD DUP5 DUP5 DUP5 ADD GT ISZERO PUSH2 0x8B8 JUMPI PUSH2 0x8B7 PUSH2 0x7C0 JUMP JUMPDEST JUMPDEST PUSH2 0x8C3 DUP5 DUP3 DUP6 PUSH2 0x87C JUMP JUMPDEST POP SWAP4 SWAP3 POP POP POP JUMP JUMPDEST PUSH0 DUP3 PUSH1 0x1F DUP4 ADD SLT PUSH2 0x8DF JUMPI PUSH2 0x8DE PUSH2 0x7BC JUMP JUMPDEST JUMPDEST DUP2 CALLDATALOAD PUSH2 0x8EF DUP5 DUP3 PUSH1 0x20 DUP7 ADD PUSH2 0x88A JUMP JUMPDEST SWAP2 POP POP SWAP3 SWAP2 POP POP JUMP JUMPDEST PUSH0 PUSH1 0x20 DUP3 DUP5 SUB SLT ISZERO PUSH2 0x90D JUMPI PUSH2 0x90C PUSH2 0x7B4 JUMP JUMPDEST JUMPDEST PUSH0 DUP3 ADD CALLDATALOAD PUSH8 0xFFFFFFFFFFFFFFFF DUP2 GT ISZERO PUSH2 0x92A JUMPI PUSH2 0x929 PUSH2 0x7B8 JUMP JUMPDEST JUMPDEST PUSH2 0x936 DUP5 DUP3 DUP6 ADD PUSH2 0x8CB JUMP JUMPDEST SWAP2 POP POP SWAP3 SWAP2 POP POP JUMP JUMPDEST PUSH0 DUP2 SWAP1 POP SWAP2 SWAP1 POP JUMP JUMPDEST PUSH2 0x951 DUP2 PUSH2 0x93F JUMP JUMPDEST DUP3 MSTORE POP POP JUMP JUMPDEST PUSH0 PUSH1 0x20 DUP3 ADD SWAP1 POP PUSH2 0x96A PUSH0 DUP4 ADD DUP5 PUSH2 0x948 JUMP JUMPDEST SWAP3 SWAP2 POP POP JUMP JUMPDEST PUSH32 0x4E487B7100000000000000000000000000000000000000000000000000000000 PUSH0 MSTORE PUSH1 0x11 PUSH1 0x4 MSTORE PUSH1 0x24 PUSH0 REVERT JUMPDEST PUSH0 PUSH2 0x9A7 DUP3 PUSH2 0x93F JUMP JUMPDEST SWAP2 POP PUSH2 0x9B2 DUP4 PUSH2 0x93F JUMP JUMPDEST SWAP3 POP DUP3 DUP3 ADD SWAP1 POP DUP1 DUP3 GT ISZERO PUSH2 0x9CA JUMPI PUSH2 0x9C9 PUSH2 0x970 JUMP JUMPDEST JUMPDEST SWAP3 SWAP2 POP POP JUMP JUMPDEST PUSH32 0x4E487B7100000000000000000000000000000000000000000000000000000000 PUSH0 MSTORE PUSH1 0x32 PUSH1 0x4 MSTORE PUSH1 0x24 PUSH0 REVERT JUMPDEST PUSH0 PUSH2 0xA07 DUP3 PUSH2 0x93F JUMP JUMPDEST SWAP2 POP PUSH32 0xFFFFFFFFFFFFFFFFFFFFFFFFFFFFFFFFFFFFFFFFFFFFFFFFFFFFFFFFFFFFFFFF DUP3 SUB PUSH2 0xA39 JUMPI PUSH2 0xA38 PUSH2 0x970 JUMP JUMPDEST JUMPDEST PUSH1 0x1 DUP3 ADD SWAP1 POP SWAP2 SWAP1 POP JUMP JUMPDEST PUSH0 DUP3 DUP3 MSTORE PUSH1 0x20 DUP3 ADD SWAP1 POP SWAP3 SWAP2 POP POP JUMP JUMPDEST PUSH32 0x496E76616C696420526F6D616E206E756D6572616C0000000000000000000000 PUSH0 DUP3 ADD MSTORE POP JUMP JUMPDEST PUSH0 PUSH2 0xA88 PUSH1 0x15 DUP4 PUSH2 0xA44 JUMP JUMPDEST SWAP2 POP PUSH2 0xA93 DUP3 PUSH2 0xA54 JUMP JUMPDEST PUSH1 0x20 DUP3 ADD SWAP1 POP SWAP2 SWAP1 POP JUMP JUMPDEST PUSH0 PUSH1 0x20 DUP3 ADD SWAP1 POP DUP2 DUP2 SUB PUSH0 DUP4 ADD MSTORE PUSH2 0xAB5 DUP2 PUSH2 0xA7C JUMP JUMPDEST SWAP1 POP SWAP2 SWAP1 POP JUMP INVALID LOG2 PUSH5 0x6970667358 0x22 SLT KECCAK256 PUSH10 0xBC787606FA994BBA709D ADD SIGNEXTEND 0xEF 0x4E 0x4E 0xC1 0x22 0xC9 PUSH6 0xEBD0907544ED 0x1F PUSH21 0xD9AEC18064736F6C634300081E0033000000000000 "
				},
				"gasEstimates": {
					"creation": {
						"codeDepositCost": "560400",
						"executionCost": "592",
						"totalCost": "560992"
					},
					"external": {
						"romanToInt(string)": "infinite"
					},
					"internal": {
						"getPairValue(bytes1,bytes1)": "490",
						"getSingleValue(bytes1)": "infinite"
					}
				},
				"methodIdentifiers": {
					"romanToInt(string)": "cb159dfe"
				}
			},
			"storageLayout": {
				"storage": [],
				"types": null
			},
			"userdoc": {
				"kind": "user",
				"methods": {},
				"version": 1
			}
		}
	}
}