{
	"contracts/BeggingContract.sol": {
		"BeggingContract": {
			"abi": [
				{
					"inputs": [
						{
							"internalType": "uint256",
							"name": "_startTime",
							"type": "uint256"
						},
						{
							"internalType": "uint256",
							"name": "_endTime",
							"type": "uint256"
						}
					],
					"stateMutability": "nonpayable",
					"type": "constructor"
				},
				{
					"inputs": [
						{
							"internalType": "address",
							"name": "owner",
							"type": "address"
						}
					],
					"name": "OwnableInvalidOwner",
					"type": "error"
				},
				{
					"inputs": [
						{
							"internalType": "address",
							"name": "account",
							"type": "address"
						}
					],
					"name": "OwnableUnauthorizedAccount",
					"type": "error"
				},
				{
					"anonymous": false,
					"inputs": [
						{
							"indexed": true,
							"internalType": "address",
							"name": "donor",
							"type": "address"
						},
						{
							"indexed": false,
							"internalType": "uint256",
							"name": "amount",
							"type": "uint256"
						}
					],
					"name": "Donation",
					"type": "event"
				},
				{
					"anonymous": false,
					"inputs": [
						{
							"indexed": true,
							"internalType": "address",
							"name": "previousOwner",
							"type": "address"
						},
						{
							"indexed": true,
							"internalType": "address",
							"name": "newOwner",
							"type": "address"
						}
					],
					"name": "OwnershipTransferred",
					"type": "event"
				},
				{
					"inputs": [],
					"name": "donate",
					"outputs": [],
					"stateMutability": "payable",
					"type": "function"
				},
				{
					"inputs": [
						{
							"internalType": "address",
							"name": "",
							"type": "address"
						}
					],
					"name": "donations",
					"outputs": [
						{
							"internalType": "uint256",
							"name": "",
							"type": "uint256"
						}
					],
					"stateMutability": "view",
					"type": "function"
				},
				{
					"inputs": [
						{
							"internalType": "address",
							"name": "donor",
							"type": "address"
						}
					],
					"name": "getDonation",
					"outputs": [
						{
							"internalType": "uint256",
							"name": "",
							"type": "uint256"
						}
					],
					"stateMutability": "view",
					"type": "function"
				},
				{
					"inputs": [],
					"name": "getTopDonors",
					"outputs": [
						{
							"internalType": "address[3]",
							"name": "",
							"type": "address[3]"
						}
					],
					"stateMutability": "view",
					"type": "function"
				},
				{
					"inputs": [],
					"name": "owner",
					"outputs": [
						{
							"internalType": "address",
							"name": "",
							"type": "address"
						}
					],
					"stateMutability": "view",
					"type": "function"
				},
				{
					"inputs": [],
					"name": "renounceOwnership",
					"outputs": [],
					"stateMutability": "nonpayable",
					"type": "function"
				},
				{
					"inputs": [
						{
							"internalType": "uint256",
							"name": "",
							"type": "uint256"
						}
					],
					"name": "topDonors",
					"outputs": [
						{
							"internalType": "address",
							"name": "",
							"type": "address"
						}
					],
					"stateMutability": "view",
					"type": "function"
				},
				{
					"inputs": [
						{
							"internalType": "address",
							"name": "newOwner",
							"type": "address"
						}
					],
					"name": "transferOwnership",
					"outputs": [],
					"stateMutability": "nonpayable",
					"type": "function"
				},
				{
					"inputs": [],
					"name": "withdraw",
					"outputs": [],
					"stateMutability": "nonpayable",
					"type": "function"
				}
			],
			"devdoc": {
				"errors": {
					"OwnableInvalidOwner(address)": [
						{
							"details": "The owner is not a valid owner account. (eg. `address(0)`)"
						}
					],
					"OwnableUnauthorizedAccount(address)": [
						{
							"details": "The caller account is not authorized to perform an operation."
						}
					]
				},
				"kind": "dev",
				"methods": {
					"owner()": {
						"details": "Returns the address of the current owner."
					},
					"renounceOwnership()": {
						"details": "Leaves the contract without owner. It will not be possible to call `onlyOwner` functions. Can only be called by the current owner. NOTE: Renouncing ownership will leave the contract without an owner, thereby disabling any functionality that is only available to the owner."
					},
					"transferOwnership(address)": {
						"details": "Transfers ownership of the contract to a new account (`newOwner`). Can only be called by the current owner."
					}
				},
				"version": 1
			},
			"evm": {
				"assembly": "    /* \"contracts/BeggingContract.sol\":114:3004  contract BeggingContract is Ownable{... */\n  mstore(0x40, 0x80)\n    /* \"contracts/BeggingContract.sol\":551:686  constructor(uint256 _startTime, uint256 _endTime) Ownable(msg.sender) {... */\n  callvalue\n  dup1\n  iszero\n  tag_1\n  jumpi\n  revert(0x00, 0x00)\ntag_1:\n  pop\n  mload(0x40)\n  sub(codesize, bytecodeSize)\n  dup1\n  bytecodeSize\n  dup4\n  codecopy\n  dup2\n  dup2\n  add\n  0x40\n  mstore\n  dup2\n  add\n  swap1\n  tag_2\n  swap2\n  swap1\n  tag_3\n  jump\t// in\ntag_2:\n    /* \"contracts/BeggingContract.sol\":609:619  msg.sender */\n  caller\n    /* \"@openzeppelin/contracts/access/Ownable.sol\":1297:1298  0 */\n  0x00\n    /* \"@openzeppelin/contracts/access/Ownable.sol\":1273:1299  initialOwner == address(0) */\n  0xffffffffffffffffffffffffffffffffffffffff\n  and\n    /* \"@openzeppelin/contracts/access/Ownable.sol\":1273:1285  initialOwner */\n  dup2\n    /* \"@openzeppelin/contracts/access/Ownable.sol\":1273:1299  initialOwner == address(0) */\n  0xffffffffffffffffffffffffffffffffffffffff\n  and\n  sub\n    /* \"@openzeppelin/contracts/access/Ownable.sol\":1269:1364  if (initialOwner == address(0)) {... */\n  tag_7\n  jumpi\n    /* \"@openzeppelin/contracts/access/Ownable.sol\":1350:1351  0 */\n  0x00\n    /* \"@openzeppelin/contracts/access/Ownable.sol\":1322:1353  OwnableInvalidOwner(address(0)) */\n  mload(0x40)\n  0x1e4fbdf700000000000000000000000000000000000000000000000000000000\n  dup2\n  mstore\n  0x04\n  add\n  tag_8\n  swap2\n  swap1\n  tag_9\n  jump\t// in\ntag_8:\n  mload(0x40)\n  dup1\n  swap2\n  sub\n  swap1\n  revert\n    /* \"@openzeppelin/contracts/access/Ownable.sol\":1269:1364  if (initialOwner == address(0)) {... */\ntag_7:\n    /* \"@openzeppelin/contracts/access/Ownable.sol\":1373:1405  _transferOwnership(initialOwner) */\n  tag_10\n    /* \"@openzeppelin/contracts/access/Ownable.sol\":1392:1404  initialOwner */\n  dup2\n    /* \"@openzeppelin/contracts/access/Ownable.sol\":1373:1391  _transferOwnership */\n  shl(0x20, tag_11)\n    /* \"@openzeppelin/contracts/access/Ownable.sol\":1373:1405  _transferOwnership(initialOwner) */\n  0x20\n  shr\n  jump\t// in\ntag_10:\n    /* \"@openzeppelin/contracts/access/Ownable.sol\":1225:1412  constructor(address initialOwner) {... */\n  pop\n    /* \"contracts/BeggingContract.sol\":642:652  _startTime */\n  dup2\n    /* \"contracts/BeggingContract.sol\":630:639  startTime */\n  0x06\n    /* \"contracts/BeggingContract.sol\":630:652  startTime = _startTime */\n  dup2\n  swap1\n  sstore\n  pop\n    /* \"contracts/BeggingContract.sol\":671:679  _endTime */\n  dup1\n    /* \"contracts/BeggingContract.sol\":661:668  endTime */\n  0x07\n    /* \"contracts/BeggingContract.sol\":661:679  endTime = _endTime */\n  dup2\n  swap1\n  sstore\n  pop\n    /* \"contracts/BeggingContract.sol\":551:686  constructor(uint256 _startTime, uint256 _endTime) Ownable(msg.sender) {... */\n  pop\n  pop\n    /* \"contracts/BeggingContract.sol\":114:3004  contract BeggingContract is Ownable{... */\n  jump(tag_13)\n    /* \"@openzeppelin/contracts/access/Ownable.sol\":2912:3099  function _transferOwnership(address newOwner) internal virtual {... */\ntag_11:\n    /* \"@openzeppelin/contracts/access/Ownable.sol\":2985:3001  address oldOwner */\n  0x00\n    /* \"@openzeppelin/contracts/access/Ownable.sol\":3004:3010  _owner */\n  0x00\n  0x00\n  swap1\n  sload\n  swap1\n  0x0100\n  exp\n  swap1\n  div\n  0xffffffffffffffffffffffffffffffffffffffff\n  and\n    /* \"@openzeppelin/contracts/access/Ownable.sol\":2985:3010  address oldOwner = _owner */\n  swap1\n  pop\n    /* \"@openzeppelin/contracts/access/Ownable.sol\":3029:3037  newOwner */\n  dup2\n    /* \"@openzeppelin/contracts/access/Ownable.sol\":3020:3026  _owner */\n  0x00\n  0x00\n    /* \"@openzeppelin/contracts/access/Ownable.sol\":3020:3037  _owner = newOwner */\n  0x0100\n  exp\n  dup2\n  sload\n  dup2\n  0xffffffffffffffffffffffffffffffffffffffff\n  mul\n  not\n  and\n  swap1\n  dup4\n  0xffffffffffffffffffffffffffffffffffffffff\n  and\n  mul\n  or\n  swap1\n  sstore\n  pop\n    /* \"@openzeppelin/contracts/access/Ownable.sol\":3083:3091  newOwner */\n  dup2\n    /* \"@openzeppelin/contracts/access/Ownable.sol\":3052:3092  OwnershipTransferred(oldOwner, newOwner) */\n  0xffffffffffffffffffffffffffffffffffffffff\n  and\n    /* \"@openzeppelin/contracts/access/Ownable.sol\":3073:3081  oldOwner */\n  dup2\n    /* \"@openzeppelin/contracts/access/Ownable.sol\":3052:3092  OwnershipTransferred(oldOwner, newOwner) */\n  0xffffffffffffffffffffffffffffffffffffffff\n  and\n  0x8be0079c531659141344cd1fd0a4f28419497f9722a3daafe3b4186f6b6457e0\n  mload(0x40)\n  mload(0x40)\n  dup1\n  swap2\n  sub\n  swap1\n  log3\n    /* \"@openzeppelin/contracts/access/Ownable.sol\":2975:3099  {... */\n  pop\n    /* \"@openzeppelin/contracts/access/Ownable.sol\":2912:3099  function _transferOwnership(address newOwner) internal virtual {... */\n  pop\n  jump\t// out\n    /* \"#utility.yul\":88:205   */\ntag_16:\n    /* \"#utility.yul\":197:198   */\n  0x00\n    /* \"#utility.yul\":194:195   */\n  0x00\n    /* \"#utility.yul\":187:199   */\n  revert\n    /* \"#utility.yul\":334:411   */\ntag_18:\n    /* \"#utility.yul\":371:378   */\n  0x00\n    /* \"#utility.yul\":400:405   */\n  dup2\n    /* \"#utility.yul\":389:405   */\n  swap1\n  pop\n    /* \"#utility.yul\":334:411   */\n  swap2\n  swap1\n  pop\n  jump\t// out\n    /* \"#utility.yul\":417:539   */\ntag_19:\n    /* \"#utility.yul\":490:514   */\n  tag_30\n    /* \"#utility.yul\":508:513   */\n  dup2\n    /* \"#utility.yul\":490:514   */\n  tag_18\n  jump\t// in\ntag_30:\n    /* \"#utility.yul\":483:488   */\n  dup2\n    /* \"#utility.yul\":480:515   */\n  eq\n    /* \"#utility.yul\":470:533   */\n  tag_31\n  jumpi\n    /* \"#utility.yul\":529:530   */\n  0x00\n    /* \"#utility.yul\":526:527   */\n  0x00\n    /* \"#utility.yul\":519:531   */\n  revert\n    /* \"#utility.yul\":470:533   */\ntag_31:\n    /* \"#utility.yul\":417:539   */\n  pop\n  jump\t// out\n    /* \"#utility.yul\":545:688   */\ntag_20:\n    /* \"#utility.yul\":602:607   */\n  0x00\n    /* \"#utility.yul\":633:639   */\n  dup2\n    /* \"#utility.yul\":627:640   */\n  mload\n    /* \"#utility.yul\":618:640   */\n  swap1\n  pop\n    /* \"#utility.yul\":649:682   */\n  tag_33\n    /* \"#utility.yul\":676:681   */\n  dup2\n    /* \"#utility.yul\":649:682   */\n  tag_19\n  jump\t// in\ntag_33:\n    /* \"#utility.yul\":545:688   */\n  swap3\n  swap2\n  pop\n  pop\n  jump\t// out\n    /* \"#utility.yul\":694:1201   */\ntag_3:\n    /* \"#utility.yul\":773:779   */\n  0x00\n    /* \"#utility.yul\":781:787   */\n  0x00\n    /* \"#utility.yul\":830:832   */\n  0x40\n    /* \"#utility.yul\":818:827   */\n  dup4\n    /* \"#utility.yul\":809:816   */\n  dup6\n    /* \"#utility.yul\":805:828   */\n  sub\n    /* \"#utility.yul\":801:833   */\n  slt\n    /* \"#utility.yul\":798:917   */\n  iszero\n  tag_35\n  jumpi\n    /* \"#utility.yul\":836:915   */\n  tag_36\n  tag_16\n  jump\t// in\ntag_36:\n    /* \"#utility.yul\":798:917   */\ntag_35:\n    /* \"#utility.yul\":956:957   */\n  0x00\n    /* \"#utility.yul\":981:1045   */\n  tag_37\n    /* \"#utility.yul\":1037:1044   */\n  dup6\n    /* \"#utility.yul\":1028:1034   */\n  dup3\n    /* \"#utility.yul\":1017:1026   */\n  dup7\n    /* \"#utility.yul\":1013:1035   */\n  add\n    /* \"#utility.yul\":981:1045   */\n  tag_20\n  jump\t// in\ntag_37:\n    /* \"#utility.yul\":971:1045   */\n  swap3\n  pop\n    /* \"#utility.yul\":927:1055   */\n  pop\n    /* \"#utility.yul\":1094:1096   */\n  0x20\n    /* \"#utility.yul\":1120:1184   */\n  tag_38\n    /* \"#utility.yul\":1176:1183   */\n  dup6\n    /* \"#utility.yul\":1167:1173   */\n  dup3\n    /* \"#utility.yul\":1156:1165   */\n  dup7\n    /* \"#utility.yul\":1152:1174   */\n  add\n    /* \"#utility.yul\":1120:1184   */\n  tag_20\n  jump\t// in\ntag_38:\n    /* \"#utility.yul\":1110:1184   */\n  swap2\n  pop\n    /* \"#utility.yul\":1065:1194   */\n  pop\n    /* \"#utility.yul\":694:1201   */\n  swap3\n  pop\n  swap3\n  swap1\n  pop\n  jump\t// out\n    /* \"#utility.yul\":1207:1333   */\ntag_21:\n    /* \"#utility.yul\":1244:1251   */\n  0x00\n    /* \"#utility.yul\":1284:1326   */\n  0xffffffffffffffffffffffffffffffffffffffff\n    /* \"#utility.yul\":1277:1282   */\n  dup3\n    /* \"#utility.yul\":1273:1327   */\n  and\n    /* \"#utility.yul\":1262:1327   */\n  swap1\n  pop\n    /* \"#utility.yul\":1207:1333   */\n  swap2\n  swap1\n  pop\n  jump\t// out\n    /* \"#utility.yul\":1339:1435   */\ntag_22:\n    /* \"#utility.yul\":1376:1383   */\n  0x00\n    /* \"#utility.yul\":1405:1429   */\n  tag_41\n    /* \"#utility.yul\":1423:1428   */\n  dup3\n    /* \"#utility.yul\":1405:1429   */\n  tag_21\n  jump\t// in\ntag_41:\n    /* \"#utility.yul\":1394:1429   */\n  swap1\n  pop\n    /* \"#utility.yul\":1339:1435   */\n  swap2\n  swap1\n  pop\n  jump\t// out\n    /* \"#utility.yul\":1441:1559   */\ntag_23:\n    /* \"#utility.yul\":1528:1552   */\n  tag_43\n    /* \"#utility.yul\":1546:1551   */\n  dup2\n    /* \"#utility.yul\":1528:1552   */\n  tag_22\n  jump\t// in\ntag_43:\n    /* \"#utility.yul\":1523:1526   */\n  dup3\n    /* \"#utility.yul\":1516:1553   */\n  mstore\n    /* \"#utility.yul\":1441:1559   */\n  pop\n  pop\n  jump\t// out\n    /* \"#utility.yul\":1565:1787   */\ntag_9:\n    /* \"#utility.yul\":1658:1662   */\n  0x00\n    /* \"#utility.yul\":1696:1698   */\n  0x20\n    /* \"#utility.yul\":1685:1694   */\n  dup3\n    /* \"#utility.yul\":1681:1699   */\n  add\n    /* \"#utility.yul\":1673:1699   */\n  swap1\n  pop\n    /* \"#utility.yul\":1709:1780   */\n  tag_45\n    /* \"#utility.yul\":1777:1778   */\n  0x00\n    /* \"#utility.yul\":1766:1775   */\n  dup4\n    /* \"#utility.yul\":1762:1779   */\n  add\n    /* \"#utility.yul\":1753:1759   */\n  dup5\n    /* \"#utility.yul\":1709:1780   */\n  tag_23\n  jump\t// in\ntag_45:\n    /* \"#utility.yul\":1565:1787   */\n  swap3\n  swap2\n  pop\n  pop\n  jump\t// out\n    /* \"contracts/BeggingContract.sol\":114:3004  contract BeggingContract is Ownable{... */\ntag_13:\n  dataSize(sub_0)\n  dup1\n  dataOffset(sub_0)\n  0x00\n  codecopy\n  0x00\n  return\nstop\n\nsub_0: assembly {\n        /* \"contracts/BeggingContract.sol\":114:3004  contract BeggingContract is Ownable{... */\n      mstore(0x40, 0x80)\n      jumpi(tag_1, lt(calldatasize, 0x04))\n      shr(0xe0, calldataload(0x00))\n      dup1\n      0x8da5cb5b\n      gt\n      tag_11\n      jumpi\n      dup1\n      0x8da5cb5b\n      eq\n      tag_6\n      jumpi\n      dup1\n      0xcc6cb19a\n      eq\n      tag_7\n      jumpi\n      dup1\n      0xd6387ed8\n      eq\n      tag_8\n      jumpi\n      dup1\n      0xed88c68e\n      eq\n      tag_9\n      jumpi\n      dup1\n      0xf2fde38b\n      eq\n      tag_10\n      jumpi\n      jump(tag_1)\n    tag_11:\n      dup1\n      0x3ccfd60b\n      eq\n      tag_2\n      jumpi\n      dup1\n      0x410a1d32\n      eq\n      tag_3\n      jumpi\n      dup1\n      0x5cbaddab\n      eq\n      tag_4\n      jumpi\n      dup1\n      0x715018a6\n      eq\n      tag_5\n      jumpi\n    tag_1:\n      revert(0x00, 0x00)\n        /* \"contracts/BeggingContract.sol\":1198:1338  function withdraw() external  onlyOwner {... */\n    tag_2:\n      callvalue\n      dup1\n      iszero\n      tag_12\n      jumpi\n      revert(0x00, 0x00)\n    tag_12:\n      pop\n      tag_13\n      tag_14\n      jump\t// in\n    tag_13:\n      stop\n        /* \"contracts/BeggingContract.sol\":1391:1501  function getDonation(address donor) external  view returns (uint256) {... */\n    tag_3:\n      callvalue\n      dup1\n      iszero\n      tag_15\n      jumpi\n      revert(0x00, 0x00)\n    tag_15:\n      pop\n      tag_16\n      0x04\n      dup1\n      calldatasize\n      sub\n      dup2\n      add\n      swap1\n      tag_17\n      swap2\n      swap1\n      tag_18\n      jump\t// in\n    tag_17:\n      tag_19\n      jump\t// in\n    tag_16:\n      mload(0x40)\n      tag_20\n      swap2\n      swap1\n      tag_21\n      jump\t// in\n    tag_20:\n      mload(0x40)\n      dup1\n      swap2\n      sub\n      swap1\n      return\n        /* \"contracts/BeggingContract.sol\":319:346  address[3] public topDonors */\n    tag_4:\n      callvalue\n      dup1\n      iszero\n      tag_22\n      jumpi\n      revert(0x00, 0x00)\n    tag_22:\n      pop\n      tag_23\n      0x04\n      dup1\n      calldatasize\n      sub\n      dup2\n      add\n      swap1\n      tag_24\n      swap2\n      swap1\n      tag_25\n      jump\t// in\n    tag_24:\n      tag_26\n      jump\t// in\n    tag_23:\n      mload(0x40)\n      tag_27\n      swap2\n      swap1\n      tag_28\n      jump\t// in\n    tag_27:\n      mload(0x40)\n      dup1\n      swap2\n      sub\n      swap1\n      return\n        /* \"@openzeppelin/contracts/access/Ownable.sol\":2293:2394  function renounceOwnership() public virtual onlyOwner {... */\n    tag_5:\n      callvalue\n      dup1\n      iszero\n      tag_29\n      jumpi\n      revert(0x00, 0x00)\n    tag_29:\n      pop\n      tag_30\n      tag_31\n      jump\t// in\n    tag_30:\n      stop\n        /* \"@openzeppelin/contracts/access/Ownable.sol\":1638:1723  function owner() public view virtual returns (address) {... */\n    tag_6:\n      callvalue\n      dup1\n      iszero\n      tag_32\n      jumpi\n      revert(0x00, 0x00)\n    tag_32:\n      pop\n      tag_33\n      tag_34\n      jump\t// in\n    tag_33:\n      mload(0x40)\n      tag_35\n      swap2\n      swap1\n      tag_28\n      jump\t// in\n    tag_35:\n      mload(0x40)\n      dup1\n      swap2\n      sub\n      swap1\n      return\n        /* \"contracts/BeggingContract.sol\":219:263  mapping(address => uint256) public donations */\n    tag_7:\n      callvalue\n      dup1\n      iszero\n      tag_36\n      jumpi\n      revert(0x00, 0x00)\n    tag_36:\n      pop\n      tag_37\n      0x04\n      dup1\n      calldatasize\n      sub\n      dup2\n      add\n      swap1\n      tag_38\n      swap2\n      swap1\n      tag_18\n      jump\t// in\n    tag_38:\n      tag_39\n      jump\t// in\n    tag_37:\n      mload(0x40)\n      tag_40\n      swap2\n      swap1\n      tag_21\n      jump\t// in\n    tag_40:\n      mload(0x40)\n      dup1\n      swap2\n      sub\n      swap1\n      return\n        /* \"contracts/BeggingContract.sol\":1536:1637  function getTopDonors() external  view returns (address[3] memory) {... */\n    tag_8:\n      callvalue\n      dup1\n      iszero\n      tag_41\n      jumpi\n      revert(0x00, 0x00)\n    tag_41:\n      pop\n      tag_42\n      tag_43\n      jump\t// in\n    tag_42:\n      mload(0x40)\n      tag_44\n      swap2\n      swap1\n      tag_45\n      jump\t// in\n    tag_44:\n      mload(0x40)\n      dup1\n      swap2\n      sub\n      swap1\n      return\n        /* \"contracts/BeggingContract.sol\":760:1150  function donate() external payable {... */\n    tag_9:\n      tag_46\n      tag_47\n      jump\t// in\n    tag_46:\n      stop\n        /* \"@openzeppelin/contracts/access/Ownable.sol\":2543:2758  function transferOwnership(address newOwner) public virtual onlyOwner {... */\n    tag_10:\n      callvalue\n      dup1\n      iszero\n      tag_48\n      jumpi\n      revert(0x00, 0x00)\n    tag_48:\n      pop\n      tag_49\n      0x04\n      dup1\n      calldatasize\n      sub\n      dup2\n      add\n      swap1\n      tag_50\n      swap2\n      swap1\n      tag_18\n      jump\t// in\n    tag_50:\n      tag_51\n      jump\t// in\n    tag_49:\n      stop\n        /* \"contracts/BeggingContract.sol\":1198:1338  function withdraw() external  onlyOwner {... */\n    tag_14:\n        /* \"@openzeppelin/contracts/access/Ownable.sol\":1531:1544  _checkOwner() */\n      tag_53\n        /* \"@openzeppelin/contracts/access/Ownable.sol\":1531:1542  _checkOwner */\n      tag_54\n        /* \"@openzeppelin/contracts/access/Ownable.sol\":1531:1544  _checkOwner() */\n      jump\t// in\n    tag_53:\n        /* \"contracts/BeggingContract.sol\":1248:1263  uint256 balance */\n      0x00\n        /* \"contracts/BeggingContract.sol\":1266:1287  address(this).balance */\n      selfbalance\n        /* \"contracts/BeggingContract.sol\":1248:1287  uint256 balance = address(this).balance */\n      swap1\n      pop\n        /* \"contracts/BeggingContract.sol\":1305:1312  owner() */\n      tag_56\n        /* \"contracts/BeggingContract.sol\":1305:1310  owner */\n      tag_34\n        /* \"contracts/BeggingContract.sol\":1305:1312  owner() */\n      jump\t// in\n    tag_56:\n        /* \"contracts/BeggingContract.sol\":1297:1322  payable(owner()).transfer */\n      0xffffffffffffffffffffffffffffffffffffffff\n      and\n        /* \"contracts/BeggingContract.sol\":1297:1331  payable(owner()).transfer(balance) */\n      0x08fc\n        /* \"contracts/BeggingContract.sol\":1323:1330  balance */\n      dup3\n        /* \"contracts/BeggingContract.sol\":1297:1331  payable(owner()).transfer(balance) */\n      swap1\n      dup2\n      iszero\n      mul\n      swap1\n      mload(0x40)\n      0x00\n      mload(0x40)\n      dup1\n      dup4\n      sub\n      dup2\n      dup6\n      dup9\n      dup9\n      call\n      swap4\n      pop\n      pop\n      pop\n      pop\n      iszero\n      dup1\n      iszero\n      tag_58\n      jumpi\n      returndatacopy(0x00, 0x00, returndatasize)\n      revert(0x00, returndatasize)\n    tag_58:\n      pop\n        /* \"contracts/BeggingContract.sol\":1238:1338  {... */\n      pop\n        /* \"contracts/BeggingContract.sol\":1198:1338  function withdraw() external  onlyOwner {... */\n      jump\t// out\n        /* \"contracts/BeggingContract.sol\":1391:1501  function getDonation(address donor) external  view returns (uint256) {... */\n    tag_19:\n        /* \"contracts/BeggingContract.sol\":1451:1458  uint256 */\n      0x00\n        /* \"contracts/BeggingContract.sol\":1478:1487  donations */\n      0x02\n        /* \"contracts/BeggingContract.sol\":1478:1494  donations[donor] */\n      0x00\n        /* \"contracts/BeggingContract.sol\":1488:1493  donor */\n      dup4\n        /* \"contracts/BeggingContract.sol\":1478:1494  donations[donor] */\n      0xffffffffffffffffffffffffffffffffffffffff\n      and\n      0xffffffffffffffffffffffffffffffffffffffff\n      and\n      dup2\n      mstore\n      0x20\n      add\n      swap1\n      dup2\n      mstore\n      0x20\n      add\n      0x00\n      keccak256\n      sload\n        /* \"contracts/BeggingContract.sol\":1471:1494  return donations[donor] */\n      swap1\n      pop\n        /* \"contracts/BeggingContract.sol\":1391:1501  function getDonation(address donor) external  view returns (uint256) {... */\n      swap2\n      swap1\n      pop\n      jump\t// out\n        /* \"contracts/BeggingContract.sol\":319:346  address[3] public topDonors */\n    tag_26:\n      0x03\n      dup2\n      0x03\n      dup2\n      lt\n      tag_60\n      jumpi\n      0x00\n      dup1\n      revert\n    tag_60:\n      add\n      0x00\n      swap2\n      pop\n      sload\n      swap1\n      0x0100\n      exp\n      swap1\n      div\n      0xffffffffffffffffffffffffffffffffffffffff\n      and\n      dup2\n      jump\t// out\n        /* \"@openzeppelin/contracts/access/Ownable.sol\":2293:2394  function renounceOwnership() public virtual onlyOwner {... */\n    tag_31:\n        /* \"@openzeppelin/contracts/access/Ownable.sol\":1531:1544  _checkOwner() */\n      tag_63\n        /* \"@openzeppelin/contracts/access/Ownable.sol\":1531:1542  _checkOwner */\n      tag_54\n        /* \"@openzeppelin/contracts/access/Ownable.sol\":1531:1544  _checkOwner() */\n      jump\t// in\n    tag_63:\n        /* \"@openzeppelin/contracts/access/Ownable.sol\":2357:2387  _transferOwnership(address(0)) */\n      tag_65\n        /* \"@openzeppelin/contracts/access/Ownable.sol\":2384:2385  0 */\n      0x00\n        /* \"@openzeppelin/contracts/access/Ownable.sol\":2357:2375  _transferOwnership */\n      tag_66\n        /* \"@openzeppelin/contracts/access/Ownable.sol\":2357:2387  _transferOwnership(address(0)) */\n      jump\t// in\n    tag_65:\n        /* \"@openzeppelin/contracts/access/Ownable.sol\":2293:2394  function renounceOwnership() public virtual onlyOwner {... */\n      jump\t// out\n        /* \"@openzeppelin/contracts/access/Ownable.sol\":1638:1723  function owner() public view virtual returns (address) {... */\n    tag_34:\n        /* \"@openzeppelin/contracts/access/Ownable.sol\":1684:1691  address */\n      0x00\n        /* \"@openzeppelin/contracts/access/Ownable.sol\":1710:1716  _owner */\n      0x00\n      0x00\n      swap1\n      sload\n      swap1\n      0x0100\n      exp\n      swap1\n      div\n      0xffffffffffffffffffffffffffffffffffffffff\n      and\n        /* \"@openzeppelin/contracts/access/Ownable.sol\":1703:1716  return _owner */\n      swap1\n      pop\n        /* \"@openzeppelin/contracts/access/Ownable.sol\":1638:1723  function owner() public view virtual returns (address) {... */\n      swap1\n      jump\t// out\n        /* \"contracts/BeggingContract.sol\":219:263  mapping(address => uint256) public donations */\n    tag_39:\n      mstore(0x20, 0x02)\n      dup1\n      0x00\n      mstore\n      keccak256(0x00, 0x40)\n      0x00\n      swap2\n      pop\n      swap1\n      pop\n      sload\n      dup2\n      jump\t// out\n        /* \"contracts/BeggingContract.sol\":1536:1637  function getTopDonors() external  view returns (address[3] memory) {... */\n    tag_43:\n        /* \"contracts/BeggingContract.sol\":1584:1601  address[3] memory */\n      tag_68\n      tag_69\n      jump\t// in\n    tag_68:\n        /* \"contracts/BeggingContract.sol\":1621:1630  topDonors */\n      0x03\n        /* \"contracts/BeggingContract.sol\":1614:1630  return topDonors */\n      dup1\n      dup1\n      0x20\n      mul\n      mload(0x40)\n      swap1\n      dup2\n      add\n      0x40\n      mstore\n      dup1\n      swap3\n      swap2\n      swap1\n      dup3\n      0x03\n      dup1\n      iszero\n      tag_71\n      jumpi\n      0x20\n      mul\n      dup3\n      add\n      swap2\n    tag_72:\n      dup2\n      0x00\n      swap1\n      sload\n      swap1\n      0x0100\n      exp\n      swap1\n      div\n      0xffffffffffffffffffffffffffffffffffffffff\n      and\n      0xffffffffffffffffffffffffffffffffffffffff\n      and\n      dup2\n      mstore\n      0x20\n      add\n      swap1\n      0x01\n      add\n      swap1\n      dup1\n      dup4\n      gt\n      tag_72\n      jumpi\n    tag_71:\n      pop\n      pop\n      pop\n      pop\n      pop\n      swap1\n      pop\n        /* \"contracts/BeggingContract.sol\":1536:1637  function getTopDonors() external  view returns (address[3] memory) {... */\n      swap1\n      jump\t// out\n        /* \"contracts/BeggingContract.sol\":760:1150  function donate() external payable {... */\n    tag_47:\n        /* \"contracts/BeggingContract.sol\":975:976  0 */\n      0x00\n        /* \"contracts/BeggingContract.sol\":963:972  msg.value */\n      callvalue\n        /* \"contracts/BeggingContract.sol\":963:976  msg.value > 0 */\n      gt\n        /* \"contracts/BeggingContract.sol\":954:1019  require( msg.value > 0, \"Donation amount must be greater than 0\") */\n      tag_74\n      jumpi\n      mload(0x40)\n      0x08c379a000000000000000000000000000000000000000000000000000000000\n      dup2\n      mstore\n      0x04\n      add\n      tag_75\n      swap1\n      tag_76\n      jump\t// in\n    tag_75:\n      mload(0x40)\n      dup1\n      swap2\n      sub\n      swap1\n      revert\n    tag_74:\n        /* \"contracts/BeggingContract.sol\":1053:1062  msg.value */\n      callvalue\n        /* \"contracts/BeggingContract.sol\":1028:1037  donations */\n      0x02\n        /* \"contracts/BeggingContract.sol\":1028:1049  donations[msg.sender] */\n      0x00\n        /* \"contracts/BeggingContract.sol\":1038:1048  msg.sender */\n      caller\n        /* \"contracts/BeggingContract.sol\":1028:1049  donations[msg.sender] */\n      0xffffffffffffffffffffffffffffffffffffffff\n      and\n      0xffffffffffffffffffffffffffffffffffffffff\n      and\n      dup2\n      mstore\n      0x20\n      add\n      swap1\n      dup2\n      mstore\n      0x20\n      add\n      0x00\n      keccak256\n      0x00\n        /* \"contracts/BeggingContract.sol\":1028:1062  donations[msg.sender] += msg.value */\n      dup3\n      dup3\n      sload\n      tag_77\n      swap2\n      swap1\n      tag_78\n      jump\t// in\n    tag_77:\n      swap3\n      pop\n      pop\n      dup2\n      swap1\n      sstore\n      pop\n        /* \"contracts/BeggingContract.sol\":1085:1095  msg.sender */\n      caller\n        /* \"contracts/BeggingContract.sol\":1076:1107  Donation(msg.sender, msg.value) */\n      0xffffffffffffffffffffffffffffffffffffffff\n      and\n      0x5d8bc849764969eb1bcc6d0a2f55999d0167c1ccec240a4f39cf664ca9c4148e\n        /* \"contracts/BeggingContract.sol\":1097:1106  msg.value */\n      callvalue\n        /* \"contracts/BeggingContract.sol\":1076:1107  Donation(msg.sender, msg.value) */\n      mload(0x40)\n      tag_79\n      swap2\n      swap1\n      tag_21\n      jump\t// in\n    tag_79:\n      mload(0x40)\n      dup1\n      swap2\n      sub\n      swap1\n      log2\n        /* \"contracts/BeggingContract.sol\":1116:1143  updateTopDonors(msg.sender) */\n      tag_80\n        /* \"contracts/BeggingContract.sol\":1132:1142  msg.sender */\n      caller\n        /* \"contracts/BeggingContract.sol\":1116:1131  updateTopDonors */\n      tag_81\n        /* \"contracts/BeggingContract.sol\":1116:1143  updateTopDonors(msg.sender) */\n      jump\t// in\n    tag_80:\n        /* \"contracts/BeggingContract.sol\":760:1150  function donate() external payable {... */\n      jump\t// out\n        /* \"@openzeppelin/contracts/access/Ownable.sol\":2543:2758  function transferOwnership(address newOwner) public virtual onlyOwner {... */\n    tag_51:\n        /* \"@openzeppelin/contracts/access/Ownable.sol\":1531:1544  _checkOwner() */\n      tag_83\n        /* \"@openzeppelin/contracts/access/Ownable.sol\":1531:1542  _checkOwner */\n      tag_54\n        /* \"@openzeppelin/contracts/access/Ownable.sol\":1531:1544  _checkOwner() */\n      jump\t// in\n    tag_83:\n        /* \"@openzeppelin/contracts/access/Ownable.sol\":2647:2648  0 */\n      0x00\n        /* \"@openzeppelin/contracts/access/Ownable.sol\":2627:2649  newOwner == address(0) */\n      0xffffffffffffffffffffffffffffffffffffffff\n      and\n        /* \"@openzeppelin/contracts/access/Ownable.sol\":2627:2635  newOwner */\n      dup2\n        /* \"@openzeppelin/contracts/access/Ownable.sol\":2627:2649  newOwner == address(0) */\n      0xffffffffffffffffffffffffffffffffffffffff\n      and\n      sub\n        /* \"@openzeppelin/contracts/access/Ownable.sol\":2623:2714  if (newOwner == address(0)) {... */\n      tag_85\n      jumpi\n        /* \"@openzeppelin/contracts/access/Ownable.sol\":2700:2701  0 */\n      0x00\n        /* \"@openzeppelin/contracts/access/Ownable.sol\":2672:2703  OwnableInvalidOwner(address(0)) */\n      mload(0x40)\n      0x1e4fbdf700000000000000000000000000000000000000000000000000000000\n      dup2\n      mstore\n      0x04\n      add\n      tag_86\n      swap2\n      swap1\n      tag_28\n      jump\t// in\n    tag_86:\n      mload(0x40)\n      dup1\n      swap2\n      sub\n      swap1\n      revert\n        /* \"@openzeppelin/contracts/access/Ownable.sol\":2623:2714  if (newOwner == address(0)) {... */\n    tag_85:\n        /* \"@openzeppelin/contracts/access/Ownable.sol\":2723:2751  _transferOwnership(newOwner) */\n      tag_87\n        /* \"@openzeppelin/contracts/access/Ownable.sol\":2742:2750  newOwner */\n      dup2\n        /* \"@openzeppelin/contracts/access/Ownable.sol\":2723:2741  _transferOwnership */\n      tag_66\n        /* \"@openzeppelin/contracts/access/Ownable.sol\":2723:2751  _transferOwnership(newOwner) */\n      jump\t// in\n    tag_87:\n        /* \"@openzeppelin/contracts/access/Ownable.sol\":2543:2758  function transferOwnership(address newOwner) public virtual onlyOwner {... */\n      pop\n      jump\t// out\n        /* \"@openzeppelin/contracts/access/Ownable.sol\":1796:1958  function _checkOwner() internal view virtual {... */\n    tag_54:\n        /* \"@openzeppelin/contracts/access/Ownable.sol\":1866:1878  _msgSender() */\n      tag_89\n        /* \"@openzeppelin/contracts/access/Ownable.sol\":1866:1876  _msgSender */\n      tag_90\n        /* \"@openzeppelin/contracts/access/Ownable.sol\":1866:1878  _msgSender() */\n      jump\t// in\n    tag_89:\n        /* \"@openzeppelin/contracts/access/Ownable.sol\":1855:1878  owner() != _msgSender() */\n      0xffffffffffffffffffffffffffffffffffffffff\n      and\n        /* \"@openzeppelin/contracts/access/Ownable.sol\":1855:1862  owner() */\n      tag_91\n        /* \"@openzeppelin/contracts/access/Ownable.sol\":1855:1860  owner */\n      tag_34\n        /* \"@openzeppelin/contracts/access/Ownable.sol\":1855:1862  owner() */\n      jump\t// in\n    tag_91:\n        /* \"@openzeppelin/contracts/access/Ownable.sol\":1855:1878  owner() != _msgSender() */\n      0xffffffffffffffffffffffffffffffffffffffff\n      and\n      eq\n        /* \"@openzeppelin/contracts/access/Ownable.sol\":1851:1952  if (owner() != _msgSender()) {... */\n      tag_92\n      jumpi\n        /* \"@openzeppelin/contracts/access/Ownable.sol\":1928:1940  _msgSender() */\n      tag_93\n        /* \"@openzeppelin/contracts/access/Ownable.sol\":1928:1938  _msgSender */\n      tag_90\n        /* \"@openzeppelin/contracts/access/Ownable.sol\":1928:1940  _msgSender() */\n      jump\t// in\n    tag_93:\n        /* \"@openzeppelin/contracts/access/Ownable.sol\":1901:1941  OwnableUnauthorizedAccount(_msgSender()) */\n      mload(0x40)\n      0x118cdaa700000000000000000000000000000000000000000000000000000000\n      dup2\n      mstore\n      0x04\n      add\n      tag_94\n      swap2\n      swap1\n      tag_28\n      jump\t// in\n    tag_94:\n      mload(0x40)\n      dup1\n      swap2\n      sub\n      swap1\n      revert\n        /* \"@openzeppelin/contracts/access/Ownable.sol\":1851:1952  if (owner() != _msgSender()) {... */\n    tag_92:\n        /* \"@openzeppelin/contracts/access/Ownable.sol\":1796:1958  function _checkOwner() internal view virtual {... */\n      jump\t// out\n        /* \"@openzeppelin/contracts/access/Ownable.sol\":2912:3099  function _transferOwnership(address newOwner) internal virtual {... */\n    tag_66:\n        /* \"@openzeppelin/contracts/access/Ownable.sol\":2985:3001  address oldOwner */\n      0x00\n        /* \"@openzeppelin/contracts/access/Ownable.sol\":3004:3010  _owner */\n      0x00\n      0x00\n      swap1\n      sload\n      swap1\n      0x0100\n      exp\n      swap1\n      div\n      0xffffffffffffffffffffffffffffffffffffffff\n      and\n        /* \"@openzeppelin/contracts/access/Ownable.sol\":2985:3010  address oldOwner = _owner */\n      swap1\n      pop\n        /* \"@openzeppelin/contracts/access/Ownable.sol\":3029:3037  newOwner */\n      dup2\n        /* \"@openzeppelin/contracts/access/Ownable.sol\":3020:3026  _owner */\n      0x00\n      0x00\n        /* \"@openzeppelin/contracts/access/Ownable.sol\":3020:3037  _owner = newOwner */\n      0x0100\n      exp\n      dup2\n      sload\n      dup2\n      0xffffffffffffffffffffffffffffffffffffffff\n      mul\n      not\n      and\n      swap1\n      dup4\n      0xffffffffffffffffffffffffffffffffffffffff\n      and\n      mul\n      or\n      swap1\n      sstore\n      pop\n        /* \"@openzeppelin/contracts/access/Ownable.sol\":3083:3091  newOwner */\n      dup2\n        /* \"@openzeppelin/contracts/access/Ownable.sol\":3052:3092  OwnershipTransferred(oldOwner, newOwner) */\n      0xffffffffffffffffffffffffffffffffffffffff\n      and\n        /* \"@openzeppelin/contracts/access/Ownable.sol\":3073:3081  oldOwner */\n      dup2\n        /* \"@openzeppelin/contracts/access/Ownable.sol\":3052:3092  OwnershipTransferred(oldOwner, newOwner) */\n      0xffffffffffffffffffffffffffffffffffffffff\n      and\n      0x8be0079c531659141344cd1fd0a4f28419497f9722a3daafe3b4186f6b6457e0\n      mload(0x40)\n      mload(0x40)\n      dup1\n      swap2\n      sub\n      swap1\n      log3\n        /* \"@openzeppelin/contracts/access/Ownable.sol\":2975:3099  {... */\n      pop\n        /* \"@openzeppelin/contracts/access/Ownable.sol\":2912:3099  function _transferOwnership(address newOwner) internal virtual {... */\n      pop\n      jump\t// out\n        /* \"contracts/BeggingContract.sol\":1685:2997  function updateTopDonors(address donor) private {... */\n    tag_81:\n        /* \"contracts/BeggingContract.sol\":1740:1753  uint256 value */\n      0x00\n        /* \"contracts/BeggingContract.sol\":1756:1765  donations */\n      0x02\n        /* \"contracts/BeggingContract.sol\":1756:1772  donations[donor] */\n      0x00\n        /* \"contracts/BeggingContract.sol\":1766:1771  donor */\n      dup4\n        /* \"contracts/BeggingContract.sol\":1756:1772  donations[donor] */\n      0xffffffffffffffffffffffffffffffffffffffff\n      and\n      0xffffffffffffffffffffffffffffffffffffffff\n      and\n      dup2\n      mstore\n      0x20\n      add\n      swap1\n      dup2\n      mstore\n      0x20\n      add\n      0x00\n      keccak256\n      sload\n        /* \"contracts/BeggingContract.sol\":1740:1772  uint256 value = donations[donor] */\n      swap1\n      pop\n        /* \"contracts/BeggingContract.sol\":1868:1877  uint256 i */\n      0x00\n        /* \"contracts/BeggingContract.sol\":1880:1881  0 */\n      0x00\n        /* \"contracts/BeggingContract.sol\":1868:1881  uint256 i = 0 */\n      swap1\n      pop\n        /* \"contracts/BeggingContract.sol\":1863:2002  for (uint256 i = 0; i < topDonors.length; i++) {... */\n    tag_97:\n        /* \"contracts/BeggingContract.sol\":1887:1903  topDonors.length */\n      0x03\n        /* \"contracts/BeggingContract.sol\":1883:1884  i */\n      dup2\n        /* \"contracts/BeggingContract.sol\":1883:1903  i < topDonors.length */\n      lt\n        /* \"contracts/BeggingContract.sol\":1863:2002  for (uint256 i = 0; i < topDonors.length; i++) {... */\n      iszero\n      tag_98\n      jumpi\n        /* \"contracts/BeggingContract.sol\":1941:1946  donor */\n      dup3\n        /* \"contracts/BeggingContract.sol\":1925:1946  topDonors[i] == donor */\n      0xffffffffffffffffffffffffffffffffffffffff\n      and\n        /* \"contracts/BeggingContract.sol\":1925:1934  topDonors */\n      0x03\n        /* \"contracts/BeggingContract.sol\":1935:1936  i */\n      dup3\n        /* \"contracts/BeggingContract.sol\":1925:1937  topDonors[i] */\n      0x03\n      dup2\n      lt\n      tag_100\n      jumpi\n      tag_101\n      tag_102\n      jump\t// in\n    tag_101:\n    tag_100:\n      add\n      0x00\n      swap1\n      sload\n      swap1\n      0x0100\n      exp\n      swap1\n      div\n      0xffffffffffffffffffffffffffffffffffffffff\n      and\n        /* \"contracts/BeggingContract.sol\":1925:1946  topDonors[i] == donor */\n      0xffffffffffffffffffffffffffffffffffffffff\n      and\n      sub\n        /* \"contracts/BeggingContract.sol\":1921:1955  if (topDonors[i] == donor) return; */\n      tag_104\n      jumpi\n        /* \"contracts/BeggingContract.sol\":1948:1955  return; */\n      pop\n      pop\n      jump(tag_96)\n        /* \"contracts/BeggingContract.sol\":1921:1955  if (topDonors[i] == donor) return; */\n    tag_104:\n        /* \"contracts/BeggingContract.sol\":1905:1908  i++ */\n      dup1\n      dup1\n      0x01\n      add\n      swap2\n      pop\n      pop\n        /* \"contracts/BeggingContract.sol\":1863:2002  for (uint256 i = 0; i < topDonors.length; i++) {... */\n      jump(tag_97)\n    tag_98:\n      pop\n        /* \"contracts/BeggingContract.sol\":2063:2072  uint256 i */\n      0x00\n        /* \"contracts/BeggingContract.sol\":2075:2076  0 */\n      0x00\n        /* \"contracts/BeggingContract.sol\":2063:2076  uint256 i = 0 */\n      swap1\n      pop\n        /* \"contracts/BeggingContract.sol\":2058:2994  for (uint256 i = 0; i < topDonors.length; i++) {... */\n    tag_105:\n        /* \"contracts/BeggingContract.sol\":2082:2098  topDonors.length */\n      0x03\n        /* \"contracts/BeggingContract.sol\":2078:2079  i */\n      dup2\n        /* \"contracts/BeggingContract.sol\":2078:2098  i < topDonors.length */\n      lt\n        /* \"contracts/BeggingContract.sol\":2058:2994  for (uint256 i = 0; i < topDonors.length; i++) {... */\n      iszero\n      tag_106\n      jumpi\n        /* \"contracts/BeggingContract.sol\":2144:2145  0 */\n      0x00\n        /* \"contracts/BeggingContract.sol\":2120:2146  topDonors[i] == address(0) */\n      0xffffffffffffffffffffffffffffffffffffffff\n      and\n        /* \"contracts/BeggingContract.sol\":2120:2129  topDonors */\n      0x03\n        /* \"contracts/BeggingContract.sol\":2130:2131  i */\n      dup3\n        /* \"contracts/BeggingContract.sol\":2120:2132  topDonors[i] */\n      0x03\n      dup2\n      lt\n      tag_108\n      jumpi\n      tag_109\n      tag_102\n      jump\t// in\n    tag_109:\n    tag_108:\n      add\n      0x00\n      swap1\n      sload\n      swap1\n      0x0100\n      exp\n      swap1\n      div\n      0xffffffffffffffffffffffffffffffffffffffff\n      and\n        /* \"contracts/BeggingContract.sol\":2120:2146  topDonors[i] == address(0) */\n      0xffffffffffffffffffffffffffffffffffffffff\n      and\n      sub\n        /* \"contracts/BeggingContract.sol\":2116:2307  if (topDonors[i] == address(0)) { // 如果有空槽位（即尚未填满三人）... */\n      tag_111\n      jumpi\n        /* \"contracts/BeggingContract.sol\":2227:2232  donor */\n      dup3\n        /* \"contracts/BeggingContract.sol\":2212:2221  topDonors */\n      0x03\n        /* \"contracts/BeggingContract.sol\":2222:2223  i */\n      dup3\n        /* \"contracts/BeggingContract.sol\":2212:2224  topDonors[i] */\n      0x03\n      dup2\n      lt\n      tag_112\n      jumpi\n      tag_113\n      tag_102\n      jump\t// in\n    tag_113:\n    tag_112:\n      add\n      0x00\n        /* \"contracts/BeggingContract.sol\":2212:2232  topDonors[i] = donor */\n      0x0100\n      exp\n      dup2\n      sload\n      dup2\n      0xffffffffffffffffffffffffffffffffffffffff\n      mul\n      not\n      and\n      swap1\n      dup4\n      0xffffffffffffffffffffffffffffffffffffffff\n      and\n      mul\n      or\n      swap1\n      sstore\n      pop\n        /* \"contracts/BeggingContract.sol\":2289:2296  return; */\n      pop\n      pop\n      jump(tag_96)\n        /* \"contracts/BeggingContract.sol\":2116:2307  if (topDonors[i] == address(0)) { // 如果有空槽位（即尚未填满三人）... */\n    tag_111:\n        /* \"contracts/BeggingContract.sol\":2404:2413  donations */\n      0x02\n        /* \"contracts/BeggingContract.sol\":2404:2427  donations[topDonors[i]] */\n      0x00\n        /* \"contracts/BeggingContract.sol\":2414:2423  topDonors */\n      0x03\n        /* \"contracts/BeggingContract.sol\":2424:2425  i */\n      dup4\n        /* \"contracts/BeggingContract.sol\":2414:2426  topDonors[i] */\n      0x03\n      dup2\n      lt\n      tag_115\n      jumpi\n      tag_116\n      tag_102\n      jump\t// in\n    tag_116:\n    tag_115:\n      add\n      0x00\n      swap1\n      sload\n      swap1\n      0x0100\n      exp\n      swap1\n      div\n      0xffffffffffffffffffffffffffffffffffffffff\n      and\n        /* \"contracts/BeggingContract.sol\":2404:2427  donations[topDonors[i]] */\n      0xffffffffffffffffffffffffffffffffffffffff\n      and\n      0xffffffffffffffffffffffffffffffffffffffff\n      and\n      dup2\n      mstore\n      0x20\n      add\n      swap1\n      dup2\n      mstore\n      0x20\n      add\n      0x00\n      keccak256\n      sload\n        /* \"contracts/BeggingContract.sol\":2396:2401  value */\n      dup3\n        /* \"contracts/BeggingContract.sol\":2396:2427  value > donations[topDonors[i]] */\n      gt\n        /* \"contracts/BeggingContract.sol\":2392:2987  if (value > donations[topDonors[i]]) {... */\n      iszero\n      tag_118\n      jumpi\n        /* \"contracts/BeggingContract.sol\":2511:2520  uint256 j */\n      0x00\n        /* \"contracts/BeggingContract.sol\":2523:2524  2 */\n      0x02\n        /* \"contracts/BeggingContract.sol\":2511:2524  uint256 j = 2 */\n      swap1\n      pop\n        /* \"contracts/BeggingContract.sol\":2506:2858  for (uint256 j = 2; j > 0; j--) {... */\n    tag_119:\n        /* \"contracts/BeggingContract.sol\":2530:2531  0 */\n      0x00\n        /* \"contracts/BeggingContract.sol\":2526:2527  j */\n      dup2\n        /* \"contracts/BeggingContract.sol\":2526:2531  j > 0 */\n      gt\n        /* \"contracts/BeggingContract.sol\":2506:2858  for (uint256 j = 2; j > 0; j--) {... */\n      iszero\n      tag_120\n      jumpi\n        /* \"contracts/BeggingContract.sol\":2569:2578  donations */\n      0x02\n        /* \"contracts/BeggingContract.sol\":2569:2596  donations[topDonors[j - 1]] */\n      0x00\n        /* \"contracts/BeggingContract.sol\":2579:2588  topDonors */\n      0x03\n        /* \"contracts/BeggingContract.sol\":2593:2594  1 */\n      0x01\n        /* \"contracts/BeggingContract.sol\":2589:2590  j */\n      dup5\n        /* \"contracts/BeggingContract.sol\":2589:2594  j - 1 */\n      tag_122\n      swap2\n      swap1\n      tag_123\n      jump\t// in\n    tag_122:\n        /* \"contracts/BeggingContract.sol\":2579:2595  topDonors[j - 1] */\n      0x03\n      dup2\n      lt\n      tag_124\n      jumpi\n      tag_125\n      tag_102\n      jump\t// in\n    tag_125:\n    tag_124:\n      add\n      0x00\n      swap1\n      sload\n      swap1\n      0x0100\n      exp\n      swap1\n      div\n      0xffffffffffffffffffffffffffffffffffffffff\n      and\n        /* \"contracts/BeggingContract.sol\":2569:2596  donations[topDonors[j - 1]] */\n      0xffffffffffffffffffffffffffffffffffffffff\n      and\n      0xffffffffffffffffffffffffffffffffffffffff\n      and\n      dup2\n      mstore\n      0x20\n      add\n      swap1\n      dup2\n      mstore\n      0x20\n      add\n      0x00\n      keccak256\n      sload\n        /* \"contracts/BeggingContract.sol\":2561:2566  value */\n      dup4\n        /* \"contracts/BeggingContract.sol\":2561:2596  value > donations[topDonors[j - 1]] */\n      gt\n        /* \"contracts/BeggingContract.sol\":2557:2843  if (value > donations[topDonors[j - 1]]) {... */\n      iszero\n      tag_127\n      jumpi\n        /* \"contracts/BeggingContract.sol\":2636:2645  topDonors */\n      0x03\n        /* \"contracts/BeggingContract.sol\":2650:2651  1 */\n      0x01\n        /* \"contracts/BeggingContract.sol\":2646:2647  j */\n      dup3\n        /* \"contracts/BeggingContract.sol\":2646:2651  j - 1 */\n      tag_128\n      swap2\n      swap1\n      tag_123\n      jump\t// in\n    tag_128:\n        /* \"contracts/BeggingContract.sol\":2636:2652  topDonors[j - 1] */\n      0x03\n      dup2\n      lt\n      tag_129\n      jumpi\n      tag_130\n      tag_102\n      jump\t// in\n    tag_130:\n    tag_129:\n      add\n      0x00\n      swap1\n      sload\n      swap1\n      0x0100\n      exp\n      swap1\n      div\n      0xffffffffffffffffffffffffffffffffffffffff\n      and\n        /* \"contracts/BeggingContract.sol\":2621:2630  topDonors */\n      0x03\n        /* \"contracts/BeggingContract.sol\":2631:2632  j */\n      dup3\n        /* \"contracts/BeggingContract.sol\":2621:2633  topDonors[j] */\n      0x03\n      dup2\n      lt\n      tag_132\n      jumpi\n      tag_133\n      tag_102\n      jump\t// in\n    tag_133:\n    tag_132:\n      add\n      0x00\n        /* \"contracts/BeggingContract.sol\":2621:2652  topDonors[j] = topDonors[j - 1] */\n      0x0100\n      exp\n      dup2\n      sload\n      dup2\n      0xffffffffffffffffffffffffffffffffffffffff\n      mul\n      not\n      and\n      swap1\n      dup4\n      0xffffffffffffffffffffffffffffffffffffffff\n      and\n      mul\n      or\n      swap1\n      sstore\n      pop\n        /* \"contracts/BeggingContract.sol\":2557:2843  if (value > donations[topDonors[j - 1]]) {... */\n      jump(tag_135)\n    tag_127:\n        /* \"contracts/BeggingContract.sol\":2747:2752  donor */\n      dup4\n        /* \"contracts/BeggingContract.sol\":2732:2741  topDonors */\n      0x03\n        /* \"contracts/BeggingContract.sol\":2742:2743  j */\n      dup3\n        /* \"contracts/BeggingContract.sol\":2732:2744  topDonors[j] */\n      0x03\n      dup2\n      lt\n      tag_136\n      jumpi\n      tag_137\n      tag_102\n      jump\t// in\n    tag_137:\n    tag_136:\n      add\n      0x00\n        /* \"contracts/BeggingContract.sol\":2732:2752  topDonors[j] = donor */\n      0x0100\n      exp\n      dup2\n      sload\n      dup2\n      0xffffffffffffffffffffffffffffffffffffffff\n      mul\n      not\n      and\n      swap1\n      dup4\n      0xffffffffffffffffffffffffffffffffffffffff\n      and\n      mul\n      or\n      swap1\n      sstore\n      pop\n        /* \"contracts/BeggingContract.sol\":2817:2824  return; */\n      pop\n      pop\n      pop\n      jump(tag_96)\n        /* \"contracts/BeggingContract.sol\":2557:2843  if (value > donations[topDonors[j - 1]]) {... */\n    tag_135:\n        /* \"contracts/BeggingContract.sol\":2533:2536  j-- */\n      dup1\n      dup1\n      tag_139\n      swap1\n      tag_140\n      jump\t// in\n    tag_139:\n      swap2\n      pop\n      pop\n        /* \"contracts/BeggingContract.sol\":2506:2858  for (uint256 j = 2; j > 0; j--) {... */\n      jump(tag_119)\n    tag_120:\n      pop\n        /* \"contracts/BeggingContract.sol\":2887:2892  donor */\n      dup3\n        /* \"contracts/BeggingContract.sol\":2872:2881  topDonors */\n      0x03\n        /* \"contracts/BeggingContract.sol\":2882:2883  0 */\n      0x00\n        /* \"contracts/BeggingContract.sol\":2872:2884  topDonors[0] */\n      0x03\n      dup2\n      lt\n      tag_141\n      jumpi\n      tag_142\n      tag_102\n      jump\t// in\n    tag_142:\n    tag_141:\n      add\n      0x00\n        /* \"contracts/BeggingContract.sol\":2872:2892  topDonors[0] = donor */\n      0x0100\n      exp\n      dup2\n      sload\n      dup2\n      0xffffffffffffffffffffffffffffffffffffffff\n      mul\n      not\n      and\n      swap1\n      dup4\n      0xffffffffffffffffffffffffffffffffffffffff\n      and\n      mul\n      or\n      swap1\n      sstore\n      pop\n        /* \"contracts/BeggingContract.sol\":2969:2976  return; */\n      pop\n      pop\n      jump(tag_96)\n        /* \"contracts/BeggingContract.sol\":2392:2987  if (value > donations[topDonors[i]]) {... */\n    tag_118:\n        /* \"contracts/BeggingContract.sol\":2100:2103  i++ */\n      dup1\n      dup1\n      0x01\n      add\n      swap2\n      pop\n      pop\n        /* \"contracts/BeggingContract.sol\":2058:2994  for (uint256 i = 0; i < topDonors.length; i++) {... */\n      jump(tag_105)\n    tag_106:\n      pop\n        /* \"contracts/BeggingContract.sol\":1733:2997  {... */\n      pop\n        /* \"contracts/BeggingContract.sol\":1685:2997  function updateTopDonors(address donor) private {... */\n    tag_96:\n      pop\n      jump\t// out\n        /* \"@openzeppelin/contracts/utils/Context.sol\":656:752  function _msgSender() internal view virtual returns (address) {... */\n    tag_90:\n        /* \"@openzeppelin/contracts/utils/Context.sol\":709:716  address */\n      0x00\n        /* \"@openzeppelin/contracts/utils/Context.sol\":735:745  msg.sender */\n      caller\n        /* \"@openzeppelin/contracts/utils/Context.sol\":728:745  return msg.sender */\n      swap1\n      pop\n        /* \"@openzeppelin/contracts/utils/Context.sol\":656:752  function _msgSender() internal view virtual returns (address) {... */\n      swap1\n      jump\t// out\n    tag_69:\n      mload(0x40)\n      dup1\n      0x60\n      add\n      0x40\n      mstore\n      dup1\n      0x03\n      swap1\n      0x20\n      dup3\n      mul\n      dup1\n      calldatasize\n      dup4\n      calldatacopy\n      dup1\n      dup3\n      add\n      swap2\n      pop\n      pop\n      swap1\n      pop\n      pop\n      swap1\n      jump\t// out\n        /* \"#utility.yul\":88:205   */\n    tag_146:\n        /* \"#utility.yul\":197:198   */\n      0x00\n        /* \"#utility.yul\":194:195   */\n      0x00\n        /* \"#utility.yul\":187:199   */\n      revert\n        /* \"#utility.yul\":334:460   */\n    tag_148:\n        /* \"#utility.yul\":371:378   */\n      0x00\n        /* \"#utility.yul\":411:453   */\n      0xffffffffffffffffffffffffffffffffffffffff\n        /* \"#utility.yul\":404:409   */\n      dup3\n        /* \"#utility.yul\":400:454   */\n      and\n        /* \"#utility.yul\":389:454   */\n      swap1\n      pop\n        /* \"#utility.yul\":334:460   */\n      swap2\n      swap1\n      pop\n      jump\t// out\n        /* \"#utility.yul\":466:562   */\n    tag_149:\n        /* \"#utility.yul\":503:510   */\n      0x00\n        /* \"#utility.yul\":532:556   */\n      tag_174\n        /* \"#utility.yul\":550:555   */\n      dup3\n        /* \"#utility.yul\":532:556   */\n      tag_148\n      jump\t// in\n    tag_174:\n        /* \"#utility.yul\":521:556   */\n      swap1\n      pop\n        /* \"#utility.yul\":466:562   */\n      swap2\n      swap1\n      pop\n      jump\t// out\n        /* \"#utility.yul\":568:690   */\n    tag_150:\n        /* \"#utility.yul\":641:665   */\n      tag_176\n        /* \"#utility.yul\":659:664   */\n      dup2\n        /* \"#utility.yul\":641:665   */\n      tag_149\n      jump\t// in\n    tag_176:\n        /* \"#utility.yul\":634:639   */\n      dup2\n        /* \"#utility.yul\":631:666   */\n      eq\n        /* \"#utility.yul\":621:684   */\n      tag_177\n      jumpi\n        /* \"#utility.yul\":680:681   */\n      0x00\n        /* \"#utility.yul\":677:678   */\n      0x00\n        /* \"#utility.yul\":670:682   */\n      revert\n        /* \"#utility.yul\":621:684   */\n    tag_177:\n        /* \"#utility.yul\":568:690   */\n      pop\n      jump\t// out\n        /* \"#utility.yul\":696:835   */\n    tag_151:\n        /* \"#utility.yul\":742:747   */\n      0x00\n        /* \"#utility.yul\":780:786   */\n      dup2\n        /* \"#utility.yul\":767:787   */\n      calldataload\n        /* \"#utility.yul\":758:787   */\n      swap1\n      pop\n        /* \"#utility.yul\":796:829   */\n      tag_179\n        /* \"#utility.yul\":823:828   */\n      dup2\n        /* \"#utility.yul\":796:829   */\n      tag_150\n      jump\t// in\n    tag_179:\n        /* \"#utility.yul\":696:835   */\n      swap3\n      swap2\n      pop\n      pop\n      jump\t// out\n        /* \"#utility.yul\":841:1170   */\n    tag_18:\n        /* \"#utility.yul\":900:906   */\n      0x00\n        /* \"#utility.yul\":949:951   */\n      0x20\n        /* \"#utility.yul\":937:946   */\n      dup3\n        /* \"#utility.yul\":928:935   */\n      dup5\n        /* \"#utility.yul\":924:947   */\n      sub\n        /* \"#utility.yul\":920:952   */\n      slt\n        /* \"#utility.yul\":917:1036   */\n      iszero\n      tag_181\n      jumpi\n        /* \"#utility.yul\":955:1034   */\n      tag_182\n      tag_146\n      jump\t// in\n    tag_182:\n        /* \"#utility.yul\":917:1036   */\n    tag_181:\n        /* \"#utility.yul\":1075:1076   */\n      0x00\n        /* \"#utility.yul\":1100:1153   */\n      tag_183\n        /* \"#utility.yul\":1145:1152   */\n      dup5\n        /* \"#utility.yul\":1136:1142   */\n      dup3\n        /* \"#utility.yul\":1125:1134   */\n      dup6\n        /* \"#utility.yul\":1121:1143   */\n      add\n        /* \"#utility.yul\":1100:1153   */\n      tag_151\n      jump\t// in\n    tag_183:\n        /* \"#utility.yul\":1090:1153   */\n      swap2\n      pop\n        /* \"#utility.yul\":1046:1163   */\n      pop\n        /* \"#utility.yul\":841:1170   */\n      swap3\n      swap2\n      pop\n      pop\n      jump\t// out\n        /* \"#utility.yul\":1176:1253   */\n    tag_152:\n        /* \"#utility.yul\":1213:1220   */\n      0x00\n        /* \"#utility.yul\":1242:1247   */\n      dup2\n        /* \"#utility.yul\":1231:1247   */\n      swap1\n      pop\n        /* \"#utility.yul\":1176:1253   */\n      swap2\n      swap1\n      pop\n      jump\t// out\n        /* \"#utility.yul\":1259:1377   */\n    tag_153:\n        /* \"#utility.yul\":1346:1370   */\n      tag_186\n        /* \"#utility.yul\":1364:1369   */\n      dup2\n        /* \"#utility.yul\":1346:1370   */\n      tag_152\n      jump\t// in\n    tag_186:\n        /* \"#utility.yul\":1341:1344   */\n      dup3\n        /* \"#utility.yul\":1334:1371   */\n      mstore\n        /* \"#utility.yul\":1259:1377   */\n      pop\n      pop\n      jump\t// out\n        /* \"#utility.yul\":1383:1605   */\n    tag_21:\n        /* \"#utility.yul\":1476:1480   */\n      0x00\n        /* \"#utility.yul\":1514:1516   */\n      0x20\n        /* \"#utility.yul\":1503:1512   */\n      dup3\n        /* \"#utility.yul\":1499:1517   */\n      add\n        /* \"#utility.yul\":1491:1517   */\n      swap1\n      pop\n        /* \"#utility.yul\":1527:1598   */\n      tag_188\n        /* \"#utility.yul\":1595:1596   */\n      0x00\n        /* \"#utility.yul\":1584:1593   */\n      dup4\n        /* \"#utility.yul\":1580:1597   */\n      add\n        /* \"#utility.yul\":1571:1577   */\n      dup5\n        /* \"#utility.yul\":1527:1598   */\n      tag_153\n      jump\t// in\n    tag_188:\n        /* \"#utility.yul\":1383:1605   */\n      swap3\n      swap2\n      pop\n      pop\n      jump\t// out\n        /* \"#utility.yul\":1611:1733   */\n    tag_154:\n        /* \"#utility.yul\":1684:1708   */\n      tag_190\n        /* \"#utility.yul\":1702:1707   */\n      dup2\n        /* \"#utility.yul\":1684:1708   */\n      tag_152\n      jump\t// in\n    tag_190:\n        /* \"#utility.yul\":1677:1682   */\n      dup2\n        /* \"#utility.yul\":1674:1709   */\n      eq\n        /* \"#utility.yul\":1664:1727   */\n      tag_191\n      jumpi\n        /* \"#utility.yul\":1723:1724   */\n      0x00\n        /* \"#utility.yul\":1720:1721   */\n      0x00\n        /* \"#utility.yul\":1713:1725   */\n      revert\n        /* \"#utility.yul\":1664:1727   */\n    tag_191:\n        /* \"#utility.yul\":1611:1733   */\n      pop\n      jump\t// out\n        /* \"#utility.yul\":1739:1878   */\n    tag_155:\n        /* \"#utility.yul\":1785:1790   */\n      0x00\n        /* \"#utility.yul\":1823:1829   */\n      dup2\n        /* \"#utility.yul\":1810:1830   */\n      calldataload\n        /* \"#utility.yul\":1801:1830   */\n      swap1\n      pop\n        /* \"#utility.yul\":1839:1872   */\n      tag_193\n        /* \"#utility.yul\":1866:1871   */\n      dup2\n        /* \"#utility.yul\":1839:1872   */\n      tag_154\n      jump\t// in\n    tag_193:\n        /* \"#utility.yul\":1739:1878   */\n      swap3\n      swap2\n      pop\n      pop\n      jump\t// out\n        /* \"#utility.yul\":1884:2213   */\n    tag_25:\n        /* \"#utility.yul\":1943:1949   */\n      0x00\n        /* \"#utility.yul\":1992:1994   */\n      0x20\n        /* \"#utility.yul\":1980:1989   */\n      dup3\n        /* \"#utility.yul\":1971:1978   */\n      dup5\n        /* \"#utility.yul\":1967:1990   */\n      sub\n        /* \"#utility.yul\":1963:1995   */\n      slt\n        /* \"#utility.yul\":1960:2079   */\n      iszero\n      tag_195\n      jumpi\n        /* \"#utility.yul\":1998:2077   */\n      tag_196\n      tag_146\n      jump\t// in\n    tag_196:\n        /* \"#utility.yul\":1960:2079   */\n    tag_195:\n        /* \"#utility.yul\":2118:2119   */\n      0x00\n        /* \"#utility.yul\":2143:2196   */\n      tag_197\n        /* \"#utility.yul\":2188:2195   */\n      dup5\n        /* \"#utility.yul\":2179:2185   */\n      dup3\n        /* \"#utility.yul\":2168:2177   */\n      dup6\n        /* \"#utility.yul\":2164:2186   */\n      add\n        /* \"#utility.yul\":2143:2196   */\n      tag_155\n      jump\t// in\n    tag_197:\n        /* \"#utility.yul\":2133:2196   */\n      swap2\n      pop\n        /* \"#utility.yul\":2089:2206   */\n      pop\n        /* \"#utility.yul\":1884:2213   */\n      swap3\n      swap2\n      pop\n      pop\n      jump\t// out\n        /* \"#utility.yul\":2219:2337   */\n    tag_156:\n        /* \"#utility.yul\":2306:2330   */\n      tag_199\n        /* \"#utility.yul\":2324:2329   */\n      dup2\n        /* \"#utility.yul\":2306:2330   */\n      tag_149\n      jump\t// in\n    tag_199:\n        /* \"#utility.yul\":2301:2304   */\n      dup3\n        /* \"#utility.yul\":2294:2331   */\n      mstore\n        /* \"#utility.yul\":2219:2337   */\n      pop\n      pop\n      jump\t// out\n        /* \"#utility.yul\":2343:2565   */\n    tag_28:\n        /* \"#utility.yul\":2436:2440   */\n      0x00\n        /* \"#utility.yul\":2474:2476   */\n      0x20\n        /* \"#utility.yul\":2463:2472   */\n      dup3\n        /* \"#utility.yul\":2459:2477   */\n      add\n        /* \"#utility.yul\":2451:2477   */\n      swap1\n      pop\n        /* \"#utility.yul\":2487:2558   */\n      tag_201\n        /* \"#utility.yul\":2555:2556   */\n      0x00\n        /* \"#utility.yul\":2544:2553   */\n      dup4\n        /* \"#utility.yul\":2540:2557   */\n      add\n        /* \"#utility.yul\":2531:2537   */\n      dup5\n        /* \"#utility.yul\":2487:2558   */\n      tag_156\n      jump\t// in\n    tag_201:\n        /* \"#utility.yul\":2343:2565   */\n      swap3\n      swap2\n      pop\n      pop\n      jump\t// out\n        /* \"#utility.yul\":2571:2675   */\n    tag_157:\n        /* \"#utility.yul\":2636:2642   */\n      0x00\n        /* \"#utility.yul\":2664:2668   */\n      0x03\n        /* \"#utility.yul\":2654:2668   */\n      swap1\n      pop\n        /* \"#utility.yul\":2571:2675   */\n      swap2\n      swap1\n      pop\n      jump\t// out\n        /* \"#utility.yul\":2681:2824   */\n    tag_158:\n        /* \"#utility.yul\":2778:2789   */\n      0x00\n        /* \"#utility.yul\":2815:2818   */\n      dup2\n        /* \"#utility.yul\":2800:2818   */\n      swap1\n      pop\n        /* \"#utility.yul\":2681:2824   */\n      swap3\n      swap2\n      pop\n      pop\n      jump\t// out\n        /* \"#utility.yul\":2830:2928   */\n    tag_159:\n        /* \"#utility.yul\":2895:2899   */\n      0x00\n        /* \"#utility.yul\":2918:2921   */\n      dup2\n        /* \"#utility.yul\":2910:2921   */\n      swap1\n      pop\n        /* \"#utility.yul\":2830:2928   */\n      swap2\n      swap1\n      pop\n      jump\t// out\n        /* \"#utility.yul\":2934:3042   */\n    tag_160:\n        /* \"#utility.yul\":3011:3035   */\n      tag_206\n        /* \"#utility.yul\":3029:3034   */\n      dup2\n        /* \"#utility.yul\":3011:3035   */\n      tag_149\n      jump\t// in\n    tag_206:\n        /* \"#utility.yul\":3006:3009   */\n      dup3\n        /* \"#utility.yul\":2999:3036   */\n      mstore\n        /* \"#utility.yul\":2934:3042   */\n      pop\n      pop\n      jump\t// out\n        /* \"#utility.yul\":3048:3227   */\n    tag_161:\n        /* \"#utility.yul\":3117:3127   */\n      0x00\n        /* \"#utility.yul\":3138:3184   */\n      tag_208\n        /* \"#utility.yul\":3180:3183   */\n      dup4\n        /* \"#utility.yul\":3172:3178   */\n      dup4\n        /* \"#utility.yul\":3138:3184   */\n      tag_160\n      jump\t// in\n    tag_208:\n        /* \"#utility.yul\":3216:3220   */\n      0x20\n        /* \"#utility.yul\":3211:3214   */\n      dup4\n        /* \"#utility.yul\":3207:3221   */\n      add\n        /* \"#utility.yul\":3193:3221   */\n      swap1\n      pop\n        /* \"#utility.yul\":3048:3227   */\n      swap3\n      swap2\n      pop\n      pop\n      jump\t// out\n        /* \"#utility.yul\":3233:3344   */\n    tag_162:\n        /* \"#utility.yul\":3301:3305   */\n      0x00\n        /* \"#utility.yul\":3333:3337   */\n      0x20\n        /* \"#utility.yul\":3328:3331   */\n      dup3\n        /* \"#utility.yul\":3324:3338   */\n      add\n        /* \"#utility.yul\":3316:3338   */\n      swap1\n      pop\n        /* \"#utility.yul\":3233:3344   */\n      swap2\n      swap1\n      pop\n      jump\t// out\n        /* \"#utility.yul\":3382:4076   */\n    tag_163:\n        /* \"#utility.yul\":3518:3570   */\n      tag_211\n        /* \"#utility.yul\":3564:3569   */\n      dup2\n        /* \"#utility.yul\":3518:3570   */\n      tag_157\n      jump\t// in\n    tag_211:\n        /* \"#utility.yul\":3586:3670   */\n      tag_212\n        /* \"#utility.yul\":3663:3669   */\n      dup2\n        /* \"#utility.yul\":3658:3661   */\n      dup5\n        /* \"#utility.yul\":3586:3670   */\n      tag_158\n      jump\t// in\n    tag_212:\n        /* \"#utility.yul\":3579:3670   */\n      swap3\n      pop\n        /* \"#utility.yul\":3694:3748   */\n      tag_213\n        /* \"#utility.yul\":3742:3747   */\n      dup3\n        /* \"#utility.yul\":3694:3748   */\n      tag_159\n      jump\t// in\n    tag_213:\n        /* \"#utility.yul\":3771:3778   */\n      dup1\n        /* \"#utility.yul\":3802:3803   */\n      0x00\n        /* \"#utility.yul\":3787:4069   */\n    tag_214:\n        /* \"#utility.yul\":3812:3818   */\n      dup4\n        /* \"#utility.yul\":3809:3810   */\n      dup2\n        /* \"#utility.yul\":3806:3819   */\n      lt\n        /* \"#utility.yul\":3787:4069   */\n      iszero\n      tag_216\n      jumpi\n        /* \"#utility.yul\":3888:3894   */\n      dup2\n        /* \"#utility.yul\":3882:3895   */\n      mload\n        /* \"#utility.yul\":3915:3978   */\n      tag_217\n        /* \"#utility.yul\":3974:3977   */\n      dup8\n        /* \"#utility.yul\":3959:3972   */\n      dup3\n        /* \"#utility.yul\":3915:3978   */\n      tag_161\n      jump\t// in\n    tag_217:\n        /* \"#utility.yul\":3908:3978   */\n      swap7\n      pop\n        /* \"#utility.yul\":4001:4059   */\n      tag_218\n        /* \"#utility.yul\":4052:4058   */\n      dup4\n        /* \"#utility.yul\":4001:4059   */\n      tag_162\n      jump\t// in\n    tag_218:\n        /* \"#utility.yul\":3991:4059   */\n      swap3\n      pop\n        /* \"#utility.yul\":3847:4069   */\n      pop\n        /* \"#utility.yul\":3834:3835   */\n      0x01\n        /* \"#utility.yul\":3831:3832   */\n      dup2\n        /* \"#utility.yul\":3827:3836   */\n      add\n        /* \"#utility.yul\":3822:3836   */\n      swap1\n      pop\n        /* \"#utility.yul\":3787:4069   */\n      jump(tag_214)\n    tag_216:\n        /* \"#utility.yul\":3791:3805   */\n      pop\n        /* \"#utility.yul\":3494:4076   */\n      pop\n      pop\n      pop\n        /* \"#utility.yul\":3382:4076   */\n      pop\n      pop\n      jump\t// out\n        /* \"#utility.yul\":4082:4396   */\n    tag_45:\n        /* \"#utility.yul\":4221:4225   */\n      0x00\n        /* \"#utility.yul\":4259:4261   */\n      0x60\n        /* \"#utility.yul\":4248:4257   */\n      dup3\n        /* \"#utility.yul\":4244:4262   */\n      add\n        /* \"#utility.yul\":4236:4262   */\n      swap1\n      pop\n        /* \"#utility.yul\":4272:4389   */\n      tag_220\n        /* \"#utility.yul\":4386:4387   */\n      0x00\n        /* \"#utility.yul\":4375:4384   */\n      dup4\n        /* \"#utility.yul\":4371:4388   */\n      add\n        /* \"#utility.yul\":4362:4368   */\n      dup5\n        /* \"#utility.yul\":4272:4389   */\n      tag_163\n      jump\t// in\n    tag_220:\n        /* \"#utility.yul\":4082:4396   */\n      swap3\n      swap2\n      pop\n      pop\n      jump\t// out\n        /* \"#utility.yul\":4402:4571   */\n    tag_164:\n        /* \"#utility.yul\":4486:4497   */\n      0x00\n        /* \"#utility.yul\":4520:4526   */\n      dup3\n        /* \"#utility.yul\":4515:4518   */\n      dup3\n        /* \"#utility.yul\":4508:4527   */\n      mstore\n        /* \"#utility.yul\":4560:4564   */\n      0x20\n        /* \"#utility.yul\":4555:4558   */\n      dup3\n        /* \"#utility.yul\":4551:4565   */\n      add\n        /* \"#utility.yul\":4536:4565   */\n      swap1\n      pop\n        /* \"#utility.yul\":4402:4571   */\n      swap3\n      swap2\n      pop\n      pop\n      jump\t// out\n        /* \"#utility.yul\":4577:4802   */\n    tag_165:\n        /* \"#utility.yul\":4717:4751   */\n      0x446f6e6174696f6e20616d6f756e74206d757374206265206772656174657220\n        /* \"#utility.yul\":4713:4714   */\n      0x00\n        /* \"#utility.yul\":4705:4711   */\n      dup3\n        /* \"#utility.yul\":4701:4715   */\n      add\n        /* \"#utility.yul\":4694:4752   */\n      mstore\n        /* \"#utility.yul\":4786:4794   */\n      0x7468616e20300000000000000000000000000000000000000000000000000000\n        /* \"#utility.yul\":4781:4783   */\n      0x20\n        /* \"#utility.yul\":4773:4779   */\n      dup3\n        /* \"#utility.yul\":4769:4784   */\n      add\n        /* \"#utility.yul\":4762:4795   */\n      mstore\n        /* \"#utility.yul\":4577:4802   */\n      pop\n      jump\t// out\n        /* \"#utility.yul\":4808:5174   */\n    tag_166:\n        /* \"#utility.yul\":4950:4953   */\n      0x00\n        /* \"#utility.yul\":4971:5038   */\n      tag_224\n        /* \"#utility.yul\":5035:5037   */\n      0x26\n        /* \"#utility.yul\":5030:5033   */\n      dup4\n        /* \"#utility.yul\":4971:5038   */\n      tag_164\n      jump\t// in\n    tag_224:\n        /* \"#utility.yul\":4964:5038   */\n      swap2\n      pop\n        /* \"#utility.yul\":5047:5140   */\n      tag_225\n        /* \"#utility.yul\":5136:5139   */\n      dup3\n        /* \"#utility.yul\":5047:5140   */\n      tag_165\n      jump\t// in\n    tag_225:\n        /* \"#utility.yul\":5165:5167   */\n      0x40\n        /* \"#utility.yul\":5160:5163   */\n      dup3\n        /* \"#utility.yul\":5156:5168   */\n      add\n        /* \"#utility.yul\":5149:5168   */\n      swap1\n      pop\n        /* \"#utility.yul\":4808:5174   */\n      swap2\n      swap1\n      pop\n      jump\t// out\n        /* \"#utility.yul\":5180:5599   */\n    tag_76:\n        /* \"#utility.yul\":5346:5350   */\n      0x00\n        /* \"#utility.yul\":5384:5386   */\n      0x20\n        /* \"#utility.yul\":5373:5382   */\n      dup3\n        /* \"#utility.yul\":5369:5387   */\n      add\n        /* \"#utility.yul\":5361:5387   */\n      swap1\n      pop\n        /* \"#utility.yul\":5433:5442   */\n      dup2\n        /* \"#utility.yul\":5427:5431   */\n      dup2\n        /* \"#utility.yul\":5423:5443   */\n      sub\n        /* \"#utility.yul\":5419:5420   */\n      0x00\n        /* \"#utility.yul\":5408:5417   */\n      dup4\n        /* \"#utility.yul\":5404:5421   */\n      add\n        /* \"#utility.yul\":5397:5444   */\n      mstore\n        /* \"#utility.yul\":5461:5592   */\n      tag_227\n        /* \"#utility.yul\":5587:5591   */\n      dup2\n        /* \"#utility.yul\":5461:5592   */\n      tag_166\n      jump\t// in\n    tag_227:\n        /* \"#utility.yul\":5453:5592   */\n      swap1\n      pop\n        /* \"#utility.yul\":5180:5599   */\n      swap2\n      swap1\n      pop\n      jump\t// out\n        /* \"#utility.yul\":5605:5785   */\n    tag_167:\n        /* \"#utility.yul\":5653:5730   */\n      0x4e487b7100000000000000000000000000000000000000000000000000000000\n        /* \"#utility.yul\":5650:5651   */\n      0x00\n        /* \"#utility.yul\":5643:5731   */\n      mstore\n        /* \"#utility.yul\":5750:5754   */\n      0x11\n        /* \"#utility.yul\":5747:5748   */\n      0x04\n        /* \"#utility.yul\":5740:5755   */\n      mstore\n        /* \"#utility.yul\":5774:5778   */\n      0x24\n        /* \"#utility.yul\":5771:5772   */\n      0x00\n        /* \"#utility.yul\":5764:5779   */\n      revert\n        /* \"#utility.yul\":5791:5982   */\n    tag_78:\n        /* \"#utility.yul\":5831:5834   */\n      0x00\n        /* \"#utility.yul\":5850:5870   */\n      tag_230\n        /* \"#utility.yul\":5868:5869   */\n      dup3\n        /* \"#utility.yul\":5850:5870   */\n      tag_152\n      jump\t// in\n    tag_230:\n        /* \"#utility.yul\":5845:5870   */\n      swap2\n      pop\n        /* \"#utility.yul\":5884:5904   */\n      tag_231\n        /* \"#utility.yul\":5902:5903   */\n      dup4\n        /* \"#utility.yul\":5884:5904   */\n      tag_152\n      jump\t// in\n    tag_231:\n        /* \"#utility.yul\":5879:5904   */\n      swap3\n      pop\n        /* \"#utility.yul\":5927:5928   */\n      dup3\n        /* \"#utility.yul\":5924:5925   */\n      dup3\n        /* \"#utility.yul\":5920:5929   */\n      add\n        /* \"#utility.yul\":5913:5929   */\n      swap1\n      pop\n        /* \"#utility.yul\":5948:5951   */\n      dup1\n        /* \"#utility.yul\":5945:5946   */\n      dup3\n        /* \"#utility.yul\":5942:5952   */\n      gt\n        /* \"#utility.yul\":5939:5975   */\n      iszero\n      tag_232\n      jumpi\n        /* \"#utility.yul\":5955:5973   */\n      tag_233\n      tag_167\n      jump\t// in\n    tag_233:\n        /* \"#utility.yul\":5939:5975   */\n    tag_232:\n        /* \"#utility.yul\":5791:5982   */\n      swap3\n      swap2\n      pop\n      pop\n      jump\t// out\n        /* \"#utility.yul\":5988:6168   */\n    tag_102:\n        /* \"#utility.yul\":6036:6113   */\n      0x4e487b7100000000000000000000000000000000000000000000000000000000\n        /* \"#utility.yul\":6033:6034   */\n      0x00\n        /* \"#utility.yul\":6026:6114   */\n      mstore\n        /* \"#utility.yul\":6133:6137   */\n      0x32\n        /* \"#utility.yul\":6130:6131   */\n      0x04\n        /* \"#utility.yul\":6123:6138   */\n      mstore\n        /* \"#utility.yul\":6157:6161   */\n      0x24\n        /* \"#utility.yul\":6154:6155   */\n      0x00\n        /* \"#utility.yul\":6147:6162   */\n      revert\n        /* \"#utility.yul\":6174:6368   */\n    tag_123:\n        /* \"#utility.yul\":6214:6218   */\n      0x00\n        /* \"#utility.yul\":6234:6254   */\n      tag_236\n        /* \"#utility.yul\":6252:6253   */\n      dup3\n        /* \"#utility.yul\":6234:6254   */\n      tag_152\n      jump\t// in\n    tag_236:\n        /* \"#utility.yul\":6229:6254   */\n      swap2\n      pop\n        /* \"#utility.yul\":6268:6288   */\n      tag_237\n        /* \"#utility.yul\":6286:6287   */\n      dup4\n        /* \"#utility.yul\":6268:6288   */\n      tag_152\n      jump\t// in\n    tag_237:\n        /* \"#utility.yul\":6263:6288   */\n      swap3\n      pop\n        /* \"#utility.yul\":6312:6313   */\n      dup3\n        /* \"#utility.yul\":6309:6310   */\n      dup3\n        /* \"#utility.yul\":6305:6314   */\n      sub\n        /* \"#utility.yul\":6297:6314   */\n      swap1\n      pop\n        /* \"#utility.yul\":6336:6337   */\n      dup2\n        /* \"#utility.yul\":6330:6334   */\n      dup2\n        /* \"#utility.yul\":6327:6338   */\n      gt\n        /* \"#utility.yul\":6324:6361   */\n      iszero\n      tag_238\n      jumpi\n        /* \"#utility.yul\":6341:6359   */\n      tag_239\n      tag_167\n      jump\t// in\n    tag_239:\n        /* \"#utility.yul\":6324:6361   */\n    tag_238:\n        /* \"#utility.yul\":6174:6368   */\n      swap3\n      swap2\n      pop\n      pop\n      jump\t// out\n        /* \"#utility.yul\":6374:6545   */\n    tag_140:\n        /* \"#utility.yul\":6413:6416   */\n      0x00\n        /* \"#utility.yul\":6436:6460   */\n      tag_241\n        /* \"#utility.yul\":6454:6459   */\n      dup3\n        /* \"#utility.yul\":6436:6460   */\n      tag_152\n      jump\t// in\n    tag_241:\n        /* \"#utility.yul\":6427:6460   */\n      swap2\n      pop\n        /* \"#utility.yul\":6482:6486   */\n      0x00\n        /* \"#utility.yul\":6475:6480   */\n      dup3\n        /* \"#utility.yul\":6472:6487   */\n      sub\n        /* \"#utility.yul\":6469:6510   */\n      tag_242\n      jumpi\n        /* \"#utility.yul\":6490:6508   */\n      tag_243\n      tag_167\n      jump\t// in\n    tag_243:\n        /* \"#utility.yul\":6469:6510   */\n    tag_242:\n        /* \"#utility.yul\":6537:6538   */\n      0x01\n        /* \"#utility.yul\":6530:6535   */\n      dup3\n        /* \"#utility.yul\":6526:6539   */\n      sub\n        /* \"#utility.yul\":6519:6539   */\n      swap1\n      pop\n        /* \"#utility.yul\":6374:6545   */\n      swap2\n      swap1\n      pop\n      jump\t// out\n\n    auxdata: 0xa26469706673582212204b830fe1847696b01598cba2c5995abfd6f69bf2faffa4bc9c8616ddabca3ad264736f6c634300081e0033\n}\n",
				"bytecode": {
					"linkReferences": {},
					"object": "608060405234801561000f575f5ffd5b506040516110a03803806110a0833981810160405281019061003191906101bf565b335f73ffffffffffffffffffffffffffffffffffffffff168173ffffffffffffffffffffffffffffffffffffffff16036100a2575f6040517f1e4fbdf7000000000000000000000000000000000000000000000000000000008152600401610099919061023c565b60405180910390fd5b6100b1816100c760201b60201c565b5081600681905550806007819055505050610255565b5f5f5f9054906101000a900473ffffffffffffffffffffffffffffffffffffffff169050815f5f6101000a81548173ffffffffffffffffffffffffffffffffffffffff021916908373ffffffffffffffffffffffffffffffffffffffff1602179055508173ffffffffffffffffffffffffffffffffffffffff168173ffffffffffffffffffffffffffffffffffffffff167f8be0079c531659141344cd1fd0a4f28419497f9722a3daafe3b4186f6b6457e060405160405180910390a35050565b5f5ffd5b5f819050919050565b61019e8161018c565b81146101a8575f5ffd5b50565b5f815190506101b981610195565b92915050565b5f5f604083850312156101d5576101d4610188565b5b5f6101e2858286016101ab565b92505060206101f3858286016101ab565b9150509250929050565b5f73ffffffffffffffffffffffffffffffffffffffff82169050919050565b5f610226826101fd565b9050919050565b6102368161021c565b82525050565b5f60208201905061024f5f83018461022d565b92915050565b610e3e806102625f395ff3fe608060405260043610610085575f3560e01c80638da5cb5b116100585780638da5cb5b1461012d578063cc6cb19a14610157578063d6387ed814610193578063ed88c68e146101bd578063f2fde38b146101c757610085565b80633ccfd60b14610089578063410a1d321461009f5780635cbaddab146100db578063715018a614610117575b5f5ffd5b348015610094575f5ffd5b5061009d6101ef565b005b3480156100aa575f5ffd5b506100c560048036038101906100c09190610aec565b610249565b6040516100d29190610b2f565b60405180910390f35b3480156100e6575f5ffd5b5061010160048036038101906100fc9190610b72565b61028f565b60405161010e9190610bac565b60405180910390f35b348015610122575f5ffd5b5061012b6102c3565b005b348015610138575f5ffd5b506101416102d6565b60405161014e9190610bac565b60405180910390f35b348015610162575f5ffd5b5061017d60048036038101906101789190610aec565b6102fd565b60405161018a9190610b2f565b60405180910390f35b34801561019e575f5ffd5b506101a7610312565b6040516101b49190610c6a565b60405180910390f35b6101c5610391565b005b3480156101d2575f5ffd5b506101ed60048036038101906101e89190610aec565b61047f565b005b6101f7610503565b5f4790506102036102d6565b73ffffffffffffffffffffffffffffffffffffffff166108fc8290811502906040515f60405180830381858888f19350505050158015610245573d5f5f3e3d5ffd5b5050565b5f60025f8373ffffffffffffffffffffffffffffffffffffffff1673ffffffffffffffffffffffffffffffffffffffff1681526020019081526020015f20549050919050565b6003816003811061029e575f80fd5b015f915054906101000a900473ffffffffffffffffffffffffffffffffffffffff1681565b6102cb610503565b6102d45f61058a565b565b5f5f5f9054906101000a900473ffffffffffffffffffffffffffffffffffffffff16905090565b6002602052805f5260405f205f915090505481565b61031a610a6c565b60038080602002604051908101604052809291908260038015610387576020028201915b815f9054906101000a900473ffffffffffffffffffffffffffffffffffffffff1673ffffffffffffffffffffffffffffffffffffffff168152602001906001019080831161033e575b5050505050905090565b5f34116103d3576040517f08c379a00000000000000000000000000000000000000000000000000000000081526004016103ca90610d03565b60405180910390fd5b3460025f3373ffffffffffffffffffffffffffffffffffffffff1673ffffffffffffffffffffffffffffffffffffffff1681526020019081526020015f205f82825461041f9190610d4e565b925050819055503373ffffffffffffffffffffffffffffffffffffffff167f5d8bc849764969eb1bcc6d0a2f55999d0167c1ccec240a4f39cf664ca9c4148e3460405161046c9190610b2f565b60405180910390a261047d3361064b565b565b610487610503565b5f73ffffffffffffffffffffffffffffffffffffffff168173ffffffffffffffffffffffffffffffffffffffff16036104f7575f6040517f1e4fbdf70000000000000000000000000000000000000000000000000000000081526004016104ee9190610bac565b60405180910390fd5b6105008161058a565b50565b61050b610a65565b73ffffffffffffffffffffffffffffffffffffffff166105296102d6565b73ffffffffffffffffffffffffffffffffffffffff16146105885761054c610a65565b6040517f118cdaa700000000000000000000000000000000000000000000000000000000815260040161057f9190610bac565b60405180910390fd5b565b5f5f5f9054906101000a900473ffffffffffffffffffffffffffffffffffffffff169050815f5f6101000a81548173ffffffffffffffffffffffffffffffffffffffff021916908373ffffffffffffffffffffffffffffffffffffffff1602179055508173ffffffffffffffffffffffffffffffffffffffff168173ffffffffffffffffffffffffffffffffffffffff167f8be0079c531659141344cd1fd0a4f28419497f9722a3daafe3b4186f6b6457e060405160405180910390a35050565b5f60025f8373ffffffffffffffffffffffffffffffffffffffff1673ffffffffffffffffffffffffffffffffffffffff1681526020019081526020015f205490505f5f90505b6003811015610715578273ffffffffffffffffffffffffffffffffffffffff16600382600381106106c5576106c4610d81565b5b015f9054906101000a900473ffffffffffffffffffffffffffffffffffffffff1673ffffffffffffffffffffffffffffffffffffffff1603610708575050610a62565b8080600101915050610691565b505f5f90505b6003811015610a5f575f73ffffffffffffffffffffffffffffffffffffffff166003826003811061074f5761074e610d81565b5b015f9054906101000a900473ffffffffffffffffffffffffffffffffffffffff1673ffffffffffffffffffffffffffffffffffffffff16036107e55782600382600381106107a05761079f610d81565b5b015f6101000a81548173ffffffffffffffffffffffffffffffffffffffff021916908373ffffffffffffffffffffffffffffffffffffffff1602179055505050610a62565b60025f600383600381106107fc576107fb610d81565b5b015f9054906101000a900473ffffffffffffffffffffffffffffffffffffffff1673ffffffffffffffffffffffffffffffffffffffff1673ffffffffffffffffffffffffffffffffffffffff1681526020019081526020015f2054821115610a52575f600290505b5f8111156109f75760025f600360018461087e9190610dae565b6003811061088f5761088e610d81565b5b015f9054906101000a900473ffffffffffffffffffffffffffffffffffffffff1673ffffffffffffffffffffffffffffffffffffffff1673ffffffffffffffffffffffffffffffffffffffff1681526020019081526020015f20548311156109895760036001826109009190610dae565b6003811061091157610910610d81565b5b015f9054906101000a900473ffffffffffffffffffffffffffffffffffffffff166003826003811061094657610945610d81565b5b015f6101000a81548173ffffffffffffffffffffffffffffffffffffffff021916908373ffffffffffffffffffffffffffffffffffffffff1602179055506109e4565b836003826003811061099e5761099d610d81565b5b015f6101000a81548173ffffffffffffffffffffffffffffffffffffffff021916908373ffffffffffffffffffffffffffffffffffffffff160217905550505050610a62565b80806109ef90610de1565b915050610864565b508260035f60038110610a0d57610a0c610d81565b5b015f6101000a81548173ffffffffffffffffffffffffffffffffffffffff021916908373ffffffffffffffffffffffffffffffffffffffff1602179055505050610a62565b808060010191505061071b565b50505b50565b5f33905090565b6040518060600160405280600390602082028036833780820191505090505090565b5f5ffd5b5f73ffffffffffffffffffffffffffffffffffffffff82169050919050565b5f610abb82610a92565b9050919050565b610acb81610ab1565b8114610ad5575f5ffd5b50565b5f81359050610ae681610ac2565b92915050565b5f60208284031215610b0157610b00610a8e565b5b5f610b0e84828501610ad8565b91505092915050565b5f819050919050565b610b2981610b17565b82525050565b5f602082019050610b425f830184610b20565b92915050565b610b5181610b17565b8114610b5b575f5ffd5b50565b5f81359050610b6c81610b48565b92915050565b5f60208284031215610b8757610b86610a8e565b5b5f610b9484828501610b5e565b91505092915050565b610ba681610ab1565b82525050565b5f602082019050610bbf5f830184610b9d565b92915050565b5f60039050919050565b5f81905092915050565b5f819050919050565b610beb81610ab1565b82525050565b5f610bfc8383610be2565b60208301905092915050565b5f602082019050919050565b610c1d81610bc5565b610c278184610bcf565b9250610c3282610bd9565b805f5b83811015610c62578151610c498782610bf1565b9650610c5483610c08565b925050600181019050610c35565b505050505050565b5f606082019050610c7d5f830184610c14565b92915050565b5f82825260208201905092915050565b7f446f6e6174696f6e20616d6f756e74206d7573742062652067726561746572205f8201527f7468616e20300000000000000000000000000000000000000000000000000000602082015250565b5f610ced602683610c83565b9150610cf882610c93565b604082019050919050565b5f6020820190508181035f830152610d1a81610ce1565b9050919050565b7f4e487b71000000000000000000000000000000000000000000000000000000005f52601160045260245ffd5b5f610d5882610b17565b9150610d6383610b17565b9250828201905080821115610d7b57610d7a610d21565b5b92915050565b7f4e487b71000000000000000000000000000000000000000000000000000000005f52603260045260245ffd5b5f610db882610b17565b9150610dc383610b17565b9250828203905081811115610ddb57610dda610d21565b5b92915050565b5f610deb82610b17565b91505f8203610dfd57610dfc610d21565b5b60018203905091905056fea26469706673582212204b830fe1847696b01598cba2c5995abfd6f69bf2faffa4bc9c8616ddabca3ad264736f6c634300081e0033",
					"opcodes": "PUSH1 0x80 PUSH1 0x40 MSTORE CALLVALUE DUP1 ISZERO PUSH2 0xF JUMPI PUSH0 PUSH0 REVERT JUMPDEST POP PUSH1 0x40 MLOAD PUSH2 0x10A0 CODESIZE SUB DUP1 PUSH2 0x10A0 DUP4 CODECOPY DUP2 DUP2 ADD PUSH1 0x40 MSTORE DUP2 ADD SWAP1 PUSH2 0x31 SWAP2 SWAP1 PUSH2 0x1BF JUMP JUMPDEST CALLER PUSH0 PUSH20 0xFFFFFFFFFFFFFFFFFFFFFFFFFFFFFFFFFFFFFFFF AND DUP2 PUSH20 0xFFFFFFFFFFFFFFFFFFFFFFFFFFFFFFFFFFFFFFFF AND SUB PUSH2 0xA2 JUMPI PUSH0 PUSH1 0x40 MLOAD PUSH32 0x1E4FBDF700000000000000000000000000000000000000000000000000000000 DUP2 MSTORE PUSH1 0x4 ADD PUSH2 0x99 SWAP2 SWAP1 PUSH2 0x23C JUMP JUMPDEST PUSH1 0x40 MLOAD DUP1 SWAP2 SUB SWAP1 REVERT JUMPDEST PUSH2 0xB1 DUP2 PUSH2 0xC7 PUSH1 0x20 SHL PUSH1 0x20 SHR JUMP JUMPDEST POP DUP2 PUSH1 0x6 DUP2 SWAP1 SSTORE POP DUP1 PUSH1 0x7 DUP2 SWAP1 SSTORE POP POP POP PUSH2 0x255 JUMP JUMPDEST PUSH0 PUSH0 PUSH0 SWAP1 SLOAD SWAP1 PUSH2 0x100 EXP SWAP1 DIV PUSH20 0xFFFFFFFFFFFFFFFFFFFFFFFFFFFFFFFFFFFFFFFF AND SWAP1 POP DUP2 PUSH0 PUSH0 PUSH2 0x100 EXP DUP2 SLOAD DUP2 PUSH20 0xFFFFFFFFFFFFFFFFFFFFFFFFFFFFFFFFFFFFFFFF MUL NOT AND SWAP1 DUP4 PUSH20 0xFFFFFFFFFFFFFFFFFFFFFFFFFFFFFFFFFFFFFFFF AND MUL OR SWAP1 SSTORE POP DUP2 PUSH20 0xFFFFFFFFFFFFFFFFFFFFFFFFFFFFFFFFFFFFFFFF AND DUP2 PUSH20 0xFFFFFFFFFFFFFFFFFFFFFFFFFFFFFFFFFFFFFFFF AND PUSH32 0x8BE0079C531659141344CD1FD0A4F28419497F9722A3DAAFE3B4186F6B6457E0 PUSH1 0x40 MLOAD PUSH1 0x40 MLOAD DUP1 SWAP2 SUB SWAP1 LOG3 POP POP JUMP JUMPDEST PUSH0 PUSH0 REVERT JUMPDEST PUSH0 DUP2 SWAP1 POP SWAP2 SWAP1 POP JUMP JUMPDEST PUSH2 0x19E DUP2 PUSH2 0x18C JUMP JUMPDEST DUP2 EQ PUSH2 0x1A8 JUMPI PUSH0 PUSH0 REVERT JUMPDEST POP JUMP JUMPDEST PUSH0 DUP2 MLOAD SWAP1 POP PUSH2 0x1B9 DUP2 PUSH2 0x195 JUMP JUMPDEST SWAP3 SWAP2 POP POP JUMP JUMPDEST PUSH0 PUSH0 PUSH1 0x40 DUP4 DUP6 SUB SLT ISZERO PUSH2 0x1D5 JUMPI PUSH2 0x1D4 PUSH2 0x188 JUMP JUMPDEST JUMPDEST PUSH0 PUSH2 0x1E2 DUP6 DUP3 DUP7 ADD PUSH2 0x1AB JUMP JUMPDEST SWAP3 POP POP PUSH1 0x20 PUSH2 0x1F3 DUP6 DUP3 DUP7 ADD PUSH2 0x1AB JUMP JUMPDEST SWAP2 POP POP SWAP3 POP SWAP3 SWAP1 POP JUMP JUMPDEST PUSH0 PUSH20 0xFFFFFFFFFFFFFFFFFFFFFFFFFFFFFFFFFFFFFFFF DUP3 AND SWAP1 POP SWAP2 SWAP1 POP JUMP JUMPDEST PUSH0 PUSH2 0x226 DUP3 PUSH2 0x1FD JUMP JUMPDEST SWAP1 POP SWAP2 SWAP1 POP JUMP JUMPDEST PUSH2 0x236 DUP2 PUSH2 0x21C JUMP JUMPDEST DUP3 MSTORE POP POP JUMP JUMPDEST PUSH0 PUSH1 0x20 DUP3 ADD SWAP1 POP PUSH2 0x24F PUSH0 DUP4 ADD DUP5 PUSH2 0x22D JUMP JUMPDEST SWAP3 SWAP2 POP POP JUMP JUMPDEST PUSH2 0xE3E DUP1 PUSH2 0x262 PUSH0 CODECOPY PUSH0 RETURN INVALID PUSH1 0x80 PUSH1 0x40 MSTORE PUSH1 0x4 CALLDATASIZE LT PUSH2 0x85 JUMPI PUSH0 CALLDATALOAD PUSH1 0xE0 SHR DUP1 PUSH4 0x8DA5CB5B GT PUSH2 0x58 JUMPI DUP1 PUSH4 0x8DA5CB5B EQ PUSH2 0x12D JUMPI DUP1 PUSH4 0xCC6CB19A EQ PUSH2 0x157 JUMPI DUP1 PUSH4 0xD6387ED8 EQ PUSH2 0x193 JUMPI DUP1 PUSH4 0xED88C68E EQ PUSH2 0x1BD JUMPI DUP1 PUSH4 0xF2FDE38B EQ PUSH2 0x1C7 JUMPI PUSH2 0x85 JUMP JUMPDEST DUP1 PUSH4 0x3CCFD60B EQ PUSH2 0x89 JUMPI DUP1 PUSH4 0x410A1D32 EQ PUSH2 0x9F JUMPI DUP1 PUSH4 0x5CBADDAB EQ PUSH2 0xDB JUMPI DUP1 PUSH4 0x715018A6 EQ PUSH2 0x117 JUMPI JUMPDEST PUSH0 PUSH0 REVERT JUMPDEST CALLVALUE DUP1 ISZERO PUSH2 0x94 JUMPI PUSH0 PUSH0 REVERT JUMPDEST POP PUSH2 0x9D PUSH2 0x1EF JUMP JUMPDEST STOP JUMPDEST CALLVALUE DUP1 ISZERO PUSH2 0xAA JUMPI PUSH0 PUSH0 REVERT JUMPDEST POP PUSH2 0xC5 PUSH1 0x4 DUP1 CALLDATASIZE SUB DUP2 ADD SWAP1 PUSH2 0xC0 SWAP2 SWAP1 PUSH2 0xAEC JUMP JUMPDEST PUSH2 0x249 JUMP JUMPDEST PUSH1 0x40 MLOAD PUSH2 0xD2 SWAP2 SWAP1 PUSH2 0xB2F JUMP JUMPDEST PUSH1 0x40 MLOAD DUP1 SWAP2 SUB SWAP1 RETURN JUMPDEST CALLVALUE DUP1 ISZERO PUSH2 0xE6 JUMPI PUSH0 PUSH0 REVERT JUMPDEST POP PUSH2 0x101 PUSH1 0x4 DUP1 CALLDATASIZE SUB DUP2 ADD SWAP1 PUSH2 0xFC SWAP2 SWAP1 PUSH2 0xB72 JUMP JUMPDEST PUSH2 0x28F JUMP JUMPDEST PUSH1 0x40 MLOAD PUSH2 0x10E SWAP2 SWAP1 PUSH2 0xBAC JUMP JUMPDEST PUSH1 0x40 MLOAD DUP1 SWAP2 SUB SWAP1 RETURN JUMPDEST CALLVALUE DUP1 ISZERO PUSH2 0x122 JUMPI PUSH0 PUSH0 REVERT JUMPDEST POP PUSH2 0x12B PUSH2 0x2C3 JUMP JUMPDEST STOP JUMPDEST CALLVALUE DUP1 ISZERO PUSH2 0x138 JUMPI PUSH0 PUSH0 REVERT JUMPDEST POP PUSH2 0x141 PUSH2 0x2D6 JUMP JUMPDEST PUSH1 0x40 MLOAD PUSH2 0x14E SWAP2 SWAP1 PUSH2 0xBAC JUMP JUMPDEST PUSH1 0x40 MLOAD DUP1 SWAP2 SUB SWAP1 RETURN JUMPDEST CALLVALUE DUP1 ISZERO PUSH2 0x162 JUMPI PUSH0 PUSH0 REVERT JUMPDEST POP PUSH2 0x17D PUSH1 0x4 DUP1 CALLDATASIZE SUB DUP2 ADD SWAP1 PUSH2 0x178 SWAP2 SWAP1 PUSH2 0xAEC JUMP JUMPDEST PUSH2 0x2FD JUMP JUMPDEST PUSH1 0x40 MLOAD PUSH2 0x18A SWAP2 SWAP1 PUSH2 0xB2F JUMP JUMPDEST PUSH1 0x40 MLOAD DUP1 SWAP2 SUB SWAP1 RETURN JUMPDEST CALLVALUE DUP1 ISZERO PUSH2 0x19E JUMPI PUSH0 PUSH0 REVERT JUMPDEST POP PUSH2 0x1A7 PUSH2 0x312 JUMP JUMPDEST PUSH1 0x40 MLOAD PUSH2 0x1B4 SWAP2 SWAP1 PUSH2 0xC6A JUMP JUMPDEST PUSH1 0x40 MLOAD DUP1 SWAP2 SUB SWAP1 RETURN JUMPDEST PUSH2 0x1C5 PUSH2 0x391 JUMP JUMPDEST STOP JUMPDEST CALLVALUE DUP1 ISZERO PUSH2 0x1D2 JUMPI PUSH0 PUSH0 REVERT JUMPDEST POP PUSH2 0x1ED PUSH1 0x4 DUP1 CALLDATASIZE SUB DUP2 ADD SWAP1 PUSH2 0x1E8 SWAP2 SWAP1 PUSH2 0xAEC JUMP JUMPDEST PUSH2 0x47F JUMP JUMPDEST STOP JUMPDEST PUSH2 0x1F7 PUSH2 0x503 JUMP JUMPDEST PUSH0 SELFBALANCE SWAP1 POP PUSH2 0x203 PUSH2 0x2D6 JUMP JUMPDEST PUSH20 0xFFFFFFFFFFFFFFFFFFFFFFFFFFFFFFFFFFFFFFFF AND PUSH2 0x8FC DUP3 SWAP1 DUP2 ISZERO MUL SWAP1 PUSH1 0x40 MLOAD PUSH0 PUSH1 0x40 MLOAD DUP1 DUP4 SUB DUP2 DUP6 DUP9 DUP9 CALL SWAP4 POP POP POP POP ISZERO DUP1 ISZERO PUSH2 0x245 JUMPI RETURNDATASIZE PUSH0 PUSH0 RETURNDATACOPY RETURNDATASIZE PUSH0 REVERT JUMPDEST POP POP JUMP JUMPDEST PUSH0 PUSH1 0x2 PUSH0 DUP4 PUSH20 0xFFFFFFFFFFFFFFFFFFFFFFFFFFFFFFFFFFFFFFFF AND PUSH20 0xFFFFFFFFFFFFFFFFFFFFFFFFFFFFFFFFFFFFFFFF AND DUP2 MSTORE PUSH1 0x20 ADD SWAP1 DUP2 MSTORE PUSH1 0x20 ADD PUSH0 KECCAK256 SLOAD SWAP1 POP SWAP2 SWAP1 POP JUMP JUMPDEST PUSH1 0x3 DUP2 PUSH1 0x3 DUP2 LT PUSH2 0x29E JUMPI PUSH0 DUP1 REVERT JUMPDEST ADD PUSH0 SWAP2 POP SLOAD SWAP1 PUSH2 0x100 EXP SWAP1 DIV PUSH20 0xFFFFFFFFFFFFFFFFFFFFFFFFFFFFFFFFFFFFFFFF AND DUP2 JUMP JUMPDEST PUSH2 0x2CB PUSH2 0x503 JUMP JUMPDEST PUSH2 0x2D4 PUSH0 PUSH2 0x58A JUMP JUMPDEST JUMP JUMPDEST PUSH0 PUSH0 PUSH0 SWAP1 SLOAD SWAP1 PUSH2 0x100 EXP SWAP1 DIV PUSH20 0xFFFFFFFFFFFFFFFFFFFFFFFFFFFFFFFFFFFFFFFF AND SWAP1 POP SWAP1 JUMP JUMPDEST PUSH1 0x2 PUSH1 0x20 MSTORE DUP1 PUSH0 MSTORE PUSH1 0x40 PUSH0 KECCAK256 PUSH0 SWAP2 POP SWAP1 POP SLOAD DUP2 JUMP JUMPDEST PUSH2 0x31A PUSH2 0xA6C JUMP JUMPDEST PUSH1 0x3 DUP1 DUP1 PUSH1 0x20 MUL PUSH1 0x40 MLOAD SWAP1 DUP2 ADD PUSH1 0x40 MSTORE DUP1 SWAP3 SWAP2 SWAP1 DUP3 PUSH1 0x3 DUP1 ISZERO PUSH2 0x387 JUMPI PUSH1 0x20 MUL DUP3 ADD SWAP2 JUMPDEST DUP2 PUSH0 SWAP1 SLOAD SWAP1 PUSH2 0x100 EXP SWAP1 DIV PUSH20 0xFFFFFFFFFFFFFFFFFFFFFFFFFFFFFFFFFFFFFFFF AND PUSH20 0xFFFFFFFFFFFFFFFFFFFFFFFFFFFFFFFFFFFFFFFF AND DUP2 MSTORE PUSH1 0x20 ADD SWAP1 PUSH1 0x1 ADD SWAP1 DUP1 DUP4 GT PUSH2 0x33E JUMPI JUMPDEST POP POP POP POP POP SWAP1 POP SWAP1 JUMP JUMPDEST PUSH0 CALLVALUE GT PUSH2 0x3D3 JUMPI PUSH1 0x40 MLOAD PUSH32 0x8C379A000000000000000000000000000000000000000000000000000000000 DUP2 MSTORE PUSH1 0x4 ADD PUSH2 0x3CA SWAP1 PUSH2 0xD03 JUMP JUMPDEST PUSH1 0x40 MLOAD DUP1 SWAP2 SUB SWAP1 REVERT JUMPDEST CALLVALUE PUSH1 0x2 PUSH0 CALLER PUSH20 0xFFFFFFFFFFFFFFFFFFFFFFFFFFFFFFFFFFFFFFFF AND PUSH20 0xFFFFFFFFFFFFFFFFFFFFFFFFFFFFFFFFFFFFFFFF AND DUP2 MSTORE PUSH1 0x20 ADD SWAP1 DUP2 MSTORE PUSH1 0x20 ADD PUSH0 KECCAK256 PUSH0 DUP3 DUP3 SLOAD PUSH2 0x41F SWAP2 SWAP1 PUSH2 0xD4E JUMP JUMPDEST SWAP3 POP POP DUP2 SWAP1 SSTORE POP CALLER PUSH20 0xFFFFFFFFFFFFFFFFFFFFFFFFFFFFFFFFFFFFFFFF AND PUSH32 0x5D8BC849764969EB1BCC6D0A2F55999D0167C1CCEC240A4F39CF664CA9C4148E CALLVALUE PUSH1 0x40 MLOAD PUSH2 0x46C SWAP2 SWAP1 PUSH2 0xB2F JUMP JUMPDEST PUSH1 0x40 MLOAD DUP1 SWAP2 SUB SWAP1 LOG2 PUSH2 0x47D CALLER PUSH2 0x64B JUMP JUMPDEST JUMP JUMPDEST PUSH2 0x487 PUSH2 0x503 JUMP JUMPDEST PUSH0 PUSH20 0xFFFFFFFFFFFFFFFFFFFFFFFFFFFFFFFFFFFFFFFF AND DUP2 PUSH20 0xFFFFFFFFFFFFFFFFFFFFFFFFFFFFFFFFFFFFFFFF AND SUB PUSH2 0x4F7 JUMPI PUSH0 PUSH1 0x40 MLOAD PUSH32 0x1E4FBDF700000000000000000000000000000000000000000000000000000000 DUP2 MSTORE PUSH1 0x4 ADD PUSH2 0x4EE SWAP2 SWAP1 PUSH2 0xBAC JUMP JUMPDEST PUSH1 0x40 MLOAD DUP1 SWAP2 SUB SWAP1 REVERT JUMPDEST PUSH2 0x500 DUP2 PUSH2 0x58A JUMP JUMPDEST POP JUMP JUMPDEST PUSH2 0x50B PUSH2 0xA65 JUMP JUMPDEST PUSH20 0xFFFFFFFFFFFFFFFFFFFFFFFFFFFFFFFFFFFFFFFF AND PUSH2 0x529 PUSH2 0x2D6 JUMP JUMPDEST PUSH20 0xFFFFFFFFFFFFFFFFFFFFFFFFFFFFFFFFFFFFFFFF AND EQ PUSH2 0x588 JUMPI PUSH2 0x54C PUSH2 0xA65 JUMP JUMPDEST PUSH1 0x40 MLOAD PUSH32 0x118CDAA700000000000000000000000000000000000000000000000000000000 DUP2 MSTORE PUSH1 0x4 ADD PUSH2 0x57F SWAP2 SWAP1 PUSH2 0xBAC JUMP JUMPDEST PUSH1 0x40 MLOAD DUP1 SWAP2 SUB SWAP1 REVERT JUMPDEST JUMP JUMPDEST PUSH0 PUSH0 PUSH0 SWAP1 SLOAD SWAP1 PUSH2 0x100 EXP SWAP1 DIV PUSH20 0xFFFFFFFFFFFFFFFFFFFFFFFFFFFFFFFFFFFFFFFF AND SWAP1 POP DUP2 PUSH0 PUSH0 PUSH2 0x100 EXP DUP2 SLOAD DUP2 PUSH20 0xFFFFFFFFFFFFFFFFFFFFFFFFFFFFFFFFFFFFFFFF MUL NOT AND SWAP1 DUP4 PUSH20 0xFFFFFFFFFFFFFFFFFFFFFFFFFFFFFFFFFFFFFFFF AND MUL OR SWAP1 SSTORE POP DUP2 PUSH20 0xFFFFFFFFFFFFFFFFFFFFFFFFFFFFFFFFFFFFFFFF AND DUP2 PUSH20 0xFFFFFFFFFFFFFFFFFFFFFFFFFFFFFFFFFFFFFFFF AND PUSH32 0x8BE0079C531659141344CD1FD0A4F28419497F9722A3DAAFE3B4186F6B6457E0 PUSH1 0x40 MLOAD PUSH1 0x40 MLOAD DUP1 SWAP2 SUB SWAP1 LOG3 POP POP JUMP JUMPDEST PUSH0 PUSH1 0x2 PUSH0 DUP4 PUSH20 0xFFFFFFFFFFFFFFFFFFFFFFFFFFFFFFFFFFFFFFFF AND PUSH20 0xFFFFFFFFFFFFFFFFFFFFFFFFFFFFFFFFFFFFFFFF AND DUP2 MSTORE PUSH1 0x20 ADD SWAP1 DUP2 MSTORE PUSH1 0x20 ADD PUSH0 KECCAK256 SLOAD SWAP1 POP PUSH0 PUSH0 SWAP1 POP JUMPDEST PUSH1 0x3 DUP2 LT ISZERO PUSH2 0x715 JUMPI DUP3 PUSH20 0xFFFFFFFFFFFFFFFFFFFFFFFFFFFFFFFFFFFFFFFF AND PUSH1 0x3 DUP3 PUSH1 0x3 DUP2 LT PUSH2 0x6C5 JUMPI PUSH2 0x6C4 PUSH2 0xD81 JUMP JUMPDEST JUMPDEST ADD PUSH0 SWAP1 SLOAD SWAP1 PUSH2 0x100 EXP SWAP1 DIV PUSH20 0xFFFFFFFFFFFFFFFFFFFFFFFFFFFFFFFFFFFFFFFF AND PUSH20 0xFFFFFFFFFFFFFFFFFFFFFFFFFFFFFFFFFFFFFFFF AND SUB PUSH2 0x708 JUMPI POP POP PUSH2 0xA62 JUMP JUMPDEST DUP1 DUP1 PUSH1 0x1 ADD SWAP2 POP POP PUSH2 0x691 JUMP JUMPDEST POP PUSH0 PUSH0 SWAP1 POP JUMPDEST PUSH1 0x3 DUP2 LT ISZERO PUSH2 0xA5F JUMPI PUSH0 PUSH20 0xFFFFFFFFFFFFFFFFFFFFFFFFFFFFFFFFFFFFFFFF AND PUSH1 0x3 DUP3 PUSH1 0x3 DUP2 LT PUSH2 0x74F JUMPI PUSH2 0x74E PUSH2 0xD81 JUMP JUMPDEST JUMPDEST ADD PUSH0 SWAP1 SLOAD SWAP1 PUSH2 0x100 EXP SWAP1 DIV PUSH20 0xFFFFFFFFFFFFFFFFFFFFFFFFFFFFFFFFFFFFFFFF AND PUSH20 0xFFFFFFFFFFFFFFFFFFFFFFFFFFFFFFFFFFFFFFFF AND SUB PUSH2 0x7E5 JUMPI DUP3 PUSH1 0x3 DUP3 PUSH1 0x3 DUP2 LT PUSH2 0x7A0 JUMPI PUSH2 0x79F PUSH2 0xD81 JUMP JUMPDEST JUMPDEST ADD PUSH0 PUSH2 0x100 EXP DUP2 SLOAD DUP2 PUSH20 0xFFFFFFFFFFFFFFFFFFFFFFFFFFFFFFFFFFFFFFFF MUL NOT AND SWAP1 DUP4 PUSH20 0xFFFFFFFFFFFFFFFFFFFFFFFFFFFFFFFFFFFFFFFF AND MUL OR SWAP1 SSTORE POP POP POP PUSH2 0xA62 JUMP JUMPDEST PUSH1 0x2 PUSH0 PUSH1 0x3 DUP4 PUSH1 0x3 DUP2 LT PUSH2 0x7FC JUMPI PUSH2 0x7FB PUSH2 0xD81 JUMP JUMPDEST JUMPDEST ADD PUSH0 SWAP1 SLOAD SWAP1 PUSH2 0x100 EXP SWAP1 DIV PUSH20 0xFFFFFFFFFFFFFFFFFFFFFFFFFFFFFFFFFFFFFFFF AND PUSH20 0xFFFFFFFFFFFFFFFFFFFFFFFFFFFFFFFFFFFFFFFF AND PUSH20 0xFFFFFFFFFFFFFFFFFFFFFFFFFFFFFFFFFFFFFFFF AND DUP2 MSTORE PUSH1 0x20 ADD SWAP1 DUP2 MSTORE PUSH1 0x20 ADD PUSH0 KECCAK256 SLOAD DUP3 GT ISZERO PUSH2 0xA52 JUMPI PUSH0 PUSH1 0x2 SWAP1 POP JUMPDEST PUSH0 DUP2 GT ISZERO PUSH2 0x9F7 JUMPI PUSH1 0x2 PUSH0 PUSH1 0x3 PUSH1 0x1 DUP5 PUSH2 0x87E SWAP2 SWAP1 PUSH2 0xDAE JUMP JUMPDEST PUSH1 0x3 DUP2 LT PUSH2 0x88F JUMPI PUSH2 0x88E PUSH2 0xD81 JUMP JUMPDEST JUMPDEST ADD PUSH0 SWAP1 SLOAD SWAP1 PUSH2 0x100 EXP SWAP1 DIV PUSH20 0xFFFFFFFFFFFFFFFFFFFFFFFFFFFFFFFFFFFFFFFF AND PUSH20 0xFFFFFFFFFFFFFFFFFFFFFFFFFFFFFFFFFFFFFFFF AND PUSH20 0xFFFFFFFFFFFFFFFFFFFFFFFFFFFFFFFFFFFFFFFF AND DUP2 MSTORE PUSH1 0x20 ADD SWAP1 DUP2 MSTORE PUSH1 0x20 ADD PUSH0 KECCAK256 SLOAD DUP4 GT ISZERO PUSH2 0x989 JUMPI PUSH1 0x3 PUSH1 0x1 DUP3 PUSH2 0x900 SWAP2 SWAP1 PUSH2 0xDAE JUMP JUMPDEST PUSH1 0x3 DUP2 LT PUSH2 0x911 JUMPI PUSH2 0x910 PUSH2 0xD81 JUMP JUMPDEST JUMPDEST ADD PUSH0 SWAP1 SLOAD SWAP1 PUSH2 0x100 EXP SWAP1 DIV PUSH20 0xFFFFFFFFFFFFFFFFFFFFFFFFFFFFFFFFFFFFFFFF AND PUSH1 0x3 DUP3 PUSH1 0x3 DUP2 LT PUSH2 0x946 JUMPI PUSH2 0x945 PUSH2 0xD81 JUMP JUMPDEST JUMPDEST ADD PUSH0 PUSH2 0x100 EXP DUP2 SLOAD DUP2 PUSH20 0xFFFFFFFFFFFFFFFFFFFFFFFFFFFFFFFFFFFFFFFF MUL NOT AND SWAP1 DUP4 PUSH20 0xFFFFFFFFFFFFFFFFFFFFFFFFFFFFFFFFFFFFFFFF AND MUL OR SWAP1 SSTORE POP PUSH2 0x9E4 JUMP JUMPDEST DUP4 PUSH1 0x3 DUP3 PUSH1 0x3 DUP2 LT PUSH2 0x99E JUMPI PUSH2 0x99D PUSH2 0xD81 JUMP JUMPDEST JUMPDEST ADD PUSH0 PUSH2 0x100 EXP DUP2 SLOAD DUP2 PUSH20 0xFFFFFFFFFFFFFFFFFFFFFFFFFFFFFFFFFFFFFFFF MUL NOT AND SWAP1 DUP4 PUSH20 0xFFFFFFFFFFFFFFFFFFFFFFFFFFFFFFFFFFFFFFFF AND MUL OR SWAP1 SSTORE POP POP POP POP PUSH2 0xA62 JUMP JUMPDEST DUP1 DUP1 PUSH2 0x9EF SWAP1 PUSH2 0xDE1 JUMP JUMPDEST SWAP2 POP POP PUSH2 0x864 JUMP JUMPDEST POP DUP3 PUSH1 0x3 PUSH0 PUSH1 0x3 DUP2 LT PUSH2 0xA0D JUMPI PUSH2 0xA0C PUSH2 0xD81 JUMP JUMPDEST JUMPDEST ADD PUSH0 PUSH2 0x100 EXP DUP2 SLOAD DUP2 PUSH20 0xFFFFFFFFFFFFFFFFFFFFFFFFFFFFFFFFFFFFFFFF MUL NOT AND SWAP1 DUP4 PUSH20 0xFFFFFFFFFFFFFFFFFFFFFFFFFFFFFFFFFFFFFFFF AND MUL OR SWAP1 SSTORE POP POP POP PUSH2 0xA62 JUMP JUMPDEST DUP1 DUP1 PUSH1 0x1 ADD SWAP2 POP POP PUSH2 0x71B JUMP JUMPDEST POP POP JUMPDEST POP JUMP JUMPDEST PUSH0 CALLER SWAP1 POP SWAP1 JUMP JUMPDEST PUSH1 0x40 MLOAD DUP1 PUSH1 0x60 ADD PUSH1 0x40 MSTORE DUP1 PUSH1 0x3 SWAP1 PUSH1 0x20 DUP3 MUL DUP1 CALLDATASIZE DUP4 CALLDATACOPY DUP1 DUP3 ADD SWAP2 POP POP SWAP1 POP POP SWAP1 JUMP JUMPDEST PUSH0 PUSH0 REVERT JUMPDEST PUSH0 PUSH20 0xFFFFFFFFFFFFFFFFFFFFFFFFFFFFFFFFFFFFFFFF DUP3 AND SWAP1 POP SWAP2 SWAP1 POP JUMP JUMPDEST PUSH0 PUSH2 0xABB DUP3 PUSH2 0xA92 JUMP JUMPDEST SWAP1 POP SWAP2 SWAP1 POP JUMP JUMPDEST PUSH2 0xACB DUP2 PUSH2 0xAB1 JUMP JUMPDEST DUP2 EQ PUSH2 0xAD5 JUMPI PUSH0 PUSH0 REVERT JUMPDEST POP JUMP JUMPDEST PUSH0 DUP2 CALLDATALOAD SWAP1 POP PUSH2 0xAE6 DUP2 PUSH2 0xAC2 JUMP JUMPDEST SWAP3 SWAP2 POP POP JUMP JUMPDEST PUSH0 PUSH1 0x20 DUP3 DUP5 SUB SLT ISZERO PUSH2 0xB01 JUMPI PUSH2 0xB00 PUSH2 0xA8E JUMP JUMPDEST JUMPDEST PUSH0 PUSH2 0xB0E DUP5 DUP3 DUP6 ADD PUSH2 0xAD8 JUMP JUMPDEST SWAP2 POP POP SWAP3 SWAP2 POP POP JUMP JUMPDEST PUSH0 DUP2 SWAP1 POP SWAP2 SWAP1 POP JUMP JUMPDEST PUSH2 0xB29 DUP2 PUSH2 0xB17 JUMP JUMPDEST DUP3 MSTORE POP POP JUMP JUMPDEST PUSH0 PUSH1 0x20 DUP3 ADD SWAP1 POP PUSH2 0xB42 PUSH0 DUP4 ADD DUP5 PUSH2 0xB20 JUMP JUMPDEST SWAP3 SWAP2 POP POP JUMP JUMPDEST PUSH2 0xB51 DUP2 PUSH2 0xB17 JUMP JUMPDEST DUP2 EQ PUSH2 0xB5B JUMPI PUSH0 PUSH0 REVERT JUMPDEST POP JUMP JUMPDEST PUSH0 DUP2 CALLDATALOAD SWAP1 POP PUSH2 0xB6C DUP2 PUSH2 0xB48 JUMP JUMPDEST SWAP3 SWAP2 POP POP JUMP JUMPDEST PUSH0 PUSH1 0x20 DUP3 DUP5 SUB SLT ISZERO PUSH2 0xB87 JUMPI PUSH2 0xB86 PUSH2 0xA8E JUMP JUMPDEST JUMPDEST PUSH0 PUSH2 0xB94 DUP5 DUP3 DUP6 ADD PUSH2 0xB5E JUMP JUMPDEST SWAP2 POP POP SWAP3 SWAP2 POP POP JUMP JUMPDEST PUSH2 0xBA6 DUP2 PUSH2 0xAB1 JUMP JUMPDEST DUP3 MSTORE POP POP JUMP JUMPDEST PUSH0 PUSH1 0x20 DUP3 ADD SWAP1 POP PUSH2 0xBBF PUSH0 DUP4 ADD DUP5 PUSH2 0xB9D JUMP JUMPDEST SWAP3 SWAP2 POP POP JUMP JUMPDEST PUSH0 PUSH1 0x3 SWAP1 POP SWAP2 SWAP1 POP JUMP JUMPDEST PUSH0 DUP2 SWAP1 POP SWAP3 SWAP2 POP POP JUMP JUMPDEST PUSH0 DUP2 SWAP1 POP SWAP2 SWAP1 POP JUMP JUMPDEST PUSH2 0xBEB DUP2 PUSH2 0xAB1 JUMP JUMPDEST DUP3 MSTORE POP POP JUMP JUMPDEST PUSH0 PUSH2 0xBFC DUP4 DUP4 PUSH2 0xBE2 JUMP JUMPDEST PUSH1 0x20 DUP4 ADD SWAP1 POP SWAP3 SWAP2 POP POP JUMP JUMPDEST PUSH0 PUSH1 0x20 DUP3 ADD SWAP1 POP SWAP2 SWAP1 POP JUMP JUMPDEST PUSH2 0xC1D DUP2 PUSH2 0xBC5 JUMP JUMPDEST PUSH2 0xC27 DUP2 DUP5 PUSH2 0xBCF JUMP JUMPDEST SWAP3 POP PUSH2 0xC32 DUP3 PUSH2 0xBD9 JUMP JUMPDEST DUP1 PUSH0 JUMPDEST DUP4 DUP2 LT ISZERO PUSH2 0xC62 JUMPI DUP2 MLOAD PUSH2 0xC49 DUP8 DUP3 PUSH2 0xBF1 JUMP JUMPDEST SWAP7 POP PUSH2 0xC54 DUP4 PUSH2 0xC08 JUMP JUMPDEST SWAP3 POP POP PUSH1 0x1 DUP2 ADD SWAP1 POP PUSH2 0xC35 JUMP JUMPDEST POP POP POP POP POP POP JUMP JUMPDEST PUSH0 PUSH1 0x60 DUP3 ADD SWAP1 POP PUSH2 0xC7D PUSH0 DUP4 ADD DUP5 PUSH2 0xC14 JUMP JUMPDEST SWAP3 SWAP2 POP POP JUMP JUMPDEST PUSH0 DUP3 DUP3 MSTORE PUSH1 0x20 DUP3 ADD SWAP1 POP SWAP3 SWAP2 POP POP JUMP JUMPDEST PUSH32 0x446F6E6174696F6E20616D6F756E74206D757374206265206772656174657220 PUSH0 DUP3 ADD MSTORE PUSH32 0x7468616E20300000000000000000000000000000000000000000000000000000 PUSH1 0x20 DUP3 ADD MSTORE POP JUMP JUMPDEST PUSH0 PUSH2 0xCED PUSH1 0x26 DUP4 PUSH2 0xC83 JUMP JUMPDEST SWAP2 POP PUSH2 0xCF8 DUP3 PUSH2 0xC93 JUMP JUMPDEST PUSH1 0x40 DUP3 ADD SWAP1 POP SWAP2 SWAP1 POP JUMP JUMPDEST PUSH0 PUSH1 0x20 DUP3 ADD SWAP1 POP DUP2 DUP2 SUB PUSH0 DUP4 ADD MSTORE PUSH2 0xD1A DUP2 PUSH2 0xCE1 JUMP JUMPDEST SWAP1 POP SWAP2 SWAP1 POP JUMP JUMPDEST PUSH32 0x4E487B7100000000000000000000000000000000000000000000000000000000 PUSH0 MSTORE PUSH1 0x11 PUSH1 0x4 MSTORE PUSH1 0x24 PUSH0 REVERT JUMPDEST PUSH0 PUSH2 0xD58 DUP3 PUSH2 0xB17 JUMP JUMPDEST SWAP2 POP PUSH2 0xD63 DUP4 PUSH2 0xB17 JUMP JUMPDEST SWAP3 POP DUP3 DUP3 ADD SWAP1 POP DUP1 DUP3 GT ISZERO PUSH2 0xD7B JUMPI PUSH2 0xD7A PUSH2 0xD21 JUMP JUMPDEST JUMPDEST SWAP3 SWAP2 POP POP JUMP JUMPDEST PUSH32 0x4E487B7100000000000000000000000000000000000000000000000000000000 PUSH0 MSTORE PUSH1 0x32 PUSH1 0x4 MSTORE PUSH1 0x24 PUSH0 REVERT JUMPDEST PUSH0 PUSH2 0xDB8 DUP3 PUSH2 0xB17 JUMP JUMPDEST SWAP2 POP PUSH2 0xDC3 DUP4 PUSH2 0xB17 JUMP JUMPDEST SWAP3 POP DUP3 DUP3 SUB SWAP1 POP DUP2 DUP2 GT ISZERO PUSH2 0xDDB JUMPI PUSH2 0xDDA PUSH2 0xD21 JUMP JUMPDEST JUMPDEST SWAP3 SWAP2 POP POP JUMP JUMPDEST PUSH0 PUSH2 0xDEB DUP3 PUSH2 0xB17 JUMP JUMPDEST SWAP2 POP PUSH0 DUP3 SUB PUSH2 0xDFD JUMPI PUSH2 0xDFC PUSH2 0xD21 JUMP JUMPDEST JUMPDEST PUSH1 0x1 DUP3 SUB SWAP1 POP SWAP2 SWAP1 POP JUMP INVALID LOG2 PUSH5 0x6970667358 0x22 SLT KECCAK256 0x4B DUP4 0xF RJUMPI 0x8476 SWAP7 0xB0 ISZERO SWAP9 0xCB LOG2 0xC5 SWAP10 GAS 0xBF 0xD6 0xF6 SWAP12 CALLCODE STATICCALL SELFDESTRUCT LOG4 0xBC SWAP13 DUP7 AND 0xDD 0xAB 0xCA GASPRICE 0xD2 PUSH5 0x736F6C6343 STOP ADDMOD 0x1E STOP CALLER "
				},
				"gasEstimates": {
					"creation": {
						"codeDepositCost": "729200",
						"executionCost": "infinite",
						"totalCost": "infinite"
					},
					"external": {
						"donate()": "infinite",
						"donations(address)": "2824",
						"getDonation(address)": "2852",
						"getTopDonors()": "infinite",
						"owner()": "2514",
						"renounceOwnership()": "infinite",
						"topDonors(uint256)": "2840",
						"transferOwnership(address)": "infinite",
						"withdraw()": "infinite"
					},
					"internal": {
						"updateTopDonors(address)": "infinite"
					}
				},
				"methodIdentifiers": {
					"donate()": "ed88c68e",
					"donations(address)": "cc6cb19a",
					"getDonation(address)": "410a1d32",
					"getTopDonors()": "d6387ed8",
					"owner()": "8da5cb5b",
					"renounceOwnership()": "715018a6",
					"topDonors(uint256)": "5cbaddab",
					"transferOwnership(address)": "f2fde38b",
					"withdraw()": "3ccfd60b"
				}
			},
			"storageLayout": {
				"storage": [
					{
						"astId": 8,
						"contract": "contracts/BeggingContract.sol:BeggingContract",
						"label": "_owner",
						"offset": 0,
						"slot": "0",
						"type": "t_address"
					},
					{
						"astId": 184,
						"contract": "contracts/BeggingContract.sol:BeggingContract",
						"label": "amount",
						"offset": 0,
						"slot": "1",
						"type": "t_uint256"
					},
					{
						"astId": 188,
						"contract": "contracts/BeggingContract.sol:BeggingContract",
						"label": "donations",
						"offset": 0,
						"slot": "2",
						"type": "t_mapping(t_address,t_uint256)"
					},
					{
						"astId": 192,
						"contract": "contracts/BeggingContract.sol:BeggingContract",
						"label": "topDonors",
						"offset": 0,
						"slot": "3",
						"type": "t_array(t_address)3_storage"
					},
					{
						"astId": 200,
						"contract": "contracts/BeggingContract.sol:BeggingContract",
						"label": "startTime",
						"offset": 0,
						"slot": "6",
						"type": "t_uint256"
					},
					{
						"astId": 202,
						"contract": "contracts/BeggingContract.sol:BeggingContract",
						"label": "endTime",
						"offset": 0,
						"slot": "7",
						"type": "t_uint256"
					}
				],
				"types": {
					"t_address": {
						"encoding": "inplace",
						"label": "address",
						"numberOfBytes": "20"
					},
					"t_array(t_address)3_storage": {
						"base": "t_address",
						"encoding": "inplace",
						"label": "address[3]",
						"numberOfBytes": "96"
					},
					"t_mapping(t_address,t_uint256)": {
						"encoding": "mapping",
						"key": "t_address",
						"label": "mapping(address => uint256)",
						"numberOfBytes": "32",
						"value": "t_uint256"
					},
					"t_uint256": {
						"encoding": "inplace",
						"label": "uint256",
						"numberOfBytes": "32"
					}
				}
			},
			"userdoc": {
				"kind": "user",
				"methods": {},
				"version": 1
			}
		}
	}
}