{
	"contracts/Roman.sol": {
		"Roman": {
			"abi": [
				{
					"inputs": [
						{
							"internalType": "uint256",
							"name": "num",
							"type": "uint256"
						}
					],
					"name": "intToRoman",
					"outputs": [
						{
							"internalType": "string",
							"name": "",
							"type": "string"
						}
					],
					"stateMutability": "pure",
					"type": "function"
				},
				{
					"inputs": [
						{
							"internalType": "string",
							"name": "str",
							"type": "string"
						}
					],
					"name": "romanToInt",
					"outputs": [
						{
							"internalType": "uint256",
							"name": "",
							"type": "uint256"
						}
					],
					"stateMutability": "pure",
					"type": "function"
				}
			],
			"devdoc": {
				"kind": "dev",
				"methods": {},
				"version": 1
			},
			"evm": {
				"assembly": "    /* \"contracts/Roman.sol\":58:2169  contract Roman {... */\n  mstore(0x40, 0x80)\n  callvalue\n  dup1\n  iszero\n  tag_1\n  jumpi\n  revert(0x00, 0x00)\ntag_1:\n  pop\n  dataSize(sub_0)\n  dup1\n  dataOffset(sub_0)\n  0x00\n  codecopy\n  0x00\n  return\nstop\n\nsub_0: assembly {\n        /* \"contracts/Roman.sol\":58:2169  contract Roman {... */\n      mstore(0x40, 0x80)\n      callvalue\n      dup1\n      iszero\n      tag_1\n      jumpi\n      revert(0x00, 0x00)\n    tag_1:\n      pop\n      jumpi(tag_2, lt(calldatasize, 0x04))\n      shr(0xe0, calldataload(0x00))\n      dup1\n      0x0cbc513a\n      eq\n      tag_3\n      jumpi\n      dup1\n      0xcb159dfe\n      eq\n      tag_4\n      jumpi\n    tag_2:\n      revert(0x00, 0x00)\n        /* \"contracts/Roman.sol\":665:1404  function intToRoman(uint num) public pure returns (string memory) {... */\n    tag_3:\n      tag_5\n      0x04\n      dup1\n      calldatasize\n      sub\n      dup2\n      add\n      swap1\n      tag_6\n      swap2\n      swap1\n      tag_7\n      jump\t// in\n    tag_6:\n      tag_8\n      jump\t// in\n    tag_5:\n      mload(0x40)\n      tag_9\n      swap2\n      swap1\n      tag_10\n      jump\t// in\n    tag_9:\n      mload(0x40)\n      dup1\n      swap2\n      sub\n      swap1\n      return\n        /* \"contracts/Roman.sol\":82:657  function romanToInt(string memory str) public pure returns (uint) {... */\n    tag_4:\n      tag_11\n      0x04\n      dup1\n      calldatasize\n      sub\n      dup2\n      add\n      swap1\n      tag_12\n      swap2\n      swap1\n      tag_13\n      jump\t// in\n    tag_12:\n      tag_14\n      jump\t// in\n    tag_11:\n      mload(0x40)\n      tag_15\n      swap2\n      swap1\n      tag_16\n      jump\t// in\n    tag_15:\n      mload(0x40)\n      dup1\n      swap2\n      sub\n      swap1\n      return\n        /* \"contracts/Roman.sol\":665:1404  function intToRoman(uint num) public pure returns (string memory) {... */\n    tag_8:\n        /* \"contracts/Roman.sol\":716:729  string memory */\n      0x60\n        /* \"contracts/Roman.sol\":756:757  0 */\n      0x00\n        /* \"contracts/Roman.sol\":750:753  num */\n      dup3\n        /* \"contracts/Roman.sol\":750:757  num > 0 */\n      gt\n        /* \"contracts/Roman.sol\":750:771  num > 0 && num < 4000 */\n      dup1\n      iszero\n      tag_18\n      jumpi\n      pop\n        /* \"contracts/Roman.sol\":767:771  4000 */\n      0x0fa0\n        /* \"contracts/Roman.sol\":761:764  num */\n      dup3\n        /* \"contracts/Roman.sol\":761:771  num < 4000 */\n      lt\n        /* \"contracts/Roman.sol\":750:771  num > 0 && num < 4000 */\n    tag_18:\n        /* \"contracts/Roman.sol\":742:808  require(num > 0 && num < 4000, \"Input must be between 1 and 3999\") */\n      tag_19\n      jumpi\n      mload(0x40)\n      0x08c379a000000000000000000000000000000000000000000000000000000000\n      dup2\n      mstore\n      0x04\n      add\n      tag_20\n      swap1\n      tag_21\n      jump\t// in\n    tag_20:\n      mload(0x40)\n      dup1\n      swap2\n      sub\n      swap1\n      revert\n    tag_19:\n        /* \"contracts/Roman.sol\":821:843  uint[13] memory values */\n      0x00\n        /* \"contracts/Roman.sol\":821:904  uint[13] memory values = [uint(1000), 900, 500, 400, 100, 90, 50, 40,10, 9, 5, 4,1] */\n      mload(0x40)\n      dup1\n      0x01a0\n      add\n      0x40\n      mstore\n      dup1\n        /* \"contracts/Roman.sol\":852:856  1000 */\n      0x03e8\n        /* \"contracts/Roman.sol\":821:904  uint[13] memory values = [uint(1000), 900, 500, 400, 100, 90, 50, 40,10, 9, 5, 4,1] */\n      dup2\n      mstore\n      0x20\n      add\n        /* \"contracts/Roman.sol\":859:862  900 */\n      0x0384\n        /* \"contracts/Roman.sol\":821:904  uint[13] memory values = [uint(1000), 900, 500, 400, 100, 90, 50, 40,10, 9, 5, 4,1] */\n      dup2\n      mstore\n      0x20\n      add\n        /* \"contracts/Roman.sol\":864:867  500 */\n      0x01f4\n        /* \"contracts/Roman.sol\":821:904  uint[13] memory values = [uint(1000), 900, 500, 400, 100, 90, 50, 40,10, 9, 5, 4,1] */\n      dup2\n      mstore\n      0x20\n      add\n        /* \"contracts/Roman.sol\":869:872  400 */\n      0x0190\n        /* \"contracts/Roman.sol\":821:904  uint[13] memory values = [uint(1000), 900, 500, 400, 100, 90, 50, 40,10, 9, 5, 4,1] */\n      dup2\n      mstore\n      0x20\n      add\n        /* \"contracts/Roman.sol\":874:877  100 */\n      0x64\n        /* \"contracts/Roman.sol\":821:904  uint[13] memory values = [uint(1000), 900, 500, 400, 100, 90, 50, 40,10, 9, 5, 4,1] */\n      dup2\n      mstore\n      0x20\n      add\n        /* \"contracts/Roman.sol\":879:881  90 */\n      0x5a\n        /* \"contracts/Roman.sol\":821:904  uint[13] memory values = [uint(1000), 900, 500, 400, 100, 90, 50, 40,10, 9, 5, 4,1] */\n      dup2\n      mstore\n      0x20\n      add\n        /* \"contracts/Roman.sol\":883:885  50 */\n      0x32\n        /* \"contracts/Roman.sol\":821:904  uint[13] memory values = [uint(1000), 900, 500, 400, 100, 90, 50, 40,10, 9, 5, 4,1] */\n      dup2\n      mstore\n      0x20\n      add\n        /* \"contracts/Roman.sol\":887:889  40 */\n      0x28\n        /* \"contracts/Roman.sol\":821:904  uint[13] memory values = [uint(1000), 900, 500, 400, 100, 90, 50, 40,10, 9, 5, 4,1] */\n      dup2\n      mstore\n      0x20\n      add\n        /* \"contracts/Roman.sol\":890:892  10 */\n      0x0a\n        /* \"contracts/Roman.sol\":821:904  uint[13] memory values = [uint(1000), 900, 500, 400, 100, 90, 50, 40,10, 9, 5, 4,1] */\n      dup2\n      mstore\n      0x20\n      add\n        /* \"contracts/Roman.sol\":894:895  9 */\n      0x09\n        /* \"contracts/Roman.sol\":821:904  uint[13] memory values = [uint(1000), 900, 500, 400, 100, 90, 50, 40,10, 9, 5, 4,1] */\n      dup2\n      mstore\n      0x20\n      add\n        /* \"contracts/Roman.sol\":897:898  5 */\n      0x05\n        /* \"contracts/Roman.sol\":821:904  uint[13] memory values = [uint(1000), 900, 500, 400, 100, 90, 50, 40,10, 9, 5, 4,1] */\n      dup2\n      mstore\n      0x20\n      add\n        /* \"contracts/Roman.sol\":900:901  4 */\n      0x04\n        /* \"contracts/Roman.sol\":821:904  uint[13] memory values = [uint(1000), 900, 500, 400, 100, 90, 50, 40,10, 9, 5, 4,1] */\n      dup2\n      mstore\n      0x20\n      add\n        /* \"contracts/Roman.sol\":902:903  1 */\n      0x01\n        /* \"contracts/Roman.sol\":821:904  uint[13] memory values = [uint(1000), 900, 500, 400, 100, 90, 50, 40,10, 9, 5, 4,1] */\n      dup2\n      mstore\n      pop\n      swap1\n      pop\n        /* \"contracts/Roman.sol\":917:942  string[13] memory symbols */\n      0x00\n        /* \"contracts/Roman.sol\":917:1079  string[13] memory symbols = [... */\n      mload(0x40)\n      dup1\n      0x01a0\n      add\n      0x40\n      mstore\n      dup1\n      mload(0x40)\n      dup1\n      0x40\n      add\n      0x40\n      mstore\n      dup1\n      0x01\n      dup2\n      mstore\n      0x20\n      add\n      0x4d00000000000000000000000000000000000000000000000000000000000000\n      dup2\n      mstore\n      pop\n      dup2\n      mstore\n      0x20\n      add\n      mload(0x40)\n      dup1\n      0x40\n      add\n      0x40\n      mstore\n      dup1\n      0x02\n      dup2\n      mstore\n      0x20\n      add\n      0x434d000000000000000000000000000000000000000000000000000000000000\n      dup2\n      mstore\n      pop\n      dup2\n      mstore\n      0x20\n      add\n      mload(0x40)\n      dup1\n      0x40\n      add\n      0x40\n      mstore\n      dup1\n      0x01\n      dup2\n      mstore\n      0x20\n      add\n      0x4400000000000000000000000000000000000000000000000000000000000000\n      dup2\n      mstore\n      pop\n      dup2\n      mstore\n      0x20\n      add\n      mload(0x40)\n      dup1\n      0x40\n      add\n      0x40\n      mstore\n      dup1\n      0x02\n      dup2\n      mstore\n      0x20\n      add\n      0x4344000000000000000000000000000000000000000000000000000000000000\n      dup2\n      mstore\n      pop\n      dup2\n      mstore\n      0x20\n      add\n      mload(0x40)\n      dup1\n      0x40\n      add\n      0x40\n      mstore\n      dup1\n      0x01\n      dup2\n      mstore\n      0x20\n      add\n      0x4300000000000000000000000000000000000000000000000000000000000000\n      dup2\n      mstore\n      pop\n      dup2\n      mstore\n      0x20\n      add\n      mload(0x40)\n      dup1\n      0x40\n      add\n      0x40\n      mstore\n      dup1\n      0x02\n      dup2\n      mstore\n      0x20\n      add\n      0x5843000000000000000000000000000000000000000000000000000000000000\n      dup2\n      mstore\n      pop\n      dup2\n      mstore\n      0x20\n      add\n      mload(0x40)\n      dup1\n      0x40\n      add\n      0x40\n      mstore\n      dup1\n      0x01\n      dup2\n      mstore\n      0x20\n      add\n      0x4c00000000000000000000000000000000000000000000000000000000000000\n      dup2\n      mstore\n      pop\n      dup2\n      mstore\n      0x20\n      add\n      mload(0x40)\n      dup1\n      0x40\n      add\n      0x40\n      mstore\n      dup1\n      0x02\n      dup2\n      mstore\n      0x20\n      add\n      0x584c000000000000000000000000000000000000000000000000000000000000\n      dup2\n      mstore\n      pop\n      dup2\n      mstore\n      0x20\n      add\n      mload(0x40)\n      dup1\n      0x40\n      add\n      0x40\n      mstore\n      dup1\n      0x01\n      dup2\n      mstore\n      0x20\n      add\n      0x5800000000000000000000000000000000000000000000000000000000000000\n      dup2\n      mstore\n      pop\n      dup2\n      mstore\n      0x20\n      add\n      mload(0x40)\n      dup1\n      0x40\n      add\n      0x40\n      mstore\n      dup1\n      0x02\n      dup2\n      mstore\n      0x20\n      add\n      0x4958000000000000000000000000000000000000000000000000000000000000\n      dup2\n      mstore\n      pop\n      dup2\n      mstore\n      0x20\n      add\n      mload(0x40)\n      dup1\n      0x40\n      add\n      0x40\n      mstore\n      dup1\n      0x01\n      dup2\n      mstore\n      0x20\n      add\n      0x5600000000000000000000000000000000000000000000000000000000000000\n      dup2\n      mstore\n      pop\n      dup2\n      mstore\n      0x20\n      add\n      mload(0x40)\n      dup1\n      0x40\n      add\n      0x40\n      mstore\n      dup1\n      0x02\n      dup2\n      mstore\n      0x20\n      add\n      0x4956000000000000000000000000000000000000000000000000000000000000\n      dup2\n      mstore\n      pop\n      dup2\n      mstore\n      0x20\n      add\n      mload(0x40)\n      dup1\n      0x40\n      add\n      0x40\n      mstore\n      dup1\n      0x01\n      dup2\n      mstore\n      0x20\n      add\n      0x4900000000000000000000000000000000000000000000000000000000000000\n      dup2\n      mstore\n      pop\n      dup2\n      mstore\n      pop\n      swap1\n      pop\n        /* \"contracts/Roman.sol\":1092:1098  uint i */\n      0x00\n        /* \"contracts/Roman.sol\":1101:1102  0 */\n      0x00\n        /* \"contracts/Roman.sol\":1092:1102  uint i = 0 */\n      swap1\n      pop\n        /* \"contracts/Roman.sol\":1113:1133  string memory result */\n      0x00\n        /* \"contracts/Roman.sol\":1113:1138  string memory result = \"\" */\n      mload(0x40)\n      dup1\n      0x20\n      add\n      0x40\n      mstore\n      dup1\n      0x00\n      dup2\n      mstore\n      pop\n      swap1\n      pop\n        /* \"contracts/Roman.sol\":1151:1371  while (num > 0) {... */\n    tag_22:\n        /* \"contracts/Roman.sol\":1164:1165  0 */\n      0x00\n        /* \"contracts/Roman.sol\":1158:1161  num */\n      dup7\n        /* \"contracts/Roman.sol\":1158:1165  num > 0 */\n      gt\n        /* \"contracts/Roman.sol\":1151:1371  while (num > 0) {... */\n      iszero\n      tag_23\n      jumpi\n        /* \"contracts/Roman.sol\":1193:1199  values */\n      dup4\n        /* \"contracts/Roman.sol\":1200:1201  i */\n      dup3\n        /* \"contracts/Roman.sol\":1193:1202  values[i] */\n      0x0d\n      dup2\n      lt\n      tag_24\n      jumpi\n      tag_25\n      tag_26\n      jump\t// in\n    tag_25:\n    tag_24:\n      0x20\n      mul\n      add\n      mload\n        /* \"contracts/Roman.sol\":1186:1189  num */\n      dup7\n        /* \"contracts/Roman.sol\":1186:1202  num >= values[i] */\n      lt\n        /* \"contracts/Roman.sol\":1182:1360  if (num >= values[i]) {... */\n      tag_27\n      jumpi\n        /* \"contracts/Roman.sol\":1246:1252  result */\n      dup1\n        /* \"contracts/Roman.sol\":1254:1261  symbols */\n      dup4\n        /* \"contracts/Roman.sol\":1262:1263  i */\n      dup4\n        /* \"contracts/Roman.sol\":1254:1264  symbols[i] */\n      0x0d\n      dup2\n      lt\n      tag_28\n      jumpi\n      tag_29\n      tag_26\n      jump\t// in\n    tag_29:\n    tag_28:\n      0x20\n      mul\n      add\n      mload\n        /* \"contracts/Roman.sol\":1232:1265  string.concat(result, symbols[i]) */\n      add(0x20, mload(0x40))\n      tag_30\n      swap3\n      swap2\n      swap1\n      tag_31\n      jump\t// in\n    tag_30:\n      mload(0x40)\n      0x20\n      dup2\n      dup4\n      sub\n      sub\n      dup2\n      mstore\n      swap1\n      0x40\n      mstore\n        /* \"contracts/Roman.sol\":1223:1265  result = string.concat(result, symbols[i]) */\n      swap1\n      pop\n        /* \"contracts/Roman.sol\":1291:1297  values */\n      dup4\n        /* \"contracts/Roman.sol\":1298:1299  i */\n      dup3\n        /* \"contracts/Roman.sol\":1291:1300  values[i] */\n      0x0d\n      dup2\n      lt\n      tag_32\n      jumpi\n      tag_33\n      tag_26\n      jump\t// in\n    tag_33:\n    tag_32:\n      0x20\n      mul\n      add\n      mload\n        /* \"contracts/Roman.sol\":1284:1300  num -= values[i] */\n      dup7\n      tag_34\n      swap2\n      swap1\n      tag_35\n      jump\t// in\n    tag_34:\n      swap6\n      pop\n        /* \"contracts/Roman.sol\":1182:1360  if (num >= values[i]) {... */\n      jump(tag_36)\n    tag_27:\n        /* \"contracts/Roman.sol\":1341:1344  i++ */\n      dup2\n      dup1\n      tag_37\n      swap1\n      tag_38\n      jump\t// in\n    tag_37:\n      swap3\n      pop\n      pop\n        /* \"contracts/Roman.sol\":1182:1360  if (num >= values[i]) {... */\n    tag_36:\n        /* \"contracts/Roman.sol\":1151:1371  while (num > 0) {... */\n      jump(tag_22)\n    tag_23:\n        /* \"contracts/Roman.sol\":1390:1396  result */\n      dup1\n        /* \"contracts/Roman.sol\":1383:1396  return result */\n      swap5\n      pop\n      pop\n      pop\n      pop\n      pop\n        /* \"contracts/Roman.sol\":665:1404  function intToRoman(uint num) public pure returns (string memory) {... */\n      swap2\n      swap1\n      pop\n      jump\t// out\n        /* \"contracts/Roman.sol\":82:657  function romanToInt(string memory str) public pure returns (uint) {... */\n    tag_14:\n        /* \"contracts/Roman.sol\":142:146  uint */\n      0x00\n        /* \"contracts/Roman.sol\":159:176  bytes memory data */\n      0x00\n        /* \"contracts/Roman.sol\":185:188  str */\n      dup3\n        /* \"contracts/Roman.sol\":159:189  bytes memory data = bytes(str) */\n      swap1\n      pop\n        /* \"contracts/Roman.sol\":200:208  uint len */\n      0x00\n        /* \"contracts/Roman.sol\":211:215  data */\n      dup2\n        /* \"contracts/Roman.sol\":211:222  data.length */\n      mload\n        /* \"contracts/Roman.sol\":200:222  uint len = data.length */\n      swap1\n      pop\n        /* \"contracts/Roman.sol\":233:243  uint total */\n      0x00\n        /* \"contracts/Roman.sol\":246:247  0 */\n      0x00\n        /* \"contracts/Roman.sol\":233:247  uint total = 0 */\n      swap1\n      pop\n        /* \"contracts/Roman.sol\":258:264  uint i */\n      0x00\n        /* \"contracts/Roman.sol\":267:268  0 */\n      0x00\n        /* \"contracts/Roman.sol\":258:268  uint i = 0 */\n      swap1\n      pop\n        /* \"contracts/Roman.sol\":279:627  while (i < len) {... */\n    tag_40:\n        /* \"contracts/Roman.sol\":290:293  len */\n      dup3\n        /* \"contracts/Roman.sol\":286:287  i */\n      dup2\n        /* \"contracts/Roman.sol\":286:293  i < len */\n      lt\n        /* \"contracts/Roman.sol\":279:627  while (i < len) {... */\n      iszero\n      tag_41\n      jumpi\n        /* \"contracts/Roman.sol\":320:323  len */\n      dup3\n        /* \"contracts/Roman.sol\":316:317  1 */\n      0x01\n        /* \"contracts/Roman.sol\":313:314  i */\n      dup3\n        /* \"contracts/Roman.sol\":313:317  i+ 1 */\n      tag_42\n      swap2\n      swap1\n      tag_43\n      jump\t// in\n    tag_42:\n        /* \"contracts/Roman.sol\":313:323  i+ 1 < len */\n      lt\n        /* \"contracts/Roman.sol\":309:548  if (i+ 1 < len){... */\n      iszero\n      tag_44\n      jumpi\n        /* \"contracts/Roman.sol\":343:352  uint pair */\n      0x00\n        /* \"contracts/Roman.sol\":355:386  getPairValue(data[i],data[i+1]) */\n      tag_45\n        /* \"contracts/Roman.sol\":368:372  data */\n      dup6\n        /* \"contracts/Roman.sol\":373:374  i */\n      dup4\n        /* \"contracts/Roman.sol\":368:375  data[i] */\n      dup2\n      mload\n      dup2\n      lt\n      tag_46\n      jumpi\n      tag_47\n      tag_26\n      jump\t// in\n    tag_47:\n    tag_46:\n      0x20\n      add\n      add\n      mload\n      0xf8\n      shr\n      0xf8\n      shl\n        /* \"contracts/Roman.sol\":376:380  data */\n      dup7\n        /* \"contracts/Roman.sol\":383:384  1 */\n      0x01\n        /* \"contracts/Roman.sol\":381:382  i */\n      dup6\n        /* \"contracts/Roman.sol\":381:384  i+1 */\n      tag_48\n      swap2\n      swap1\n      tag_43\n      jump\t// in\n    tag_48:\n        /* \"contracts/Roman.sol\":376:385  data[i+1] */\n      dup2\n      mload\n      dup2\n      lt\n      tag_49\n      jumpi\n      tag_50\n      tag_26\n      jump\t// in\n    tag_50:\n    tag_49:\n      0x20\n      add\n      add\n      mload\n      0xf8\n      shr\n      0xf8\n      shl\n        /* \"contracts/Roman.sol\":355:367  getPairValue */\n      tag_51\n        /* \"contracts/Roman.sol\":355:386  getPairValue(data[i],data[i+1]) */\n      jump\t// in\n    tag_45:\n        /* \"contracts/Roman.sol\":343:386  uint pair = getPairValue(data[i],data[i+1]) */\n      swap1\n      pop\n        /* \"contracts/Roman.sol\":416:417  0 */\n      0x00\n        /* \"contracts/Roman.sol\":408:412  pair */\n      dup2\n        /* \"contracts/Roman.sol\":408:417  pair != 0 */\n      eq\n        /* \"contracts/Roman.sol\":405:534  if(pair != 0){... */\n      tag_52\n      jumpi\n        /* \"contracts/Roman.sol\":450:454  pair */\n      dup1\n        /* \"contracts/Roman.sol\":441:454  total += pair */\n      dup4\n      tag_53\n      swap2\n      swap1\n      tag_43\n      jump\t// in\n    tag_53:\n      swap3\n      pop\n        /* \"contracts/Roman.sol\":482:483  2 */\n      0x02\n        /* \"contracts/Roman.sol\":477:483  i += 2 */\n      dup3\n      tag_54\n      swap2\n      swap1\n      tag_43\n      jump\t// in\n    tag_54:\n      swap2\n      pop\n        /* \"contracts/Roman.sol\":506:514  continue */\n      pop\n      jump(tag_40)\n        /* \"contracts/Roman.sol\":405:534  if(pair != 0){... */\n    tag_52:\n        /* \"contracts/Roman.sol\":324:548  {... */\n      pop\n        /* \"contracts/Roman.sol\":309:548  if (i+ 1 < len){... */\n    tag_44:\n        /* \"contracts/Roman.sol\":574:597  getSingleValue(data[i]) */\n      tag_55\n        /* \"contracts/Roman.sol\":589:593  data */\n      dup5\n        /* \"contracts/Roman.sol\":594:595  i */\n      dup3\n        /* \"contracts/Roman.sol\":589:596  data[i] */\n      dup2\n      mload\n      dup2\n      lt\n      tag_56\n      jumpi\n      tag_57\n      tag_26\n      jump\t// in\n    tag_57:\n    tag_56:\n      0x20\n      add\n      add\n      mload\n      0xf8\n      shr\n      0xf8\n      shl\n        /* \"contracts/Roman.sol\":574:588  getSingleValue */\n      tag_58\n        /* \"contracts/Roman.sol\":574:597  getSingleValue(data[i]) */\n      jump\t// in\n    tag_55:\n        /* \"contracts/Roman.sol\":565:597  total += getSingleValue(data[i]) */\n      dup3\n      tag_59\n      swap2\n      swap1\n      tag_43\n      jump\t// in\n    tag_59:\n      swap2\n      pop\n        /* \"contracts/Roman.sol\":612:615  i++ */\n      dup1\n      dup1\n      tag_60\n      swap1\n      tag_38\n      jump\t// in\n    tag_60:\n      swap2\n      pop\n      pop\n        /* \"contracts/Roman.sol\":279:627  while (i < len) {... */\n      jump(tag_40)\n    tag_41:\n        /* \"contracts/Roman.sol\":644:649  total */\n      dup2\n        /* \"contracts/Roman.sol\":637:649  return total */\n      swap5\n      pop\n      pop\n      pop\n      pop\n      pop\n        /* \"contracts/Roman.sol\":82:657  function romanToInt(string memory str) public pure returns (uint) {... */\n      swap2\n      swap1\n      pop\n      jump\t// out\n        /* \"contracts/Roman.sol\":1781:2162  function getPairValue(bytes1 a, bytes1 b) internal pure returns (uint) {... */\n    tag_51:\n        /* \"contracts/Roman.sol\":1846:1850  uint */\n      0x00\n        /* \"contracts/Roman.sol\":1868:1876  a == 'I' */\n      0x4900000000000000000000000000000000000000000000000000000000000000\n        /* \"contracts/Roman.sol\":1868:1869  a */\n      dup4\n        /* \"contracts/Roman.sol\":1868:1876  a == 'I' */\n      not(0xffffffffffffffffffffffffffffffffffffffffffffffffffffffffffffff)\n      and\n      eq\n        /* \"contracts/Roman.sol\":1868:1888  a == 'I' && b == 'V' */\n      dup1\n      iszero\n      tag_62\n      jumpi\n      pop\n        /* \"contracts/Roman.sol\":1880:1888  b == 'V' */\n      0x5600000000000000000000000000000000000000000000000000000000000000\n        /* \"contracts/Roman.sol\":1880:1881  b */\n      dup3\n        /* \"contracts/Roman.sol\":1880:1888  b == 'V' */\n      not(0xffffffffffffffffffffffffffffffffffffffffffffffffffffffffffffff)\n      and\n      eq\n        /* \"contracts/Roman.sol\":1868:1888  a == 'I' && b == 'V' */\n    tag_62:\n        /* \"contracts/Roman.sol\":1864:1898  if (a == 'I' && b == 'V') return 4 */\n      iszero\n      tag_63\n      jumpi\n        /* \"contracts/Roman.sol\":1897:1898  4 */\n      0x04\n        /* \"contracts/Roman.sol\":1890:1898  return 4 */\n      swap1\n      pop\n      jump(tag_61)\n        /* \"contracts/Roman.sol\":1864:1898  if (a == 'I' && b == 'V') return 4 */\n    tag_63:\n        /* \"contracts/Roman.sol\":1914:1922  a == 'I' */\n      0x4900000000000000000000000000000000000000000000000000000000000000\n        /* \"contracts/Roman.sol\":1914:1915  a */\n      dup4\n        /* \"contracts/Roman.sol\":1914:1922  a == 'I' */\n      not(0xffffffffffffffffffffffffffffffffffffffffffffffffffffffffffffff)\n      and\n      eq\n        /* \"contracts/Roman.sol\":1914:1934  a == 'I' && b == 'X' */\n      dup1\n      iszero\n      tag_64\n      jumpi\n      pop\n        /* \"contracts/Roman.sol\":1926:1934  b == 'X' */\n      0x5800000000000000000000000000000000000000000000000000000000000000\n        /* \"contracts/Roman.sol\":1926:1927  b */\n      dup3\n        /* \"contracts/Roman.sol\":1926:1934  b == 'X' */\n      not(0xffffffffffffffffffffffffffffffffffffffffffffffffffffffffffffff)\n      and\n      eq\n        /* \"contracts/Roman.sol\":1914:1934  a == 'I' && b == 'X' */\n    tag_64:\n        /* \"contracts/Roman.sol\":1910:1944  if (a == 'I' && b == 'X') return 9 */\n      iszero\n      tag_65\n      jumpi\n        /* \"contracts/Roman.sol\":1943:1944  9 */\n      0x09\n        /* \"contracts/Roman.sol\":1936:1944  return 9 */\n      swap1\n      pop\n      jump(tag_61)\n        /* \"contracts/Roman.sol\":1910:1944  if (a == 'I' && b == 'X') return 9 */\n    tag_65:\n        /* \"contracts/Roman.sol\":1960:1968  a == 'X' */\n      0x5800000000000000000000000000000000000000000000000000000000000000\n        /* \"contracts/Roman.sol\":1960:1961  a */\n      dup4\n        /* \"contracts/Roman.sol\":1960:1968  a == 'X' */\n      not(0xffffffffffffffffffffffffffffffffffffffffffffffffffffffffffffff)\n      and\n      eq\n        /* \"contracts/Roman.sol\":1960:1980  a == 'X' && b == 'L' */\n      dup1\n      iszero\n      tag_66\n      jumpi\n      pop\n        /* \"contracts/Roman.sol\":1972:1980  b == 'L' */\n      0x4c00000000000000000000000000000000000000000000000000000000000000\n        /* \"contracts/Roman.sol\":1972:1973  b */\n      dup3\n        /* \"contracts/Roman.sol\":1972:1980  b == 'L' */\n      not(0xffffffffffffffffffffffffffffffffffffffffffffffffffffffffffffff)\n      and\n      eq\n        /* \"contracts/Roman.sol\":1960:1980  a == 'X' && b == 'L' */\n    tag_66:\n        /* \"contracts/Roman.sol\":1956:1991  if (a == 'X' && b == 'L') return 40 */\n      iszero\n      tag_67\n      jumpi\n        /* \"contracts/Roman.sol\":1989:1991  40 */\n      0x28\n        /* \"contracts/Roman.sol\":1982:1991  return 40 */\n      swap1\n      pop\n      jump(tag_61)\n        /* \"contracts/Roman.sol\":1956:1991  if (a == 'X' && b == 'L') return 40 */\n    tag_67:\n        /* \"contracts/Roman.sol\":2007:2015  a == 'X' */\n      0x5800000000000000000000000000000000000000000000000000000000000000\n        /* \"contracts/Roman.sol\":2007:2008  a */\n      dup4\n        /* \"contracts/Roman.sol\":2007:2015  a == 'X' */\n      not(0xffffffffffffffffffffffffffffffffffffffffffffffffffffffffffffff)\n      and\n      eq\n        /* \"contracts/Roman.sol\":2007:2027  a == 'X' && b == 'C' */\n      dup1\n      iszero\n      tag_68\n      jumpi\n      pop\n        /* \"contracts/Roman.sol\":2019:2027  b == 'C' */\n      0x4300000000000000000000000000000000000000000000000000000000000000\n        /* \"contracts/Roman.sol\":2019:2020  b */\n      dup3\n        /* \"contracts/Roman.sol\":2019:2027  b == 'C' */\n      not(0xffffffffffffffffffffffffffffffffffffffffffffffffffffffffffffff)\n      and\n      eq\n        /* \"contracts/Roman.sol\":2007:2027  a == 'X' && b == 'C' */\n    tag_68:\n        /* \"contracts/Roman.sol\":2003:2038  if (a == 'X' && b == 'C') return 90 */\n      iszero\n      tag_69\n      jumpi\n        /* \"contracts/Roman.sol\":2036:2038  90 */\n      0x5a\n        /* \"contracts/Roman.sol\":2029:2038  return 90 */\n      swap1\n      pop\n      jump(tag_61)\n        /* \"contracts/Roman.sol\":2003:2038  if (a == 'X' && b == 'C') return 90 */\n    tag_69:\n        /* \"contracts/Roman.sol\":2054:2062  a == 'C' */\n      0x4300000000000000000000000000000000000000000000000000000000000000\n        /* \"contracts/Roman.sol\":2054:2055  a */\n      dup4\n        /* \"contracts/Roman.sol\":2054:2062  a == 'C' */\n      not(0xffffffffffffffffffffffffffffffffffffffffffffffffffffffffffffff)\n      and\n      eq\n        /* \"contracts/Roman.sol\":2054:2074  a == 'C' && b == 'D' */\n      dup1\n      iszero\n      tag_70\n      jumpi\n      pop\n        /* \"contracts/Roman.sol\":2066:2074  b == 'D' */\n      0x4400000000000000000000000000000000000000000000000000000000000000\n        /* \"contracts/Roman.sol\":2066:2067  b */\n      dup3\n        /* \"contracts/Roman.sol\":2066:2074  b == 'D' */\n      not(0xffffffffffffffffffffffffffffffffffffffffffffffffffffffffffffff)\n      and\n      eq\n        /* \"contracts/Roman.sol\":2054:2074  a == 'C' && b == 'D' */\n    tag_70:\n        /* \"contracts/Roman.sol\":2050:2086  if (a == 'C' && b == 'D') return 400 */\n      iszero\n      tag_71\n      jumpi\n        /* \"contracts/Roman.sol\":2083:2086  400 */\n      0x0190\n        /* \"contracts/Roman.sol\":2076:2086  return 400 */\n      swap1\n      pop\n      jump(tag_61)\n        /* \"contracts/Roman.sol\":2050:2086  if (a == 'C' && b == 'D') return 400 */\n    tag_71:\n        /* \"contracts/Roman.sol\":2102:2110  a == 'C' */\n      0x4300000000000000000000000000000000000000000000000000000000000000\n        /* \"contracts/Roman.sol\":2102:2103  a */\n      dup4\n        /* \"contracts/Roman.sol\":2102:2110  a == 'C' */\n      not(0xffffffffffffffffffffffffffffffffffffffffffffffffffffffffffffff)\n      and\n      eq\n        /* \"contracts/Roman.sol\":2102:2122  a == 'C' && b == 'M' */\n      dup1\n      iszero\n      tag_72\n      jumpi\n      pop\n        /* \"contracts/Roman.sol\":2114:2122  b == 'M' */\n      0x4d00000000000000000000000000000000000000000000000000000000000000\n        /* \"contracts/Roman.sol\":2114:2115  b */\n      dup3\n        /* \"contracts/Roman.sol\":2114:2122  b == 'M' */\n      not(0xffffffffffffffffffffffffffffffffffffffffffffffffffffffffffffff)\n      and\n      eq\n        /* \"contracts/Roman.sol\":2102:2122  a == 'C' && b == 'M' */\n    tag_72:\n        /* \"contracts/Roman.sol\":2098:2134  if (a == 'C' && b == 'M') return 900 */\n      iszero\n      tag_73\n      jumpi\n        /* \"contracts/Roman.sol\":2131:2134  900 */\n      0x0384\n        /* \"contracts/Roman.sol\":2124:2134  return 900 */\n      swap1\n      pop\n      jump(tag_61)\n        /* \"contracts/Roman.sol\":2098:2134  if (a == 'C' && b == 'M') return 900 */\n    tag_73:\n        /* \"contracts/Roman.sol\":2153:2154  0 */\n      0x00\n        /* \"contracts/Roman.sol\":2146:2154  return 0 */\n      swap1\n      pop\n        /* \"contracts/Roman.sol\":1781:2162  function getPairValue(bytes1 a, bytes1 b) internal pure returns (uint) {... */\n    tag_61:\n      swap3\n      swap2\n      pop\n      pop\n      jump\t// out\n        /* \"contracts/Roman.sol\":1412:1773  function getSingleValue(bytes1 s) internal pure returns (uint) {... */\n    tag_58:\n        /* \"contracts/Roman.sol\":1469:1473  uint */\n      0x00\n        /* \"contracts/Roman.sol\":1491:1499  s == 'I' */\n      0x4900000000000000000000000000000000000000000000000000000000000000\n        /* \"contracts/Roman.sol\":1491:1492  s */\n      dup3\n        /* \"contracts/Roman.sol\":1491:1499  s == 'I' */\n      not(0xffffffffffffffffffffffffffffffffffffffffffffffffffffffffffffff)\n      and\n      sub\n        /* \"contracts/Roman.sol\":1487:1509  if (s == 'I') return 1 */\n      tag_75\n      jumpi\n        /* \"contracts/Roman.sol\":1508:1509  1 */\n      0x01\n        /* \"contracts/Roman.sol\":1501:1509  return 1 */\n      swap1\n      pop\n      jump(tag_74)\n        /* \"contracts/Roman.sol\":1487:1509  if (s == 'I') return 1 */\n    tag_75:\n        /* \"contracts/Roman.sol\":1525:1533  s == 'V' */\n      0x5600000000000000000000000000000000000000000000000000000000000000\n        /* \"contracts/Roman.sol\":1525:1526  s */\n      dup3\n        /* \"contracts/Roman.sol\":1525:1533  s == 'V' */\n      not(0xffffffffffffffffffffffffffffffffffffffffffffffffffffffffffffff)\n      and\n      sub\n        /* \"contracts/Roman.sol\":1521:1543  if (s == 'V') return 5 */\n      tag_76\n      jumpi\n        /* \"contracts/Roman.sol\":1542:1543  5 */\n      0x05\n        /* \"contracts/Roman.sol\":1535:1543  return 5 */\n      swap1\n      pop\n      jump(tag_74)\n        /* \"contracts/Roman.sol\":1521:1543  if (s == 'V') return 5 */\n    tag_76:\n        /* \"contracts/Roman.sol\":1559:1567  s == 'X' */\n      0x5800000000000000000000000000000000000000000000000000000000000000\n        /* \"contracts/Roman.sol\":1559:1560  s */\n      dup3\n        /* \"contracts/Roman.sol\":1559:1567  s == 'X' */\n      not(0xffffffffffffffffffffffffffffffffffffffffffffffffffffffffffffff)\n      and\n      sub\n        /* \"contracts/Roman.sol\":1555:1578  if (s == 'X') return 10 */\n      tag_77\n      jumpi\n        /* \"contracts/Roman.sol\":1576:1578  10 */\n      0x0a\n        /* \"contracts/Roman.sol\":1569:1578  return 10 */\n      swap1\n      pop\n      jump(tag_74)\n        /* \"contracts/Roman.sol\":1555:1578  if (s == 'X') return 10 */\n    tag_77:\n        /* \"contracts/Roman.sol\":1594:1602  s == 'L' */\n      0x4c00000000000000000000000000000000000000000000000000000000000000\n        /* \"contracts/Roman.sol\":1594:1595  s */\n      dup3\n        /* \"contracts/Roman.sol\":1594:1602  s == 'L' */\n      not(0xffffffffffffffffffffffffffffffffffffffffffffffffffffffffffffff)\n      and\n      sub\n        /* \"contracts/Roman.sol\":1590:1613  if (s == 'L') return 50 */\n      tag_78\n      jumpi\n        /* \"contracts/Roman.sol\":1611:1613  50 */\n      0x32\n        /* \"contracts/Roman.sol\":1604:1613  return 50 */\n      swap1\n      pop\n      jump(tag_74)\n        /* \"contracts/Roman.sol\":1590:1613  if (s == 'L') return 50 */\n    tag_78:\n        /* \"contracts/Roman.sol\":1629:1637  s == 'C' */\n      0x4300000000000000000000000000000000000000000000000000000000000000\n        /* \"contracts/Roman.sol\":1629:1630  s */\n      dup3\n        /* \"contracts/Roman.sol\":1629:1637  s == 'C' */\n      not(0xffffffffffffffffffffffffffffffffffffffffffffffffffffffffffffff)\n      and\n      sub\n        /* \"contracts/Roman.sol\":1625:1649  if (s == 'C') return 100 */\n      tag_79\n      jumpi\n        /* \"contracts/Roman.sol\":1646:1649  100 */\n      0x64\n        /* \"contracts/Roman.sol\":1639:1649  return 100 */\n      swap1\n      pop\n      jump(tag_74)\n        /* \"contracts/Roman.sol\":1625:1649  if (s == 'C') return 100 */\n    tag_79:\n        /* \"contracts/Roman.sol\":1665:1673  s == 'D' */\n      0x4400000000000000000000000000000000000000000000000000000000000000\n        /* \"contracts/Roman.sol\":1665:1666  s */\n      dup3\n        /* \"contracts/Roman.sol\":1665:1673  s == 'D' */\n      not(0xffffffffffffffffffffffffffffffffffffffffffffffffffffffffffffff)\n      and\n      sub\n        /* \"contracts/Roman.sol\":1661:1685  if (s == 'D') return 500 */\n      tag_80\n      jumpi\n        /* \"contracts/Roman.sol\":1682:1685  500 */\n      0x01f4\n        /* \"contracts/Roman.sol\":1675:1685  return 500 */\n      swap1\n      pop\n      jump(tag_74)\n        /* \"contracts/Roman.sol\":1661:1685  if (s == 'D') return 500 */\n    tag_80:\n        /* \"contracts/Roman.sol\":1701:1709  s == 'M' */\n      0x4d00000000000000000000000000000000000000000000000000000000000000\n        /* \"contracts/Roman.sol\":1701:1702  s */\n      dup3\n        /* \"contracts/Roman.sol\":1701:1709  s == 'M' */\n      not(0xffffffffffffffffffffffffffffffffffffffffffffffffffffffffffffff)\n      and\n      sub\n        /* \"contracts/Roman.sol\":1697:1722  if (s == 'M') return 1000 */\n      tag_81\n      jumpi\n        /* \"contracts/Roman.sol\":1718:1722  1000 */\n      0x03e8\n        /* \"contracts/Roman.sol\":1711:1722  return 1000 */\n      swap1\n      pop\n      jump(tag_74)\n        /* \"contracts/Roman.sol\":1697:1722  if (s == 'M') return 1000 */\n    tag_81:\n        /* \"contracts/Roman.sol\":1734:1765  revert(\"Invalid Roman numeral\") */\n      mload(0x40)\n      0x08c379a000000000000000000000000000000000000000000000000000000000\n      dup2\n      mstore\n      0x04\n      add\n      tag_82\n      swap1\n      tag_83\n      jump\t// in\n    tag_82:\n      mload(0x40)\n      dup1\n      swap2\n      sub\n      swap1\n      revert\n        /* \"contracts/Roman.sol\":1412:1773  function getSingleValue(bytes1 s) internal pure returns (uint) {... */\n    tag_74:\n      swap2\n      swap1\n      pop\n      jump\t// out\n        /* \"#utility.yul\":7:82   */\n    tag_84:\n        /* \"#utility.yul\":40:46   */\n      0x00\n        /* \"#utility.yul\":73:75   */\n      0x40\n        /* \"#utility.yul\":67:76   */\n      mload\n        /* \"#utility.yul\":57:76   */\n      swap1\n      pop\n        /* \"#utility.yul\":7:82   */\n      swap1\n      jump\t// out\n        /* \"#utility.yul\":88:205   */\n    tag_85:\n        /* \"#utility.yul\":197:198   */\n      0x00\n        /* \"#utility.yul\":194:195   */\n      0x00\n        /* \"#utility.yul\":187:199   */\n      revert\n        /* \"#utility.yul\":211:328   */\n    tag_86:\n        /* \"#utility.yul\":320:321   */\n      0x00\n        /* \"#utility.yul\":317:318   */\n      0x00\n        /* \"#utility.yul\":310:322   */\n      revert\n        /* \"#utility.yul\":334:411   */\n    tag_87:\n        /* \"#utility.yul\":371:378   */\n      0x00\n        /* \"#utility.yul\":400:405   */\n      dup2\n        /* \"#utility.yul\":389:405   */\n      swap1\n      pop\n        /* \"#utility.yul\":334:411   */\n      swap2\n      swap1\n      pop\n      jump\t// out\n        /* \"#utility.yul\":417:539   */\n    tag_88:\n        /* \"#utility.yul\":490:514   */\n      tag_118\n        /* \"#utility.yul\":508:513   */\n      dup2\n        /* \"#utility.yul\":490:514   */\n      tag_87\n      jump\t// in\n    tag_118:\n        /* \"#utility.yul\":483:488   */\n      dup2\n        /* \"#utility.yul\":480:515   */\n      eq\n        /* \"#utility.yul\":470:533   */\n      tag_119\n      jumpi\n        /* \"#utility.yul\":529:530   */\n      0x00\n        /* \"#utility.yul\":526:527   */\n      0x00\n        /* \"#utility.yul\":519:531   */\n      revert\n        /* \"#utility.yul\":470:533   */\n    tag_119:\n        /* \"#utility.yul\":417:539   */\n      pop\n      jump\t// out\n        /* \"#utility.yul\":545:684   */\n    tag_89:\n        /* \"#utility.yul\":591:596   */\n      0x00\n        /* \"#utility.yul\":629:635   */\n      dup2\n        /* \"#utility.yul\":616:636   */\n      calldataload\n        /* \"#utility.yul\":607:636   */\n      swap1\n      pop\n        /* \"#utility.yul\":645:678   */\n      tag_121\n        /* \"#utility.yul\":672:677   */\n      dup2\n        /* \"#utility.yul\":645:678   */\n      tag_88\n      jump\t// in\n    tag_121:\n        /* \"#utility.yul\":545:684   */\n      swap3\n      swap2\n      pop\n      pop\n      jump\t// out\n        /* \"#utility.yul\":690:1019   */\n    tag_7:\n        /* \"#utility.yul\":749:755   */\n      0x00\n        /* \"#utility.yul\":798:800   */\n      0x20\n        /* \"#utility.yul\":786:795   */\n      dup3\n        /* \"#utility.yul\":777:784   */\n      dup5\n        /* \"#utility.yul\":773:796   */\n      sub\n        /* \"#utility.yul\":769:801   */\n      slt\n        /* \"#utility.yul\":766:885   */\n      iszero\n      tag_123\n      jumpi\n        /* \"#utility.yul\":804:883   */\n      tag_124\n      tag_85\n      jump\t// in\n    tag_124:\n        /* \"#utility.yul\":766:885   */\n    tag_123:\n        /* \"#utility.yul\":924:925   */\n      0x00\n        /* \"#utility.yul\":949:1002   */\n      tag_125\n        /* \"#utility.yul\":994:1001   */\n      dup5\n        /* \"#utility.yul\":985:991   */\n      dup3\n        /* \"#utility.yul\":974:983   */\n      dup6\n        /* \"#utility.yul\":970:992   */\n      add\n        /* \"#utility.yul\":949:1002   */\n      tag_89\n      jump\t// in\n    tag_125:\n        /* \"#utility.yul\":939:1002   */\n      swap2\n      pop\n        /* \"#utility.yul\":895:1012   */\n      pop\n        /* \"#utility.yul\":690:1019   */\n      swap3\n      swap2\n      pop\n      pop\n      jump\t// out\n        /* \"#utility.yul\":1025:1124   */\n    tag_90:\n        /* \"#utility.yul\":1077:1083   */\n      0x00\n        /* \"#utility.yul\":1111:1116   */\n      dup2\n        /* \"#utility.yul\":1105:1117   */\n      mload\n        /* \"#utility.yul\":1095:1117   */\n      swap1\n      pop\n        /* \"#utility.yul\":1025:1124   */\n      swap2\n      swap1\n      pop\n      jump\t// out\n        /* \"#utility.yul\":1130:1299   */\n    tag_91:\n        /* \"#utility.yul\":1214:1225   */\n      0x00\n        /* \"#utility.yul\":1248:1254   */\n      dup3\n        /* \"#utility.yul\":1243:1246   */\n      dup3\n        /* \"#utility.yul\":1236:1255   */\n      mstore\n        /* \"#utility.yul\":1288:1292   */\n      0x20\n        /* \"#utility.yul\":1283:1286   */\n      dup3\n        /* \"#utility.yul\":1279:1293   */\n      add\n        /* \"#utility.yul\":1264:1293   */\n      swap1\n      pop\n        /* \"#utility.yul\":1130:1299   */\n      swap3\n      swap2\n      pop\n      pop\n      jump\t// out\n        /* \"#utility.yul\":1305:1444   */\n    tag_92:\n        /* \"#utility.yul\":1394:1400   */\n      dup3\n        /* \"#utility.yul\":1389:1392   */\n      dup2\n        /* \"#utility.yul\":1384:1387   */\n      dup4\n        /* \"#utility.yul\":1378:1401   */\n      mcopy\n        /* \"#utility.yul\":1435:1436   */\n      0x00\n        /* \"#utility.yul\":1426:1432   */\n      dup4\n        /* \"#utility.yul\":1421:1424   */\n      dup4\n        /* \"#utility.yul\":1417:1433   */\n      add\n        /* \"#utility.yul\":1410:1437   */\n      mstore\n        /* \"#utility.yul\":1305:1444   */\n      pop\n      pop\n      pop\n      jump\t// out\n        /* \"#utility.yul\":1450:1552   */\n    tag_93:\n        /* \"#utility.yul\":1491:1497   */\n      0x00\n        /* \"#utility.yul\":1542:1544   */\n      0x1f\n        /* \"#utility.yul\":1538:1545   */\n      not\n        /* \"#utility.yul\":1533:1535   */\n      0x1f\n        /* \"#utility.yul\":1526:1531   */\n      dup4\n        /* \"#utility.yul\":1522:1536   */\n      add\n        /* \"#utility.yul\":1518:1546   */\n      and\n        /* \"#utility.yul\":1508:1546   */\n      swap1\n      pop\n        /* \"#utility.yul\":1450:1552   */\n      swap2\n      swap1\n      pop\n      jump\t// out\n        /* \"#utility.yul\":1558:1935   */\n    tag_94:\n        /* \"#utility.yul\":1646:1649   */\n      0x00\n        /* \"#utility.yul\":1674:1713   */\n      tag_131\n        /* \"#utility.yul\":1707:1712   */\n      dup3\n        /* \"#utility.yul\":1674:1713   */\n      tag_90\n      jump\t// in\n    tag_131:\n        /* \"#utility.yul\":1729:1800   */\n      tag_132\n        /* \"#utility.yul\":1793:1799   */\n      dup2\n        /* \"#utility.yul\":1788:1791   */\n      dup6\n        /* \"#utility.yul\":1729:1800   */\n      tag_91\n      jump\t// in\n    tag_132:\n        /* \"#utility.yul\":1722:1800   */\n      swap4\n      pop\n        /* \"#utility.yul\":1809:1874   */\n      tag_133\n        /* \"#utility.yul\":1867:1873   */\n      dup2\n        /* \"#utility.yul\":1862:1865   */\n      dup6\n        /* \"#utility.yul\":1855:1859   */\n      0x20\n        /* \"#utility.yul\":1848:1853   */\n      dup7\n        /* \"#utility.yul\":1844:1860   */\n      add\n        /* \"#utility.yul\":1809:1874   */\n      tag_92\n      jump\t// in\n    tag_133:\n        /* \"#utility.yul\":1899:1928   */\n      tag_134\n        /* \"#utility.yul\":1921:1927   */\n      dup2\n        /* \"#utility.yul\":1899:1928   */\n      tag_93\n      jump\t// in\n    tag_134:\n        /* \"#utility.yul\":1894:1897   */\n      dup5\n        /* \"#utility.yul\":1890:1929   */\n      add\n        /* \"#utility.yul\":1883:1929   */\n      swap2\n      pop\n        /* \"#utility.yul\":1650:1935   */\n      pop\n        /* \"#utility.yul\":1558:1935   */\n      swap3\n      swap2\n      pop\n      pop\n      jump\t// out\n        /* \"#utility.yul\":1941:2254   */\n    tag_10:\n        /* \"#utility.yul\":2054:2058   */\n      0x00\n        /* \"#utility.yul\":2092:2094   */\n      0x20\n        /* \"#utility.yul\":2081:2090   */\n      dup3\n        /* \"#utility.yul\":2077:2095   */\n      add\n        /* \"#utility.yul\":2069:2095   */\n      swap1\n      pop\n        /* \"#utility.yul\":2141:2150   */\n      dup2\n        /* \"#utility.yul\":2135:2139   */\n      dup2\n        /* \"#utility.yul\":2131:2151   */\n      sub\n        /* \"#utility.yul\":2127:2128   */\n      0x00\n        /* \"#utility.yul\":2116:2125   */\n      dup4\n        /* \"#utility.yul\":2112:2129   */\n      add\n        /* \"#utility.yul\":2105:2152   */\n      mstore\n        /* \"#utility.yul\":2169:2247   */\n      tag_136\n        /* \"#utility.yul\":2242:2246   */\n      dup2\n        /* \"#utility.yul\":2233:2239   */\n      dup5\n        /* \"#utility.yul\":2169:2247   */\n      tag_94\n      jump\t// in\n    tag_136:\n        /* \"#utility.yul\":2161:2247   */\n      swap1\n      pop\n        /* \"#utility.yul\":1941:2254   */\n      swap3\n      swap2\n      pop\n      pop\n      jump\t// out\n        /* \"#utility.yul\":2260:2377   */\n    tag_95:\n        /* \"#utility.yul\":2369:2370   */\n      0x00\n        /* \"#utility.yul\":2366:2367   */\n      0x00\n        /* \"#utility.yul\":2359:2371   */\n      revert\n        /* \"#utility.yul\":2383:2500   */\n    tag_96:\n        /* \"#utility.yul\":2492:2493   */\n      0x00\n        /* \"#utility.yul\":2489:2490   */\n      0x00\n        /* \"#utility.yul\":2482:2494   */\n      revert\n        /* \"#utility.yul\":2506:2686   */\n    tag_97:\n        /* \"#utility.yul\":2554:2631   */\n      0x4e487b7100000000000000000000000000000000000000000000000000000000\n        /* \"#utility.yul\":2551:2552   */\n      0x00\n        /* \"#utility.yul\":2544:2632   */\n      mstore\n        /* \"#utility.yul\":2651:2655   */\n      0x41\n        /* \"#utility.yul\":2648:2649   */\n      0x04\n        /* \"#utility.yul\":2641:2656   */\n      mstore\n        /* \"#utility.yul\":2675:2679   */\n      0x24\n        /* \"#utility.yul\":2672:2673   */\n      0x00\n        /* \"#utility.yul\":2665:2680   */\n      revert\n        /* \"#utility.yul\":2692:2973   */\n    tag_98:\n        /* \"#utility.yul\":2775:2802   */\n      tag_141\n        /* \"#utility.yul\":2797:2801   */\n      dup3\n        /* \"#utility.yul\":2775:2802   */\n      tag_93\n      jump\t// in\n    tag_141:\n        /* \"#utility.yul\":2767:2773   */\n      dup2\n        /* \"#utility.yul\":2763:2803   */\n      add\n        /* \"#utility.yul\":2905:2911   */\n      dup2\n        /* \"#utility.yul\":2893:2903   */\n      dup2\n        /* \"#utility.yul\":2890:2912   */\n      lt\n        /* \"#utility.yul\":2869:2887   */\n      0xffffffffffffffff\n        /* \"#utility.yul\":2857:2867   */\n      dup3\n        /* \"#utility.yul\":2854:2888   */\n      gt\n        /* \"#utility.yul\":2851:2913   */\n      or\n        /* \"#utility.yul\":2848:2936   */\n      iszero\n      tag_142\n      jumpi\n        /* \"#utility.yul\":2916:2934   */\n      tag_143\n      tag_97\n      jump\t// in\n    tag_143:\n        /* \"#utility.yul\":2848:2936   */\n    tag_142:\n        /* \"#utility.yul\":2956:2966   */\n      dup1\n        /* \"#utility.yul\":2952:2954   */\n      0x40\n        /* \"#utility.yul\":2945:2967   */\n      mstore\n        /* \"#utility.yul\":2735:2973   */\n      pop\n        /* \"#utility.yul\":2692:2973   */\n      pop\n      pop\n      jump\t// out\n        /* \"#utility.yul\":2979:3108   */\n    tag_99:\n        /* \"#utility.yul\":3013:3019   */\n      0x00\n        /* \"#utility.yul\":3040:3060   */\n      tag_145\n      tag_84\n      jump\t// in\n    tag_145:\n        /* \"#utility.yul\":3030:3060   */\n      swap1\n      pop\n        /* \"#utility.yul\":3069:3102   */\n      tag_146\n        /* \"#utility.yul\":3097:3101   */\n      dup3\n        /* \"#utility.yul\":3089:3095   */\n      dup3\n        /* \"#utility.yul\":3069:3102   */\n      tag_98\n      jump\t// in\n    tag_146:\n        /* \"#utility.yul\":2979:3108   */\n      swap2\n      swap1\n      pop\n      jump\t// out\n        /* \"#utility.yul\":3114:3422   */\n    tag_100:\n        /* \"#utility.yul\":3176:3180   */\n      0x00\n        /* \"#utility.yul\":3266:3284   */\n      0xffffffffffffffff\n        /* \"#utility.yul\":3258:3264   */\n      dup3\n        /* \"#utility.yul\":3255:3285   */\n      gt\n        /* \"#utility.yul\":3252:3308   */\n      iszero\n      tag_148\n      jumpi\n        /* \"#utility.yul\":3288:3306   */\n      tag_149\n      tag_97\n      jump\t// in\n    tag_149:\n        /* \"#utility.yul\":3252:3308   */\n    tag_148:\n        /* \"#utility.yul\":3326:3355   */\n      tag_150\n        /* \"#utility.yul\":3348:3354   */\n      dup3\n        /* \"#utility.yul\":3326:3355   */\n      tag_93\n      jump\t// in\n    tag_150:\n        /* \"#utility.yul\":3318:3355   */\n      swap1\n      pop\n        /* \"#utility.yul\":3410:3414   */\n      0x20\n        /* \"#utility.yul\":3404:3408   */\n      dup2\n        /* \"#utility.yul\":3400:3415   */\n      add\n        /* \"#utility.yul\":3392:3415   */\n      swap1\n      pop\n        /* \"#utility.yul\":3114:3422   */\n      swap2\n      swap1\n      pop\n      jump\t// out\n        /* \"#utility.yul\":3428:3576   */\n    tag_101:\n        /* \"#utility.yul\":3526:3532   */\n      dup3\n        /* \"#utility.yul\":3521:3524   */\n      dup2\n        /* \"#utility.yul\":3516:3519   */\n      dup4\n        /* \"#utility.yul\":3503:3533   */\n      calldatacopy\n        /* \"#utility.yul\":3567:3568   */\n      0x00\n        /* \"#utility.yul\":3558:3564   */\n      dup4\n        /* \"#utility.yul\":3553:3556   */\n      dup4\n        /* \"#utility.yul\":3549:3565   */\n      add\n        /* \"#utility.yul\":3542:3569   */\n      mstore\n        /* \"#utility.yul\":3428:3576   */\n      pop\n      pop\n      pop\n      jump\t// out\n        /* \"#utility.yul\":3582:4007   */\n    tag_102:\n        /* \"#utility.yul\":3660:3665   */\n      0x00\n        /* \"#utility.yul\":3685:3751   */\n      tag_153\n        /* \"#utility.yul\":3701:3750   */\n      tag_154\n        /* \"#utility.yul\":3743:3749   */\n      dup5\n        /* \"#utility.yul\":3701:3750   */\n      tag_100\n      jump\t// in\n    tag_154:\n        /* \"#utility.yul\":3685:3751   */\n      tag_99\n      jump\t// in\n    tag_153:\n        /* \"#utility.yul\":3676:3751   */\n      swap1\n      pop\n        /* \"#utility.yul\":3774:3780   */\n      dup3\n        /* \"#utility.yul\":3767:3772   */\n      dup2\n        /* \"#utility.yul\":3760:3781   */\n      mstore\n        /* \"#utility.yul\":3812:3816   */\n      0x20\n        /* \"#utility.yul\":3805:3810   */\n      dup2\n        /* \"#utility.yul\":3801:3817   */\n      add\n        /* \"#utility.yul\":3850:3853   */\n      dup5\n        /* \"#utility.yul\":3841:3847   */\n      dup5\n        /* \"#utility.yul\":3836:3839   */\n      dup5\n        /* \"#utility.yul\":3832:3848   */\n      add\n        /* \"#utility.yul\":3829:3854   */\n      gt\n        /* \"#utility.yul\":3826:3938   */\n      iszero\n      tag_155\n      jumpi\n        /* \"#utility.yul\":3857:3936   */\n      tag_156\n      tag_96\n      jump\t// in\n    tag_156:\n        /* \"#utility.yul\":3826:3938   */\n    tag_155:\n        /* \"#utility.yul\":3947:4001   */\n      tag_157\n        /* \"#utility.yul\":3994:4000   */\n      dup5\n        /* \"#utility.yul\":3989:3992   */\n      dup3\n        /* \"#utility.yul\":3984:3987   */\n      dup6\n        /* \"#utility.yul\":3947:4001   */\n      tag_101\n      jump\t// in\n    tag_157:\n        /* \"#utility.yul\":3666:4007   */\n      pop\n        /* \"#utility.yul\":3582:4007   */\n      swap4\n      swap3\n      pop\n      pop\n      pop\n      jump\t// out\n        /* \"#utility.yul\":4027:4367   */\n    tag_103:\n        /* \"#utility.yul\":4083:4088   */\n      0x00\n        /* \"#utility.yul\":4132:4135   */\n      dup3\n        /* \"#utility.yul\":4125:4129   */\n      0x1f\n        /* \"#utility.yul\":4117:4123   */\n      dup4\n        /* \"#utility.yul\":4113:4130   */\n      add\n        /* \"#utility.yul\":4109:4136   */\n      slt\n        /* \"#utility.yul\":4099:4221   */\n      tag_159\n      jumpi\n        /* \"#utility.yul\":4140:4219   */\n      tag_160\n      tag_95\n      jump\t// in\n    tag_160:\n        /* \"#utility.yul\":4099:4221   */\n    tag_159:\n        /* \"#utility.yul\":4257:4263   */\n      dup2\n        /* \"#utility.yul\":4244:4264   */\n      calldataload\n        /* \"#utility.yul\":4282:4361   */\n      tag_161\n        /* \"#utility.yul\":4357:4360   */\n      dup5\n        /* \"#utility.yul\":4349:4355   */\n      dup3\n        /* \"#utility.yul\":4342:4346   */\n      0x20\n        /* \"#utility.yul\":4334:4340   */\n      dup7\n        /* \"#utility.yul\":4330:4347   */\n      add\n        /* \"#utility.yul\":4282:4361   */\n      tag_102\n      jump\t// in\n    tag_161:\n        /* \"#utility.yul\":4273:4361   */\n      swap2\n      pop\n        /* \"#utility.yul\":4089:4367   */\n      pop\n        /* \"#utility.yul\":4027:4367   */\n      swap3\n      swap2\n      pop\n      pop\n      jump\t// out\n        /* \"#utility.yul\":4373:4882   */\n    tag_13:\n        /* \"#utility.yul\":4442:4448   */\n      0x00\n        /* \"#utility.yul\":4491:4493   */\n      0x20\n        /* \"#utility.yul\":4479:4488   */\n      dup3\n        /* \"#utility.yul\":4470:4477   */\n      dup5\n        /* \"#utility.yul\":4466:4489   */\n      sub\n        /* \"#utility.yul\":4462:4494   */\n      slt\n        /* \"#utility.yul\":4459:4578   */\n      iszero\n      tag_163\n      jumpi\n        /* \"#utility.yul\":4497:4576   */\n      tag_164\n      tag_85\n      jump\t// in\n    tag_164:\n        /* \"#utility.yul\":4459:4578   */\n    tag_163:\n        /* \"#utility.yul\":4645:4646   */\n      0x00\n        /* \"#utility.yul\":4634:4643   */\n      dup3\n        /* \"#utility.yul\":4630:4647   */\n      add\n        /* \"#utility.yul\":4617:4648   */\n      calldataload\n        /* \"#utility.yul\":4675:4693   */\n      0xffffffffffffffff\n        /* \"#utility.yul\":4667:4673   */\n      dup2\n        /* \"#utility.yul\":4664:4694   */\n      gt\n        /* \"#utility.yul\":4661:4778   */\n      iszero\n      tag_165\n      jumpi\n        /* \"#utility.yul\":4697:4776   */\n      tag_166\n      tag_86\n      jump\t// in\n    tag_166:\n        /* \"#utility.yul\":4661:4778   */\n    tag_165:\n        /* \"#utility.yul\":4802:4865   */\n      tag_167\n        /* \"#utility.yul\":4857:4864   */\n      dup5\n        /* \"#utility.yul\":4848:4854   */\n      dup3\n        /* \"#utility.yul\":4837:4846   */\n      dup6\n        /* \"#utility.yul\":4833:4855   */\n      add\n        /* \"#utility.yul\":4802:4865   */\n      tag_103\n      jump\t// in\n    tag_167:\n        /* \"#utility.yul\":4792:4865   */\n      swap2\n      pop\n        /* \"#utility.yul\":4588:4875   */\n      pop\n        /* \"#utility.yul\":4373:4882   */\n      swap3\n      swap2\n      pop\n      pop\n      jump\t// out\n        /* \"#utility.yul\":4888:5006   */\n    tag_104:\n        /* \"#utility.yul\":4975:4999   */\n      tag_169\n        /* \"#utility.yul\":4993:4998   */\n      dup2\n        /* \"#utility.yul\":4975:4999   */\n      tag_87\n      jump\t// in\n    tag_169:\n        /* \"#utility.yul\":4970:4973   */\n      dup3\n        /* \"#utility.yul\":4963:5000   */\n      mstore\n        /* \"#utility.yul\":4888:5006   */\n      pop\n      pop\n      jump\t// out\n        /* \"#utility.yul\":5012:5234   */\n    tag_16:\n        /* \"#utility.yul\":5105:5109   */\n      0x00\n        /* \"#utility.yul\":5143:5145   */\n      0x20\n        /* \"#utility.yul\":5132:5141   */\n      dup3\n        /* \"#utility.yul\":5128:5146   */\n      add\n        /* \"#utility.yul\":5120:5146   */\n      swap1\n      pop\n        /* \"#utility.yul\":5156:5227   */\n      tag_171\n        /* \"#utility.yul\":5224:5225   */\n      0x00\n        /* \"#utility.yul\":5213:5222   */\n      dup4\n        /* \"#utility.yul\":5209:5226   */\n      add\n        /* \"#utility.yul\":5200:5206   */\n      dup5\n        /* \"#utility.yul\":5156:5227   */\n      tag_104\n      jump\t// in\n    tag_171:\n        /* \"#utility.yul\":5012:5234   */\n      swap3\n      swap2\n      pop\n      pop\n      jump\t// out\n        /* \"#utility.yul\":5240:5422   */\n    tag_105:\n        /* \"#utility.yul\":5380:5414   */\n      0x496e707574206d757374206265206265747765656e203120616e642033393939\n        /* \"#utility.yul\":5376:5377   */\n      0x00\n        /* \"#utility.yul\":5368:5374   */\n      dup3\n        /* \"#utility.yul\":5364:5378   */\n      add\n        /* \"#utility.yul\":5357:5415   */\n      mstore\n        /* \"#utility.yul\":5240:5422   */\n      pop\n      jump\t// out\n        /* \"#utility.yul\":5428:5794   */\n    tag_106:\n        /* \"#utility.yul\":5570:5573   */\n      0x00\n        /* \"#utility.yul\":5591:5658   */\n      tag_174\n        /* \"#utility.yul\":5655:5657   */\n      0x20\n        /* \"#utility.yul\":5650:5653   */\n      dup4\n        /* \"#utility.yul\":5591:5658   */\n      tag_91\n      jump\t// in\n    tag_174:\n        /* \"#utility.yul\":5584:5658   */\n      swap2\n      pop\n        /* \"#utility.yul\":5667:5760   */\n      tag_175\n        /* \"#utility.yul\":5756:5759   */\n      dup3\n        /* \"#utility.yul\":5667:5760   */\n      tag_105\n      jump\t// in\n    tag_175:\n        /* \"#utility.yul\":5785:5787   */\n      0x20\n        /* \"#utility.yul\":5780:5783   */\n      dup3\n        /* \"#utility.yul\":5776:5788   */\n      add\n        /* \"#utility.yul\":5769:5788   */\n      swap1\n      pop\n        /* \"#utility.yul\":5428:5794   */\n      swap2\n      swap1\n      pop\n      jump\t// out\n        /* \"#utility.yul\":5800:6219   */\n    tag_21:\n        /* \"#utility.yul\":5966:5970   */\n      0x00\n        /* \"#utility.yul\":6004:6006   */\n      0x20\n        /* \"#utility.yul\":5993:6002   */\n      dup3\n        /* \"#utility.yul\":5989:6007   */\n      add\n        /* \"#utility.yul\":5981:6007   */\n      swap1\n      pop\n        /* \"#utility.yul\":6053:6062   */\n      dup2\n        /* \"#utility.yul\":6047:6051   */\n      dup2\n        /* \"#utility.yul\":6043:6063   */\n      sub\n        /* \"#utility.yul\":6039:6040   */\n      0x00\n        /* \"#utility.yul\":6028:6037   */\n      dup4\n        /* \"#utility.yul\":6024:6041   */\n      add\n        /* \"#utility.yul\":6017:6064   */\n      mstore\n        /* \"#utility.yul\":6081:6212   */\n      tag_177\n        /* \"#utility.yul\":6207:6211   */\n      dup2\n        /* \"#utility.yul\":6081:6212   */\n      tag_106\n      jump\t// in\n    tag_177:\n        /* \"#utility.yul\":6073:6212   */\n      swap1\n      pop\n        /* \"#utility.yul\":5800:6219   */\n      swap2\n      swap1\n      pop\n      jump\t// out\n        /* \"#utility.yul\":6225:6405   */\n    tag_26:\n        /* \"#utility.yul\":6273:6350   */\n      0x4e487b7100000000000000000000000000000000000000000000000000000000\n        /* \"#utility.yul\":6270:6271   */\n      0x00\n        /* \"#utility.yul\":6263:6351   */\n      mstore\n        /* \"#utility.yul\":6370:6374   */\n      0x32\n        /* \"#utility.yul\":6367:6368   */\n      0x04\n        /* \"#utility.yul\":6360:6375   */\n      mstore\n        /* \"#utility.yul\":6394:6398   */\n      0x24\n        /* \"#utility.yul\":6391:6392   */\n      0x00\n        /* \"#utility.yul\":6384:6399   */\n      revert\n        /* \"#utility.yul\":6411:6559   */\n    tag_107:\n        /* \"#utility.yul\":6513:6524   */\n      0x00\n        /* \"#utility.yul\":6550:6553   */\n      dup2\n        /* \"#utility.yul\":6535:6553   */\n      swap1\n      pop\n        /* \"#utility.yul\":6411:6559   */\n      swap3\n      swap2\n      pop\n      pop\n      jump\t// out\n        /* \"#utility.yul\":6565:6955   */\n    tag_108:\n        /* \"#utility.yul\":6671:6674   */\n      0x00\n        /* \"#utility.yul\":6699:6738   */\n      tag_181\n        /* \"#utility.yul\":6732:6737   */\n      dup3\n        /* \"#utility.yul\":6699:6738   */\n      tag_90\n      jump\t// in\n    tag_181:\n        /* \"#utility.yul\":6754:6843   */\n      tag_182\n        /* \"#utility.yul\":6836:6842   */\n      dup2\n        /* \"#utility.yul\":6831:6834   */\n      dup6\n        /* \"#utility.yul\":6754:6843   */\n      tag_107\n      jump\t// in\n    tag_182:\n        /* \"#utility.yul\":6747:6843   */\n      swap4\n      pop\n        /* \"#utility.yul\":6852:6917   */\n      tag_183\n        /* \"#utility.yul\":6910:6916   */\n      dup2\n        /* \"#utility.yul\":6905:6908   */\n      dup6\n        /* \"#utility.yul\":6898:6902   */\n      0x20\n        /* \"#utility.yul\":6891:6896   */\n      dup7\n        /* \"#utility.yul\":6887:6903   */\n      add\n        /* \"#utility.yul\":6852:6917   */\n      tag_92\n      jump\t// in\n    tag_183:\n        /* \"#utility.yul\":6942:6948   */\n      dup1\n        /* \"#utility.yul\":6937:6940   */\n      dup5\n        /* \"#utility.yul\":6933:6949   */\n      add\n        /* \"#utility.yul\":6926:6949   */\n      swap2\n      pop\n        /* \"#utility.yul\":6675:6955   */\n      pop\n        /* \"#utility.yul\":6565:6955   */\n      swap3\n      swap2\n      pop\n      pop\n      jump\t// out\n        /* \"#utility.yul\":6961:7396   */\n    tag_31:\n        /* \"#utility.yul\":7141:7144   */\n      0x00\n        /* \"#utility.yul\":7163:7258   */\n      tag_185\n        /* \"#utility.yul\":7254:7257   */\n      dup3\n        /* \"#utility.yul\":7245:7251   */\n      dup6\n        /* \"#utility.yul\":7163:7258   */\n      tag_108\n      jump\t// in\n    tag_185:\n        /* \"#utility.yul\":7156:7258   */\n      swap2\n      pop\n        /* \"#utility.yul\":7275:7370   */\n      tag_186\n        /* \"#utility.yul\":7366:7369   */\n      dup3\n        /* \"#utility.yul\":7357:7363   */\n      dup5\n        /* \"#utility.yul\":7275:7370   */\n      tag_108\n      jump\t// in\n    tag_186:\n        /* \"#utility.yul\":7268:7370   */\n      swap2\n      pop\n        /* \"#utility.yul\":7387:7390   */\n      dup2\n        /* \"#utility.yul\":7380:7390   */\n      swap1\n      pop\n        /* \"#utility.yul\":6961:7396   */\n      swap4\n      swap3\n      pop\n      pop\n      pop\n      jump\t// out\n        /* \"#utility.yul\":7402:7582   */\n    tag_109:\n        /* \"#utility.yul\":7450:7527   */\n      0x4e487b7100000000000000000000000000000000000000000000000000000000\n        /* \"#utility.yul\":7447:7448   */\n      0x00\n        /* \"#utility.yul\":7440:7528   */\n      mstore\n        /* \"#utility.yul\":7547:7551   */\n      0x11\n        /* \"#utility.yul\":7544:7545   */\n      0x04\n        /* \"#utility.yul\":7537:7552   */\n      mstore\n        /* \"#utility.yul\":7571:7575   */\n      0x24\n        /* \"#utility.yul\":7568:7569   */\n      0x00\n        /* \"#utility.yul\":7561:7576   */\n      revert\n        /* \"#utility.yul\":7588:7782   */\n    tag_35:\n        /* \"#utility.yul\":7628:7632   */\n      0x00\n        /* \"#utility.yul\":7648:7668   */\n      tag_189\n        /* \"#utility.yul\":7666:7667   */\n      dup3\n        /* \"#utility.yul\":7648:7668   */\n      tag_87\n      jump\t// in\n    tag_189:\n        /* \"#utility.yul\":7643:7668   */\n      swap2\n      pop\n        /* \"#utility.yul\":7682:7702   */\n      tag_190\n        /* \"#utility.yul\":7700:7701   */\n      dup4\n        /* \"#utility.yul\":7682:7702   */\n      tag_87\n      jump\t// in\n    tag_190:\n        /* \"#utility.yul\":7677:7702   */\n      swap3\n      pop\n        /* \"#utility.yul\":7726:7727   */\n      dup3\n        /* \"#utility.yul\":7723:7724   */\n      dup3\n        /* \"#utility.yul\":7719:7728   */\n      sub\n        /* \"#utility.yul\":7711:7728   */\n      swap1\n      pop\n        /* \"#utility.yul\":7750:7751   */\n      dup2\n        /* \"#utility.yul\":7744:7748   */\n      dup2\n        /* \"#utility.yul\":7741:7752   */\n      gt\n        /* \"#utility.yul\":7738:7775   */\n      iszero\n      tag_191\n      jumpi\n        /* \"#utility.yul\":7755:7773   */\n      tag_192\n      tag_109\n      jump\t// in\n    tag_192:\n        /* \"#utility.yul\":7738:7775   */\n    tag_191:\n        /* \"#utility.yul\":7588:7782   */\n      swap3\n      swap2\n      pop\n      pop\n      jump\t// out\n        /* \"#utility.yul\":7788:8021   */\n    tag_38:\n        /* \"#utility.yul\":7827:7830   */\n      0x00\n        /* \"#utility.yul\":7850:7874   */\n      tag_194\n        /* \"#utility.yul\":7868:7873   */\n      dup3\n        /* \"#utility.yul\":7850:7874   */\n      tag_87\n      jump\t// in\n    tag_194:\n        /* \"#utility.yul\":7841:7874   */\n      swap2\n      pop\n        /* \"#utility.yul\":7896:7962   */\n      0xffffffffffffffffffffffffffffffffffffffffffffffffffffffffffffffff\n        /* \"#utility.yul\":7889:7894   */\n      dup3\n        /* \"#utility.yul\":7886:7963   */\n      sub\n        /* \"#utility.yul\":7883:7986   */\n      tag_195\n      jumpi\n        /* \"#utility.yul\":7966:7984   */\n      tag_196\n      tag_109\n      jump\t// in\n    tag_196:\n        /* \"#utility.yul\":7883:7986   */\n    tag_195:\n        /* \"#utility.yul\":8013:8014   */\n      0x01\n        /* \"#utility.yul\":8006:8011   */\n      dup3\n        /* \"#utility.yul\":8002:8015   */\n      add\n        /* \"#utility.yul\":7995:8015   */\n      swap1\n      pop\n        /* \"#utility.yul\":7788:8021   */\n      swap2\n      swap1\n      pop\n      jump\t// out\n        /* \"#utility.yul\":8027:8218   */\n    tag_43:\n        /* \"#utility.yul\":8067:8070   */\n      0x00\n        /* \"#utility.yul\":8086:8106   */\n      tag_198\n        /* \"#utility.yul\":8104:8105   */\n      dup3\n        /* \"#utility.yul\":8086:8106   */\n      tag_87\n      jump\t// in\n    tag_198:\n        /* \"#utility.yul\":8081:8106   */\n      swap2\n      pop\n        /* \"#utility.yul\":8120:8140   */\n      tag_199\n        /* \"#utility.yul\":8138:8139   */\n      dup4\n        /* \"#utility.yul\":8120:8140   */\n      tag_87\n      jump\t// in\n    tag_199:\n        /* \"#utility.yul\":8115:8140   */\n      swap3\n      pop\n        /* \"#utility.yul\":8163:8164   */\n      dup3\n        /* \"#utility.yul\":8160:8161   */\n      dup3\n        /* \"#utility.yul\":8156:8165   */\n      add\n        /* \"#utility.yul\":8149:8165   */\n      swap1\n      pop\n        /* \"#utility.yul\":8184:8187   */\n      dup1\n        /* \"#utility.yul\":8181:8182   */\n      dup3\n        /* \"#utility.yul\":8178:8188   */\n      gt\n        /* \"#utility.yul\":8175:8211   */\n      iszero\n      tag_200\n      jumpi\n        /* \"#utility.yul\":8191:8209   */\n      tag_201\n      tag_109\n      jump\t// in\n    tag_201:\n        /* \"#utility.yul\":8175:8211   */\n    tag_200:\n        /* \"#utility.yul\":8027:8218   */\n      swap3\n      swap2\n      pop\n      pop\n      jump\t// out\n        /* \"#utility.yul\":8224:8395   */\n    tag_110:\n        /* \"#utility.yul\":8364:8387   */\n      0x496e76616c696420526f6d616e206e756d6572616c0000000000000000000000\n        /* \"#utility.yul\":8360:8361   */\n      0x00\n        /* \"#utility.yul\":8352:8358   */\n      dup3\n        /* \"#utility.yul\":8348:8362   */\n      add\n        /* \"#utility.yul\":8341:8388   */\n      mstore\n        /* \"#utility.yul\":8224:8395   */\n      pop\n      jump\t// out\n        /* \"#utility.yul\":8401:8767   */\n    tag_111:\n        /* \"#utility.yul\":8543:8546   */\n      0x00\n        /* \"#utility.yul\":8564:8631   */\n      tag_204\n        /* \"#utility.yul\":8628:8630   */\n      0x15\n        /* \"#utility.yul\":8623:8626   */\n      dup4\n        /* \"#utility.yul\":8564:8631   */\n      tag_91\n      jump\t// in\n    tag_204:\n        /* \"#utility.yul\":8557:8631   */\n      swap2\n      pop\n        /* \"#utility.yul\":8640:8733   */\n      tag_205\n        /* \"#utility.yul\":8729:8732   */\n      dup3\n        /* \"#utility.yul\":8640:8733   */\n      tag_110\n      jump\t// in\n    tag_205:\n        /* \"#utility.yul\":8758:8760   */\n      0x20\n        /* \"#utility.yul\":8753:8756   */\n      dup3\n        /* \"#utility.yul\":8749:8761   */\n      add\n        /* \"#utility.yul\":8742:8761   */\n      swap1\n      pop\n        /* \"#utility.yul\":8401:8767   */\n      swap2\n      swap1\n      pop\n      jump\t// out\n        /* \"#utility.yul\":8773:9192   */\n    tag_83:\n        /* \"#utility.yul\":8939:8943   */\n      0x00\n        /* \"#utility.yul\":8977:8979   */\n      0x20\n        /* \"#utility.yul\":8966:8975   */\n      dup3\n        /* \"#utility.yul\":8962:8980   */\n      add\n        /* \"#utility.yul\":8954:8980   */\n      swap1\n      pop\n        /* \"#utility.yul\":9026:9035   */\n      dup2\n        /* \"#utility.yul\":9020:9024   */\n      dup2\n        /* \"#utility.yul\":9016:9036   */\n      sub\n        /* \"#utility.yul\":9012:9013   */\n      0x00\n        /* \"#utility.yul\":9001:9010   */\n      dup4\n        /* \"#utility.yul\":8997:9014   */\n      add\n        /* \"#utility.yul\":8990:9037   */\n      mstore\n        /* \"#utility.yul\":9054:9185   */\n      tag_207\n        /* \"#utility.yul\":9180:9184   */\n      dup2\n        /* \"#utility.yul\":9054:9185   */\n      tag_111\n      jump\t// in\n    tag_207:\n        /* \"#utility.yul\":9046:9185   */\n      swap1\n      pop\n        /* \"#utility.yul\":8773:9192   */\n      swap2\n      swap1\n      pop\n      jump\t// out\n\n    auxdata: 0xa2646970667358221220b5baea3fbe93c5630a1486697dabd9544176952ac43ad0dc2355ef972fbefa3a64736f6c634300081e0033\n}\n",
				"bytecode": {
					"linkReferences": {},
					"object": "6080604052348015600e575f5ffd5b506111758061001c5f395ff3fe608060405234801561000f575f5ffd5b5060043610610034575f3560e01c80630cbc513a14610038578063cb159dfe14610068575b5f5ffd5b610052600480360381019061004d9190610cb5565b610098565b60405161005f9190610d50565b60405180910390f35b610082600480360381019061007d9190610e9c565b610523565b60405161008f9190610ef2565b60405180910390f35b60605f821180156100aa5750610fa082105b6100e9576040517f08c379a00000000000000000000000000000000000000000000000000000000081526004016100e090610f55565b60405180910390fd5b5f604051806101a001604052806103e8815260200161038481526020016101f48152602001610190815260200160648152602001605a81526020016032815260200160288152602001600a8152602001600981526020016005815260200160048152602001600181525090505f604051806101a001604052806040518060400160405280600181526020017f4d0000000000000000000000000000000000000000000000000000000000000081525081526020016040518060400160405280600281526020017f434d00000000000000000000000000000000000000000000000000000000000081525081526020016040518060400160405280600181526020017f440000000000000000000000000000000000000000000000000000000000000081525081526020016040518060400160405280600281526020017f434400000000000000000000000000000000000000000000000000000000000081525081526020016040518060400160405280600181526020017f430000000000000000000000000000000000000000000000000000000000000081525081526020016040518060400160405280600281526020017f584300000000000000000000000000000000000000000000000000000000000081525081526020016040518060400160405280600181526020017f4c0000000000000000000000000000000000000000000000000000000000000081525081526020016040518060400160405280600281526020017f584c00000000000000000000000000000000000000000000000000000000000081525081526020016040518060400160405280600181526020017f580000000000000000000000000000000000000000000000000000000000000081525081526020016040518060400160405280600281526020017f495800000000000000000000000000000000000000000000000000000000000081525081526020016040518060400160405280600181526020017f560000000000000000000000000000000000000000000000000000000000000081525081526020016040518060400160405280600281526020017f495600000000000000000000000000000000000000000000000000000000000081525081526020016040518060400160405280600181526020017f490000000000000000000000000000000000000000000000000000000000000081525081525090505f5f90505f60405180602001604052805f81525090505b5f861115610517578382600d811061049357610492610f73565b5b6020020151861061050357808383600d81106104b2576104b1610f73565b5b60200201516040516020016104c8929190610fda565b60405160208183030381529060405290508382600d81106104ec576104eb610f73565b5b6020020151866104fc919061102a565b9550610512565b818061050e9061105d565b9250505b610478565b80945050505050919050565b5f5f8290505f815190505f5f90505f5f90505b82811015610617578260018261054c91906110a4565b10156105d1575f6105a385838151811061056957610568610f73565b5b602001015160f81c60f81b8660018561058291906110a4565b8151811061059357610592610f73565b5b602001015160f81c60f81b610623565b90505f81146105cf5780836105b891906110a4565b92506002826105c791906110a4565b915050610536565b505b6105f78482815181106105e7576105e6610f73565b5b602001015160f81c60f81b6109f0565b8261060291906110a4565b9150808061060f9061105d565b915050610536565b81945050505050919050565b5f7f4900000000000000000000000000000000000000000000000000000000000000837effffffffffffffffffffffffffffffffffffffffffffffffffffffffffffff19161480156106b657507f5600000000000000000000000000000000000000000000000000000000000000827effffffffffffffffffffffffffffffffffffffffffffffffffffffffffffff1916145b156106c457600490506109ea565b7f4900000000000000000000000000000000000000000000000000000000000000837effffffffffffffffffffffffffffffffffffffffffffffffffffffffffffff191614801561075657507f5800000000000000000000000000000000000000000000000000000000000000827effffffffffffffffffffffffffffffffffffffffffffffffffffffffffffff1916145b1561076457600990506109ea565b7f5800000000000000000000000000000000000000000000000000000000000000837effffffffffffffffffffffffffffffffffffffffffffffffffffffffffffff19161480156107f657507f4c00000000000000000000000000000000000000000000000000000000000000827effffffffffffffffffffffffffffffffffffffffffffffffffffffffffffff1916145b1561080457602890506109ea565b7f5800000000000000000000000000000000000000000000000000000000000000837effffffffffffffffffffffffffffffffffffffffffffffffffffffffffffff191614801561089657507f4300000000000000000000000000000000000000000000000000000000000000827effffffffffffffffffffffffffffffffffffffffffffffffffffffffffffff1916145b156108a457605a90506109ea565b7f4300000000000000000000000000000000000000000000000000000000000000837effffffffffffffffffffffffffffffffffffffffffffffffffffffffffffff191614801561093657507f4400000000000000000000000000000000000000000000000000000000000000827effffffffffffffffffffffffffffffffffffffffffffffffffffffffffffff1916145b156109455761019090506109ea565b7f4300000000000000000000000000000000000000000000000000000000000000837effffffffffffffffffffffffffffffffffffffffffffffffffffffffffffff19161480156109d757507f4d00000000000000000000000000000000000000000000000000000000000000827effffffffffffffffffffffffffffffffffffffffffffffffffffffffffffff1916145b156109e65761038490506109ea565b5f90505b92915050565b5f7f4900000000000000000000000000000000000000000000000000000000000000827effffffffffffffffffffffffffffffffffffffffffffffffffffffffffffff191603610a435760019050610c6c565b7f5600000000000000000000000000000000000000000000000000000000000000827effffffffffffffffffffffffffffffffffffffffffffffffffffffffffffff191603610a955760059050610c6c565b7f5800000000000000000000000000000000000000000000000000000000000000827effffffffffffffffffffffffffffffffffffffffffffffffffffffffffffff191603610ae757600a9050610c6c565b7f4c00000000000000000000000000000000000000000000000000000000000000827effffffffffffffffffffffffffffffffffffffffffffffffffffffffffffff191603610b395760329050610c6c565b7f4300000000000000000000000000000000000000000000000000000000000000827effffffffffffffffffffffffffffffffffffffffffffffffffffffffffffff191603610b8b5760649050610c6c565b7f4400000000000000000000000000000000000000000000000000000000000000827effffffffffffffffffffffffffffffffffffffffffffffffffffffffffffff191603610bde576101f49050610c6c565b7f4d00000000000000000000000000000000000000000000000000000000000000827effffffffffffffffffffffffffffffffffffffffffffffffffffffffffffff191603610c31576103e89050610c6c565b6040517f08c379a0000000000000000000000000000000000000000000000000000000008152600401610c6390611121565b60405180910390fd5b919050565b5f604051905090565b5f5ffd5b5f5ffd5b5f819050919050565b610c9481610c82565b8114610c9e575f5ffd5b50565b5f81359050610caf81610c8b565b92915050565b5f60208284031215610cca57610cc9610c7a565b5b5f610cd784828501610ca1565b91505092915050565b5f81519050919050565b5f82825260208201905092915050565b8281835e5f83830152505050565b5f601f19601f8301169050919050565b5f610d2282610ce0565b610d2c8185610cea565b9350610d3c818560208601610cfa565b610d4581610d08565b840191505092915050565b5f6020820190508181035f830152610d688184610d18565b905092915050565b5f5ffd5b5f5ffd5b7f4e487b71000000000000000000000000000000000000000000000000000000005f52604160045260245ffd5b610dae82610d08565b810181811067ffffffffffffffff82111715610dcd57610dcc610d78565b5b80604052505050565b5f610ddf610c71565b9050610deb8282610da5565b919050565b5f67ffffffffffffffff821115610e0a57610e09610d78565b5b610e1382610d08565b9050602081019050919050565b828183375f83830152505050565b5f610e40610e3b84610df0565b610dd6565b905082815260208101848484011115610e5c57610e5b610d74565b5b610e67848285610e20565b509392505050565b5f82601f830112610e8357610e82610d70565b5b8135610e93848260208601610e2e565b91505092915050565b5f60208284031215610eb157610eb0610c7a565b5b5f82013567ffffffffffffffff811115610ece57610ecd610c7e565b5b610eda84828501610e6f565b91505092915050565b610eec81610c82565b82525050565b5f602082019050610f055f830184610ee3565b92915050565b7f496e707574206d757374206265206265747765656e203120616e6420333939395f82015250565b5f610f3f602083610cea565b9150610f4a82610f0b565b602082019050919050565b5f6020820190508181035f830152610f6c81610f33565b9050919050565b7f4e487b71000000000000000000000000000000000000000000000000000000005f52603260045260245ffd5b5f81905092915050565b5f610fb482610ce0565b610fbe8185610fa0565b9350610fce818560208601610cfa565b80840191505092915050565b5f610fe58285610faa565b9150610ff18284610faa565b91508190509392505050565b7f4e487b71000000000000000000000000000000000000000000000000000000005f52601160045260245ffd5b5f61103482610c82565b915061103f83610c82565b925082820390508181111561105757611056610ffd565b5b92915050565b5f61106782610c82565b91507fffffffffffffffffffffffffffffffffffffffffffffffffffffffffffffffff820361109957611098610ffd565b5b600182019050919050565b5f6110ae82610c82565b91506110b983610c82565b92508282019050808211156110d1576110d0610ffd565b5b92915050565b7f496e76616c696420526f6d616e206e756d6572616c00000000000000000000005f82015250565b5f61110b601583610cea565b9150611116826110d7565b602082019050919050565b5f6020820190508181035f830152611138816110ff565b905091905056fea2646970667358221220b5baea3fbe93c5630a1486697dabd9544176952ac43ad0dc2355ef972fbefa3a64736f6c634300081e0033",
					"opcodes": "PUSH1 0x80 PUSH1 0x40 MSTORE CALLVALUE DUP1 ISZERO PUSH1 0xE JUMPI PUSH0 PUSH0 REVERT JUMPDEST POP PUSH2 0x1175 DUP1 PUSH2 0x1C PUSH0 CODECOPY PUSH0 RETURN INVALID PUSH1 0x80 PUSH1 0x40 MSTORE CALLVALUE DUP1 ISZERO PUSH2 0xF JUMPI PUSH0 PUSH0 REVERT JUMPDEST POP PUSH1 0x4 CALLDATASIZE LT PUSH2 0x34 JUMPI PUSH0 CALLDATALOAD PUSH1 0xE0 SHR DUP1 PUSH4 0xCBC513A EQ PUSH2 0x38 JUMPI DUP1 PUSH4 0xCB159DFE EQ PUSH2 0x68 JUMPI JUMPDEST PUSH0 PUSH0 REVERT JUMPDEST PUSH2 0x52 PUSH1 0x4 DUP1 CALLDATASIZE SUB DUP2 ADD SWAP1 PUSH2 0x4D SWAP2 SWAP1 PUSH2 0xCB5 JUMP JUMPDEST PUSH2 0x98 JUMP JUMPDEST PUSH1 0x40 MLOAD PUSH2 0x5F SWAP2 SWAP1 PUSH2 0xD50 JUMP JUMPDEST PUSH1 0x40 MLOAD DUP1 SWAP2 SUB SWAP1 RETURN JUMPDEST PUSH2 0x82 PUSH1 0x4 DUP1 CALLDATASIZE SUB DUP2 ADD SWAP1 PUSH2 0x7D SWAP2 SWAP1 PUSH2 0xE9C JUMP JUMPDEST PUSH2 0x523 JUMP JUMPDEST PUSH1 0x40 MLOAD PUSH2 0x8F SWAP2 SWAP1 PUSH2 0xEF2 JUMP JUMPDEST PUSH1 0x40 MLOAD DUP1 SWAP2 SUB SWAP1 RETURN JUMPDEST PUSH1 0x60 PUSH0 DUP3 GT DUP1 ISZERO PUSH2 0xAA JUMPI POP PUSH2 0xFA0 DUP3 LT JUMPDEST PUSH2 0xE9 JUMPI PUSH1 0x40 MLOAD PUSH32 0x8C379A000000000000000000000000000000000000000000000000000000000 DUP2 MSTORE PUSH1 0x4 ADD PUSH2 0xE0 SWAP1 PUSH2 0xF55 JUMP JUMPDEST PUSH1 0x40 MLOAD DUP1 SWAP2 SUB SWAP1 REVERT JUMPDEST PUSH0 PUSH1 0x40 MLOAD DUP1 PUSH2 0x1A0 ADD PUSH1 0x40 MSTORE DUP1 PUSH2 0x3E8 DUP2 MSTORE PUSH1 0x20 ADD PUSH2 0x384 DUP2 MSTORE PUSH1 0x20 ADD PUSH2 0x1F4 DUP2 MSTORE PUSH1 0x20 ADD PUSH2 0x190 DUP2 MSTORE PUSH1 0x20 ADD PUSH1 0x64 DUP2 MSTORE PUSH1 0x20 ADD PUSH1 0x5A DUP2 MSTORE PUSH1 0x20 ADD PUSH1 0x32 DUP2 MSTORE PUSH1 0x20 ADD PUSH1 0x28 DUP2 MSTORE PUSH1 0x20 ADD PUSH1 0xA DUP2 MSTORE PUSH1 0x20 ADD PUSH1 0x9 DUP2 MSTORE PUSH1 0x20 ADD PUSH1 0x5 DUP2 MSTORE PUSH1 0x20 ADD PUSH1 0x4 DUP2 MSTORE PUSH1 0x20 ADD PUSH1 0x1 DUP2 MSTORE POP SWAP1 POP PUSH0 PUSH1 0x40 MLOAD DUP1 PUSH2 0x1A0 ADD PUSH1 0x40 MSTORE DUP1 PUSH1 0x40 MLOAD DUP1 PUSH1 0x40 ADD PUSH1 0x40 MSTORE DUP1 PUSH1 0x1 DUP2 MSTORE PUSH1 0x20 ADD PUSH32 0x4D00000000000000000000000000000000000000000000000000000000000000 DUP2 MSTORE POP DUP2 MSTORE PUSH1 0x20 ADD PUSH1 0x40 MLOAD DUP1 PUSH1 0x40 ADD PUSH1 0x40 MSTORE DUP1 PUSH1 0x2 DUP2 MSTORE PUSH1 0x20 ADD PUSH32 0x434D000000000000000000000000000000000000000000000000000000000000 DUP2 MSTORE POP DUP2 MSTORE PUSH1 0x20 ADD PUSH1 0x40 MLOAD DUP1 PUSH1 0x40 ADD PUSH1 0x40 MSTORE DUP1 PUSH1 0x1 DUP2 MSTORE PUSH1 0x20 ADD PUSH32 0x4400000000000000000000000000000000000000000000000000000000000000 DUP2 MSTORE POP DUP2 MSTORE PUSH1 0x20 ADD PUSH1 0x40 MLOAD DUP1 PUSH1 0x40 ADD PUSH1 0x40 MSTORE DUP1 PUSH1 0x2 DUP2 MSTORE PUSH1 0x20 ADD PUSH32 0x4344000000000000000000000000000000000000000000000000000000000000 DUP2 MSTORE POP DUP2 MSTORE PUSH1 0x20 ADD PUSH1 0x40 MLOAD DUP1 PUSH1 0x40 ADD PUSH1 0x40 MSTORE DUP1 PUSH1 0x1 DUP2 MSTORE PUSH1 0x20 ADD PUSH32 0x4300000000000000000000000000000000000000000000000000000000000000 DUP2 MSTORE POP DUP2 MSTORE PUSH1 0x20 ADD PUSH1 0x40 MLOAD DUP1 PUSH1 0x40 ADD PUSH1 0x40 MSTORE DUP1 PUSH1 0x2 DUP2 MSTORE PUSH1 0x20 ADD PUSH32 0x5843000000000000000000000000000000000000000000000000000000000000 DUP2 MSTORE POP DUP2 MSTORE PUSH1 0x20 ADD PUSH1 0x40 MLOAD DUP1 PUSH1 0x40 ADD PUSH1 0x40 MSTORE DUP1 PUSH1 0x1 DUP2 MSTORE PUSH1 0x20 ADD PUSH32 0x4C00000000000000000000000000000000000000000000000000000000000000 DUP2 MSTORE POP DUP2 MSTORE PUSH1 0x20 ADD PUSH1 0x40 MLOAD DUP1 PUSH1 0x40 ADD PUSH1 0x40 MSTORE DUP1 PUSH1 0x2 DUP2 MSTORE PUSH1 0x20 ADD PUSH32 0x584C000000000000000000000000000000000000000000000000000000000000 DUP2 MSTORE POP DUP2 MSTORE PUSH1 0x20 ADD PUSH1 0x40 MLOAD DUP1 PUSH1 0x40 ADD PUSH1 0x40 MSTORE DUP1 PUSH1 0x1 DUP2 MSTORE PUSH1 0x20 ADD PUSH32 0x5800000000000000000000000000000000000000000000000000000000000000 DUP2 MSTORE POP DUP2 MSTORE PUSH1 0x20 ADD PUSH1 0x40 MLOAD DUP1 PUSH1 0x40 ADD PUSH1 0x40 MSTORE DUP1 PUSH1 0x2 DUP2 MSTORE PUSH1 0x20 ADD PUSH32 0x4958000000000000000000000000000000000000000000000000000000000000 DUP2 MSTORE POP DUP2 MSTORE PUSH1 0x20 ADD PUSH1 0x40 MLOAD DUP1 PUSH1 0x40 ADD PUSH1 0x40 MSTORE DUP1 PUSH1 0x1 DUP2 MSTORE PUSH1 0x20 ADD PUSH32 0x5600000000000000000000000000000000000000000000000000000000000000 DUP2 MSTORE POP DUP2 MSTORE PUSH1 0x20 ADD PUSH1 0x40 MLOAD DUP1 PUSH1 0x40 ADD PUSH1 0x40 MSTORE DUP1 PUSH1 0x2 DUP2 MSTORE PUSH1 0x20 ADD PUSH32 0x4956000000000000000000000000000000000000000000000000000000000000 DUP2 MSTORE POP DUP2 MSTORE PUSH1 0x20 ADD PUSH1 0x40 MLOAD DUP1 PUSH1 0x40 ADD PUSH1 0x40 MSTORE DUP1 PUSH1 0x1 DUP2 MSTORE PUSH1 0x20 ADD PUSH32 0x4900000000000000000000000000000000000000000000000000000000000000 DUP2 MSTORE POP DUP2 MSTORE POP SWAP1 POP PUSH0 PUSH0 SWAP1 POP PUSH0 PUSH1 0x40 MLOAD DUP1 PUSH1 0x20 ADD PUSH1 0x40 MSTORE DUP1 PUSH0 DUP2 MSTORE POP SWAP1 POP JUMPDEST PUSH0 DUP7 GT ISZERO PUSH2 0x517 JUMPI DUP4 DUP3 PUSH1 0xD DUP2 LT PUSH2 0x493 JUMPI PUSH2 0x492 PUSH2 0xF73 JUMP JUMPDEST JUMPDEST PUSH1 0x20 MUL ADD MLOAD DUP7 LT PUSH2 0x503 JUMPI DUP1 DUP4 DUP4 PUSH1 0xD DUP2 LT PUSH2 0x4B2 JUMPI PUSH2 0x4B1 PUSH2 0xF73 JUMP JUMPDEST JUMPDEST PUSH1 0x20 MUL ADD MLOAD PUSH1 0x40 MLOAD PUSH1 0x20 ADD PUSH2 0x4C8 SWAP3 SWAP2 SWAP1 PUSH2 0xFDA JUMP JUMPDEST PUSH1 0x40 MLOAD PUSH1 0x20 DUP2 DUP4 SUB SUB DUP2 MSTORE SWAP1 PUSH1 0x40 MSTORE SWAP1 POP DUP4 DUP3 PUSH1 0xD DUP2 LT PUSH2 0x4EC JUMPI PUSH2 0x4EB PUSH2 0xF73 JUMP JUMPDEST JUMPDEST PUSH1 0x20 MUL ADD MLOAD DUP7 PUSH2 0x4FC SWAP2 SWAP1 PUSH2 0x102A JUMP JUMPDEST SWAP6 POP PUSH2 0x512 JUMP JUMPDEST DUP2 DUP1 PUSH2 0x50E SWAP1 PUSH2 0x105D JUMP JUMPDEST SWAP3 POP POP JUMPDEST PUSH2 0x478 JUMP JUMPDEST DUP1 SWAP5 POP POP POP POP POP SWAP2 SWAP1 POP JUMP JUMPDEST PUSH0 PUSH0 DUP3 SWAP1 POP PUSH0 DUP2 MLOAD SWAP1 POP PUSH0 PUSH0 SWAP1 POP PUSH0 PUSH0 SWAP1 POP JUMPDEST DUP3 DUP2 LT ISZERO PUSH2 0x617 JUMPI DUP3 PUSH1 0x1 DUP3 PUSH2 0x54C SWAP2 SWAP1 PUSH2 0x10A4 JUMP JUMPDEST LT ISZERO PUSH2 0x5D1 JUMPI PUSH0 PUSH2 0x5A3 DUP6 DUP4 DUP2 MLOAD DUP2 LT PUSH2 0x569 JUMPI PUSH2 0x568 PUSH2 0xF73 JUMP JUMPDEST JUMPDEST PUSH1 0x20 ADD ADD MLOAD PUSH1 0xF8 SHR PUSH1 0xF8 SHL DUP7 PUSH1 0x1 DUP6 PUSH2 0x582 SWAP2 SWAP1 PUSH2 0x10A4 JUMP JUMPDEST DUP2 MLOAD DUP2 LT PUSH2 0x593 JUMPI PUSH2 0x592 PUSH2 0xF73 JUMP JUMPDEST JUMPDEST PUSH1 0x20 ADD ADD MLOAD PUSH1 0xF8 SHR PUSH1 0xF8 SHL PUSH2 0x623 JUMP JUMPDEST SWAP1 POP PUSH0 DUP2 EQ PUSH2 0x5CF JUMPI DUP1 DUP4 PUSH2 0x5B8 SWAP2 SWAP1 PUSH2 0x10A4 JUMP JUMPDEST SWAP3 POP PUSH1 0x2 DUP3 PUSH2 0x5C7 SWAP2 SWAP1 PUSH2 0x10A4 JUMP JUMPDEST SWAP2 POP POP PUSH2 0x536 JUMP JUMPDEST POP JUMPDEST PUSH2 0x5F7 DUP5 DUP3 DUP2 MLOAD DUP2 LT PUSH2 0x5E7 JUMPI PUSH2 0x5E6 PUSH2 0xF73 JUMP JUMPDEST JUMPDEST PUSH1 0x20 ADD ADD MLOAD PUSH1 0xF8 SHR PUSH1 0xF8 SHL PUSH2 0x9F0 JUMP JUMPDEST DUP3 PUSH2 0x602 SWAP2 SWAP1 PUSH2 0x10A4 JUMP JUMPDEST SWAP2 POP DUP1 DUP1 PUSH2 0x60F SWAP1 PUSH2 0x105D JUMP JUMPDEST SWAP2 POP POP PUSH2 0x536 JUMP JUMPDEST DUP2 SWAP5 POP POP POP POP POP SWAP2 SWAP1 POP JUMP JUMPDEST PUSH0 PUSH32 0x4900000000000000000000000000000000000000000000000000000000000000 DUP4 PUSH31 0xFFFFFFFFFFFFFFFFFFFFFFFFFFFFFFFFFFFFFFFFFFFFFFFFFFFFFFFFFFFFFF NOT AND EQ DUP1 ISZERO PUSH2 0x6B6 JUMPI POP PUSH32 0x5600000000000000000000000000000000000000000000000000000000000000 DUP3 PUSH31 0xFFFFFFFFFFFFFFFFFFFFFFFFFFFFFFFFFFFFFFFFFFFFFFFFFFFFFFFFFFFFFF NOT AND EQ JUMPDEST ISZERO PUSH2 0x6C4 JUMPI PUSH1 0x4 SWAP1 POP PUSH2 0x9EA JUMP JUMPDEST PUSH32 0x4900000000000000000000000000000000000000000000000000000000000000 DUP4 PUSH31 0xFFFFFFFFFFFFFFFFFFFFFFFFFFFFFFFFFFFFFFFFFFFFFFFFFFFFFFFFFFFFFF NOT AND EQ DUP1 ISZERO PUSH2 0x756 JUMPI POP PUSH32 0x5800000000000000000000000000000000000000000000000000000000000000 DUP3 PUSH31 0xFFFFFFFFFFFFFFFFFFFFFFFFFFFFFFFFFFFFFFFFFFFFFFFFFFFFFFFFFFFFFF NOT AND EQ JUMPDEST ISZERO PUSH2 0x764 JUMPI PUSH1 0x9 SWAP1 POP PUSH2 0x9EA JUMP JUMPDEST PUSH32 0x5800000000000000000000000000000000000000000000000000000000000000 DUP4 PUSH31 0xFFFFFFFFFFFFFFFFFFFFFFFFFFFFFFFFFFFFFFFFFFFFFFFFFFFFFFFFFFFFFF NOT AND EQ DUP1 ISZERO PUSH2 0x7F6 JUMPI POP PUSH32 0x4C00000000000000000000000000000000000000000000000000000000000000 DUP3 PUSH31 0xFFFFFFFFFFFFFFFFFFFFFFFFFFFFFFFFFFFFFFFFFFFFFFFFFFFFFFFFFFFFFF NOT AND EQ JUMPDEST ISZERO PUSH2 0x804 JUMPI PUSH1 0x28 SWAP1 POP PUSH2 0x9EA JUMP JUMPDEST PUSH32 0x5800000000000000000000000000000000000000000000000000000000000000 DUP4 PUSH31 0xFFFFFFFFFFFFFFFFFFFFFFFFFFFFFFFFFFFFFFFFFFFFFFFFFFFFFFFFFFFFFF NOT AND EQ DUP1 ISZERO PUSH2 0x896 JUMPI POP PUSH32 0x4300000000000000000000000000000000000000000000000000000000000000 DUP3 PUSH31 0xFFFFFFFFFFFFFFFFFFFFFFFFFFFFFFFFFFFFFFFFFFFFFFFFFFFFFFFFFFFFFF NOT AND EQ JUMPDEST ISZERO PUSH2 0x8A4 JUMPI PUSH1 0x5A SWAP1 POP PUSH2 0x9EA JUMP JUMPDEST PUSH32 0x4300000000000000000000000000000000000000000000000000000000000000 DUP4 PUSH31 0xFFFFFFFFFFFFFFFFFFFFFFFFFFFFFFFFFFFFFFFFFFFFFFFFFFFFFFFFFFFFFF NOT AND EQ DUP1 ISZERO PUSH2 0x936 JUMPI POP PUSH32 0x4400000000000000000000000000000000000000000000000000000000000000 DUP3 PUSH31 0xFFFFFFFFFFFFFFFFFFFFFFFFFFFFFFFFFFFFFFFFFFFFFFFFFFFFFFFFFFFFFF NOT AND EQ JUMPDEST ISZERO PUSH2 0x945 JUMPI PUSH2 0x190 SWAP1 POP PUSH2 0x9EA JUMP JUMPDEST PUSH32 0x4300000000000000000000000000000000000000000000000000000000000000 DUP4 PUSH31 0xFFFFFFFFFFFFFFFFFFFFFFFFFFFFFFFFFFFFFFFFFFFFFFFFFFFFFFFFFFFFFF NOT AND EQ DUP1 ISZERO PUSH2 0x9D7 JUMPI POP PUSH32 0x4D00000000000000000000000000000000000000000000000000000000000000 DUP3 PUSH31 0xFFFFFFFFFFFFFFFFFFFFFFFFFFFFFFFFFFFFFFFFFFFFFFFFFFFFFFFFFFFFFF NOT AND EQ JUMPDEST ISZERO PUSH2 0x9E6 JUMPI PUSH2 0x384 SWAP1 POP PUSH2 0x9EA JUMP JUMPDEST PUSH0 SWAP1 POP JUMPDEST SWAP3 SWAP2 POP POP JUMP JUMPDEST PUSH0 PUSH32 0x4900000000000000000000000000000000000000000000000000000000000000 DUP3 PUSH31 0xFFFFFFFFFFFFFFFFFFFFFFFFFFFFFFFFFFFFFFFFFFFFFFFFFFFFFFFFFFFFFF NOT AND SUB PUSH2 0xA43 JUMPI PUSH1 0x1 SWAP1 POP PUSH2 0xC6C JUMP JUMPDEST PUSH32 0x5600000000000000000000000000000000000000000000000000000000000000 DUP3 PUSH31 0xFFFFFFFFFFFFFFFFFFFFFFFFFFFFFFFFFFFFFFFFFFFFFFFFFFFFFFFFFFFFFF NOT AND SUB PUSH2 0xA95 JUMPI PUSH1 0x5 SWAP1 POP PUSH2 0xC6C JUMP JUMPDEST PUSH32 0x5800000000000000000000000000000000000000000000000000000000000000 DUP3 PUSH31 0xFFFFFFFFFFFFFFFFFFFFFFFFFFFFFFFFFFFFFFFFFFFFFFFFFFFFFFFFFFFFFF NOT AND SUB PUSH2 0xAE7 JUMPI PUSH1 0xA SWAP1 POP PUSH2 0xC6C JUMP JUMPDEST PUSH32 0x4C00000000000000000000000000000000000000000000000000000000000000 DUP3 PUSH31 0xFFFFFFFFFFFFFFFFFFFFFFFFFFFFFFFFFFFFFFFFFFFFFFFFFFFFFFFFFFFFFF NOT AND SUB PUSH2 0xB39 JUMPI PUSH1 0x32 SWAP1 POP PUSH2 0xC6C JUMP JUMPDEST PUSH32 0x4300000000000000000000000000000000000000000000000000000000000000 DUP3 PUSH31 0xFFFFFFFFFFFFFFFFFFFFFFFFFFFFFFFFFFFFFFFFFFFFFFFFFFFFFFFFFFFFFF NOT AND SUB PUSH2 0xB8B JUMPI PUSH1 0x64 SWAP1 POP PUSH2 0xC6C JUMP JUMPDEST PUSH32 0x4400000000000000000000000000000000000000000000000000000000000000 DUP3 PUSH31 0xFFFFFFFFFFFFFFFFFFFFFFFFFFFFFFFFFFFFFFFFFFFFFFFFFFFFFFFFFFFFFF NOT AND SUB PUSH2 0xBDE JUMPI PUSH2 0x1F4 SWAP1 POP PUSH2 0xC6C JUMP JUMPDEST PUSH32 0x4D00000000000000000000000000000000000000000000000000000000000000 DUP3 PUSH31 0xFFFFFFFFFFFFFFFFFFFFFFFFFFFFFFFFFFFFFFFFFFFFFFFFFFFFFFFFFFFFFF NOT AND SUB PUSH2 0xC31 JUMPI PUSH2 0x3E8 SWAP1 POP PUSH2 0xC6C JUMP JUMPDEST PUSH1 0x40 MLOAD PUSH32 0x8C379A000000000000000000000000000000000000000000000000000000000 DUP2 MSTORE PUSH1 0x4 ADD PUSH2 0xC63 SWAP1 PUSH2 0x1121 JUMP JUMPDEST PUSH1 0x40 MLOAD DUP1 SWAP2 SUB SWAP1 REVERT JUMPDEST SWAP2 SWAP1 POP JUMP JUMPDEST PUSH0 PUSH1 0x40 MLOAD SWAP1 POP SWAP1 JUMP JUMPDEST PUSH0 PUSH0 REVERT JUMPDEST PUSH0 PUSH0 REVERT JUMPDEST PUSH0 DUP2 SWAP1 POP SWAP2 SWAP1 POP JUMP JUMPDEST PUSH2 0xC94 DUP2 PUSH2 0xC82 JUMP JUMPDEST DUP2 EQ PUSH2 0xC9E JUMPI PUSH0 PUSH0 REVERT JUMPDEST POP JUMP JUMPDEST PUSH0 DUP2 CALLDATALOAD SWAP1 POP PUSH2 0xCAF DUP2 PUSH2 0xC8B JUMP JUMPDEST SWAP3 SWAP2 POP POP JUMP JUMPDEST PUSH0 PUSH1 0x20 DUP3 DUP5 SUB SLT ISZERO PUSH2 0xCCA JUMPI PUSH2 0xCC9 PUSH2 0xC7A JUMP JUMPDEST JUMPDEST PUSH0 PUSH2 0xCD7 DUP5 DUP3 DUP6 ADD PUSH2 0xCA1 JUMP JUMPDEST SWAP2 POP POP SWAP3 SWAP2 POP POP JUMP JUMPDEST PUSH0 DUP2 MLOAD SWAP1 POP SWAP2 SWAP1 POP JUMP JUMPDEST PUSH0 DUP3 DUP3 MSTORE PUSH1 0x20 DUP3 ADD SWAP1 POP SWAP3 SWAP2 POP POP JUMP JUMPDEST DUP3 DUP2 DUP4 MCOPY PUSH0 DUP4 DUP4 ADD MSTORE POP POP POP JUMP JUMPDEST PUSH0 PUSH1 0x1F NOT PUSH1 0x1F DUP4 ADD AND SWAP1 POP SWAP2 SWAP1 POP JUMP JUMPDEST PUSH0 PUSH2 0xD22 DUP3 PUSH2 0xCE0 JUMP JUMPDEST PUSH2 0xD2C DUP2 DUP6 PUSH2 0xCEA JUMP JUMPDEST SWAP4 POP PUSH2 0xD3C DUP2 DUP6 PUSH1 0x20 DUP7 ADD PUSH2 0xCFA JUMP JUMPDEST PUSH2 0xD45 DUP2 PUSH2 0xD08 JUMP JUMPDEST DUP5 ADD SWAP2 POP POP SWAP3 SWAP2 POP POP JUMP JUMPDEST PUSH0 PUSH1 0x20 DUP3 ADD SWAP1 POP DUP2 DUP2 SUB PUSH0 DUP4 ADD MSTORE PUSH2 0xD68 DUP2 DUP5 PUSH2 0xD18 JUMP JUMPDEST SWAP1 POP SWAP3 SWAP2 POP POP JUMP JUMPDEST PUSH0 PUSH0 REVERT JUMPDEST PUSH0 PUSH0 REVERT JUMPDEST PUSH32 0x4E487B7100000000000000000000000000000000000000000000000000000000 PUSH0 MSTORE PUSH1 0x41 PUSH1 0x4 MSTORE PUSH1 0x24 PUSH0 REVERT JUMPDEST PUSH2 0xDAE DUP3 PUSH2 0xD08 JUMP JUMPDEST DUP2 ADD DUP2 DUP2 LT PUSH8 0xFFFFFFFFFFFFFFFF DUP3 GT OR ISZERO PUSH2 0xDCD JUMPI PUSH2 0xDCC PUSH2 0xD78 JUMP JUMPDEST JUMPDEST DUP1 PUSH1 0x40 MSTORE POP POP POP JUMP JUMPDEST PUSH0 PUSH2 0xDDF PUSH2 0xC71 JUMP JUMPDEST SWAP1 POP PUSH2 0xDEB DUP3 DUP3 PUSH2 0xDA5 JUMP JUMPDEST SWAP2 SWAP1 POP JUMP JUMPDEST PUSH0 PUSH8 0xFFFFFFFFFFFFFFFF DUP3 GT ISZERO PUSH2 0xE0A JUMPI PUSH2 0xE09 PUSH2 0xD78 JUMP JUMPDEST JUMPDEST PUSH2 0xE13 DUP3 PUSH2 0xD08 JUMP JUMPDEST SWAP1 POP PUSH1 0x20 DUP2 ADD SWAP1 POP SWAP2 SWAP1 POP JUMP JUMPDEST DUP3 DUP2 DUP4 CALLDATACOPY PUSH0 DUP4 DUP4 ADD MSTORE POP POP POP JUMP JUMPDEST PUSH0 PUSH2 0xE40 PUSH2 0xE3B DUP5 PUSH2 0xDF0 JUMP JUMPDEST PUSH2 0xDD6 JUMP JUMPDEST SWAP1 POP DUP3 DUP2 MSTORE PUSH1 0x20 DUP2 ADD DUP5 DUP5 DUP5 ADD GT ISZERO PUSH2 0xE5C JUMPI PUSH2 0xE5B PUSH2 0xD74 JUMP JUMPDEST JUMPDEST PUSH2 0xE67 DUP5 DUP3 DUP6 PUSH2 0xE20 JUMP JUMPDEST POP SWAP4 SWAP3 POP POP POP JUMP JUMPDEST PUSH0 DUP3 PUSH1 0x1F DUP4 ADD SLT PUSH2 0xE83 JUMPI PUSH2 0xE82 PUSH2 0xD70 JUMP JUMPDEST JUMPDEST DUP2 CALLDATALOAD PUSH2 0xE93 DUP5 DUP3 PUSH1 0x20 DUP7 ADD PUSH2 0xE2E JUMP JUMPDEST SWAP2 POP POP SWAP3 SWAP2 POP POP JUMP JUMPDEST PUSH0 PUSH1 0x20 DUP3 DUP5 SUB SLT ISZERO PUSH2 0xEB1 JUMPI PUSH2 0xEB0 PUSH2 0xC7A JUMP JUMPDEST JUMPDEST PUSH0 DUP3 ADD CALLDATALOAD PUSH8 0xFFFFFFFFFFFFFFFF DUP2 GT ISZERO PUSH2 0xECE JUMPI PUSH2 0xECD PUSH2 0xC7E JUMP JUMPDEST JUMPDEST PUSH2 0xEDA DUP5 DUP3 DUP6 ADD PUSH2 0xE6F JUMP JUMPDEST SWAP2 POP POP SWAP3 SWAP2 POP POP JUMP JUMPDEST PUSH2 0xEEC DUP2 PUSH2 0xC82 JUMP JUMPDEST DUP3 MSTORE POP POP JUMP JUMPDEST PUSH0 PUSH1 0x20 DUP3 ADD SWAP1 POP PUSH2 0xF05 PUSH0 DUP4 ADD DUP5 PUSH2 0xEE3 JUMP JUMPDEST SWAP3 SWAP2 POP POP JUMP JUMPDEST PUSH32 0x496E707574206D757374206265206265747765656E203120616E642033393939 PUSH0 DUP3 ADD MSTORE POP JUMP JUMPDEST PUSH0 PUSH2 0xF3F PUSH1 0x20 DUP4 PUSH2 0xCEA JUMP JUMPDEST SWAP2 POP PUSH2 0xF4A DUP3 PUSH2 0xF0B JUMP JUMPDEST PUSH1 0x20 DUP3 ADD SWAP1 POP SWAP2 SWAP1 POP JUMP JUMPDEST PUSH0 PUSH1 0x20 DUP3 ADD SWAP1 POP DUP2 DUP2 SUB PUSH0 DUP4 ADD MSTORE PUSH2 0xF6C DUP2 PUSH2 0xF33 JUMP JUMPDEST SWAP1 POP SWAP2 SWAP1 POP JUMP JUMPDEST PUSH32 0x4E487B7100000000000000000000000000000000000000000000000000000000 PUSH0 MSTORE PUSH1 0x32 PUSH1 0x4 MSTORE PUSH1 0x24 PUSH0 REVERT JUMPDEST PUSH0 DUP2 SWAP1 POP SWAP3 SWAP2 POP POP JUMP JUMPDEST PUSH0 PUSH2 0xFB4 DUP3 PUSH2 0xCE0 JUMP JUMPDEST PUSH2 0xFBE DUP2 DUP6 PUSH2 0xFA0 JUMP JUMPDEST SWAP4 POP PUSH2 0xFCE DUP2 DUP6 PUSH1 0x20 DUP7 ADD PUSH2 0xCFA JUMP JUMPDEST DUP1 DUP5 ADD SWAP2 POP POP SWAP3 SWAP2 POP POP JUMP JUMPDEST PUSH0 PUSH2 0xFE5 DUP3 DUP6 PUSH2 0xFAA JUMP JUMPDEST SWAP2 POP PUSH2 0xFF1 DUP3 DUP5 PUSH2 0xFAA JUMP JUMPDEST SWAP2 POP DUP2 SWAP1 POP SWAP4 SWAP3 POP POP POP JUMP JUMPDEST PUSH32 0x4E487B7100000000000000000000000000000000000000000000000000000000 PUSH0 MSTORE PUSH1 0x11 PUSH1 0x4 MSTORE PUSH1 0x24 PUSH0 REVERT JUMPDEST PUSH0 PUSH2 0x1034 DUP3 PUSH2 0xC82 JUMP JUMPDEST SWAP2 POP PUSH2 0x103F DUP4 PUSH2 0xC82 JUMP JUMPDEST SWAP3 POP DUP3 DUP3 SUB SWAP1 POP DUP2 DUP2 GT ISZERO PUSH2 0x1057 JUMPI PUSH2 0x1056 PUSH2 0xFFD JUMP JUMPDEST JUMPDEST SWAP3 SWAP2 POP POP JUMP JUMPDEST PUSH0 PUSH2 0x1067 DUP3 PUSH2 0xC82 JUMP JUMPDEST SWAP2 POP PUSH32 0xFFFFFFFFFFFFFFFFFFFFFFFFFFFFFFFFFFFFFFFFFFFFFFFFFFFFFFFFFFFFFFFF DUP3 SUB PUSH2 0x1099 JUMPI PUSH2 0x1098 PUSH2 0xFFD JUMP JUMPDEST JUMPDEST PUSH1 0x1 DUP3 ADD SWAP1 POP SWAP2 SWAP1 POP JUMP JUMPDEST PUSH0 PUSH2 0x10AE DUP3 PUSH2 0xC82 JUMP JUMPDEST SWAP2 POP PUSH2 0x10B9 DUP4 PUSH2 0xC82 JUMP JUMPDEST SWAP3 POP DUP3 DUP3 ADD SWAP1 POP DUP1 DUP3 GT ISZERO PUSH2 0x10D1 JUMPI PUSH2 0x10D0 PUSH2 0xFFD JUMP JUMPDEST JUMPDEST SWAP3 SWAP2 POP POP JUMP JUMPDEST PUSH32 0x496E76616C696420526F6D616E206E756D6572616C0000000000000000000000 PUSH0 DUP3 ADD MSTORE POP JUMP JUMPDEST PUSH0 PUSH2 0x110B PUSH1 0x15 DUP4 PUSH2 0xCEA JUMP JUMPDEST SWAP2 POP PUSH2 0x1116 DUP3 PUSH2 0x10D7 JUMP JUMPDEST PUSH1 0x20 DUP3 ADD SWAP1 POP SWAP2 SWAP1 POP JUMP JUMPDEST PUSH0 PUSH1 0x20 DUP3 ADD SWAP1 POP DUP2 DUP2 SUB PUSH0 DUP4 ADD MSTORE PUSH2 0x1138 DUP2 PUSH2 0x10FF JUMP JUMPDEST SWAP1 POP SWAP2 SWAP1 POP JUMP INVALID LOG2 PUSH5 0x6970667358 0x22 SLT KECCAK256 0xB5 0xBA 0xEA EXTCODEHASH 0xBE SWAP4 0xC5 PUSH4 0xA148669 PUSH30 0xABD9544176952AC43AD0DC2355EF972FBEFA3A64736F6C634300081E0033 "
				},
				"gasEstimates": {
					"creation": {
						"codeDepositCost": "893800",
						"executionCost": "927",
						"totalCost": "894727"
					},
					"external": {
						"intToRoman(uint256)": "infinite",
						"romanToInt(string)": "infinite"
					},
					"internal": {
						"getPairValue(bytes1,bytes1)": "490",
						"getSingleValue(bytes1)": "infinite"
					}
				},
				"methodIdentifiers": {
					"intToRoman(uint256)": "0cbc513a",
					"romanToInt(string)": "cb159dfe"
				}
			},
			"storageLayout": {
				"storage": [],
				"types": null
			},
			"userdoc": {
				"kind": "user",
				"methods": {},
				"version": 1
			}
		}
	}
}